:100000006F205017130000001300000013000000C1
:100010001300000013000000130000001300000094
:100020001300000013000000130000001300000084
:08003000130000007300100032
:10003800000000000000000000000000B6030000FF
:1000480000000000000000000000000000000000A8
:100058000000000000000000000000000000000098
:100068000000000000000000000000000000000088
:100078000000000000000000000000000000000078
:100088000000000000000000000000000000000068
:100098000000000000000000000000000000000058
:1000A8000000000000000000000000000000000048
:1000B8000000000000000000000000000000000038
:1000C8000000000000000000000000000000000028
:1000D8000000000000000000000000000000000018
:1000E8000000000000000000000000000000000008
:1000F80000000000000000000000000000000000F8
:100108000000000000000000B4280000000000000B
:10011800BC280000000000000000000000000000F3
:1001280000000000000000000000000000000000C7
:1001380000000000000000000000000000000000B7
:10014800000000000000000000000000C4280000BB
:100158000000000000000000000000000000000097
:100168000000000000000000000000000000000087
:100178000000000000000000000000000000000077
:100188000000000000000000000000000000000067
:100198000000000000000000000000000000000057
:1001A8000000000000000000000000000000000047
:1001B8000000000000000000000000000000000037
:1001C8000000000000000000000000000000000027
:1001D8000000000000000000000000000000000017
:1001E8000000000000000000000000000000000007
:0801F8000000000000000000FF
:100200003D432A876373C3029377F700BDEFADE5E3
:10021000937606FF3D8ABA960CC34CC30CC74CC7F5
:100220004107E36BD7FE11E28280B306C3408A0622
:100230009702000096966780A6002307B700A306E2
:10024000B7002306B700A305B7002305B700A30432
:10025000B7002304B700A303B7002303B700A3022A
:10026000B7002302B700A301B7002301B700A30022
:10027000B7002300B700828093F5F50F93968500B1
:10028000D58D93960501D58D61B79396270097027A
:10029000000096968682E78086FA9680C1171D8FA9
:1002A0003E96E374C3F8A5B7011106CE814773905B
:1002B00007300945EF30302809CD9305F100094595
:1002C000EF30701D8347F100AA8581C70945EF30E3
:1002D00090189307800873900730F2400561828080
:1002E000411106C622C426C2814773900730130508
:1002F000C020EF20D0381DC51305C020EF20F039F5
:10030000B724002083C7C496372400208DE7EF0070
:100310003031EF003030EF00703185472305F4961F
:100320002386F4969307800873900730B2402244E6
:100330009244410182808347A4960547E394E7FEF7
:1003400037270020A30CF790EF00102FE1BF37757F
:1003500000004111130545A906C6EF20202681475C
:10036000739007301D45EF30405005C5370700201A
:10037000130787088347070093061003850793F741
:10038000F70F63E2F6022300F700B717004023924D
:1003900007421D45EF3000589307800873900730DF
:1003A000B2404101828023000700B72700200547A3
:1003B000238CE790D9BFEF30D01BAA85377500009A
:1003C000130585A6EF20801FEF30501AAA853775D8
:1003D0000000130585A7EF20601EEF30F019AA85F5
:1003E00037750000130545A8EF20401D01A0797165
:1003F0009D6522D4130600022A84938585A40A856C
:1004000006D626D2EF60C057C1641387F4FF930667
:1004100000141306000F9305C01213052008EF10F7
:10042000D01E7D141C100A043E94032704FE22549F
:10043000B2509386F4FF1386048092549305C01241
:100440001305200845616F10100F411122C4377445
:100450000000130584AA06C6EF2040163775000079
:10046000130545AEEF20801537750000130505B163
:10047000EF20C014377500001305C5B1EF2000143C
:10048000377500001305C5B5EF2040133775000020
:10049000130545BAEF208012377500001305C5BF5C
:1004A000EF20C01137750000130545C2EF20001181
:1004B00037750000130545C4EF2040103775000064
:1004C000130545C5EF20800F37750000130505C8DB
:1004D000EF20C00E130584AAEF20400E37750000F0
:1004E000130505C5EF20800D4164377700009306A2
:1004F000F4FF130787CA7D4689457945EF10B0039D
:10050000377700009306F4FF130707CC7D46930569
:10051000700D7945EF103002377700009306F4FF35
:1005200013060480130707CD9305700D1305C0084B
:10053000EF107000377700009306F4FF130787CDA4
:100540007D469305500F7945EF10E07E01479306F5
:1005500050121306000F930550120145EF10406D25
:10056000377700009306F4FF2945130747CE7D46F1
:100570009305C012EF10207C2244B2400545410192
:10058000BDB58967938707C23305F502411102C6DD
:10059000B24763E4A700410182800100B2478507AA
:1005A0003EC6FDB7130101BD23261142232481421B
:1005B0002322914223202143232E3141232C4141E8
:1005C000232A51412328614123267141232481415B
:1005D000232291412320A141814773900730B727FF
:1005E000002023880790B727002023860796B72787
:1005F0000020238507960546B7270020854513056B
:100600000020A38C0790EF208078054685451305D0
:100610002020EF20C0770546854513051020EF20E8
:1006200000777164930504200545EF302034D145EF
:100630001D45EF3040090146854513052020EF2078
:100640000075930504200945EF304032EF10003665
:1006500037750000130545CFEF105076EF100017E7
:1006600037740000B7740000377900006315050C7B
:1006700037750000130585D8EF1050741945853B78
:10068000E9330945EF304066B1451305C020EF203E
:10069000F00493078008739007304169930909803B
:1006A000B77A0000377B0000B77B0000377C000082
:1006B000377A00001545253B4E879306300C13060C
:1006C000600DE1457945EF10A0610D450D33EF0058
:1006D000207B2A841D45213B8A8522850525138799
:1006E0004ADB9306F9FF4E869305700D1305C0088B
:1006F000EF1060641305CBDBEF10506C8400930C9B
:10070000013C794D0944B387840083C507001385F4
:100710000BDC0504EF10906AE317A4FF1305CCB0BF
:1007200093840402EF109069E39E94FD13054ADC64
:10073000EF10D06841B709455D391305C4D1EF10FA
:10074000F067138504D4EF1070671305C9D5EF1057
:10075000F0661305800C3535EF10400701BF935745
:1007600085401307D00493F7870FB387E702135729
:100770003540930660091377C70F0E051375F50F03
:100780003307D702BA9775473305E5023E9513053F
:10079000050821851375F50F828031713ED0B7773A
:1007A00000004AD96EC703A987E283ADC7E2930769
:1007B000F6FF3EDCB77700003ADA03A707E383A72A
:1007C00047E326DB6AC93EC89387F6FF3EDE06DFB5
:1007D00022DD4ED752D556D35AD15ECF62CD66CBED
:1007E0002AD632D82ECACAC0EEC23AC2CAC4EEC68F
:1007F000CAC8EECABACCC247B684014DBECEC24703
:10080000BAD0BAD4BED2C247BED6D2576341FD02D7
:10081000FA506A54DA544A59BA592A5A9A5A0A5B0F
:10082000FA4B6A4CDA4C4A4DBA4D296182806A858E
:10083000EF5040114A86EE86EF30D046C2575257ED
:100840002A8AAE8A33C5E702EF50C00F2A86AE86E9
:100850005285D685EF40604306469646EF40700EBF
:1008600001468146AA892E84EF40C03663540500B4
:10087000814901446255EF50E00C4E86A286AA8A57
:100880002E8AEF4020356344A000D6895284A28589
:100890004E85EF40F07E2A8AEF50C00A2A86AE8647
:1008A0004E85A285EF40F009B3079A021246C24670
:1008B0002AC42EC64E85A28501443ED2EF30903E1A
:1008C000EF40107CB30795023ED482576348F40092
:1008D000D2470257050DBA973ECA05BF2285EF5091
:1008E00060062646B646EF30F03B82572A8AAE8A2B
:1008F00033C5F402EF5000052A86AE865285D685B0
:10090000EF40A0384646D646EF40B0030146814648
:100910002A8CAE89EF40002C63540500014C8149BC
:100920007255EF5020026286CE86AA8A2E8AEF4048
:10093000602A6344A000568CD289CE856285EF4040
:100940003074AA8CEF5000002A86AE866285CE8570
:10095000EF40207F2246B2462ACC2ECE6645F64591
:10096000EF40207E2A8BAE8B6246F24606559655A6
:10097000EF40207D2656B6562A8AAE8A6285CE85FD
:10098000EF305032EF40D06FD247AAD8B3898700FA
:10099000B2570504338797019257BADEBA9703C559
:1009A0000700EF40307A2A8CAE8C5286D6865A8564
:1009B000DE85EF40802D2A86AE866285E685EF4093
:1009C000C02C4658B25712572A8CC297B386E700FC
:1009D00003C50600BEDCAE8CEF40D0766246AAD8D6
:1009E000AEDAF2465A85DE85EF40202A4658D658C0
:1009F0002A86AE864285C685EF4020292A86AE86A5
:100A00006285E685EF30102AA25776572A8BAE8B87
:100A10003E9703450700EF40F0722246B2462A8C0B
:100A2000AE8C5285D685EF4040262A86AE866285FA
:100A3000E685EF4080252A86AE865A85DE85EF3032
:100A400070262257E6572A8AAE8ABA9703C507004E
:100A5000EF40506F2A8BAE8B6246F2462245B2457C
:100A6000EF40A0222A86AE865A85DE85EF40E0213F
:100A70002A86AE865285D685EF30D022EF40D066EA
:100A80001345F5FF2380A90089B5B387C5021D7101
:100A9000A2CCCEC6DAC06ED686CEA6CACAC8D2C48A
:100AA0003ECA930700003EC6B777000083A787E3DE
:100AB000D6C25EDE62DC66DA6AD8AA8D2E8BB28977
:100AC00002C805443ECC930C0000EE8B6E8D0149AC
:100AD000668C8144014A2DA8B3075D0183C70700D6
:100AE0003E853ECEEF503049F247AA8563F9870A2A
:100AF00062858504C204EF40707CC1802A8C850A1F
:100B000093F7FA0FE3EA37FD050A137AFA0F4E9DC1
:100B100063106A0B2685EF507052AA8A130A0000F0
:100B200091C4AA856285EF5000302A8A5245EF5061
:100B30009044AA855685EF50002FAA8493050000A3
:100B4000630A09004A85EF50704FAA856685EF5009
:100B5000802DAA855285EF5090092A896245A68585
:100B6000EF50F008A685EF50805FAA84CA854A85B9
:100B7000EF50E05EAA852685EF50605EB245AA84FC
:100B8000EF5080556354A00022C826C60504137494
:100B9000F40F9307F00FE318F4F2814735A8668548
:100BA00005094209EF40907113590901AA8C81BFD0
:100BB000814AB9B783460600C24505071377F70F88
:100BC000B3B6B600FD162300D6000506E31437FFC2
:100BD000850793F7F70FCE9B63916703F640664452
:100BE000D6444649B649264A964A064BF25B625CB1
:100BF000D25C425DB25D256182805E860147F9B7B5
:100C0000130101C52324813A2322913A2320213B59
:100C1000AA842E893284814513064038680836C676
:100C20002326113AEFF0CFDDB2467C08A6850147B6
:100C30006316270581487943130EE00FFD5E639824
:100C4000D80A8320C13A0324813A8324413A0329F4
:100C5000013A1301013B82803388C5000348080034
:100C60000506230F05011378F60F0505E36688FED8
:100C700005071377F70FF907A2955DBF3E8501467B
:100C8000DDB73306E5003388E5000348C8C70346EF
:100C9000C6C742963388E7008342B8C70348D8C71F
:100CA000169642966377CE003386E4007A96230048
:100CB000D60105071377F70FE375E4FC93F7FF0FF1
:100CC0006369F9021386F7FF938F170033078602D3
:100CD0000C1733066602130FF7FF054733856F02C3
:100CE000B38767022E95B2951017B297F1B7854773
:100CF000C1BF9387180093F8F70F91B713010181D3
:100D00002324817E2322917E2320217F232E317D67
:100D10002328617D2326117E232C417D232A517DAA
:100D200013010188AA84AE891306003181450A8522
:100D3000EFF00FCD85677D74938707F5096913047C
:100D4000043C8A97130909883E942699130B800363
:100D5000A68A014A03D50A00890AEFF05FA0B3070B
:100D600044012380A700050AE3166AFF9384040761
:100D700013048403E39E24FD85647D75938704F545
:100D80001304050B8A97938404F53E941305053CE0
:100D90008A947147F14793068003A2851306800366
:100DA0002695EFF09F9F22857146F145F9397146EE
:100DB00022858546F145A935138709041304840368
:100DC0009389093C7946A286894703C586FCB30509
:100DD000F70085072380A5008506E398C7FE130763
:100DE00007027104E31137FF130101788320C17EEC
:100DF00005450324817E8324417E0329017E8329C6
:100E0000C17D032A817D832A417D032B017D13014E
:100E1000017F828005468545130590206F1030774D
:100E200001468545130590206F107076054685456F
:100E3000130580106F10B0750146854513058010AD
:100E40006F10F07481453D456F10D07185453D456B
:100E50006F10507101468545130580206F10307367
:100E600005468545130580206F1070720146854543
:100E700021456F10D0710546854521456F103071B1
:100E8000397156D2B72A002083C79A9106DE22DC38
:100E900026DA4AD84ED652D45AD05ECE62CC66CA32
:100EA0006AC86EC663880712D1376D37613F793FD4
:100EB000513F7D37613F9306000C1306E00CE5457A
:100EC00013058002EF003024416437170140B70D4D
:100ED00000201304B4FD814C8144130C0780216D64
:100EE000A166938DCD08130A5402420A135A0A01CF
:100EF0008D47337AFA028149130B600A894B232A02
:100F0000DC00636C8B0E938739FBC207C183636679
:100F1000FB0E130607401C462328AC010100232AC0
:100F2000AC0101000446A2073729014093F4F40FF5
:100F3000DD8CC20485472328F980C18093D58400C5
:100F4000232A79810945EF20806F93F5F40F094535
:100F5000EF20E06E3717014023287981A16623280E
:100F6000AC0163187A038D47B3F7F9026393470323
:100F700063618B02938739FBC207C183636BFB00FC
:100F800093971C00850CEE97C20C2390970093DC7E
:100F90000C018509C20993D9090193070014E39054
:100FA000F9F60504420441809307B00CE31DF4F206
:100FB000D935493D613DB727002023860796B145C5
:100FC000B72700201305C02023850796A38C0A901D
:100FD000EF10D070F250625437050020D2544259BD
:100FE000B259225A925A025BF24B624CD24C424D99
:100FF000B24D1305C508216182802328AC01232A44
:10100000AC01B1BF4111014685453D4506C6EF1013
:101010001058054681451305C020EF10505737750D
:1010200000001305C5E3EF1060590546814513051F
:101030000030EF10D0550546814513051030EF10F4
:1010400010550546814513052030EF1050540546D4
:10105000814513053030EF10905305468145130547
:101060004030EF10D0520546814513055030EF1047
:1010700010520546814513056030EF10505105466A
:10108000814513057030EF109050B2404101F9BB1B
:101090002E86AA85130520046F10406E2E86AA8521
:1010A000130520046F10C07B797122D413941600AD
:1010B00026D22E9493141600AA9442044AD04ECEFF
:1010C000C20406D6418093070031AA892E89C180C7
:1010D00063F68700130404CF420441809305E100C6
:1010E0000D456D3F8345E10093F739000D45C199EA
:1010F000DD8D93972400B18BDD8D2307B100493F2F
:1011000093D5290093F5F50F6545593793D52400FC
:1011100093F5F50F6945AD3F9305F10013052003E5
:10112000B53F8347F100137779009355390093F762
:1011300007FCD98F1317340013778703D98F93F5E2
:10114000F50F5D45A307F100A1379355340093F5E2
:10115000F50F6145353FB250225492540259F2497D
:1011600045618280411191451305A00306C60D37E4
:101170009305000D13050004213FD1454945093F62
:1011800093050008130520032137D9455D4509372C
:1011900091456145F53D89456545DD3D9305B007C0
:1011A0006945FD3599450D45E53581453145CD35D7
:1011B00081455545F13D81451305E003D13D93053A
:1011C000A00313050007E935930550031305100725
:1011D000C135C54513052007653D81451305300719
:1011E000453D89451305200A653593051008454599
:1011F0004535930500021305A007593DF145130538
:10120000B0077935930580021305C0075135930562
:10121000C0031305D007AD3D930550051305E00746
:10122000853D930580061305F0079D3593056007FE
:1012300013050008B13D9305000813051008893D0A
:101240009305800813052008A1359305F0081305C0
:1012500030083D3D9305600913054008153D930591
:10126000300A130550082D359305F00A1305600860
:1012700005359305400C13057008193D9305700D55
:101280001305800831359305800E13059008093544
:101290009305000E4D45ED3B81450145D53B81450C
:1012A0004145FD33930500033545DD339305800249
:1012B0005145F93B95451305500AD93B9D4513050A
:1012C000B00AF9339305500713054002D133930553
:1012D0003006130550026D3B9305500A130560025A
:1012E000453B930580071305F0095D3393058006A0
:1012F0001305000A713B8D451305100A513B9305F8
:10130000F00D1305600A69339305F00D1305700A9B
:1013100041339305000F1305800A9D3B9305000997
:101320001305900AB533930540091305A00A8D33C0
:101330009305500E4D45A93B930510063945893B51
:101340009305B0043D45A93389455945913393052B
:1013500070037945353B894513051002153B93050C
:101360001009130520022D339D45130590020D33FE
:10137000AD4513053003293BAD4513055003093B2B
:10138000F5451305700329339305100713058003F2
:1013900001339305A00213059003DD3993058007FF
:1013A0001305C003F531930500041305D004CD31B6
:1013B000930500021305E004E13981451305900609
:1013C000C139930500041305B006D931E54513056D
:1013D00040077D399305F0041305D0085539814540
:1013E0001305E008753181451305F0085531814535
:1013F00013050009713981451305100951398145DB
:101400001305200971318145130560095131930598
:1014100000081305A009AD39930540081305000B1A
:101420008539B1451305100BA531B9451305200BBE
:101430008531930520081305300B9939A94513050B
:10144000800BB931D1451305300499319305000F54
:1014500013054004353993054003130550040D3935
:10146000930580051305600425319305800213055B
:10147000700439399305A0031305800411399305CD
:101480008008130590052931930580081305A005F0
:101490000131930540041305B005DD3E9305700648
:1014A0001305C005F536930590041305D005CD3618
:1014B000B9451305E005E93E914513054006C93ECF
:1014C0009305000213055006E136954513056006A5
:1014D000C136914513054009653EA14513055009E4
:1014E000453EA9451305C00665369305500513050D
:1014F000D006793E930500081305F004513E93058C
:1015000000081305000569368145130510054936A5
:101510009305200213052005A53E9305E00513055C
:101520003005BD36930500081305400595368D45F9
:101530002545B93EC5451305E006993E9305F009DA
:101540001305F006B13693050004130550058936DE
:101550009305000413056005253E9305000413055B
:1015600070053D36930500041305A0061536930556
:1015700000040545313E930500040945EFF05FB1D5
:101580009305700E4D45EFF0BFB081455545EFF026
:101590003FB09305E00913058005EFF07FAFA1454B
:1015A00013051004EFF0DFAE81451305F003EFF0F3
:1015B0003FAE954513055007EFF09FAD9305100E14
:1015C00013056007EFF0DFAC81451305C004EFF0B1
:1015D0003FAC854513057007EFF09FAB9305200CDA
:1015E0001305D003EFF0DFAAA5451305B004EFF013
:1015F0003FAA930500061305900CEFF07FA9930511
:10160000800313051004EFF0BFA8C5451305400380
:10161000EFF01FA889451305B003EFF07FA79305EE
:1016200090081305400AEFF0BFA681451305600935
:10163000EFF01FA69305000313057009EFF05FA5F7
:101640009305000213058009EFF09FA493050003A2
:1016500013059009EFF0DFA3930540081305A009D7
:10166000EFF01FA3930590021305B009EFF05FA2FE
:101670008D451305C009EFF0BFA19305C004130504
:10168000D009EFF0FFA09305F0031305E009EFF098
:101690003FA0914513058007EFF09F9F85451305F7
:1016A0009007EFF0FF9E9305000F1305800CEFF0FD
:1016B0003F9EBD4513059007EFF09F9D81451305A3
:1016C000800CEFF0FF9CC14513059007EFF05F9C85
:1016D0009305E0071305800CEFF09F9BA9451305C8
:1016E0009007EFF0FF9A930500081305800CEFF0C8
:1016F0003F9AAD4513059007EFF09F998545130577
:10170000800CEFF0FF98B14513059007EFF05F985C
:10171000BD451305800CEFF0BF97B5451305900745
:10172000EFF01F97930500021305800CEFF05F9612
:10173000A54513059007EFF0BF9593050008130525
:10174000800CEFF0FF94894513059007EFF05F944C
:101750009305000C1305800CEFF09F938D45130546
:101760009007EFF0FF92930500041305800CEFF053
:101770003F92954513059007EFF09F919305000365
:101780001305800CEFF0DF909305600213059007BE
:10179000EFF01F90B2408145254541016FF05F8F0A
:1017A000E1660147B70500201306803E9386066A6E
:1017B00083A70508B3D7C702B387A702B3D7D70259
:1017C0006363F700828001000507DDB7011106CED3
:1017D000EFF05F8313052003E137EF00D06205458A
:1017E000C137930500084945EFF09F8A1305200390
:1017F000453FEFF03F97130520035D379306001434
:101800001306000F9305E00A3145EFF0FF89130539
:1018100090079305F100EFF07F888347F1001307ED
:10182000600201456388E7001307F00F05456383F5
:10183000E7000945F24005618280E166014737060D
:1018400000209386066A83270608B307F502B3D7FC
:10185000D7026363F700828001000507EDB74111ED
:1018600022C485452A841305004006C6EF10804F28
:10187000814513051040EF10E04EA2850945EF1099
:10188000105C2244B24085451305104041016F10A1
:10189000604D411122C485452A841305004006C6C7
:1018A000EF10404C814513051040EF10A04B9355AD
:1018B00084000945EF10B0589375F40F0945EF10F7
:1018C00010582244B24085451305104041016F1065
:1018D0006049411122C481452A841305004006C68F
:1018E000EF104048814513051040EF10A047A28536
:1018F0000945EF10D0542244B240854513051040ED
:1019000041016F10204601114EC6AA891305A0029D
:1019100006CE22CC26CA3684AE844AC83289553FC8
:1019200013D589002D3F13F5F90F153F1355890085
:101930003D371375F90F25371305B002593F13D5FD
:101940008400313F13F5F40F193F13558400013F14
:101950001375F40F29376244F240D2444249B24928
:101960001305C0020561B5B741114AC09306F01DC9
:101970002A891306F0138145014526C206C622C4F2
:101980009304001449371304001E7D1442044A8551
:101990004180EFF01FF075F8FD14C204C180E5F43A
:1019A000B2402244924402494101828041110146E1
:1019B00085451305901006C6EF10603D014685452C
:1019C00013050040EF10A03C054685451305104067
:1019D000EF10E03B296601478146130606C48545A2
:1019E0000945EF10805B814513059010EF1080379B
:1019F00013054006EFF07FE4854513059010EF10C6
:101A0000603613052003EFF05FE34545EFF07FEC10
:101A100013058007EFF07FE213056003EFF07FEB23
:101A200013058004EFF0BFE31305A003EFF07FEA96
:101A300013055005EFF0BFE21305000FEFF07FE94B
:101A40001305300CEFF0BFE11305000FEFF07FE856
:101A500013056009EFF0BFE01305400BEFF07FE7DF
:101A60000545EFF0DFDF1305700BEFF09FE6130580
:101A7000600CEFF0DFDE1305000CEFF09FE51305BF
:101A80000008EFF0DFDD13055004EFF05FDD130514
:101A9000100CEFF01FE44D45EFF07FDC1305200C38
:101AA000EFF03FE31305700AEFF07FDB1305500CF6
:101AB000EFF03FE22945EFF09FDA1305800EEFF0DB
:101AC0005FE113050004EFF09FD91305A008EFF0C4
:101AD0001FD90145EFF0BFD80145EFF05FD81305DE
:101AE0009002EFF0DFD76545EFF07FD71305500A7E
:101AF000EFF0FFD613053003EFF07FD61305000E8D
:101B0000EFF03FDD1305000DEFF07FD52145EFF03D
:101B10001FD53D45EFF0BFD41945EFF05FD419450F
:101B2000EFF0FFD313053003EFF07FD3130500036D
:101B3000EFF0FFD213053003EFF07FD213057004EE
:101B4000EFF0FFD15D45EFF09FD14D45EFF03FD174
:101B50004D45EFF0DFD01305B002EFF05FD0130575
:101B60001003EFF0DFCF1305100EEFF09FD6130533
:101B7000000DEFF0DFCE2945EFF07FCE4545EFF0C9
:101B80001FCE2D45EFF0BFCD2545EFF05FCD1D45B4
:101B9000EFF0FFCC1305F002EFF07FCC130530031C
:101BA000EFF0FFCB13057004EFF07FCB130580033C
:101BB000EFF0FFCA5545EFF09FCA5945EFF03FCA15
:101BC0001305C002EFF0BFC913052003EFF03FC9B2
:101BD0001305000FEFF0FFCF1305C003EFF03FC870
:101BE0001305000FEFF0FFCE13059006EFF03FC78F
:101BF00013058007EFF07FC413051002EFF07FCDCF
:101C000013059002EFF0FFCCB24041657D15410114
:101C10006FF09FD5411122C4AE8632842A8606C653
:101C2000EFF07FCE22852244B24041016FF07FC6A3
:101C3000397122DC26DA5AD05ECE66CA06DE4AD870
:101C40004ED652D456D262CC6AC83304A6402A8BF0
:101C5000AE8CB384B640854B63478000814B01C492
:101C60003304C540FD5B054C63479000014C81C4C3
:101C7000B384D5407D5C2289635394002689814AD0
:101C8000014A8149130D190063503D03F25062541B
:101C9000D2544259B259225A925A025BF24B624CC8
:101CA000D24C424D2161828093950C0113150B019A
:101CB0003A86C18141813AC6229AEFF0BFF5A69AD1
:101CC000324763554901330A2A415E9B63555901E6
:101CD000B38A2A41E29C8509C20993D909016DB7EB
:101CE000011122CC3684AE8606CE26CA4AC84EC61C
:101CF00052C4AA89328A3A89AE84EFF07FF34A87C8
:101D0000A2864E86A6854E85EFF09FF24A87A28670
:101D10005286A2854E85EFF0BFF1A2866244F24062
:101D2000B2494A8752864249A6855285D244224A00
:101D300005616FF0FFEF5D71A6C29384F500CAC024
:101D4000C2041D694EDE52DC56DA5ED662D466D21B
:101D50006AD086C6A2C45AD86ECE2AC2AE8932C410
:101D600036C63A8A814A930BE005130CF007C1800E
:101D7000130989E4A14C754D83060A00A5CA138690
:101D800006FE1376F60F63EECB04924713953A00E6
:101D9000A6863E95420541811306750042064182A2
:101DA000CE85EFF05FB603040A00011412044A94D2
:101DB000930D0401014B83060400B3D66641858A66
:101DC00099CE2245050BEFF0DFACE3169BFF05042F
:101DD000E3928DFE93871A0093FAF70F29A03245FC
:101DE000D5B7E38986FF050AE3785DF9B640264456
:101DF00096440649F259625AD25A425BB25B225C5F
:101E0000925C025DF24D61618280011122CC4AC870
:101E10004EC652C456C206CE26CAAA892E84328A1B
:101E20003689BA8AEFF03FAE63778902F2406244A6
:101E3000D2444249B249224A924A056182808504CD
:101E40005685C204EFF0FFA4C180E37A9AFE050430
:101E500042044180D1BFCE84CDBF1C420547638977
:101E6000E70009476384E7029C4185079CC18280A3
:101E70005C420111620506CE61852EC68297B2458D
:101E8000F2409C4185079CC1056182801C462380ED
:101E9000A7001C4685071CC6C1BF230005009C4146
:101EA0001DCE05471308000381EB93070003A30031
:101EB000F500054632858280B3C5D702B3E7D70265
:101EC0001386070363D407003306F840B307E50021
:101ED0002380C7003A86AE870507F9FDE1BFF1D739
:101EE0000547A54833F6D70233D8D70293057603C2
:101EF00063E4C800930506033306E5002300B6003B
:101F00003A860507E3E8D7FAC287E9BF011122CC78
:101F100026CA4AC806CE2A84AE8432896348940011
:101F2000F2406244D2444249056182803686CA85C5
:101F30001305000236C6EFF05FF20504B246F9BFA2
:101F40009375F50F05456F101051757122C526C3A5
:101F5000CEDEAA84AE89328481451306C0044808C7
:101F600006C7D2DCD6DAE2D4E6D2EAD04AC1DAD861
:101F7000DED602C002C202C402C602C8EFE04FA809
:101F800003AA040083AA44005285D685EF30D015F9
:101F90002A8CEF3050222A86AE865285D685EF30C5
:101FA000401A2A8DAE8C5DE0B777000003A6074D7E
:101FB00083A6474DEF20704DEF307026B7770000B5
:101FC00003AA07E383AA47E3B777000003AB874D73
:101FD00083ABC74DAA842E8901445286D6866A8572
:101FE000E685EF20303F634B050663130C0893072B
:101FF00000032380F90005459307E002338AA90016
:102000002300FA00B3E72401930A1500CDE3CE9A2A
:102010009307000309052380FA00AA992380090089
:10202000BA402A449A440A49F659665AD65A465B37
:10203000B65B265C965C065D496182805286D686D8
:10204000EF20B0447D14E31B94FEBDB7B7770000CA
:10205000FD5403AA874D83AAC74DEDB76A85E6856F
:102060005A86DE86EF2070422A8DAE8C0504B5B705
:102070008A8701453E862947A546B375EC020505CA
:10208000910723AEB7FEB355EC0263E086034E879B
:10209000AA87FD1793962700B29694420507938668
:1020A0000603A30FD7FEF5F781BF2E8CF9B7930B6C
:1020B0004101014B254C294681462685CA85EF20E2
:1020C000800523A0AB00294681462685CA85050BDD
:1020D000EF10F04A910B6313090263619C025808E8
:1020E0001305F4FF93172B00BA972A8719EB5A951B
:1020F000D2872A87850719EB569505B7AA842E89BA
:102100005DBF23A007007D179107CDB77D179316FC
:1021100027005008B2969442938606032380D70086
:10212000D1BF1971A2DCA6DAD2D4AA842E8A328455
:102130008145130610026808DECEE2CCE6CA86DED0
:10214000CAD8CED6D6D2DAD0EAC8EEC6EFE04F8BE8
:10215000930700031D6C230EF10002C2854CA94BAE
:10216000130C8C4403050A000DE1F6506654124529
:10217000D6544659B659265A965A065BF64B664CC3
:10218000D64C464DB64D0961828093075002630AD2
:10219000F50A26864C0063067501EFF01FCCA28A73
:1021A000B9A43545EFF07FCB26864C002945F5B71D
:1021B00013691900328A83071A0013061A0063890B
:1021C000E706634CF7086388A70663890707814918
:1021D000254603071A0093071A00930607FD637547
:1021E000D6089306E002014B6303D70A814C03072C
:1021F0001A009306800693071A00630BD700930614
:10220000C0066307D7009306C0046303D700D287D4
:1022100003851700138A170013070002930785FA36
:1022200093F7F70F6366F7388A07E2979C43828734
:102230001369290041B713694900ADBF136909014A
:1022400095BF01491307B0029305D002930600031E
:102250001305000213083002B9BFE38BB7F4E3980B
:10226000D7F613698900B9B7B38979033E8AB6995D
:102270008DB7330B7B03B2873A9B03871700138616
:102280001700130707FDE3F6E6FE3E8A8DB7A54665
:10229000EDB71C40A94605462C0068083EC4EFF087
:1022A000DFBF7C08338DA700A247930A44002A842D
:1022B00063D4070213041500130BD002937789002F
:1022C000A9C763070B0026864C005A85EFF0FFB8BC
:1022D000634534034E8471A29377290091C7130498
:1022E0001500130BB002D9BF137B4900E3080BFCA8
:1022F00013041500130B0002D1B726864C001305FA
:102300000003EFF09FB50504E1B79377190099E753
:10231000A6865000CE852285EFF05FBF63030B14C5
:1023200026864C005A85EFF05FB325AA032D4400A2
:10233000930AC4000044014681466A85A2856AC8A2
:1023400022CAEF20300963530504B7070080A18F2C
:102350006AC83ECA1304D0025A8663930C00194619
:102360006C080808EFF07FBE137D1900137989000F
:102370002A8B6300090411C426864C002285EFF0E5
:10238000DFAD63403B034E8B6008B9A09377290013
:102390001304B002F1F3137449005DDC130400026E
:1023A00065BF26864C0013050003EFF01FAB050B3D
:1023B000C9BF63170D00A6865000CE85EFF01FB58C
:1023C00061D426864C002285EFF03FA975BF268692
:1023D0004C000504EFF07FA8030504006DF96308C5
:1023E0000D00A6865000CE855A85EFF03FB2050A53
:1023F00056848DBB1C40C14601466C0068083EC631
:10240000EFF0BFA97C08338DA70093778900930A6A
:102410004400137B09012A84ADCB814D630F0B006F
:1024200026864C0013050003EFF03FA326864C00E0
:1024300013058007EFF07FA2854D634034054E847D
:1024400063010B02639F0D0026864C0013050003F9
:10245000EFF0BFA026864C0013058007EFF0FF9F2A
:10246000090403050D0079E113791900E30109F866
:10247000A6865000CE8522858DBF26864C0013058A
:102480000003EFF09F9D05044DBF937719006394FF
:10249000071263040B0013042500A6865000CE85A6
:1024A0002285EFF0BFA6E30E0BFA26864C0013053B
:1024B0000003EFF09F9A26864C0013058007A5B510
:1024C0001C40930A4400A1463EC601466C006808C1
:1024D000EFF0BF9C7C08338DA700937789002A8496
:1024E0008DCFE35934DF26864C0013050003EFF04F
:1024F000DF960504FDB71C40930A440089463EC69A
:10250000E9B71C40930A4400C1463EC67DBF1C404B
:10251000930A4400A9463EC64DBF93771900B1F314
:10252000A6865000CE85EFF07F9E25BF7D1D2686B6
:102530004C00D5BB0305040026864C00930A4400DA
:10254000EFF0BF916DB5930A44000040E30104EA47
:102550002285EF40404E137919002A8D6317090038
:10256000A6865000CE85EFF07F9A63130B02030519
:10257000040015C126864C000504EFF01F8EC5BF70
:10258000630A0B0026864C007D1B0504EFF0FF8CD0
:102590000305040075F5E30C09E4A6865000CE851A
:1025A0006A85A1B51C401247930A440098C381B5BF
:1025B00026864C00DDB6E3190BE865B539713EDAC5
:1025C00085473EC2B72700002ED232D4938707F446
:1025D0005010AA85480006CE36D63AD842DC46DEF0
:1025E0003EC432C0EFF0FFB3F24021618280054665
:1025F00081451305E0406F00807905468545130548
:10260000E0406F00C0784111054685451305D04074
:1026100006C6EF00C077B240054685451305E04089
:1026200041016F00C0760147B70500201306803EC8
:102630009306400683A70508B3D7C702B387A7024E
:10264000B3D7D7026363F700828001000507DDB7C7
:10265000411185451305D04006C6EF00A0708545A1
:102660001305E040EF0000700545EFF0DFFB81450A
:102670001305E040EF00006F0545EFF0DFFA1305AA
:10268000D0408145EF00006EB240054541016FF03A
:102690009FF9411181451305D04006C6EF00806CBB
:1026A00081451305E040EF00E06B0545EFF0BFF713
:1026B00085451305D040EF00E06A0545EFF0BFF611
:1026C0001305E0408545EF00E069B2400545410152
:1026D0006FF07FF5411122C426C206C6AA842144A8
:1026E00093978401E187854563C3070081451305FE
:1026F000E0408D2D0545EFF01FF385451305D040D3
:1027000095250545EFF03FF281451305D040992D01
:102710007D14860405451374F40F93F4F40FEFF061
:102720009FF05DFCB24022449244410182804111FD
:1027300085451305E04006C622C42D2581451305B5
:10274000D0400D25EFF0BFEA2945EFF0DFED8545DC
:102750001305D040012D1305E040EF00206E2A84C0
:102760000545EFF05FECEFF05FE91305D0408145E0
:10277000D52B2285B240224441018280011106CE30
:1027800032C22EC42AC6EFF0BFEC3245EFF09FF400
:10279000EFF0FFF9A2452E85EFF0DFF3EFF03FF900
:1027A00012463285EFF01FF3EFF07FF8F24005613B
:1027B0006FF03FEE411126C28545AA841305E04023
:1027C00006C622C445232144EFF07FE28545130568
:1027D000D040492B0545EFF01FE583C704001305E2
:1027E000E04086072380F400912D19C583C70400BB
:1027F00093E717002380F40081451305D0409D2303
:102800007D1405451374F40FEFF0FFE161F0EFF074
:10281000DFDE2244B2409244054541016FF0BFE043
:10282000411181451305D04006C62D2B0545EFF01B
:102830009FDF85451305E04035230545EFF0BFDEFA
:1028400085451305D040392B0545EFF0DFDD130535
:10285000D0408145012BB240054541016FF0BFDCFE
:10286000011106CE32C422CC2EC62A84EFF05FDEE0
:102870002285EFF03FE6EFF09FEBB2452E85EFF0BB
:102880007FE5EFF0DFEAEFF0DFE0EFF07FDC13054C
:1028900014001375F50FEFF0FFE3EFF05FE9224648
:1028A0003285EFF03FF1EFF0BFF76244F24005618F
:1028B0006FF03FDEEFD05F9F73002030EFD05FA25C
:1028C00073002030EFD0BFA873002030130101BF88
:1028D000E1451305F077232611402324814023226C
:1028E0009140E12419C9377600003785070813069F
:1028F000064EE145130505F02D2937C401081306DE
:102900000020930504400A85792CB704000803A72A
:10291000C4108327C1106308F70237750000130540
:10292000C54FEFF0BFC91305401C212C1305501CE7
:10293000092C83A7C4100A869305002013050440C0
:102940002326F110FD26B717010837750000372739
:10295000002093870740130585512326F790EFF059
:10296000FFC58320C14003248140832441401301DB
:10297000014182807390123417D1012013018168C4
:1029800017550000130545E297D5FF1F938585670E
:1029900017D6FF1F1306866F63FAC5008322050052
:1029A00023A0550011059105E3EAC5FE17D5FF1FC9
:1029B0001305C56D97050020938585FC6377B500E9
:1029C000232005001105E36DB5FEB7820000938258
:1029D000828873A00230EF008002EFF03FEF97D2C1
:1029E000FFFF9382A26593E232007390523097E228
:1029F000FFFF938262BB7390123473002030B717CD
:102A000002409843B706FFF841111367170098C3B7
:102A1000D84337060200758FD8C39843B706F7FE30
:102A2000FD16758F98C39843B706FCFFFD16758F8A
:102A300098C3D843B70681FFFD16758FD8C33707F3
:102A40009F0098C702C402C69843C166558F98C3B9
:102A5000B7160240130700509C42F18F3EC6A247B2
:102A600085073EC4B24781E7A247E397E7FEB71761
:102A700002409C431397E7006354070885473EC60E
:102A800032478547631CF706B72702409843B706CD
:102A9000C1FFFD161367070198C39843719B98C344
:102AA00098431367270098C3B7170240D843D8C389
:102AB000D843D8C3D84313670740D8C3D843758FCA
:102AC000D8C3D843B7061D00558FD8C39843B7065F
:102AD0000001558F98C3984393166700E3DD06FE07
:102AE000D843B7160240719BD8C3D8431367270059
:102AF000D8C32147DC42B18BE39EE7FE41018280CF
:102B000002C6BDBFB7270240D847D8C7984B137736
:102B1000070809CFB7066745938636123797EFCD7A
:102B2000D4C31307B79AD8C3D4D3D8D3B727024096
:102B3000D847058B75FF98433D9B98C3984B98CB1E
:102B40008280411122C4370408002A9406C6EFF09F
:102B50007FFB2204B7270240D847058B75FF984BAF
:102B6000B7060200799B98CB984B558F98CBC0CB7A
:102B7000984B1367070498CBB7270240D847058BBB
:102B800075FF984B8176B2402244FD16758F98CB25
:102B9000014541018280B7070800BE95A205B295A4
:102BA00036866F30F05D6F30B05DB70708003E9538
:102BB00022058147FD561397070141836364B700DF
:102BC00005458280139727002A9718438507E30459
:102BD000D7FE01458280B7070800372702403E959F
:102BE0001C4B22052E95C165CD8F1CCB5C47858B78
:102BF000F5FF372702405C47898BF5FFC165014827
:102C0000FD153723024093170801C18363E5C7020E
:102C1000372702401C4BB7062000D58F1CCBB727A7
:102C20000240D847058B75FF984BC176FD16758F0E
:102C300098CB014582803377B800369783471700D9
:102C400083482700A207C208B3E71701834807009B
:102C500003473700B3E717016207D98F3307A8008E
:102C60001CC38327C300898BEDFF110869BF2D7139
:102C7000232C8110232A911023282111232631117E
:102C800023244111232E1110B307B600930900101D
:102C9000AA842E843289368A63D5F904130600107B
:102CA0000D8E42064182E137130609F02296138504
:102CB0001400B386894042064205D296418281457E
:102CC000418175378320C11103248111832441116F
:102CD000032901118329C110032A811001451561BF
:102CE0008280B3E7C5008D8B81E7EFF0DFEED9BFBF
:102CF000AA859306001001460A85EFF0DFE9180265
:102D000081473A9463EB27012685EFF09FE38A869B
:102D10001306001081452685C9BFB306FA0083C695
:102D200006003307F40085072300D7F093F7F70F69
:102D3000D1BF93178500C18313978700198DB28681
:102D40002E86931505014111C1813E8506C6EFF01F
:102D50001FF2372702405C47858BF5FFB2400145E3
:102D6000410182809357850013972700B707002001
:102D700093870700BA9705473315A70042059C4380
:102D800041816394E50088CB8280C8CB82809358D0
:102D900085003708002013972800130808003A9888
:102DA00037170240144F1143B3181301B3E8D8008A
:102DB0009377F50F0328080093962700232C17011B
:102DC00031473317D7009D481347F7FF63E3F804F3
:102DD000832708008D48B398D8007D8F93C8F8FFEB
:102DE000854733771701639AF500B396D500558F61
:102DF0002320E800B2856FF0FFF6B316D300558F9D
:102E00002320E8008280B317F300D98F2322F80033
:102E1000828083264800E1178A078D48B398F8001E
:102E2000758F93C8F8FF854633771701E39DD5FC6E
:102E3000B397F500D98F2322F8006DBF9377F50F74
:102E4000370700202181130707000A053A9514412E
:102E50001D4605453317F500636EF6008C428A0760
:102E60000D46B317F600ED8F89EB8846798D333523
:102E7000A0008280CC42E117DDB7C846C5BFB707C6
:102E8000014093870740DC4B05473315A700E98FC6
:102E90003385A7401335150082803707014083260C
:102EA000474185473395A700558D232AA740828047
:102EB00013F7C50F93F73500B7050140BA95944550
:102EC0008A073D473317F7001347F7FF758F98C5FB
:102ED00098453315F500598D88C582803717024013
:102EE0001C4F411122C426C21374F50F93E717003B
:102EF00006C61CCFAE842181A285EFF07FFBB7060A
:102F0000014003A606408547B397870013C7F7FF24
:102F1000798E23A0C64093850640D041798ED0C1DA
:102F20009045798E90C5D045718FD8C503A70640CE
:102F30005D8F23A0E64041476393E40498455D8F8D
:102F400098C5D845D98FDCC5B707002011479387AE
:102F50004701636B87020A04A2979843935757006F
:102F6000854693870704B396E600B24022448A0759
:102F700037E700E0BA9794C3924441018280A69556
:102F80009841D98F9CC1C9B76D141374F40F636451
:102F90008700D84BE1B7984FD1B7894763E7A700BF
:102FA0008548630D152B6300F548B7170240884F1D
:102FB00005683365050188CF884F1365450088CFC4
:102FC000B71701400545938807806398A51A03A5A4
:102FD00007803708FDFF7D183375050123A0A78002
:102FE00003A50780370803003365050123A0A780E8
:102FF00003A507803708F4FF7D183375050123A06A
:10300000A780414523A8A80003A507803708D0FF63
:103010007D183375050123A0A78003A50780370815
:1030200030003365050123A0A78003A5078037087A
:1030300040FF7D183375050123A0A78003A50780F5
:10304000370880003365050123A0A78003A507800A
:10305000370800FD7D183375050123A0A78003A55F
:103060000780370800F47D183375050123A0A78079
:1030700003A50780370800043365050123A0A78056
:1030800003A50780370800D07D183375050123A0FC
:10309000A78003A50780370800303365050123A00A
:1030A000A78003A50780370800800A05098123A0AF
:1030B000A78003A507803365050123A0A7800145EC
:1030C000370800201308080393172500C2979C4374
:1030D0000D681308080483D807008606D98E337854
:1030E00018012390070103D807007D771307F77FA6
:1030F000B3E606012390D70083D60700758F23908F
:10310000E70003D70700420741831377F7F7420729
:1031100041832390E70003D707001367072023901C
:10312000E7000547639BE54E3707002003270708A4
:10313000631E054C09833357C7028D4613160701DA
:103140004182014763E6C64C83D607000E07558FC0
:103150002390E70003D70700136707102390E700C9
:1031600003D70700136747002390E70003D7070042
:10317000136707042390E700828003A507803708C0
:10318000FDFF7D183375050123A0A78003A50780E7
:103190003708F4FF7D183375050123A0A78003A528
:1031A0000780370808003365050123A0A780414543
:1031B00023AAA80003A507803708D0FF7D18337520
:1031C000050123A0A78003A50780370840FF7D18CD
:1031D0003375050123A0A78003A5078037084000A9
:1031E000B70800403365050123A0A78003A5078029
:1031F000370800FD7D183375050123A0A78003A5BE
:103200000780370800033365050123A0A78003A5C5
:103210000780370800F47D183375050123A0A780C7
:1032200003A50780370800083365050123A0A780A0
:1032300003A50780370800D07D183375050123A04A
:10324000A78003A807801385F8FF3378A80023A080
:10325000078103A507803365150185B5B7170240BF
:1032600003A8C70191683368180123AE070103A8BA
:1032700087011368880023AC0701B71701409387C3
:1032800007C0639FA50AC8433708FDFF7D18337543
:103290000501C8C3C8433708030033650501C8C327
:1032A000C8433708F4FF7D1833750501C8C30565A9
:1032B00088CBC8433708D0FF7D1833750501C8C3D4
:1032C000C8433708300033650501C8C3C843370811
:1032D00040FF7D1833750501C8C3C8433708800017
:1032E00033650501C8C3C843370800FD7D18337531
:1032F0000501C8C3C843370800F47D1833750501BC
:10330000C8C3C8433708000433650501C8C3C843B0
:10331000370800D07D1833750501C8C3C843370886
:10332000003033650501C8C3C843370800800A056B
:103330000981C8C3C84333650501C8C32E8549B395
:1033400003A84700B708FDFFFD183378180123A232
:10335000070103A84700B708F4FFFD1833781801E8
:1033600023A2070103A84700B7080800370300405D
:103370003368180123A20701056823AA070103A8DF
:103380004700B708D0FFFD183378180123A20701C2
:1033900003A84700B70840FFFD183378180123A29F
:1033A000070103A84700B70840003368180123A2AB
:1033B000070103A84700B70800FDFD18337818017E
:1033C00023A2070103A84700B708000333681801C8
:1033D00023A2070103A84700B70800F4FD183378BB
:1033E000180123A2070103A84700B70800083368A3
:1033F000180123A2070103A84700B70800D0FD1851
:103400003378180123A2070183A847001308F3FFAC
:10341000B3F8080123A2170103A847003368680026
:1034200023A2070171B9B717024003A8C70121639E
:103430003368680023AE070103A887011368C8003A
:1034400023AC0701B7170140138807806396150F57
:1034500083284800370E00D07D1EB3F8C801232210
:10346000180183284800370E0030B3E8C801232232
:103470001801832848008A0893D8280023221801BD
:103480002328680003A807C0F578FD1833781801D1
:1034900023A007C103A807C08D683368180123A0C3
:1034A00007C103A807C0D178FD183378180123A0FD
:1034B00007C103A807C0B708FDFFFD183363680004
:1034C00023A067C003A807C03378180123A007C151
:1034D00003A807C0B708F4FFFD183378180123A02C
:1034E00007C103A807C0B70804003368180123A068
:1034F00007C103A807C0B708D0FFFD18337818012B
:1035000023A007C103A807C0B7083000336818011B
:1035100023A007C103A807C0B70840FFFD183378F0
:10352000180123A007C103A807C0B70880003368AB
:10353000180123A007C169B683284800370E00D0C0
:103540007D1EB3F8C8012322180183284800370ED6
:1035500000808A0893D82800232218018328480075
:10356000B3E8C80123221801232A680003A807C072
:10357000F578FD183378180123A007C103A807C008
:10358000D178FD183378180123A007C103A807C01C
:1035900091683368180123A007C103A807C0B708C2
:1035A000FDFFFD183378180123A007C103A807C049
:1035B000B70803003368180123A007C103A807C098
:1035C000B708F4FFFD183378180123A007C103A83A
:1035D00007C0B70808003368180123A007C103A873
:1035E00007C0B708D0FFFD183378180123A007C122
:1035F00003A807C0B70840FFFD183378180123A0BF
:1036000007C103A807C0B708400015B7058325B652
:1036100005071377F70F058235B603D70700420772
:1036200041831377F7EF420741832390E70003D7E5
:103630000700420741836D9B4207418335B6411124
:1036400002C6894763F5A7000145410182809317AF
:10365000250037050020130505033E951C4103D7BF
:1036600007001377070419E703D707001367070458
:103670002390E700C166F91603D78700098B15C7A9
:103680002386B700C16602C6F91603D78700058BEB
:1036900005C703D7C7000545420741833AC683D70C
:1036A0008700C207C1833EC64DB7324705073AC6F9
:1036B0003247E3F3E6FC49BF324705073AC63247D3
:1036C000E3F5E6FC51B77D151375F50F9D4763EDE6
:1036D000A7189D67938787540A053E951C418287EA
:1036E000B71602409C4E056713070780D98F9CCE02
:1036F00037370140835707C0FD15C205C207C18394
:1037000093F7F7C8C207C1832310F7C0C1818D6743
:103710002316B7C29387F7272314F7C2231807C2CB
:103720008547231AF7C0835707C093E71700231074
:10373000F7C08280371702401C4F8966FD15D58F70
:103740001CCF3737014083570740C205C181C207EC
:10375000C18393F7F7C8C207C1832310F740F177FD
:103760002316B7429387F7B72314F742231807426B
:103770008547231AF7408357074093E71700231024
:10378000F7408280371702405C4F93E717005CCF09
:10379000B707004003D70700420741831377F7C8F4
:1037A000420741832390E70071771307F7B7239609
:1037B000E70237070020032707087D1742074183E8
:1037C0002394E7020547239AE70003D7070013670E
:1037D00017002390E7008280371702405C4FFD15E9
:1037E000C20593E727005CCF3707004083570740A7
:1037F000C181C207C18393F7F7C8C207C1832310F1
:10380000F740F1772316B7429387F7B72314F742AF
:1038100085B7371702405C4FFD15C20593E70701D6
:103820005CCFC181B717004071772396B7021307A9
:10383000F7B779B7371702405C4F9306700293E7EA
:1038400007025CCFB71700402396D742E5769386F0
:10385000F6C92394D7428546239AD74003D7074019
:10386000136717002390E740828085476310F502B5
:10387000B737014083D607C103D7C7C08147858AC0
:103880004207418385C6937717000DA0A1476311B6
:10389000F502B737014003D7074103D5C740814739
:1038A00013770708420541811D8115E33E8582801B
:1038B00089476311F502B707004003D7070103D515
:1038C000C7008147098B420541816DD305819377FC
:1038D0001500E9BF8D47631FF500B707004003D708
:1038E000074103D5C7408147118B420541810981BA
:1038F00079FF6DBF1D478147E31AE5FA371700408E
:1039000083560741130707400357C700858A4207BC
:1039100041838DBF7D151375F50F9D4763E5A702A4
:103920009D67938787560A053E951C418287B73766
:10393000014079572398E7C08280B73701401307C9
:10394000F0F72398E7408280B70700406D5723982F
:10395000E7008280B70700405D57E5B7B717004022
:103960007957F5B7B71700407957E1BF9306F5FFD0
:1039700013F7F60F9D4763EDE71479151375F50FEF
:10398000994763E9A7009D67938787580A053E9585
:103990001C418287B7170240984F1166518F98CF0C
:1039A000984F7D763D061367170098CF984F1367A1
:1039B000470098CFB717014003A74780718F23A214
:1039C000E78003A7478005661306068A518F23A266
:1039D000E780B7070140D843D8C335A8B7170240DE
:1039E000D84F37060200518FD8CF984F4176130633
:1039F000F60F1367470098CFB717014003A707805A
:103A0000718F23A0E78003A707801566130606B011
:103A1000518F23A0E780B70700208A069387C7034A
:103A2000B6979843F977FD178356C700F58F23168D
:103A3000F7000356C700B747014093870780420647
:103A400041824D9A420641822316C700631AF71C31
:103A5000B777D21A93870748B3D7B70293064006C1
:103A60009205370610004116B3F7D70292079387E5
:103A70002703B3D7D702B7A64A0493860620B3D646
:103A8000B6029206F18ED58FC207C1832314F700C8
:103A90002310070083560701ED779387F77FF58F93
:103AA0002318F700835747018966C207C18393F73C
:103AB00057FDC207C183231AF7008357C70093E756
:103AC000C7002316F7008357C700D58F2316F700CA
:103AD0008280B7170240D84F37060400518FD8CFE5
:103AE000984F41761306F60F1367870098CFB717E4
:103AF000014003A747C0718F23A2E7C003A747C0B7
:103B00001566130606A0518F23A2E7C029B7B71781
:103B10000240D84F37060800518FD8CF984F4176D2
:103B20001306F60F1367070198CFB7170140D84364
:103B3000718FD8C3D8431566130606A0518F69BD8F
:103B4000B7170240D84F37061000518FD8CF984F83
:103B50003706F1FF7D161367070198CF984F13675B
:103B6000070298CF371701405C43F18F5CC383276E
:103B700007407D761306F60FF18F2320F7405C4354
:103B800037060A00D18F5CC38327074005661306FA
:103B90000680D18F2320F740BDBDB7170240D84F14
:103BA00013670704D8CF984F1367070198CFB7174B
:103BB00001409843137707F098C398431367A7040D
:103BC00098C391BDB7170240D84F41761306F60F40
:103BD00013670708D8CF984F1367070198CFB71717
:103BE00001409843718F98C398431566130606A049
:103BF000518FF9B7B7170240D84F370601FF7D162E
:103C000013670710D8CF984F1367070198CFB717DE
:103C100001409843718F98C3984337064A00C9BF43
:103C2000B7A74A049396550093870720B3D7D702C6
:103C3000B7061000C116130640069207F58FB74667
:103C4000690D938606A4B3D6B602B3F6C6029206F1
:103C5000B3D6C6020DBD7D151377F50F9D4763EAF8
:103C6000E70293172500370500201305C5033E958D
:103C70001441C1679387B7BB03D7060013770708C2
:103C800019C7C205C1812392B60005458280FD1780
:103C9000E5F7014582807D151377F50F9D4763F6A3
:103CA000E700238005000145828093172500370532
:103CB00000201305C5033E951441C1679387B7BB28
:103CC00003D706001377070209CB03D546008547C3
:103CD0002380F5001375F50F8280FD17F5F323801F
:103CE00005001305F00F82807D151377F50F9D47B2
:103CF00063E2E70437070020931725001307C70383
:103D00003E971443370500201305C50503D7C600A9
:103D10003E95136707022396E600184185469357A0
:103D2000570093870704B396E6008A0737E700E059
:103D3000BA9794C382807D151377F50F9D4763E58D
:103D4000E70293172500370500201305C5033E95AC
:103D5000184101458357070093F7070299C7035598
:103D6000C700158105898280014582807325103442
:103D70008280732520348280732530348280B68718
:103D8000B2882A832E88639D061463F9C50A4167A9
:103D9000636EE61AB70700016363F6349356860133
:103DA000E14717470000130727903697034707009E
:103DB000BA97130700021D8F19CB3398E500B3574C
:103DC000F500B318E60033E807013313E50013D616
:103DD00008013355C80293960801C1829357030125
:103DE0003377C802B385A60242073368F700637AC7
:103DF000B80046989307F5FF636418016367B8300D
:103E00003E853308B8403357C802420313530301B9
:103E10003378C802B386E602420833686800637BE1
:103E2000D80046989307F7FF636518017917636315
:103E3000D8003E874205598D8145828001E60547BD
:103E4000B358C702416763EAE80EB707000163ECA5
:103E5000F82893D68801E147174700001307C78465
:103E6000369783460700BE9693070002958FE5EBD1
:103E7000939E08013387154113DF080193DE0E017D
:103E80008545935703013355E7033377E703B306BB
:103E9000D5034207D98F63FAD700C6971307F5FFFA
:103EA00063E4170163E6D7263A85958F33D7E70396
:103EB000420313530301B3F7E703B30ED703C2075B
:103EC000B3E7670063FBD701C6979306F7FF63E587
:103ED0001701791763E3D70136874205598D828030
:103EE00063E2D504C16763E2F604B707000163E447
:103EF000F61E13D786016148973700009387C77A6B
:103F0000BA9703C70700130E00024297330EEE4024
:103F1000631A0E0C63EDB61C3335C500134515004E
:103F2000814582808145014582809307F00F63F3CC
:103F3000D71C13D786002148C1B71307F00FC686D8
:103F4000E37C17F193D68800A14739B71307F00F28
:103F5000B286E378C7E493568600A14799B5B39833
:103F6000F80033D6D50013DF0801335EE60333973C
:103F7000F500B356D500558F939E080193DE0E01D0
:103F80003313F50093550701B376E603B387CE03E9
:103F9000C206CD8E63FBF600C6961306FEFF63E4F1
:103FA000161763F2F616791EC6969D8E33D6E60373
:103FB00093170701C183B3F6E6033385CE02139747
:103FC00006015D8F637BA70046979307F6FF636842
:103FD00017136376A7127916469793150E01098F6A
:103FE000D18D45B5B357E600B396C601DD8E33D308
:103FF000E50013DF0601B357E303939E060193DE4A
:104000000E013398C5013357E50033680701935813
:1040100008013316C6013373E303B385FE0242037E
:10402000B368130163FBB800B6981387F7FF63EA20
:10403000D80C63F8B80CF917B698B388B84033D7E2
:10404000E803420813580801B3F8E8033383EE028B
:10405000C208B3E5080163FB6500B6951308F7FFD6
:1040600063EDD50863FB65087917B695C207416F04
:10407000D98F1307FFFFB3F6E70093D80701718FBD
:104080004182B38EE602B3856540B386C60213D87B
:104090000E013387E802BA96C2963386C80263F3EC
:1040A000E6007A9693D80601469663E2C5026385D8
:1040B000C5003E858145828041677D17F98EC20625
:1040C000B3FEEE003315C501F696E374D5FE1385F5
:1040D000F7FF8145828013D70601414831BD9356D1
:1040E0000601C1477DB993D60801C147B5B38145E3
:1040F000054582803687014801B5428785BF3E86E7
:10410000E9BDBA871DBF328E4DB579154698D5B930
:104110007915C69759BBB68732882A832E872E8E8B
:104120006393061463F1C50A41676378E61A1307BF
:10413000F00FB2866375C70093568600A147173704
:1041400000001307675636970347070093080002DD
:10415000BA97B388F840638C0800B3951501B3573C
:10416000F5003318160133EEB7003313150113565B
:104170000801B357CE02131508014181935603017C
:10418000337ECE02B307F502420E3367DE0063785A
:10419000F7004297636507016373F70042971D8F2D
:1041A000B356C70293170301C1833377C7023305A0
:1041B000D5024207D98F63ECA7083385A740335552
:1041C00015018145828001E605473358C7024167E2
:1041D000636CE80EB70700016365F82A93568801FF
:1041E000E147173700001307274C369703470700AE
:1041F00093080002BA97B388F840639A081E131E0A
:104200000801B385054113560801135E0E011357CB
:104210000301B3D6C502B3F5C502B386C603C20512
:104220004D8F6377D700429763640701636AD7268F
:10423000158F3355C7024203135303013377C70267
:104240003305C5034207B367670063F8A700C29749
:1042500063E5070163F3A700C2973385A740335591
:104260001501814582802A88E3EED5F4C16763E5B4
:10427000F604B707000163E2F62013D38601E14894
:1042800097370000938747429A9703CE070013039E
:104290000002469E3303C3416319030463E4B6007E
:1042A0006369C5003308C540958D333705013387F1
:1042B000E5404285BA8582809307F00F63FBD71CE7
:1042C00013D38600A1486DBF1307F00FC286E37AAF
:1042D00007F193568800A14729B7B7070001636625
:1042E000F61A93568601E14799BDB357C601B396B6
:1042F0006600DD8EB3D8C50113D70601B3DEE80230
:10430000139F0601B357C501135F0F01B3956500F5
:10431000DD8D13D805013316660033156500B3F83B
:10432000E802B307DF03C20833E80801637BF80043
:1043300036989388FEFF6363D8166371F816F91EEA
:1043400036983308F840B357E802C205C181337884
:10435000E802330FFF02131708014D8F637BE7015B
:1043600036979385F7FF6369D7126377E713F917D9
:104370003697C20EC162B3EEFE001388F2FFB3F8A7
:104380000E019355060193DE0E0133780601B38FBB
:1043900008033307E74133880E0393D70F01B3882F
:1043A000B802C298C697B38EBE0263F30701969E09
:1043B00041687D1893D50701B3F70701C207B3FF22
:1043C0000F01F695FE976362B70A630EB708B3074D
:1043D000F5403335F500B305B740898D339EC501EF
:1043E00033D567003365AE00B3D5650082803318DE
:1043F000180133D7F50013560801B356C702131E30
:104400000801B357F500135E0E01B3951501DD8D5C
:1044100093DE0501331315013377C702B307DE02BC
:1044200093160701B3E6D60163F8F600C29663E57A
:10443000060163F3F600C2969D8E33D7C6029397AA
:104440000501C183B3F6C6023307EE029395060158
:10445000DD8D63F8E500C29563E5050163F3E500D2
:10446000C295998D6DB3E374F5F63386C740B3B743
:10447000C700B6979D8DB28799BF13D30601C14877
:1044800001B593560801C147A9BB93560601C14720
:104490007DB136838148EDB3AE87E1BDC68E55B59B
:1044A000429779B33708100001117D183377B800AF
:1044B00026CA3378D80093D4450113D34601131E7E
:1044C00037004EC61357D5010E089357D60193F403
:1044D000F47F1373F37F06CE22CC4AC893D9F5013B
:1044E00093DEF6013367C701131F350033E8070178
:1044F000931F3600338E64406380D9196356C0130E
:104500006304031CB70680009307F07F3368D8006C
:10451000638FF4369307800363C0C735FD4763CDCF
:10452000C747130500023305C541B3D7CF01B31602
:10453000A8003399AF00DD8E33392001B357C8018D
:1045400033E926011D8F33092F41B3372F0133067D
:10455000F7409317860063D40724370780007D1740
:104560003374E600630C042C2285EF20003A130715
:1045700085FF93070002998FB357F9003316E400C3
:10458000D18F3319E9006341972A33059740130609
:1045900015007D47634DC73813070002118FB356CE
:1045A000C9003319E9003397E700558F33392001EB
:1045B0003369270133D6C70081449377790081CFCF
:1045C0001377F90091476308F7001307490033395F
:1045D00027014A963A899317860063D6071C1385EC
:1045E00014009307F07FCE856304F520B70780FFA2
:1045F000FD17F18F9398D70113593900A607B3E837
:104600002801B1831375F57F9396C7005205F240D8
:104610006244B182FE05C98ECD8ED2444249B24970
:104620004685B68505618280631E0E0A13831400D9
:104630001373E37F63170322B367E701B368F801DD
:10464000639D041A63870740638608443309FF416A
:10465000B307074133362F013386C74093178600CF
:1046600063D6074C3389EF41B307E84033B62F01D7
:104670003386C740F68991B76350C00F6300030CBF
:10468000B70680009307F07F3368D800638AF43A56
:104690009307800363CBC713FD4763DFC735130957
:1046A0000EFE93070002B3562801630AFE001309A9
:1046B00000043309C94133192801B3EF2F013339FD
:1046C000F0013369D90031A2B367F801638A071C8E
:1046D0009307FEFF638C07389306F07F6309DE1AA9
:1046E0003E8E0DBDB305934063910422B367E7018D
:1046F000638707329387F5FF638107449306F07F52
:10470000638CD520BE859307800363CCB72AFD4711
:1047100063CFB73C930700028D8F3319F700B35670
:10472000BF00B317FF003369D900B337F000335728
:10473000B7003369F9003308E84041ACB367F801CA
:10474000638007349307FEFF638A07209306F07F98
:104750006308DE2E3E8E2DBF631E0E14938614005A
:1047600093F7E67F63910734B367E7016395042C01
:104770006380073EB367F801638E07303309FF019A
:10478000B3070701333FE9013386E701931786003A
:1047900063D70700B70780FFFD177D8E85449377A9
:1047A0007900E39F07E09317D60193583900B3E8E7
:1047B000F800935736001307F07F638DE404B207C7
:1047C000B18313F5F47FCE8581B53369F8013339B0
:1047D00020017A99B337E9013386E7009317860001
:1047E000E3DF07FA85049307F07F6396F418CE851C
:1047F0001305F07F8147814801BDC1EB6384083A0E
:10480000931636009317D8018D82B3E8D700F68946
:1048100093573800B3E7F800F9DB81451305F07FC3
:10482000B70708008148CDB3370680FF7D167D8E1F
:1048300093777900998CE39507D8B5B74A85EF202F
:10484000C00C13078501FD47E3D5E7D2130685FFAA
:10485000B317C900014905BB3369F8013339200199
:10486000DDB13309FF413306074133342F013304EF
:1048700086409317840063CD0724B3688900E393CF
:1048800008CE8147814981441DBFE39808F80E0591
:104890009317D7010D81B3E8A700935737009DBF49
:1048A0000E059317D7010D81B3E8A700F284935743
:1048B000370011B73305934063820412B7068000B6
:1048C0009307F07F558F630DF32E9307800363CB1F
:1048D000A720FD4763C3A72A93070002898F3319D6
:1048E000F700B356AF00B317FF003369D900B337F1
:1048F000F0003357A7003369F9003A987E99B3372F
:10490000F901338607019A84D1BDB7068000930769
:10491000F07F558FE319F3DE931736008D839318DC
:10492000D801B3E81701F68993573800E5B51307A6
:1049300015FE9306000233D7E700630AD6009306FC
:1049400000043386C6403396C7003369C900333943
:1049500020013369E9000146814491B53309FF0123
:10496000B30707013336E9013E9693178600854465
:10497000E3D707E28944B70780FFFD17F18F13578C
:10498000190013791900336927019398F70133E966
:10499000280113D6170015B113090EFE9307000264
:1049A000B3562801630AFE00130900043309C94104
:1049B00033192801B3EF2F013339F0013369D900DE
:1049C00059B63369E7013339200133892F41B3B731
:1049D0002F013306F8409A84F689A5BEB367E70134
:1049E000638207189307F5FF6384071C9306F07F23
:1049F0006304D5123E85D1BD93070002B387C7413A
:104A0000B316F8003399FF0033D6CF01D18E333976
:104A10002001B357C80133E926013E975DBB9317C8
:104A200036008D839318D801B3E81701AE849357ED
:104A30003800F68949B3EDC33369F801E31F09DC97
:104A40000E059317D7010D81B368F5009357370012
:104A5000D1B36381080E931636009317D8018D8267
:104A6000B3E8D700F6899357380091BB3309FF416B
:104A7000B3070741333F2F013386E7418544D1BC5B
:104A80000E059317D7010D81B368F500F284935793
:104A9000370015B30E059317D7010D81B3E8A700B2
:104AA0009357370029BB9307F07FE382F6D433098D
:104AB000FF013336E901B3070701B2979398F70175
:104AC0001359190033E9280113D61700B684C1B968
:104AD0003389EF413307E84033B62F013304C74031
:104AE000F68949B43369E7013339200101BD938761
:104AF00005FE93060002B357F700638AD5009306BC
:104B00000004B385B6403317B700336FEF00333975
:104B1000E0013369F90055BD931736008D83931872
:104B2000D801B3E8170193573800EDB1B368C90055
:104B3000E39708C68147814959B13389EF41B307EB
:104B4000E84033B62F013386C740F689854411B457
:104B5000931636009317D8018D82B3E8D700935788
:104B60003800B1B9931636009317D8018D82B3E897
:104B7000D700AA84935738003DB9930705FE9306E2
:104B80000002B357F700630AD5009306000433858B
:104B9000A6403317A700336FEF003339E0013369C4
:104BA000F900A9BB81451305F07FB7070800A9BC30
:104BB0003309FF01B30707013336F9013E9675B398
:104BC000931636009317D8018D82B3E8D700935718
:104BD000380089B113D74501B7071000FD1713D866
:104BE00046011377F77F9308F07F33FEB700AA8E54
:104BF000F58FFD81328F1378F87FFD82630E1703E6
:104C0000630D180129E3B368AE00631F08005D8ED1
:104C100001EE0143638C080421A8B3E8C7000943EF
:104C2000639608046DD305A0638408046385D502E8
:104C300005438DCD7D531DA8B368AE00094363972E
:104C40000802630AE802631408005D8E75D2E391DE
:104C5000D5FEE34FE8FC63490701E3EBC7FD630FB3
:104C6000FE0001436374FE00F1D505431A8582807E
:104C7000EDFE7D53E5BF5D8E79DACDBFE36ADFFBE4
:104C80000143E3F5EEFFF5F175B739714AD813D951
:104C900045014ED652D456D29399C50006DE22DC89
:104CA00026DA5AD05ECE1379F97F2A8A93D9C900C1
:104CB00093DAF501630D090E9307F07F6306F91887
:104CC0001354D5018E09B36934013704800033E4ED
:104CD000890093143500130919C08149814B13D7FA
:104CE0004601139AC6001377F77FB285135ACA009C
:104CF00013DBF601630B07109307F07F6303F704E0
:104D00009357D6010E0A33EA4701130717C0B707B6
:104D10008000B367FA00931536003A99814833C78B
:104D20006A01BD463A851308190063E8361717363D
:104D30000000130666878A09B29983A60900B29615
:104D40008286B367CA001309F97F6399071293E952
:104D5000290081458948E1B701479307F07F37046F
:104D6000080081443204D20731807E075D8C598C63
:104D7000A285F250625426854259D254B259225A21
:104D8000925A025BF24B216182805A853E84AE8446
:104D9000C68B8947638DFB0E8D47E38FFBFA8547F2
:104DA0002A87639EFB3881470144814465BF33E411
:104DB000A90061C036C632C4638C092A4E85EF1043
:104DC000D0342246B246AA87130755FF7544938410
:104DD00087FF198CB399990033548A0033643401E6
:104DE000B3149A0013D746011309D0C0139AC60012
:104DF0001377F77F3309F9408149814BB285135A04
:104E0000CA0013DBF601E31907EEB367CA00B1C7A6
:104E1000630F0A22528532C4EF10302F22462A87B0
:104E2000930655FFF547930587FF958F331ABA0010
:104E3000B357F600B3E74701B315B6003309E940AD
:104E40001309D9C08148E1BD33E4A90001ECA149AF
:104E500081441309F07F894B59B593E919008145C5
:104E6000854875BD4E84AA84B1491309F07F8D4BE6
:104E7000BDB5914981440149854B95B593E9390008
:104E8000D2878D4869BD89475685E397FBF02A870D
:104E90009307F07F01448144F1B5C16E1386FEFF94
:104EA00093D6040113DE0501F18CF18D3386950252
:104EB0003383B6029358060133059E021A95AA98C9
:104EC000B382C60363F36800F692C16F1383FFFFDA
:104ED00033F5670093D30701B3F76800C207337354
:104EE00066003E933306950293D80801B387A60265
:104EF000135F0601B3849302BE94FA94B38E7602D4
:104F000063F3F400FE9E416A9307FAFF935F040186
:104F1000B376F400B3F9F4007D8EC1803384D502FA
:104F2000C209338FD401B299CE98B307DE02935EE3
:104F30000401B385BF02AE97BE9E330EFE0363F33A
:104F4000BE00529EC1679385F7FF33F6BE006D8C9D
:104F50004206229693DE0E01B305D502769E338576
:104F6000AF0213D40501B386D302AA96A296B38FDB
:104F7000F30363F3A600BE9F41657D15B3F7A6005A
:104F8000C2076D8DAA97B3855800B3B93501FA975A
:104F9000B2953384370133B6C500B30EC4013385EF
:104FA000CE0033343401B3B7E701C18F33BECE0135
:104FB00013D406013336C5003E943366CE00939475
:104FC000950032947E94B3E46400260493567501F0
:104FD000B3349000DD8193179500CD8C558CDD8C1A
:104FE0009317740063DB070093D71400858893162A
:104FF000F401DD8CD58C058042899307F93F635914
:10500000F00893F6740081CE93F6F400114663889D
:10501000C60093864400B3B496002694B6849316D3
:10502000740063D80600B70700FFFD177D8C930757
:1050300009409306E07F63CFF60E93D634009314B5
:10504000D4012604D58C318093F7F77F21BB3285BC
:1050500032C4EF10900B93065501F1471307050278
:105060002246E3D1D7DC6115B317A6008145F9B319
:10507000EF10B00913075501F145930705022246C9
:10508000B246E3D5E5D461153314AA00814499BB37
:1050900085469D8EB1E71309E941B3972401B3D446
:1050A000D40033192401B337F000B3649900DD8CC8
:1050B00093F77400B356D40081CF93F7F4001146F0
:1050C0006388C70093874400B3B49700A696BE8454
:1050D0009397860063D8070485470144814459B1FA
:1050E00013068003E341D6CC7D46E356D6FA055637
:1050F000B307F640930500023356F4006387B60009
:105100001309E943B3172401DD8CB3349000D18C2B
:1051100093F67400014499CA93F7F400114681464E
:10512000E392C7FA139496003180F6068D80D58CF1
:1051300081470DB99307F07F0144814425B142892D
:105140006DBD370710007D1701113373B70093D879
:105150004601758F935ED60122CC26CA0E0393D4E6
:1051600045019357D5010E0706CE4AC84EC693F89F
:10517000F87F130EF07F33E7EE0093F4F47F13D43F
:10518000F50133E36700131F3500FD82931E3600DF
:105190006380C81993C61600B38514416305D41201
:1051A0006351B018638B081AB70780005D8F638165
:1051B000C4599307800363C4B734FD4763C5B74838
:1051C000930700028D8FB3D9BE003318F700B39E4A
:1051D000FE00336838013357B700B339D001336864
:1051E00038013303E340B3090F41B3373F013306BE
:1051F000F3409317860063D30724370980007D1995
:1052000033792601630F092C4A85EF1000701307CC
:1052100085FF93070002998FB3D7F9003316E90091
:10522000D18FB399E9006344972A058F13061700BD
:10523000FD4663C5C63A13070002118FB3D6C900F5
:105240003398E9003397E700558F33380001B3698D
:10525000070133D6C700814493F7790081CF93F6D5
:10526000F90091476388F6009386490033B8360108
:105270004296B6899317860063D6071C13871400DD
:105280009307F07F05886306F720B70780FFFD17B7
:10529000F18F1398D70193D93900A60733683801E5
:1052A000B1831377F77F9396C7005207B1827E04CC
:1052B000D98EC18EF2406244D2444249B2494285FD
:1052C000B685056182806356B00A638A0812B70703
:1052D00080005D8F6387C42D9307800363C7B71871
:1052E000FD4763D2B73C138805FE93070002B3590C
:1052F0000701638AF50093070004B385B7403317AD
:10530000B700B3EEEE003338D0013368380195A210
:10531000B367D7019385148099E393C61600630A97
:10532000D404D1E19387140093F7E77F6399071EB4
:10533000B367E3013368D701639204166382073CC5
:1053400063160842131835009316D301135838001A
:1053500033E806019357330019A2B367D701638579
:10536000071A9387F5FF638B073A638CC523BE85C5
:1053700089B56399051C9386140093F7E67FC1EF06
:10538000B367E30163900436638D0744B367D701C5
:10539000639407460E051318D3010D813368A800E6
:1053A000935733006DA8B385984063970420B36783
:1053B000E301638D07309387F5FF63890740130589
:1053C000F07F6383A520BE859307800363C2B72A5D
:1053D000FD4763C8B73C930700028D8F3318F30075
:1053E0003356BF00B317FF003368C800B339F0006D
:1053F0003353B3003368380133076740B5ACB36744
:10540000D701638307109387F5FF638F071E6380BF
:10541000C52FBE85D1B59307F07F638BF606FA9E44
:1054200033B6EE01B307E300B2971398F70193DEAA
:105430001E00B369D80113D61700B68493F779001C
:10544000E39F07E09317D60113D839003368F800BB
:10545000A685935736001307F07F6380E506B207F1
:10546000B18313F7F57F05883DBD3367D701333826
:10547000E000B309E801B3B7E90133866700931789
:105480008600E3DD07FA85049307F07F639CF41838
:1054900005881307F07F8147014831B563910710F4
:1054A0006301083C131836009317D70113583800CE
:1054B0003368F800368493573700B367F800E9DBA8
:1054C00001441307F07FB70708000148E9BB37061E
:1054D00080FF7D167D8E93F77900998CE39107D834
:1054E00095B74E85EF10604213078501FD47E3D263
:1054F000E7D2130685FFB397C90081492DB33368FE
:10550000D70133380001C5B1131835009317D30103
:10551000135838003368F800935733002DBFB30990
:10552000DF413309E34033363F013309C940931764
:10553000890063CA072033E82901E31508CC8147B5
:10554000014431BFB385984063810414B7068000DD
:105550009307F07F3363D3006381F82093078003C0
:1055600063CCB722FD4763C9B72C930700028D8F28
:105570003318F300B356BF00B317FF003368D800E9
:10558000B339F0003353B300336838011A97B309C5
:10559000D801B3B7D9013386E700C684CDB5E3118E
:1055A00008F2131835009317D301135838003368E5
:1055B000F8009357330011B7370580009307F07F49
:1055C0003363A300E392F8E00E061318D7010D82AF
:1055D0003368C800935737003684C5B5051793065E
:1055E000000233D7E700630AD6009306000433862F
:1055F000C6403396C700B3E9C90033383001B369F8
:10560000E800014681441DBDB309DF01B307E30093
:1056100033BFE9013386E701931786008544E3DF52
:1056200007E08944B70780FFFD17F18F13D71900F2
:1056300013F81900336807019399F701B3E90901D9
:1056400013D6170011B9138805FE93070002B3594A
:105650000701638AF50093070004B385B740331749
:10566000B700B3EEEE003338D00133683801A5BE81
:105670003363E30133386000B3890E41B3B73E01B1
:105680003306F740C6843684ADB6B367E30163875B
:1056900007189387F5FF638C071C9306F07F638ED2
:1056A000D50ABE8565BD930700028D8FB3D9BE00B4
:1056B0003318F700B39EFE00336838013357B70044
:1056C000B339D001336838013A9365B31318360003
:1056D0009317D7011358380033E8070136849357DE
:1056E000370095BBBDCB3367D701E31B07DC0E0545
:1056F0001318D3010D813368A8009357330075BB8D
:10570000E30F08E2131836009317D7011358380037
:105710003368F80036849357370091B3B309DF41FB
:10572000B307E340333F3F013386E7418544D1B4BB
:10573000131835009316D3011358380033E80601C7
:10574000935733009DBBB389EE413306674033B9AD
:105750003E0133092641368475B40E061318D7016D
:105760000D823368C8009357370081BBB309DF410E
:10577000B307E34033363F013386C74093178600B3
:1057800063D7070AB389EE41B3076740B3BE3E0152
:105790003386D7413684C9B43363E30133386000BC
:1057A000FDB3138805FE93070002B3590301638A12
:1057B000F50093070004B385B7403313B300336F8C
:1057C0006F003338E001336838017DB5B389EE41AD
:1057D000B3076740B3BE3E013386D7413684854464
:1057E00009BC131836009317D701135838003368D3
:1057F000F80093573700A5B1B309DF01B307E30001
:1058000033BFE9013386E70193178600E3D807C267
:10581000B70780FFFD177D8E85440DB10E06131866
:10582000D7010D823368C800935737002DB133E894
:10583000C900E30608D019B1138805FE93070002DA
:10584000B3590301638AF50093070004B385B74099
:105850003313B300336F6F003338E001336838011E
:105860003DB301441307F07FB70708002DBCB3090F
:10587000DF01B307E300B3BED9013386D70169BBAB
:1058800093D74501B70610001387F6FF93F7F77F0C
:105890001306E03F6D8FFD81635CF6001306D04177
:1058A000635AF600370500801345F5FF2E95828078
:1058B00001458280130630431D8E7D48558F635D00
:1058C000C80093063041B387F640B357F70033055D
:1058D000F040E5F13E8582809387D7BEB317F7008D
:1058E0003355C500C98FE5B793D74501B7061000FA
:1058F0001387F6FF93F7F77F1306E03F2A886D8F33
:105900000145FD816354F60099C1828082801306AF
:10591000E0417D55E34BF6FE130530431D8D7D467A
:10592000558F634AA6009387D7BE3317F7003355C8
:10593000A800598D828013053041B307F5403355D7
:10594000F7008280411106C622C426C20DCD9357AE
:10595000F541B3C4A7009D8C2A842685EF00F07A18
:105960009306E041898EA9477D8093F6F67F63CD4B
:10597000A7022D47098FB3D7E4005505B207B394AA
:10598000A400B18329A00144814681478144B20724
:10599000D206B1837E04D58FC18FB24022442685C2
:1059A000BE859244410182805515B397A400B20789
:1059B000B1838144E9BF1DCD411122C406C62A84AA
:1059C000EF00B0749306E041898EA94793F6F67F05
:1059D00063DCA7025515B317A400B207B1830147D2
:1059E000B2402244B207D206B183D58F3A85BE8534
:1059F0004101828081478146B207D206B1830147C7
:105A0000D58F3A85BE8582802D47098FB357E40034
:105A1000B207130755013317E400B183D1B793D709
:105A20004501B70610001387F6FF93F7F77F1306BB
:105A3000E03F6D8FFD816353F60081C501458145CF
:105A400082801306E0436355F6007D55FD55828044
:105A500013062043B365D700635CF6001387D7BAFB
:105A60009387D7BC63400704B315E50001458280E6
:105A7000930630439D8E7D47635BD700130730410B
:105A8000B307F740B3D7F50081453E858280138781
:105A9000D7BE3397E5003355D500B367A700B3D51C
:105AA000D500E5B7FD46135715009D8E3357D70037
:105AB000B395F500D98D3315F50082804111370774
:105AC00080007D1713D8750126C293547501337376
:105AD000A70093F4F40FB376B7004AC01378F80F19
