:040000006F00204A23
:1000040000000000000000002002000022020000A6
:1000140000000000A0040000000000000000000038
:10002400A0040000A0040000000000000000000084
:10003400A004000000000000A00400000000000074
:10004400A0040000A0040000A0040000A00400001C
:10005400A0040000A0040000A0040000A00400000C
:10006400A0040000A0040000A0040000A0040000FC
:10007400A0040000A0040000A0040000A0040000EC
:10008400A0040000A0040000A0040000A0040000DC
:10009400A0040000A0040000A0040000A0040000CC
:1000A400A0040000A0040000A0040000A0040000BC
:1000B400A0040000A0040000A0040000A0040000AC
:1000C400A0040000A0040000A0040000A00400009C
:1000D400A0040000A0040000A0040000A00400008C
:1000E400A0040000A0040000A0040000A00400007C
:1000F400A0040000A0040000A0040000A00400006C
:1001040000000000A0040000A0040000A0040000FF
:10011400A0040000A0040000A0040000A00400004B
:10012400A0040000A0040000A0040000A00400003B
:10013400A0040000A0040000A0040000A00400002B
:10014400A0040000A0040000A0040000A00400001B
:10015400A0040000A0040000A0040000A00400000B
:10016400A0040000A0040000A0040000A0040000FB
:10017400A0040000A0040000A0040000A0040000EB
:10018400A0040000A0040000A0040000A0040000DB
:10019400A0040000A0040000A0040000A0040000CB
:1001A400000000000000000000000000000000004B
:0C01B4000000000000000000000000003F
:1001C000397101436EC619A0397141536AC866CAB4
:1001D00062CC5ECE19A0397101535AD056D252D496
:1001E0004ED64AD826DA22DC06DE3301614082820E
:1001F00041114AC026C222C406C68282B24D4101C4
:10020000024D924C224CB24B4101024B924A224A7F
:10021000B2494101024992442244B24041018280E4
:1002200001A001A0EFF2DFFCA92209459125EF0012
:10023000703B716513050520EF00D040EF0070336F
:10024000EF00F035EF00B02F894537150140B714A6
:1002500001400564712E93840480130484BBC1455E
:10026000268569262285EF00903A2685C1454926D4
:100270002285EF00D039E5B7B71702409843B7069B
:10028000FFF041111367170098C3D84337060200E7
:10029000758FD8C39843B706F7FEFD16758F98C3C0
:1002A0009843B706FCFFFD16758F98C3D843B70671
:1002B00001FFFD16758FD8C39843B70600ECFD16F5
:1002C000758F98C33707FF0098C723A6070202C49B
:1002D00002C69843C166558F98C3B716024011678E
:1002E0009C42F18F3EC6A24785073EC4B24781E7D4
:1002F000A247E397E7FEB71702409C431397E70036
:100300006357070685473EC632478547631FF70494
:10031000B7170240D843B706C1FFFD16D8C3D8436C
:10032000D8C3D84313670740D8C3D843758FD8C301
:10033000D843B7061D00558FD8C39843B7060001B0
:10034000558F98C3984393166700E3DD06FED843A4
:10035000B7160240719BD8C3D84313672700D8C390
:100360002147DC42B18BE39EE7FE4101828002C659
:1003700061BFB7160240D842B70700201146318B43
:10038000938707026305C70021466308C702371732
:100390007A001307072098C3371702405843118388
:1003A0009376F700370700201307070036971423CA
:1003B00098433357D70098C38280D842D4424166CD
:1003C00049833D8BF18E1306270015CF3D47630F00
:1003D000E6024147630FE602454781456313E600A5
:1003E0004146A1E23747024003270780418B0DC7F2
:1003F00037177A00130707203306C70290C3C9DDF9
:100400009843058349BF81454946E1BF8545354647
:10041000C9BF81453D46F1B737173D001307079027
:10042000E1BF3715024058559316F700585563DF62
:10043000060411833D8B9306170037177A001307C4
:1004400007203357D70298C35455A182BD8A8DE245
:1004500095463307D702058398C33717024058578C
:1004600094433D8B050733D7E60298C3984369B799
:1004700005456394A600E546E9BF3D456396A600A1
:10048000D1463387E602C9BF8906E5BF3D8B930697
:10049000170037177A00130707203357D702F1B731
:1004A00001A0970100209381E1371701012013017A
:1004B00061B5171500001305659E9705002093850B
:1004C00065B41386818063FAC5008322050023A0EA
:1004D000550011059105E3EAC5FE138581809385DA
:1004E00001816377B500232005001105E36DB5FE9A
:1004F000FD42739002BCAD4273904280B76200002F
:100500009382820873900230970200009382C2AFF8
:1005100093E2320073905230EFF01FD69702000042
:10052000938282D073901234730020309C4513F76D
:10053000070113F8F70001C7D8413368E8008E219E
:1005400013F7F50F39C318418146854E3D4F930F80
:10055000800293028004214E3396DE00B3F8C5007A
:10056000631116039398260033131F011343F3FFFF
:100570003377E300B318180133E7E800639FF7050A
:1005800050C98506E39AC6FD18C11307F00F6375BD
:10059000B70454412146854E3D4F930F800293028C
:1005A0008004414EB398CE0033F715016392E80200
:1005B0001317260001173313EF001343F3FFB3762D
:1005C000D3003317E800D98E639DF701232A150164
:1005D0000506E319C6FD54C18280E39457FA10C999
:1005E0004DB7E39757FE23281501DDB70CC982806C
:1005F0004CC98280B7070140635A0504DC4F93560B
:100600000501131805013707300013F6F6001358DB
:100610000801B376E50063500506639BE602930686
:1006200006010D46B316D60093C6F6FFF58F99C99D
:10063000135755011377F73F12073317E800D98F87
:1006400063570504370701405CCF8280DC4345BF18
:100650001317B500635607008D46B396C600E9B779
:10066000135755011377F73F12073317E800134765
:10067000F7FFF98F6DBF6390E602370601405442E1
:10068000370700F17D17F98F758F58C2D5F13707FD
:1006900001405CC382801317B500635C07008D4680
:1006A000B396C60093C6F6FFFD8EB707000FD58F31
:1006B000F1BF1357550112073317E8001347F7FF2F
:1006C0007D8FB707000FD98FD1B7EFF27FB2797165
:1006D00046212A8468082EC6792A925737470F0088
:1006E0001307072433D7E702C204C18093F404FC44
:1006F000C2049306C003C180B24563F4E600130749
:10070000C003131607014182D18C46A016206165F3
:100710001305056AC206C182F99AC206C18216A0F3
:1007200094416368D5048606B3D7D70291461397E0
:1007300007014183BA876373D700914705064206D4
:10074000C2074182C18312B05EAC1E20DA21B625F9
:1007500093E717001EA01E20558FC207C18393F791
:1007600057BFD98F1EA09A25DE25D98F1EA44561BB
:1007700055B4EA2131667D16631DC5020D46B38668
:10078000C602B3D7D702C207C1839396470199E245
:1007900093E71700A166D58F9306C0123307D702DF
:1007A0009306803E3347D7020507420741831AB0BC
:1007B00061BF6546B386C602B3D7D7029166C2074A
:1007C000C183D58FD9B71E2189C593E717001EA114
:1007D0008280C207C183F99BC207C183CDBF1E219E
:1007E00089C593E707101EA18280C207C18393F7D2
:1007F000F7EFC207C183C5BF1E2189C593E7072054
:100800001EA18280C207C18393F7F7DFC207C183AD
:10081000C5BF0EA9828093F7E50F19C293E71500B3
:10082000C207C1831EA982805E290A2D42055D8D03
:100830006D8D220521810D8D1335150082804111AA
:1008400002C402C693D7C5012AC63EC4A247A20568
:10085000A18199CBB247D1073EC6B2478843410137
:100860006D8D3335A0008280B247C181E107EDB7BD
:1008700023A4A1808280371702405C439146B18B4C
:100880006385D700A1466382D706B7177A0093879E
:1008900007201CC1371602405C42370700201307AF
:1008A00007019183BD8BBA9794231C41B3D7D7001E
:1008B0005CC15442A1829D8ABA969422B3D6D700D5
:1008C00014C55442AD829D8A36971823B3D7E700EA
:1008D0005CC5584239839376370013874180369739
:1008E0001823B3D7E7021CC982805C435843C16612
:1008F000C983758FB7F6FF1F83A6C670BD8B8907A6
:100900001396160163480600C54601466392D70256
:10091000C94739A88946638FD702BD46638ED7027F
:10092000C146638ED702C54601466393D700C147CF
:100930001DEF3747024003270780418B05C7371754
:100940007A0013070720B307F7021CC121D61C4108
:10095000858381B701466DBF0546B547D1BF0146C6
:10096000BD47F9B737173D0013070790E9BFB71523
:100970000240D8559316F700D85563DF060411835B
:100980003D8B9306170037177A001307072033575C
:10099000D70218C1D455A182BD8A8DE2954633078E
:1009A000D702058318C137170240585714413D8BB1
:1009B000050733D7E60218C1184171B7854563941E
:1009C000B600E546E9BFBD456396B600D14633871C
:1009D000E602C9BF8906E5BF3D8B930617003717AE
:1009E0007A00130707203357D702F1B799C5371795
:1009F00002401C4F5D8D08CF8280B7170240984F90
:100A00001345F5FF798D88CF828099C5371702404D
:100A10005C4F5D8D48CF8280B7170240D84F134599
:100A2000F5FF798DC8CF8280EFF28FFC1629F5771C
:100A3000FD17F58FF621DA257971D58F1EA9562578
:100A4000FD779387379FF58FD6212A842EC6D58FC1
:100A50009625D58FB625D58F5EA55E29C207C183A1
:100A600093F7F7CFD98F5EA968083135B7470140B2
:100A700093870780B245631EF402A2576547B38788
:100A8000E7029841930640060A07B3D7E70233D737
:100A9000D702B3F7D7021207920793872703B3D77A
:100AA000D702BD8BD98FC207C1831EA445616FF0E9
:100AB0006FF69257E1B791C55E250967D98F5EA59C
:100AC00082805A25F977FD17F98FD5BFEFF24FF2E3
:100AD000411185454145193F89677C82C1473EC622
:100AE0004C008D47371501403EC4893441016FF0F9
:100AF0006FF2EFF2EFEF4164AA842E897D14CA856C
:100B000026851D3301C501456FF0CFF07D144204E9
:100B1000418075F40545CDBFEFF2EFEB4164B7546A
:100B200000402A8A2E897D1493890440B70502006B
:100B30004E85313345E58545138504404D31B70574
:100B400003008505138504406D3749ED93050002C8
:100B5000138504400146C131B70507009385250878
:100B60001385044079373DED4164B7090010B7544F
:100B700000407D1493890908938A0440CE855685E8
:100B80007D392DC5D285138504406131B705070035
:100B90009385450813850440A93F29E54164B709B9
:100BA0000010B75400407D1493890908138A04404B
:100BB000CE855285693121C1CA851385044091399A
:100BC000B705070093854508138504401D372A841F
:100BD00011E9854513850440053131A07D14420497
:100BE000418029F4054422856FF02FE27D144204F0
:100BF000418049F4C5BF7D144204418055F8DDB7FA
:100C0000EFF20FDF011185452145CD3385450545BF
:100C1000F13B85450945F93A854537052000F5330F
:100C200037140140130504C093050030C132930707
:100C3000001071498D444C00130504C07C824AC6E3
:100C400026C4ED30930700204C00130504C07C82BD
:100C50004AC626C4E138E1679387076A3EC8B707EA
:100C600000403ECAB70700043754004085073ECC19
:100C70000C08916713050440FC86813C1305044071
:100C800085459136A13593050008014571358145AB
:100C900001455935130540069D2A930580050545F4
:100CA000A53D930500050545853D9305300F094594
:100CB000A5359305000F09458535A5450D45A93D89
:100CC00099450145913D81451145B93581452145FC
:100CD000A135930500081305B0023D3D930580083A
:100CE00025451D3D9305C00431453D3589453545B4
:100CF0002535814541450D3581454545313D814588
:100D00004945193DE1455D45013D89456145293527
:100D100081456945113581456D45FD3B9305800B46
:100D200013057002D53B9305800B1305A002ED332C
:100D300013054006E928014505616FF0AFCDEFF2DC
:100D40002FCB7D3D930500080145F93381450145D1
:100D5000E1331305400665289305D00505456D3B35
:100D6000FD450945553B9305000C114575336FF062
:100D70006FCAEFF2EFC74111854511458539C1476B
:100D80007C8237150140C1473EC64C008D47130594
:100D900005803EC4EFF08FF941016FF0AFC7EFF26D
:100DA0002FC541118545414591319D477C82C14701
:100DB0003EC64C008D47371501403EC4EFF00FF79B
:100DC000854537150140EFF07F8289453715014091
:100DD000EFF0DF81914537150140EFF03F81410190
:100DE0006FF04FC3B707002083A7070237177A00B9
:100DF00013070720B3D7E70293F7F70F2387F18094
:100E00001307803EB387E7022396F1808280B7F70D
:100E100000E0D8438146799BD8C303D7C18033060D
:100E2000A70290CBD4CB98431367070198C398438C
:100E30001367170298C3D843058B75DF9843799BD6
:100E400098C38280EFF2CFBA2A84116501118545DB
:100E50001105693E930700207C82371501408D47BC
:100E60003EC44C00E147130505803EC6EFF00FEC91
:100E700022C837440140B70708000C081305048056
:100E80003ECC02CA231E0100453685451305048069
:080E90001D3105616FF00FB880
:100E98000000000000000000010203040607080922
:100EA8000000000001020304010203040607080908
:080EB80000A24A04020406082E
:00000001FF
