:040000006F009013EA
:100004000000000000000000C8020000CA02000056
:10001400000000003609000000000000000000009D
:10002400360900003609000000000000000000004E
:10003400360900000000000036090000000000003E
:1000440036090000360900003609000036090000B0
:1000540036090000360900003609000036090000A0
:100064003609000036090000360900003609000090
:100074003609000036090000360900003609000080
:100084003609000036090000360900003609000070
:100094003609000036090000360900001C03000080
:1000A4003609000036090000360900003609000050
:1000B4007803000036090000360900003609000004
:1000C4003609000036090000360900003609000030
:1000D4003609000036090000360900003609000020
:1000E4003609000036090000360900003609000010
:1000F4003609000036090000360900003609000000
:10010400000000003609000036090000360900002E
:1001140036090000360900003609000036090000DF
:1001240036090000360900003609000036090000CF
:10013400360900007003000036090000360900008B
:1001440036090000360900003609000036090000AF
:10015400360900003609000036090000360900009F
:10016400360900003609000036090000360900008F
:10017400360900003609000036090000360900007F
:10018400360900003609000036090000360900006F
:10019400360900003609000036090000360900005F
:1001A400000000000000000000000000000000004B
:0C01B4000000000000000000000000003F
:1001C000397101436EC619A0397141536AC866CAB4
:1001D00062CC5ECE19A0397101535AD056D252D496
:1001E0004ED64AD826DA22DC06DE3301614082820E
:1001F00041114AC026C222C406C68282B24D4101C4
:10020000024D924C224CB24B4101024B924A224A7F
:10021000B2494101024992442244B24041018280E4
:100220003D432A876373C3029377F700BDEFADE5C3
:10023000937606FF3D8ABA960CC34CC30CC74CC7D5
:100240004107E36BD7FE11E28280B306C3408A0602
:100250009702000096966780A6002307B700A306C2
:10026000B7002306B700A305B7002305B700A30412
:10027000B7002304B700A303B7002303B700A3020A
:10028000B7002302B700A301B7002301B700A30002
:10029000B7002300B700828093F5F50F9396850091
:1002A000D58D93960501D58D61B79396270097025A
:1002B000000096968682E78086FA9680C1171D8F89
:1002C0003E96E374C3F8A5B701A037950000130567
:1002D000C565EF904027EF20003DAA8537950000C7
:1002E00013050567EF90E023EF20403CAA85379582
:1002F000000013050568EF90C022EF20803BAA851F
:100300003795000013050569EF90A021B707EFBEF0
:1003100037E700E0938707083CC701A0397106DE84
:1003200016DC1ADA1ED82AD62ED432D236D03ACEDD
:100330003ECC42CA46C872C676C47AC27EC0EF10AE
:10034000A07413050008EF009012F250E2525253CD
:10035000C2533255A255125682567247E24752484E
:10036000C248324EA24E124F824F2161730020309C
:10037000EF10B052730020302945EF10000E854574
:1003800037050040EF0010777300203019C9EFF2F5
:100390003FE6AA853795000013058573EF90601836
:1003A00095BD8280EFF2DFE441118545054502C22B
:1003B00002C423160100EF00B05B83A741813747D9
:1003C0000F0013070724B3D7E7024C00370500409E
:1003D000231501007C8489679387F7703EC2EF0084
:1003E00030640546854537050040EF00906F854530
:1003F00037050040EF00706D854537050040EF0080
:10040000706FB7E700E0056723A2E710410119B557
:10041000EFF21FDE39711306C0038145480009352C
:10042000B707002083A707021384E1853ED883D74E
:1004300001814C001385E1853ED4938721819A2365
:100440009306170096A38D473ED08967938787232D
:100450003AD63EC8EF20B0440C20AA84379500005D
:100460001305056AEF90E00B26850D370820EF3065
:100470000041293F216179BBEFF29FD71307C003E9
:100480003307E502B79700209387C7A741112A8455
:10049000BA97D4479847CC4B9C4F3697B386F50014
:1004A0006374D700B307B740700022853EC6EF30B3
:1004B000201B11E5700081452285EF203065410148
:1004C00091BBEFF25FD193F74500AA842E8991C3C7
:1004D000653793778900B9CB85452685EF30E034C1
:1004E000096613068623B385C402B70700209387E5
:1004F000871626858549BE95EF20305C03C70186A7
:100500009307F00F138401866314F70004A0814958
:10051000379500001305056FEF90E0024E940C2014
:100520003795000013058570EF80B07F9377090140
:1005300091CF938701869823631497007D5798A3E2
:100540003795000013058571EF80F07F137909045A
:1005500063000902938701869823631497007D57EF
:1005600098A33795000013058572EF80D07D4D3537
:1005700069B9EFF2FFC7EF30C026937715002A84E0
:1005800099C7379500001305056BEF80D07B9377F3
:10059000240099C7379500001305456CEF80B07AA9
:1005A0009377440099CBEF30A027118919C537956F
:1005B00000001305C56DEF801079418811E099B9ED
:1005C0000145EF304023AA857DD90145DD3DC5BFFA
:1005D000EFF21FC24111854513050002EF0070378D
:1005E000930700087C8237150140C1473EC64C0086
:1005F0008D47130505403EC44125410121B9EFF265
:100600009FBD41112124EF107077716513050520FE
:10061000EF10F07FEF101072EF10D06D553F3715CF
:1006200001409305000813050540092F3795000088
:1006300013058574EF80307183A5418137950000E3
:1006400013058575EF80F06DBD2EAA8537950000E6
:1006500013058576EF80F06CEF20501EAA85379544
:10066000000013058577EF80D06BEF20301DE94740
:100670006308F5003795000013058578EF80B06CAE
:1006800013858185EF00705B379500001305857930
:10069000EF8030698144138A8185B7990000194938
:1006A000B3079A008C231385497A8504EF8070671D
:1006B000E39824FF2945EF80B06DED319386818565
:1006C0001386C1809385418013858180EF10B02D02
:1006D0002A846D3919E4379500001305857AEF8077
:1006E00090669567938707E23EC29167938787A9D3
:1006F0003EC44800A5473EC6EF20E07F7D572380DB
:10070000E1863933EF10607CEF30C00965DD953547
:10071000D5BFB71702409843B706FFF041111367E2
:10072000170098C3D84337060200758FD8C3984383
:10073000B706F7FEFD16758F98C39843B706FCFF02
:10074000FD16758F98C3D843B70601FFFD16758F48
:10075000D8C39843B70600ECFD16758F98C33707CA
:10076000FF0098C723A6070202C402C69843C166C9
:10077000558F98C3B716024005679C42F18F3EC65D
:10078000A24785073EC4B24781E7A247E397E7FE49
:10079000B71702409C431397E70063570706854746
:1007A0003EC632478547631FF704B7170240D84358
:1007B000B706C1FFFD16D8C3D843D8C3D8431367C3
:1007C0000740D8C3D843758FD8C3D843B70629008C
:1007D000558FD8C39843B7060001558F98C39843E7
:1007E00093166700E3DD06FED843B7160240719BFF
:1007F000D8C3D84313672700D8C32147DC42B18B45
:10080000E39EE7FE4101828002C661BFB716024047
:10081000D8421146318B938741816305C700214639
:100820006308C70237177A001307072098C33717E2
:100830000240584311839376F700370700201307CF
:1008400007003697142398433357D70098C3828004
:10085000D842D442416649833D8BF18E130627006E
:1008600015CF3D47630FE6024147630FE602454758
:1008700081456313E6004146A1E237470240032762
:100880000780418B0DC737177A00130707203306FF
:10089000C70290C3C9DD9843058349BF81454946D6
:1008A000E1BF85453546C9BF81453D46F1B737179C
:1008B0003D0013070790E1BF3715024058559316C6
:1008C000F700585563DF060411833D8B930617002C
:1008D00037177A00130707203357D70298C35455A8
:1008E000A182BD8A8DE295463307D702058398C35E
:1008F00037170240585794433D8B050733D7E6021C
:1009000098C3984369B705456394A600E546E9BFD7
:100910003D456396A600D1463387E602C9BF8906E6
:10092000E5BF3D8B9306170037177A0013070720A2
:100930003357D702F1B701A097010020938181EED0
:1009400017F100201301016C17950000130505F045
:1009500097F5FF1F9385056B1386818563FAC500A4
:100960008322050023A0550011059105E3EAC5FE89
:1009700013858185978500209385452A6377B50087
:10098000232005001105E36DB5FEFD42739002BC06
:10099000AD4273904280B7620000938282087390E8
:1009A000023097F2FFFF9382226693E23200739047
:1009B0005230EFF01FD697020000938282C47390EA
:1009C000123473002030B7F7FF1F03A547708280F1
:1009D000EFF21F8285451165EF00B0028145116578
:1009E000EF0030026FF01F83930700043CC19307B0
:1009F00000027CC1930700087CD123200500B707C3
:100A000000042322050023240500232605002328B3
:100A10000500232A0500232C0500232E0500232092
:100A2000050223220502232405022326050223288A
:100A30000502232A0502232C0502232E0502232466
:100A400005042326050423280504232A0504232C52
:100A50000504232E0504232005062324050623264A
:100A6000050623280506232A0506232C0506232E22
:100A700005062320F508B70700022322F5082322E4
:100A8000F50AB7070200370720002326F50A930767
:100A90000010232405082326E50823280508232A17
:100AA0000508232C0508232E05082320050A2324E6
:100AB000050A2328F50A232A050A232C050A828021
:100AC000411102C6B78602409C4A41672E057D1738
:100AD000F18B798D9A055D8D93F5057CC98D93E534
:100AE0001500B70750008CCAF917324705073AC6F8
:100AF000984A058B01C73247E3F9E7FE3247B7074B
:100B00005000FD1701456307F700B7870240C84B47
:100B100042054181410182804111B787024002C6EE
:100B2000984BC166FD162E05758D718B9A05598DF2
:100B300093F5057CC98DD0CB93E535008CCBB707F9
:100B40000500B7860240F917324705073AC6984AAA
:100B5000058B01C73247E3F9E7FE3245B7070500C9
:100B6000FD173335F5004101828023A4A1862A8731
:100B70008147B708104013030060130EF6FF639619
:100B8000C700B797024088CB8280B38667022320D4
:100B900017012A88AE9614C79306070163F3C701AD
:100BA00036882326070185073687D1BF916623A2A1
:100BB000A1860147AA873703008093860660130E3B
:100BC0000060930EF6FF6316C700B7970240C8C7D0
:100BD00082803308C70323A06700D4C3AA882E9855
:100BE00023A40701138807016373D701C28823A6D2
:100BF00017010507C287C1BF379702401C4393E71F
:100C000017001CC38280B7970240C8CB82803797F9
:100C100002401C4FB7061000D58F1CCF8280EFF228
:100C20002FDD378402401C4093E787001CC0C53786
:100C30001C40896693E747001CC0B7970240984F55
:100C4000558F98CF984F1367270098CF6FF08FDCA0
:100C500099C5379702405C4F5D8D48CF8280B7972A
:100C60000240D84F1345F5FF798DC8CF8280B70772
:100C7000014023AAA74082809C4513F7070113F87F
:100C8000F70001C7D8413368E8008E2113F7F50F4C
:100C900039C318418146854E3D4F930F8002930220
:100CA0008004214E3396DE00B3F8C50063111603AD
:100CB0009398260033131F011343F3FF3377E300A8
:100CC000B318180133E7E800639FF70550C985069C
:100CD000E39AC6FD18C11307F00F6375B7045441BA
:100CE0002146854E3D4F930F800293028004414E72
:100CF000B398CE0033F715016392E802131726006C
:100D000001173313EF001343F3FFB376D300331708
:100D1000E800D98E639DF701232A15010506E31922
:100D2000C6FD54C18280E39457FA10C94DB7E397CA
:100D300057FE23281501DDB70CC982804CC982807B
:100D4000B7070140635A0504DC4F93560501131899
:100D500005013707300013F6F60013580801B37683
:100D6000E50063500506639BE602930606010D4607
:100D7000B316D60093C6F6FFF58F99C913575501E0
:100D80001377F73F12073317E800D98F635705042D
:100D9000370701405CCF8280DC4345BF1317B500A5
:100DA000635607008D46B396C600E9B71357550141
:100DB0001377F73F12073317E8001347F7FFF98F50
:100DC0006DBF6390E602370601405442370700F1D9
:100DD0007D17F98F758F58C2D5F1370701405CC375
:100DE00082801317B500635C07008D46B396C6007A
:100DF00093C6F6FFFD8EB707000FD58FF1BF1357CF
:100E0000550112073317E8001347F7FF7D8FB70727
:100E1000000FD98FD1B7EFF2AFBD797146212A8487
:100E200068082EC6692A925737470F001307072410
:100E300033D7E702C204C18093F404FCC2049306D2
:100E4000C003C180B24563F4E6001307C003131664
:100E500007014182D18C46A0162061651305056A01
:100E6000C206C182F99AC206C18216A09441636982
:100E7000D5048606B3D7D70291461397070141835D
:100E8000BA876373D700914705064206C2074182BD
:100E9000C18312B05EAC1E20DA21B62593E717009D
:100EA0001EA01E20558FC207C18393F757BFD98F4D
:100EB0001EA09A25DE25D98F1EA445616FF08FB53F
:100EC000EA2131667D16631DC5020D46B386C60252
:100ED000B3D7D702C207C1839396470199E293E73C
:100EE0001700A166D58F9306C0123307D702930669
:100EF000803E3347D7020507420741831AB059BFE6
:100F00006546B386C602B3D7D7029166C207C183CE
:100F1000D58FD9B71E2189C593E717001EA18280FE
:100F2000C207C183F99BC207C183CDBF1E2189C5FA
:100F300093E707101EA18280C207C18393F7F7EFE2
:100F4000C207C183C5BF1E2189C593E707201EA123
:100F50008280C207C18393F7F7DFC207C183C5BF91
:100F60000EA9828093F7E50F19C293E71500C20717
:100F7000C1831EA982805E290A2D42055D8D6D8D7B
:100F8000220521810D8D133515008280411102C487
:100F900002C693D7C5012AC63EC4A247A205A181B5
:100FA00099CBB247D1073EC6B247884341016D8D08
:100FB0003335A0008280B247C181E107EDB7371712
:100FC00002405C439146B18B6385D700A1466382A2
:100FD000D706B7177A00938707201CC1371602403F
:100FE0005C4237070020130707019183BD8BBA9736
:100FF00094231C41B3D7D7005CC15442A1829D8A7F
:10100000BA969422B3D6D70014C55442AD829D8AB5
:1010100036971823B3D7E7005CC5584239839376D7
:1010200037001387818136971823B3D7E7021CC98D
:1010300082805C435843C166C983758FB7F6FF1F32
:1010400083A6C670BD8B89071396160163480600F8
:10105000C54601466392D702C94739A88946638FBE
:10106000D702BD46638ED702C146638ED702C546FE
:1010700001466393D700C1471DEF3747024003275E
:101080000780418B05C737177A0013070720B3077E
:10109000F7021CC121D61C41858381B701466DBF73
:1010A0000546B547D1BF0146BD47F9B737173D00E3
:1010B00013070790E9BFB7150240D8559316F700FC
:1010C000D85563DF060411833D8B9306170037174D
:1010D0007A00130707203357D70218C1D455A182CD
:1010E000BD8A8DE295463307D702058318C13717AD
:1010F0000240585714413D8B050733D7E60218C10B
:10110000184171B785456394B600E546E9BFBD4512
:101110006396B600D1463387E602C9BF8906E5BFAC
:101120003D8B9306170037177A00130707203357B4
:10113000D702F1B799C5371702405C4B5D8D48CB9C
:101140008280B7170240D84B1345F5FF798DC8CB85
:10115000828099C5371702401C4F5D8D08CF828071
:10116000B7170240984F1345F5FF798D88CF8280DD
:1011700099C5371702405C4F5D8D48CF8280B71705
:101180000240D84F1345F5FF798DC8CF8280935721
:10119000550005476399E700B71702409C4333D5D4
:1011A000A7000589828009476396E700B7170240C8
:1011B0009C53F5B7B7170240DC53D5B73717024039
:1011C0005C5793F7F7F05D8D48D78280B7160240E1
:1011D000DC5645777D17F98F5D8DC8D6828009C9A9
:1011E000371702401C43B7060010D58F1CC38280FE
:1011F000B71602409C42370700F07D17F98F9CC25A
:10120000828099C5371702401C575D8D08D78280B0
:10121000B717024098571345F5FF798D88D782801C
:101220001E2137370140930607C0C207C183630000
:10123000D504B7060040630CD502938606406308C8
:10124000D502B7160040138606806302C502938656
:1012500006C0630ED50013070740630AE500375741
:101260000140930607C06304D5006316E500BA2168
:1012700093F7F7F8D98F37170040630CE500130791
:1012800007406308E50093F7F7CFFA21C207C1834F
:10129000D98F1EA1DE215EB59E211EB5B737014054
:1012A000138707C0630EE50093870740630AF500C4
:1012B000B7570140138707C06304E5006314F500C6
:1012C0009C251EB985475EA982801E2189C593E7AA
:1012D00017001EA18280C207C183F99BC207C18388
:1012E000CDBF5E2501C6DD8D4EA5828093C5F5FF7D
:1012F000FD8DDDBF93C5F5FFC205C1810EA98280BA
:10130000EFE21FEF1629F577FD17F58FF621DA25A5
:101310007971D58F1EA95625FD779387379FF58F55
:10132000D6212A842EC6D58F9625D58FB625D58F62
:101330005EA55E29C207C18393F7F7CFD98F5EA957
:101340006808B539B747014093870780B245631EE7
:10135000F402A2576547B387E70298419306400617
:101360000A07B3D7E70233D7D702B3F7D70212077A
:10137000920793872703B3D7D702BD8BD98FC207B4
:10138000C1831EA445616FE0FFE89257E1B791C5A4
:101390005E250967D98F5EA582805A25F977FD17EA
:1013A000F98FD5BF93F5F51F4EA182800A216D8D6F
:1013B0003335A000828083A781869843634B070260
:1013C0009843370600304E05518F98C3984337062F
:1013D00000804D81518F98C3C8C38CC73797024096
:1013E000114650CB23220700DC47054523A4F18694
:1013F000828001458280EFE2BFDF8547894563181F
:10140000F50037150140EFF03F936FE0BFE037156F
:101410000140EFF0BF92D5BFEFE29FDD85478545E4
:101420006318F50037150140EFF01F916FE09FDE64
:1014300037150140EFF09F90D5BF37F7FF1F814769
:101440001307D77E99463306F7400C223306F50082
:1014500085070CA2E399D7FE828093878187984302
:101460003A9588C3828003A7818723AAE186B7873C
:10147000024003A7471C25EF03A74719894763F8D4
:10148000E706EFE2FFD603D58188F945138481880A
:10149000EFF00FE393572500858BA9C74D991316DD
:1014A00005010A204182F945EFF00FE73787024036
:1014B0008327071093E717002320F71083270710CF
:1014C000858BEDFFB787024003A7471C11CB238E06
:1014D0000186D843B706008093C6E6FF758FD8C350
:1014E0006FE05FD313654500420541814DBFB7876B
:1014F000024003A7471C19CB238E0186D843B706A9
:10150000008093C6E6FF758FD8C382808280EFE2A9
:101510009FCC938481888A20954513848188EFF03D
:101520002FDA2A898A208545EFF08FD99377F90140
:1015300013896188638A071483470900C1E30A207D
:101540008547F9452300F900A382F188EFF04FD7D2
:101550001376C5FF4206937715004182A9CF136623
:1015600026000A20F945EFF02FDB0A208145EFF035
:101570002FD51376E5FF42060A2041821366062026
:101580008145EFF06FD90A208145EFF06FD31366E4
:1015900035200A20420641828145EFF0EFD783A72C
:1015A000018813074006B3F7E70293872703238ECA
:1015B000F1806FE09FC51366160065B70547639716
:1015C000E70089472300F900A38201889387618996
:1015D00003870700634607069384D181942021473F
:1015E000639AE6040A20F945EFF08FCD1376350FA4
:1015F0000A20F94590A0EFF02FD2238004000A20A2
:101600008145EFF0EFCB1376E5FF42060A204182D9
:10161000136606208145EFF02FD00A208145EFF0B8
:101620002FCA136635200A20420641828145EFF019
:10163000AFCE21A0130700F898A3238A018895BF95
:101640009387218A98239306170094A39546E3165F
:10165000D7FE1375050275F19384D18123800700AD
:101660009C2011490A20F945E38027F9EFF04FC586
:101670001376350F0A2013664600F94590A0EFF067
:10168000AFC923802401A5BF034709008547631222
:10169000F708138751881C23A1468A20850793F7F2
:1016A000F70F1CA3639BD70023000700230009004A
:1016B0002146F945EFF04FC6EDBDF945EFF04FC0BB
:1016C0001376C5FF4206937715004182A1C31366C6
:1016D00026000A20F945EFF02FC40A208145EFF0DB
:1016E0002FBE1376E5FF42060A20418213660620CC
:1016F0008145EFF06FC20A208145EFF06FBC1366A1
:1017000035204206418281450A206DB713661600D6
:10171000C9B713844189834A0400138A61898346C7
:101720000A0093871A001307000893F7F70F6394D2
:10173000E6063D476384EA001CA0A5BD8A2023007D
:101740000400230009001384D18121492146F94571
:101750002381018A23000A0023002401EFF0CFBB7C
:10176000230024018A208145EFF08FB51376E5FF31
:1017700042068A204182136606208145EFF0CFB9E8
:101780008A208145EFF0CFB31366352042064182AF
:1017900081458A2005B79389D18103C709001DE7D8
:1017A0001147E39BEAF88A20F94523000400EFF093
:1017B0002FB11376350F8A2013664600F945238032
:1017C000C900EFF06FB52380590169BF91466318D6
:1017D000D7023D47E392EAF68A2023000400214421
:1017E0002146F9452381018A2300090023000A00CC
:1017F00023808900EFF04FB223808900A5B71CA099
:1018000093074006E397FADA8A2021668145EFF0D4
:10181000AFB0A380018A2381018A238E0186A1476C
:10182000230004002300090023000A002380F9009C
:101830002146F945B9BFEFE2BF9B938751899823B1
:101840001377F70F2DC303A7818783A68189158F8F
:101850009306301F63F7E6043747024023800700F2
:1018600083270780138481880A2093E74700232079
:10187000F78021668145EFF02FAAA380018A23819A
:10188000018A238A0188238301880A20238E018606
:10189000238B018821472146F945A38EE180EFF093
:1018A000AFA76FE03F971389118A8347090013841C
:1018B0004188D9E783C66188054713896188938485
:1018C000C181636BD70003D581889545EFF04F9FA9
:1018D0007D8919C123800400938781879043938673
:1018E000818994428C20158E938681871387818904
:1018F0006360B6040346090085476310F604138647
:1019000001881C42B745030093851540B387B70291
:10191000B7A52600938595ECAE971CC2130640062A
:10192000B3F7C702938727039CA09C421CC3C5360C
:101930001C20A5DB23000400ADB793072003EDB7FF
:101940001C209384C187A5C383A7818703A78189AE
:10195000998F1307900F6378F70423000400138412
:1019600081880A208545EFF0AF959377450085EF94
:10197000EF0050710A2021668145EFF0EF99238135
:10198000018A238A01880A2023830188238B018806
:1019900021472146F9452300090023800400A38E36
:1019A000E180EFF06F979C20E38D07EE03A741875E
:1019B00083A78187998F13073006E374F7EEEFF062
:1019C0009FAAC5B5EFE2DF8241118545414502C2BC
:1019D00002C402C6EFF0EFF78D477C82C1473EC6D6
:1019E0004C008D47371501403EC4EFF0EFA8894504
:1019F00037150140EFF04FB4854537150140EFF042
:101A0000AFB341016FE01F81EFE28FFE0145EFF0C0
:101A10000FFD4145EFF08FFA3565EFF02FFB0545DF
:101A2000EFF0EFFB1305D003EFF06FF665DD6FE02D
:101A30006FFEEFE2EFFBEF00F064B78702409843E0
:101A4000D176FD16758F98C39146A380D18AD8436D
:101A5000B70600808506558FD8C303A70710136704
:101A6000170023A0E7103787024083270710858BD4
:101A7000EDFF0547238EE18603A7818723AAE18630
:101A8000EFF0EF996FE00FF9EFE2EFF41384818844
:101A90000A208545EFF0CF82AA840A208145EFF025
:101AA0002F82AA890A209545EFF08F8193F7440091
:101AB000638C07109397390163D007102A8993F735
:101AC000040251EDBDC3B78602409C427D771307E7
:101AD000F77FF98F9CC22685A93F83A7C18613078C
:101AE000000293F7070F6390E7020A201384018A2C
:101AF0001C20898B95C31146F945EFF0EF8103A7B0
:101B0000818723AEE188B78702409C43AD83858BF4
:101B10002388F1866FE06FEF0146F945EFE0DFFFC4
:101B20001C2093E717001CA0D9BF0A20216681451D
:101B3000EFE09FFEA380018A2381018A238A018826
:101B4000238301880A20238E01862147238B018865
:101B50002146F945A38EE180EFE01FFC6DB723809D
:101B6000018A8DCB0A20C145EFE09FF51189B78628
:101B7000024001E91379F9018547B7860240630FF6
:101B8000F9029C42056713070780D98F9CC22685FE
:101B90004D3595BF2685EF00F04E3747024083272D
:101BA0000780ED9B2320F7800547A38AE18803A7E0
:101BB000818723ACE18881BFB78602409C427D7754
:101BC0001307F77FF98FD9B72685EF00B04B37475A
:101BD00002408327078093868187ED9B2320F7802F
:101BE0000547A38AE188984223ACE18883A7C18690
:101BF0001307000293F7070FE397E7F09387018A33
:101C0000982313761700E30006F090429386C1896B
:101C10008C420D8E93053006E3E7C5EE23A0060047
:101C200013472700B7960240945298A3E9BDEFE20C
:101C30008FDA317137960240B706700037076000BF
:101C40005C4AF58FE39EE7FE83C7118A9384118A6D
:101C500095C703D58188F94513848188EFE05FE655
:101C60001376C5FF420693771500418263800720F3
:101C7000136626000A20F945EFE01FEA0964EFE049
:101C8000BFF713040471379902407D1442042945BB
:101C90004180EF00101109C483270900858BF5F7F7
:101CA0004800EFE07FD485473EC2930700203ED630
:101CB0000569930700083ECD37062000930700040E
:101CC000130909803784024032C94AD202CC02D0BB
:101CD00002D802DE82C882C482CA82CC02C33ECF4E
:101CE0001C48378501801305150C8D9B1CC8B24616
:101CF000A2471840D58FB78620FF9386F610758FC0
:101D0000D98F4247D98F2257D98F6257D98F37073A
:101D10001000D98F1CC01C40D98F1CC016478647A5
:101D2000D98F3647D98F5CC0F6471CC486575CC430
:101D3000D656C657184CD58FE656D58FC1669386B2
:101D400016F4758FD98F1657B79602404207D98F70
:101D50001CCC0A47F657D98F5CCC9C4E3747DEF82F
:101D6000130737F2F98F3A47D98F1307060CD98F2B
:101D70009CCE138781855C334C23A207CD8F3CC05A
:101D800003C7918583C78185854522075D8F83C7FA
:101D9000A185C2075D8F83C7B185E207D98F7CC05B
:101DA000B7070200938707022328C4102326F410E4
:101DB000EFE01FEA37250020B755002093090541C1
:101DC0000946938505E313050541EFE01FDA372542
:101DD0000020B7250020130A053A1D4693850543C8
:101DE0001305053AEFE09FDC23A6418923A831893A
:101DF0001C407D771307F77FF98F1CC083C70187CD
:101E000091C71C4033E9270123202401B7860240F3
:101E10009C4251777D17F98F9CC2EFE05FE09C20D8
:101E200013848188B9E70A2021668145EFE0DFCE7F
:101E30002381018A238A0188238301880A20238E33
:101E40000186238B018821472146F9452380040020
:101E5000A38EE180EFE05FCC05472382E18803A7F2
:101E6000818723ACE18829616FE02FBA13661600E1
:101E700011B50A20F945EFE0BFC41376C5FF42064D
:101E800093771500418291CB136626000A20F9450D
:101E9000EFE09FC89C20E9F379B713661600FDB701
:101EA00083A7C1861307000293F7070F639EE7001D
:101EB000B79702409C533707FE1FF98F91C7EFE297
:101EC0002FB3B5336FE00FB58280EFE26FB2EF0052
:101ED000301AEF00607EEFF01F96D9376FE08FB3B6
:101EE000EFE20FB1378702401C4B2E8481458D9B5A
:101EF0001CCB50595C411443D18F378620FF130609
:101F0000F610F18ED58F1445D58F5445D58F545189
:101F1000D58F5455D58FB7061000D58F1CC31C43E1
:101F2000D58F1CC3545D1C5DD58F3441D58F744152
:101F3000D58F3445D58F7445D58F3449D58F7449A5
:101F4000D58F5CC33C4D1CC77C4D5CC730597C555C
:101F5000144FD18F4166130616F4F18ED58F745944
:101F600037960240D58F3451C206D58F1CCF3C5DC9
:101F7000745DD58F5CCF8326850883270508184EAE
:101F8000D58FB746DEF8938636F2758FD98F032743
:101F9000C508D98F03274509D98F032785092285CD
:101FA000D98F1CCE2166EFE03FB72146F945228547
:101FB000EFE09FB605456FE0EFA5EFE2CFA13171ED
:101FC0008545AA847165EFF0EF9685472394F188E3
:101FD000EFF09FA33747024083270780096413046B
:101FE000047193E747002320F780EFE07F9E138979
:101FF0008188EFE07FC0B79902407D1442042945F3
:102000004180452309C483A70900858BFDF748005B
:10201000EFE09F9D8567938707803ED285473EC24C
:1020200083550900930700203ED693070008370424
:1020300020003ECD48009307000422C93ECF02CCC9
:1020400002D002D802DE82C882C482CA82CC02C315
:10205000413DDC30D820B7860240A207D98FBCC2F0
:1020600098309C203785018022075D8FBC208545F4
:102070001305150CC2075D8FBC30E207D98FFCC277
:10208000B707020023A886109387070223A6F6103D
:10209000EFE01FBC29616FE04F97EFE26F95B797B4
:1020A0000240C04B13170401635A07021377040858
:1020B0001DC303A7C186C1461377070F6319D70055
:1020C000F847B7060080584714C323A40700130538
:1020D0000008EFE05FB32165EFE0FFB29317F40073
:1020E00063DA07029377040489C713050004EFE05D
:1020F0009FB19377140081C70545EFE0DFB06358C7
:102100000400EFF07F9837050080EFE0DFAF416516
:10211000EFE07FAF6FE00F90EFE28F8D2A84130521
:1021200040065D29EFE03F8A23A6A186EFF09F8954
:102130003C3058202285B98F5830B98F374703007B
:1021400013071740B387E70237A72600130797EC5A
:10215000BA9723A0F188953537250020B755002080
:10216000130405410946938505E313050541EFE096
:10217000DF9F37250020B72500209304053A1D4630
:10218000938505431305053AEFE05FA223A69188E6
:1021900023A881880967B7E700E023A4E710A38696
:1021A00007446FE02F87EFE2AF8439719307006037
:1021B0003ECA9307405B3ECC8567938747273ECE58
:1021C000930720033ED0930730103ED2B7275540E7
:1021D00085073ED4B7170000938787413ED6B717CF
:1021E00000009387673F3ED8B71700009387673B8F
:1021F0003EDAB7573412938787672A8948082EC674
:1022000032C4B68402DC3EDEEF0050502A8411E96D
:102210002246B245A6864A85EF0030432A842685A9
:10222000E53D228521616FD0FFFEEFD27FFC411199
:1022300085454145EFE0FFF189677C82C1473EC695
:102240004C008D47371501403EC4EFE0FFA241012D
:102250006FD05FFCEFD2DFF94164AA842E897D1430
:10226000CA852685EFE03FD101C501456FD09FFAB1
:102270007D14420441806DF40545CDBFEFD2BFF51A
:102280004164B75400402A8A2E897D149389044002
:10229000B70502004E85EFE07FCF5DE985451385E8
:1022A0000440EFE0BFC8B70503008505138504406F
:1022B00055375DE193050002138504400146EFE0C8
:1022C0007FCAB70507009385250813850440593751
:1022D00041E54164B7090010B75400407D1493896B
:1022E0000908938A0440CE855685EFE03FCA2DC980
:1022F000D28513850440EFE0BFC6B705070093857C
:10230000450813850440B93721E94164B709001035
:10231000B75400407D1493890908138A0440CE8580
:102320005285EFE0BFC631C1CA8513850440EFE096
:102330003FC3B70507009385450813850440193F3F
:102340002A8419E9854513850440EFE0DFBF31A0F9
:102350007D14420441800DFC054422856FD0FFEAC4
:102360007D144204418041F0C5BF7D144204418088
:102370005DF4DDB7EFD2DFE7011185452145EFE0E0
:102380005FDD85450545EFE0DFDC85450945EFE08C
:102390003F9B854537052000EFE09FDD3714014066
:1023A000130504C093050030EFE01F999307001058
:1023B00071498D444C00130504C07C824AC626C472
:1023C000EFE09F8B930700204C00130504C07C8234
:1023D0004AC626C4EFE05F8AE1679387076A3EC872
:1023E000B70700403ECAB7070004375400408507CE
:1023F0003ECC0C08916713050440FC86EFE0BFA1BA
:10240000130504408545EFE0FFB0EFF01FE29305B0
:1024100000080145EFF09FE681450145EFF01FE61A
:1024200013054006552A930580050545EFF01FE585
:10243000930500050545EFF07FE49305300F09454E
:10244000EFF0DFE39305000F0945EFF03FE3A5450B
:102450000D45EFF0BFE299450145EFF03FE28145C0
:102460001145EFF0BFE181452145EFF03FE19305D4
:1024700000081305B002EFF07FE0930580082545C2
:10248000EFF0DFDF9305C0043145EFF03FDF894512
:102490003545EFF0BFDE81454145EFF03FDE814538
:1024A0004545EFF0BFDD81454945EFF03FDDE145B2
:1024B0005D45EFF0BFDC89456145EFF03FDC8145CC
:1024C0006945EFF0BFDB81456D45EFF03FDB9305DC
:1024D000800B13057002EFF07FDA9305800B130574
:1024E000A002EFF0BFD913054006FD2001450561AC
:1024F0006FD05FD2EFD2DFCFEFF0DFE793050008B8
:102500000145EFF0BFD781450145EFF03FD71305F7
:102510004006D9209305D0050545EFF03FD6FD458F
:102520000945EFF0BFD59305000C1145EFF01FD51D
:102530006FD05FCEEFD2DFCB411185454145EFE053
:102540005FC19D477C82C1473EC64C008D47371511
:1025500001403EC4EFE04FF2854537150140EFE002
:10256000AFFD894537150140EFE00FFD9145371567
:102570000140EFE06FFC41016FD0DFC983A74181CB
:1025800037177A0013070720B3D7E70293F7F70F3F
:102590002383F18A1307803EB387E7022392F18AEF
:1025A0008280B7F700E0D8438146799BD8C303C740
:1025B000618A3306A70290CBD4CB984313670701F7
:1025C00098C398431367170298C3D843058B75DFE8
:1025D0009843799B98C38280B7F700E0D84381463F
:1025E000799BD8C303D7418A3306A70290CBD4CBBB
:1025F00098431367070198C398431367170298C35A
:10260000D843058B75DF9843799B98C38280EFD2BE
:102610003FBE2A841165011185451105EFE07FB3A6
:10262000930700207C82371501408D473EC44C0043
:10263000E147130505803EC6EFE00FE422C83744AA
:102640000140B70708000C08130504803ECC02CAFD
:10265000231E0100EFE0DFCA854513050480EFE08B
:102660001FD305616FD01FBBEFD2FFB6B744014047
:10267000AE893289014493840480634524014A85EC
:102680006FD0BFB8930500042685EFE03FD27DD917
:10269000B38789008385070026850504C205C181AB
:1026A000EFE05FD0D9BF73251034828073252034CA
:1026B0008280732530348280EFD29FB383A78187D5
:1026C00041113EC6EF10C0151189630005149387B0
:1026D000018C9843B246998E37970020032787B51F
:1026E00005836376D700324798C3EF30D02DEF30A3
:1026F000B06783A7018D91C7EF30102F19E123A890
:10270000018C9384C18B9840B247998F1307703E18
:102710006376F700EF20C005B2479CC09387818A9B
:102720009843B246998E0567130777386376D700CA
:10273000324798C3EF10A041B79700209387C7B1E5
:10274000D84711CF1387818B1043B246918E130661
:10275000703E6376D600B246DC4314C38297B794CA
:10276000002083A744ACA9CB1387418B1C43B246FE
:102770001306A00F9D8EB797002083A747B9ED835E
:10278000B387C70263E9F600B2471CC3938744AC22
:102790009C4B91C382979387018B9843B246998E45
:1027A0003D671307F7A56379D7003247938444AC9C
:1027B00098C3DC4891C3829732459384C18A7D2CAB
:1027C0009C4032471D8FBD679387F7A563F5E700EF
:1027D000952CB2479CC003C7D18CBE841377F70FEA
:1027E0000DC703C7D18C1377070C1DE3B7970020E3
:1027F00083A7C7B999C30545829703A7818723A4F7
:10280000E18C93070004A386F18C41016FD09FA057
:1028100003C7D18C1377070415CB83A6818C03A73C
:1028200081871389818C158F93064006E3FFE6FCB0
:10283000B797002083A7C7B999C30145829783A79B
:1028400081872320F900930700F875BF03C7D18C57
:1028500062076187E35B07FA83A6818C03A7818700
:10286000158F93064006E3F2E6FAA386018C71BF4A
:10287000EFD21F98379500201305C5BAEF1030101E
:102880006FD05F99EFD2DF96B79700209387C7B3D9
:10289000D8573794002088D313674700D8D71189B9
:1028A000930704B89C4F130404B801CD99C30145A4
:1028B00082975C4C99C3014582970545AD226FD044
:1028C0007F9599C3054582975C4CF5DB054582975A
:1028D000FDB783A7C188232005009DCB944363DB0C
:1028E0000600D4479042634506029C4363D4070028
:1028F00023A6D18883A7C18891650146FD15354877
:10290000B7080080944363D7060019C223A6F18854
:102910000145828094431393060163420304944368
:1029200093F606108DCE944393F606208DCA9443F9
:10293000C182ED8EF11614C16371D802944393F6EF
:10294000060281EA19C223A6F1889C475CC10545AD
:102950008280944393F61608F5D62320050023A021
:1029600017010546DC4779BF03A7C188B706008079
:1029700014C3584723A6E1888280EFD27F8783C79C
:10298000D18C93F7F70F81E78547A386F18C03A7D6
:1029900081879387418C09CB98C3B797002083A781
:1029A00007BA82976FD01F870547FDB7B7F7FF1F9C
:1029B00003D567701375050F8280EFD27F83B797B9
:1029C000002083A707BA0149B9C783A48186A1C49F
:1029D0009C4003A984001384418C63DC0702EFF060
:1029E000FFFC144081471306000813083006A16855
:1029F000130300036304C5006312650203A7818704
:102A0000158F6364E80063FBF8009C4086078583AC
:102A10009CC0232004004A856FD0CFFF9840E35A22
:102A200007FE8507C1BF03A78187B797002093875B
:102A300087AB88A3239107002392070098C7A38040
:102A400007008280EFD2CFFAB79400201384C4BA73
:102A50005C4041116C001385C4BA3EC623220400B9
:102A6000EF10E02FB2476C001385C4BA5CC05C4421
:102A70003EC6EF10C02E41016FD0CFF9B7970020AE
:102A8000938787AB982319E388C78280984793067A
:102A9000703E3307E54063F3E602EFD26FF5BA23E9
:102AA00088C7914663F7E6000145EFF0DFF76FD086
:102AB0006FF60507BAA3EFF0FFF8D5BF8280EFD21B
:102AC0002FF32A840145EFF01FF6B7970020938774
:102AD00087AB11C8054798B3B7970020094723A4CF
:102AE000E7B66FD02FF3A3800700E5BF82800328ED
:102AF0008503630B0802EFD2AFEFFC5D014791C77E
:102B00000507420741839C43DDBF83A7050891C7A2
:102B10000507420741839C43DDBF8146014681454D
:102B2000029801456FD00FEF0145828001458280F8
:102B3000EFD28FE95C42032A85000329C5000049D2
:102B4000AA8488239C33B289A2075D8DEF1060723E
:102B50009355650093F5C503B305B0404E85EF204E
:102B6000102849E5DC44984C03DB8900998F63F811
:102B700067014E85EF20902D05456FD06FE84A9A8A
:102B80004E890356A900B30A8A40832B490063F497
:102B9000CA045686DE852285EF6010218357A9007E
:102BA0009844330444413E942286B3855B013A85C0
:102BB000EF60901F2A9403290900E31409FC4E8555
:102BC000EF20D0289C4C80C8DA979CCC9C4093E79F
:102BD00047009CC055B72285DE85EF60F01C835707
:102BE000A9003E94E39957FD8044F1B7014571B7C0
:102BF00071CAEFD26FDD832BC5001C4D035B8600CD
:102C0000BA8AB387FB40368A32892A8463F7670120
:102C10003285EF20B0236FD0AFDE1C450449B28966
:102C2000BE9B03D6A900338C9B4083AC49006377DD
:102C3000CC066286E6852685EF60101783D7A9004B
:102C40001844B3847441BE942686B3858C013A85BA
:102C5000EF609015AA9483A90900E39409FC4A85C2
:102C6000EF20D01E032884036305080483451A005F
:102C700083470A001448A205DD8D83472A005A873E
:102C80005686C207CD8F83453A002285E205DD8D49
:102C900002981C44232C04001CC8B5BF2685E68579
:102CA000EF60901083D7A900BE94E39687FB04449D
:102CB0005DB7184C1C4004C85A9793E7470018CCDE
:102CC0001CC091BF828018519547631AF70CEFD250
:102CD000AFCF1C492A847D55D9CF328AAE8455CADC
:102CE000832A84005844835B86003289BA9AC20AD8
:102CF00093DA0A019399070193D90901338B3A4179
:102D00000356A900420B135B0B01032C49006376A9
:102D1000CB065A86E2853E85EF6010090357A9006D
:102D20001C44B3056C0133075741BA99C20993D9C2
:102D300009013E854E86EF603007B3073501032950
:102D40000900E31909FA184C1CC852855E9718CC83
:102D500018401367470018C0EF20500FFE38184C7A
:102D60002685B38B77415C44239B7403998FDEB433
:102D7000EF20506801456FD0AFC83E85E285EF6017
:102D8000B0020357A900B307E500E31A67FB1C4430
:102D90007DB70145EDF22E85EF30A02EE9BF6555D8
:102DA0008280EFD2EFC42E84B7350000AA849385C9
:102DB00065CC2285EF209073B7350000228593857E
:102DC000E5AEEF201073B7350000228505469385E8
:102DD000C5B2EF20D0729C20014593E787009CC0CC
:102DE0006FD04FC319C93305A040A5679387077EED
:102DF0001375F50F3E950821828001458280EFD240
:102E00002FBF9307C003B387F50237940020130741
:102E1000C4A72A89AE841306C00381451304C4A73E
:102E2000BA973E85EFD0CFBF630709001306C003F2
:102E3000CA85EF6060779305C003B385B402A2959D
:102E40009C459CC9DCC96FD0EFBCEFD2CFB82A8AB1
:102E5000379500204111AE89B28481456146130542
:102E600045AC36C6EFD0CFBBB2463794002013092D
:102E7000C4B3B68519461305C900EF60E072114668
:102E8000D2851305C4B3EF6020721146CE851305B9
:102E90004900EF6060711304C4B3A1E0B7070001FB
:102EA000FD171CC4814483C7C18C63CFF402EF10AB
:102EB000003485475CD01567B7970020938707B328
:102EC000130707E298C31167130787A9D8C32547DB
:102ED00098C7014541016FD04FB31146A685130530
:102EE0008400EF60606C7DBF93F5F40F0145EFF057
:102EF0001FF185044DBF1841B7970020938707B392
:102F000098C35841D8C3184598C782801855B757F9
:102F10003412938787676310F712EFD2CFAB1C513F
:102F20002A84254563810710379900201306400441
:102F300081451305C9B3EFD0AFAEB7940020130697
:102F4000C0028145138504B8EFD08FAD1306C002CF
:102F5000A285138504B8EF602065938904B803A7A0
:102F600049014A86938704B825EBA56603D7067CFA
:102F70009386067CAE222E97CE22F6222E97369787
:102F80009316270163D3060AD8CBD84B9356E70094
:102F9000FD8A89EAB746F8FFFD16758FB70605006A
:102FA000558FD8CBD84B93563701FD8A89EAB7465F
:102FB000F8FFFD16758FB7065000558FD8CBD84B4C
:102FC0009316670063CA0600B70600FEFD16758FEC
:102FD000B7060014558FD8CBD84B9356B70189E666
:102FE000B7060040558FD8CBD85311E737370000CC
:102FF0001307278DD8D3D44B014513D7E6007D8B1B
:103000002386D18C9307C6B398CF13D736017D8B17
:10301000130620033307C702D8CF13976600635403
:1030200007000947B8C36FD04F9EF976FD16758F1C
:103030008966558F91BF1305F00F828069458280A4
:1030400003C6C18CB79700209386C7A70147938713
:10305000C7A76317E60081476313F7020145828023
:1030600003A807036317A80009C50545EDD998A172
:10307000828005071377F70F9387C703D9BFD05A0C
:103080006319A60019C50545F9D993E707F89CA16E
:103090008280850793F7F70F9386C60375BFEFD23B
:1030A0008F93379900202300050003C7C18C41117D
:1030B0009307C9A781441309C9A76317970013058C
:1030C000000241016FD06F949387C70383A647FE28
:1030D00063810618850493F4F40FC5B7B7970020F1
:1030E00083A7C7B36C003EC6EF20B0091146930515
:1030F000C4026800EF60404B6C004E85EF20500A20
:103100001306C0033386C402B7350000938505B3A8
:103110004E854A96EF20B00A9547379500206C00FF
:10312000232834031CD01305C5BAEF005043A685ED
:103130002285EFF0DFCC014569B709476390E70AC4
:10314000EF507018AA8963030512930AC40211464E
:10315000D6856800EF604045324A370500F0EF1031
:103160006014337AAA00370500E0EF10A013630063
:10317000AA04B79500209385C5BA6800EF10A05A3D
:103180001DE5B797002083A7C7B312346C004E85A6
:103190003EC6EF5000701DE1D68511466800EF6015
:1031A000A04052306C004E85EF50B00939A0123467
:1031B000938581844E85EF50C06D01C5EFF09FC2AD
:1031C00009B71306C0033386C402B73500009385E0
:1031D00005BF4E854A96EF50B00E3DBF0D47130513
:1031E0001002E390E7EEEF30C0255C4412346C002F
:1031F0005EB9B797002083A7C7B3AA893EC6EF2060
:10320000100E2A8A11C54E85EF20B06752857DB712
:103210009305C003B385B4024E85CA95EF20D02C28
:10322000B73500004E859385C5AEEF20F02C95474D
:10323000A685228523283403232A34031CD0EFF0EB
:103240001FBC379500206C001305C5BAEF00303164
:10325000DDB504A1DC4DC4C12E84E39007EE034527
:103260008402EF20007FAA89E31A05E6454591BD57
:10327000EFC21FF84EB52A84EF20D01709CD83473F
:103280006402228593E727002303F402EF40B05144
:1032900005456FC03FF8B797002083A707B9A18302
:1032A000858BFDD783476402858BFDD38947A303B4
:1032B000F402054723A8E18CE1BF83C7C18C637684
:1032C000F5041307C0033305E502B7970020938781
:1032D000C7A73E95584D232C050050C50CC50CC9F9
:1032E0004CC98D476313F702085905C15A39933702
:1032F0001600631CF700EFC2BFEF93150601C181F2
:103300004EB9EFF0FFF66FC0FFF08280EFC2BFEC66
:1033100014426944CDCE23200600328A1306C0032E
:103320003306C502B79400201387C4A7AA89AE87C5
:103330009384C4A73297032B870050470329870142
:10334000404B329B63F326013689B30A8B4063F30B
:103350002A0981CB3E855686A285EF60E024B3071B
:1033600055011307C0033387E9024A9433046441CB
:103370002697832A870091C72286D6853E85EF60EF
:10338000A02256949307C003B387F90223202A0191
:10339000A697984FC0CB3309274123AC2701631868
:1033A00009009847D8CB98CB98436D9B98C3930757
:1033B000C003B389F9028D470144CE94D84C6318F9
:1033C000F70063160900CE248858EFF07FEA2285C3
:1033D0006FC0BFE391C74A86A2853E85EF60C01CDF
:1033E0004A94E3912AFB9307C003B387F902A69797
:1033F000804749BFEFC25FDD00422320060055C46D
:10340000AA876945D9C51305C003B387A7023795B5
:1034100000201305C5A7B79A00208144AA9703ABE3
:1034200007039387CAB3BC43938ACAB3898B99E3D2
:103430009304700C9307805C63F487001304805C32
:10344000931C0401328A2E8993DC0C01130C800C2E
:103450000146E6850145EF204024AA8929C9484153
:103460002286CA8523AE0A02EF600014CE855A85F3
:10347000EF20205DAA8B4E85EF20401D83A7CA0355
:1034800099CB8504C204C180EFF08FBEE39284FD26
:103490004D456FC0FFD663D60B005E85EFF09F945D
:1034A000CDBF23208A000145EDB76945DDB745450D
:1034B000CDB7EFC27FD100422320060055C4AA87B2
:1034C0006945D9C51305C003B387A7023795002006
:1034D0001305C5A7B79A00208144AA9703AB070339
:1034E0009387CAB3BC43938ACAB3898B99E3930485
:1034F000700C9307005C63F487001304005C931C5A
:103500000401328A2E8993DC0C01130C800C0146D5
:10351000E6850145EF206018AA8929C9484122861D
:10352000CA8523AE0A02EF602008CE855A85EF5087
:103530002050AA8B4E85EF20601183A7CA0399CB38
:103540008504C204C180EFF0AFB2E39284FD4D4523
:103550006FC01FCB63D60B005E85EFF0BF88CDBF79
:1035600023208A000145EDB76945DDB74545CDB754
:10357000EFC29FC58329060023200600638E090C35
:10358000AA872E8B6945A1C11305C003B387A70283
:10359000379500201305C5A7379A0020B28B930AF0
:1035A000900C8144114C130A0AB8FD5CAA9703A938
:1035B0000703FD1AC20A93DA0A0163980A0083A777
:1035C0000B00C9CB01456FC0BFC3832709016397B7
:1035D0008709EFF0EFA90357690719E34545E5B7F8
:1035E00083270A01858B99E3E36A37FF03244A00A6
:1035F000637387003A8463F389004E8413160401D1
:103600004182854691E38146DA854A85EF40B00FD5
:10361000AA844A858DE4EF40101983A70B00B38973
:103620008940AA84A29723A0FB00229BE38C09F87F
:1036300083270A01858BB5FFEFF0CFFA69B763994D
:103640009401EF40501683270A01858BBDF379B7AB
:10365000EF4070152685CDB76945B5B75D45A5B76F
:103660009307C003B307F502379700201307C7A7D6
:10367000BA9703A8070215476307E800DD47232030
:1036800006003E858280EFC2BFB6D84F8D476318D3
:10369000F700EFF0FFEDAA873E856FC0BFB701E7E7
:1036A000EFF05FD5CDBF89469307A00FE316D7FE95
:1036B000EFF03FE0CDB7EFC2BFB3A147AA8400212E
:1036C000638AF50263ECB70085476381F502894799
:1036D00013642400638EF5006FC0DFB3C147638EAF
:1036E000F5009307000413640404EDB71364140099
:1036F00080C0DDB713648400E5BF4859136404013A
:1037000065D9EF201018EDB7EFC29FAE41119305B8
:10371000F1002A89A3070100EFF09F9215C5808769
:1037200093178401E18763D407021374F407130726
:10373000C0033304E402B79700209387C7A73E94E1
:10374000232A04022320040241016FC0BFAC83C7B7
:10375000C18CE37BF4FE1307C0033307E402B79781
:1037600000201385C7A79384C7A73A95544D0D47EA
:10377000E39CE6FC832709010547DD1793F7F70F64
:10378000636DF700C145EFF01FF39307C0033304E7
:10379000F40226942328040275B71C2193E707043A
:1037A0001CC1E5B73797002083C6C18C1307C7A794
:1037B0008147638FF6001307C703032647FC11CE2A
:1037C000B79700209387C7B3D85713670701D8D797
:1037D000B797002003C587B68280850793F7F70F58
:1037E000C9BFEFC2FFA0EFF0FFFBB797002023A4F3
:1037F00007B66FC03FA283C7C18C6371F502930700
:10380000C0033305F502B79700209387C7A7AA978F
:1038100098431375F70F118B98C3828001458280FE
:10382000B797002003C5C7B582809307C00333054F
:10383000F502B79700209387C7A73E951C5995CFEF
:10384000145115475D45639BE60285899A279DC102
:10385000136787009AA737970020130707B314430D
:1038600023A0D70A5443184723A2D70A23A4E70A60
:10387000014582805D9B9AA7E5BF5D458280EFC2CE
:103880003F971304C00333048502379500201305C6
:10389000C5A741112A9404585D458DCC1850954711
:1038A0005D456319F7025C54232A0402B736000011
:1038B0003EC65230938626DA6C002685EF20503CB7
:1038C0002A8901CD2685EF20C07B4A85232004026A
:1038D000EFF04FD141016FC0FF9383C764020145F0
:1038E00093F7F7FB2383F402F5B7B797002003A5FE
:1038F00047B9358105898280B79700209387C7B380
:1039000005474111C8CB94DBD0DB8CDFD8D7410110
:103910008280B7970020054723ACE7B68280EFC2CC
:103920003F8DB797002003A6C7B883A6418213171F
:1039300086016187630B051483C7418D61488948FF
:103940003388070336980323C80063101315034315
:103950001500834805000328080022033363130180
:1039600083482500C20833E3680083483500E20835
:10397000B3E86800639B0811E207E1873E856FC0EA
:103980007F89B3885702B69803AEC800631906074B
:1039900063170E061398870113588841850793F71C
:1039A000F70FE3E0C7FE6317060193F81500FD5714
:1039B000E38608FC8989FD57F1F19377F80F636B73
:1039C000C8009377F30F6367C300FD57E378C7FA26
:1039D0009377F70F61473387E702BA9623A606006D
:1039E00001CD103118212206598E38214207598EF7
:1039F00038316207518F98C2238806000DA86314DE
:103A00007E040DC9834E1500034E0500A20EB3EED1
:103A1000CE01034E2500420EB36EDE01034E35008B
:103A2000620E336EDE0183AE08006315DE01238A69
:103A3000F18C99B783C80801E3E2E8F7139787018F
:103A40006187468FA1BFE31B8EF415C5834E150019
:103A5000034E0500A20EB3EECE01034E2500420E2A
:103A6000B36EDE01034E3500620E336EDE0183AEAF
:103A70000800E30EDEFB83C80801E3E1F8F31393CB
:103A8000870113538341C68F11BF3A883A83814F10
:103A9000014F8147E1428543094421B7EFC2AFF3AB
:103AA00098319C21368A22075D8FBC215441C20780
:103AB0005D8FBC31E207D98F639BF60089E6D95749
:103AC0003E856FC08FF40545EFE07FFFCDBFE5DB9E
:103AD0002E842A89AA852285B289EF00D04465F117
:103AE0001C300420370500F0A207C58F2420C20433
:103AF000C58F2430E204DD8CEF00C07AE98C3705F5
:103B000000E0EF00207AE38CA4FAD2852285EFF062
:103B10001FE1AA87E34605FAE147B307F50203A5CB
:103B200041823E9589475CC5232A25019387590028
:103B30001307950094237D1714B39386F7FF6396BC
:103B4000F900230805008147A5BFB687E5B7B797F9
:103B5000002003A5C7B803A841820147E1480943F3
:103B60000546130EF00E6363A7008280B3061703A9
:103B7000C2969C2ACC46850793F7F70F9CAA6398B8
:103B80006500636AFE0005071377F70FE9BFE39C42
:103B9000C5FEE37AF6FE23A60600F5B721CDEFC2F7
:103BA0002FE5C4412A84DC34C824A2075D8DEF00D0
:103BB000606BA16793870710938524016304F50068
:103BC0009385E400D835DC2522075D8FFC25C207EC
:103BD0005D8FFC35E207D98F5840B98F1844F98FB3
:103BE00081EB814613866400B1052285EFF01FEB5F
:103BF0006FC04FE2828063030516EFC2CFDD3A2625
:103C0000930790024111B2892E8AAA8463E8E700E3
:103C10004E85EF10B02341016FC02FDF032946000E
:103C20008347D9000345C90013042901A2075D8D0C
:103C3000152DA167938707106304F5001304E900AD
:103C4000834A14001C200545A20AB3EAFA00192D84
:103C5000E390AAFC834A54005C2013054060A20A4A
:103C6000B3EAFA000125E395AAFA834A34003C201E
:103C70000565A20A13050580B3EAFA00E523E39976
:103C8000AAF8930AE4001146D6856800EF50D011D7
:103C9000D44013068400ADC2183C1C2C22075D8F53
:103CA0003C2CC2075D8F3C3CE207D98F6396F6043B
:103CB00085466C002685EFF07FDE054B7C30682062
:103CC000A2075D8D45238547630FF5028947E31100
:103CD000F5F46C002685EF10E033B797002003A7BA
:103CE00047ACE30707F2938747ACDC47E38207F270
:103CF0006C002685829729BF81466C002685EFF0EF
:103D0000FFD9014B65BFE3050BF00945A12B68A066
:103D1000218168B01146D68513058401EF50D00883
:103D20001146938544005685EF5010083504150957
:103D30009547FD5618207D197D1438B4A300E9007D
:103D40003307FA001823FD1718B0A303E900E39323
:103D5000D7FE9C4CCE85268582975DBD8280EFC2C2
:103D60008FC72A89AE8901469305A0020D45EF1041
:103D7000D0127D544DC94041AA840545E52148A88B
:103D8000218148B89306E9029307540015479385AB
:103D90000184138681837D5503C80600FD17FD1637
:103DA000A38B07013388E50003480800A3800703BD
:103DB0003308E600034808007D17A380070103C805
:103DC0001600A3830701E319A7FC114693054900D8
:103DD0001305C401EF50407DCE85114613056402E2
:103DE000EF50807C0545BD2968A48569218168B4B0
:103DF00013850980852908A8218108B8130540602A
:103E0000952128A8218128B813856980A1298327B5
:103E1000890148A4218148B4A6854A8582972A84CD
:103E20002685EF10B00222856FC02FBEEFC2AFBA59
:103E30002E842A89AA852285B289EF00D00E01C579
:103E400059556FC08FBC1C300420370500F0A20705
:103E5000C58F2420C204C58F2430E204DD8C992153
:103E6000E98C370500E03D29E38CA4FC18301C20C8
:103E700022075D8F3C20C2075D8F3C30E207D98F5F
:103E8000E1D385452285EFF09FA9E34C05FAE14790
:103E9000B304F50203A74182138A4182854726971E
:103EA000544799EA5CC7EFF0DFA6A2854A85EFF098
:103EB0001FEBE38809F831A0E387F6FE7D55E38424
:103EC00009FE83270A000947A697D447E39BE6F635
:103ED00003A44900138797001306E90293065400D0
:103EE0008D070C237D17FD168CB20C227D16ECB2CB
:103EF000E319F7FE056513050580AD2683278901C3
:103F000048A4218148B4CE854A8582971DBFEFC25F
:103F10008FACAE8441112A89B94526853284EF10D1
:103F2000006C631E0510CA852285EF00C07F6315F3
:103F300005101C3083490400370500F0A207B3E7E1
:103F4000370183492400C209B3E7F90083493400EB
:103F5000E209B3E9F900B926B3F9A900370500E091
:103F600091261020143038203C30639CA90813950A
:103F70008600518D4207598DE20785456C845D8D21
:103F80009305E0054C85392E41811375F507C885E9
:103F900008301C2022055D8D3C20C207C98F2830C7
:103FA00062055D8D01262181488608301C2022058E
:103FB0005D8D3C20C207C98F283062055D8DDD24F0
:103FC000C8863400C04095477D5613075400B3851A
:103FD000F6008C217D170CB3B305F90083C595025B
:103FE000FD176CB3E395C7FE0565130505809D2C91
:103FF0008327890148A4218148B4A6854A858297F0
:104000000DA8A206D18E4207558FE207D98F03274C
:104010004900B98F03278900F98F99C78327C90001
:10402000715581CB1304C9002686A2854A85EFF01D
:10403000FFDF41016FC06F9D9386818361B7795522
:10404000CDBFEFC2EF9A44412A842E89DC34C824C4
:10405000A2075D8D012CA167938707106317F500F8
:104060009C388828A2075D8DF52A9307058091CB9F
:104070008567938767806302F5042285EF10005DF2
:1040800015A8A2854A85EFF07FB1DC34C824A207C9
:104090005D8DC92AA16793870710B9456313F500A1
:1040A000C945B305B0402285EF10605379F5CA8544
:1040B0002285A92401456FC0EF95228693059902B8
:1040C0004A85EFF05FB3FDB7EFC28F92B79700203C
:1040D0009387C7AD5CD193075006A309F5029307F8
:1040E000E006230AF502B74700009387E7F05CC9B2
:1040F000B74700009387C7121CCDB795002099479A
:104100002A842304F502232E05001946938555BD04
:1041100013059502EF5040499307C05D1EB8930701
:1041200030032309F40201456FC0CF8EEFC24F8CDC
:10413000B1642E8493841435EFF08FEE118915CD80
:10414000FD1485CCEFE07F872A897DD5AA8781443D
:1041500001E8CA852685EFE05F8201456FC08F8B3D
:1041600032244C403E85EF5020443A240040BA941B
:10417000C204B307E500C180E1BF5155C5B7EFC226
:104180008F85B797002083A747BAAA891385818DA9
:104190009384818D82978C40A9C983C7D18C138465
:1041A000818D93F7F70F81E78547A386F18CC205D0
:1041B0000D46C1810D454440EF10204E2A8915C59A
:1041C0002A8432244840A685EF50003E3E24004019
:1041D000BE9465F8EFE04FF983A70901CE854A85C3
:1041E000829701C54A85EF1060466FC00F82EFC20B
:1041F0002F8041113794002002C202C402C6EF0092
:1042000090791305C4BAB79500201946938585B4F3
:1042100013059502EF504039B797002003A7C7B3A5
:104220009387C7B31305C4BA3AC29847DC433AC46C
:104230003EC623AC018E23AA018EEF1060393748A9
:104240000000B7470000740030004C001308280439
:104250009387870C01471305C4BAEF10C0314101A1
:104260006FB05FFB9317850021815D8D4205418111
:1042700082809317850021815D8D42054181828076
:104280001357850193178501D98FB706FF001317C0
:104290008500758FD98F4167130707F02181798DCC
:1042A0005D8D8280EFB2DFF4EFF09FFD6FB09FF67F
:1042B000EFB21FF403A4818FAA8401EC03A5418F00
:1042C00011C5EF10403119C103A4418F22856FB091
:1042D0007FF42285EF10203005C198309C20220702
:1042E0005D8FBC20C2075D8FBC30E207D98F58407C
:1042F000B98F1844F98FF9DB0040C1B7EFB2DFEC9A
:104300004041AA84AE891C300820A2075D8DEFF0E1
:104310005FF631814205418191476306F5002685AC
:10432000EF10C03231A41C300820A2075D8DEFF0E1
:104330005FF419813C30137AC5032820A2075D8DF4
:10434000EFF03FF3BE242A89E3EB47FD9E24E3E828
:10435000A7FCD2852285EF40B04071F1CA85268541
:10436000EF10A047370500F0EFF0DFF3370500E06E
:10437000EFF05FF34E89054B930B04014A85EF1074
:10438000802511E563130B12032909000DA2930781
:104390004900EDDB83264900F5D618381C28220792
:1043A0005D8F3C28C2075D8F3C38E207D98F63825E
:1043B000F604CA855E85852E0DED1C38834A0401FE
:1043C000370500F0A207B3E75701834A2401C20A68
:1043D000B3E7FA00834A3401E20AB3EAFA00EFF0E5
:1043E0007FECB3FAAA00370500E0EFF0BFEBE39BE8
:1043F000AAF858345C2422075D8F7C24C2075D8FA5
:104400007C34E207D98FB9C3CE851305C400212EB1
:10441000E31705F05C34034AC400370500F0A20737
:10442000B3E74701034AE400420AB367FA00034ACC
:10443000F400620A336AFA00EFF0DFE6337AAA008A
:10444000370500E0EFF01FE6E30BAAECE30909EC07
:1044500003497400682022093369A90011657D159C
:10446000EFF05FE03375A90011C52685ED26AA841B
:1044700061C14041CE852685EF10204A55E91C34A4
:104480000824A2075D8DEFF0DFDE1375F50F994765
:104490006303F50AC5476309F50885476312F50A02
:1044A000CE852685EF40C06B61A003A9818F631480
:1044B000390103290900014BE31209EC1C340824DB
:1044C000A2075D8DEFF0FFDA1375F50FC547631E88
:1044D000F500B3074401A823BC33A2075D8DEFF0BC
:1044E0005FD993074004630DF502854A1C34082404
:1044F000A2075D8DEFF0FFD71375F50FC547631960
:10450000F508229A83473A0003452A00A2075D8DE9
:10451000EFF03FD69307C076631CF5064E893DB792
:10452000E39809F2814AD9B7CE852685EF40E0129B
:1045300001456FB0FFCCCE852685EF20502CCDBF36
:10454000CE8513050401C522E31B05DC1C38034995
:104550000401370500F0A207B3E72701034924014E
:104560004209B367F9000349340162093369F9006C
:10457000EFF05FD33379A900370500E0EFF09FD269
:10458000E30FA9D8C0C089452685EF40700241BB22
:10459000E3910AE669B3EFB23FC3AA894289630F88
:1045A0000612AE8AD1453A8AB284B68B3E8BEF10A2
:1045B000000379576311051203A44900A20B1C34B0
:1045C0000824A2075D8DEFF0DFCA1375F50F336580
:1045D0007501EFF03FC91357850018B408A4EFF038
:1045E0005FC921814205418122053365650142058C
:1045F0004181EFF03FC798309C2008A422075D8FCF
:10460000BC20218108B4C2075D8FBC301165130541
:104610000550E207D98F13D787001CA818B813D705
:104620000701E1833CB838A83365AA00EFF09FC3C7
:1046300008A0218108B003D58900138A018EEFF00C
:104640007FC228A0218128B003550A00230304005B
:10465000A3030400EFF01FC183570A0048A0218183
:10466000850748B02310FA0063810A0203C71A00C5
:1046700083C70A0022075D8F83C72A00C2075D8FA8
:1046800083C73A00E207D98F99E7130749008147AA
:1046900019C38327490013D787005CA458B413D7E4
:1046A0000701E18378A47CB423050400A30504007A
:1046B000D1452285EF40D00A28A4218128B4835710
:1046C000090385C303D7890063FDE7002686CA85F1
:1046D0004E8585232A873A856FB09FB24441C10435
:1046E000F9BF832749012686CE854A858297DDB7A3
:1046F000EFB21FB001112A8432852ECE36CC3ACAD1
:104700003EC832C6EFF0DFBA09CDC2475247E24693
:104710003246F2452A882285EFF0FFE705616FB047
:104720007FAF7155E5BF18311C2122075D8F3C21F9
:10473000C2075D8F3C31E207D98F9386F7FF75572B
:104740006366D70203C725030145098B0DC3D84112
:10475000630FF70094453D8F758F11EB13C5F6FF7E
:10476000E98F3385A7401335150082800545828087
:10477000EFB29FA503A4418EC544014B1389418E1E
:1047800019E06FB0FFA7FD1493F4F40FFDD87C3C43
:10479000032C040091C7FD177CBC228B6284CDB72B
:1047A00083294400814A03A549005C315821A207AE
:1047B000D98F85EF18311C21514622075D8F3C218E
:1047C00093058400C2075D8F3C31E207D98F5CC03E
:1047D000EF40905D85454E85EF40C05E4E85EF1001
:1047E0004005AA8A4E85EF007066832944006396CF
:1047F0000902032709001C40631CE4042320F9007C
:10480000A2851545EF0070471387218E1E235A8419
:10481000B38A57412310570149B703A749004E8572
:104820001C33034A0700A207B3E74701034A2700E6
:10483000420AB367FA00034A3700620A336AFA0091
:10484000EF00307FAA9A4E85EF005060D28945B7BD
:104850002320FB0075B7EFB23F9744412A899C3073
:104860008820A2075D8DEFF0DFA019811375C503C5
:10487000D1476312F526FC30E820A2075D8DEFF0EA
:104880005F9FBC302A8BA820A2075D8DEFF07F9E32
:104890009C30AA8C8820A2075D8DEFF09F9D2A8C0A
:1048A0004A85EF001079B797002083A707B903D78F
:1048B000218E2A8D8D832A97FD8B9389218E63EC1F
:1048C000E72003A4418E814A138A418E1DE81545D5
:1048D000EF00B0382A846300052071468145130536
:1048E0004400EFB0FF938D477CBC83270A00232050
:1048F0008A001CC05146A68513058400EF40D04AAB
:1049000095ACD834DC2422075D8FFC24C2075D8F70
:10491000FC34E207D98F58486316F70298389C2870
:1049200022075D8FBC28C2075D8FBC38E207D98F94
:10493000184C6319F700DC30D4205A24A207D58F15
:104940006306F720A28A004051B7CC4203C8550045
:1049500003C34500220833686800637C060D93D5C5
:10496000860094A38CB393D50601E182ACA3B4B3C3
:10497000630E072A74336C23A206CD8E6364D614AB
:104980006362A814935689002300270114B3935639
:1049900009011359890134A3A3012701782C014B84
:1049A000058B630F0718638D081858404443D830AF
:1049B000D4202207558F6315071894339823A20635
:1049C000D98EB8234207D98EB8336207558F61E775
:1049D0005E2C03C904005146D1075EAC9C309305A0
:1049E00084002685A207B3E7270103C924004209F2
:1049F000B367F90003C9340062093369F900EF4075
:104A0000B03A4A2CEFF01F86A8A02181A8B02383DA
:104A10000400A383040023850400A3850400D1457A
:104A20002685EF40E053A8A42181A8B4032B4400BD
:104A3000D5A063090609F43103C36500A206B3E6F5
:104A400066006361D60801CB742378332207558F43
:104A50006303E8008148983194212207558FB421DF
:104A6000C206558FB431E206D98E2E8765AA9356B9
:104A700089002300270114B39356090113598901B2
:104A800034A3A3012701742378332207558FE3074A
:104A9000E6F0814821B75443EC23F833DC32D022CE
:104AA0002207A2074D8FD18F631AF7029C329822FA
:104AB000A207D98FB8224207D98FB83262075D8F1B
:104AC000B68731B74A85EF00D05683D709003385C2
:104AD000A7402390A9004A85EF005037014B8DA0D5
:104AE000B1554A8583244900EF00702FCA855A8545
:104AF000EF00F0559C3003C90400A207B3E727017B
:104B000003C924004209B367F90003C934006209EC
:104B10003369F900E31609FC03270A001C406314FB
:104B2000E4022320FA00A2851545EF0010155A85EE
:104B3000EF00305083D709003385A7402390A900A8
:104B40005A856FB0EFEB23A0FA00F1BFFC30E820EC
:104B5000896BA2075D8DEFF0CFF1FD1B33757501F9
:104B60004205418101E96A24EFF0AFF03375750128
:104B7000E31205D883D709003E9D2390A901FC309C
:104B8000E820A2075D8DEFF0CFEE9317250163C2F9
:104B9000070213153B017C2C4D810E05135C6C0044
:104BA0006695137CCC0393E71700330585417CACF5
:104BB0004AAC83244900BC30A820A2075D8DEFF0E9
:104BC0004FEB9C302A8B8820A2075D8DEFF06FEAB7
:104BD000FC30AA8BE820A20793DB6B005D8DEFF021
:104BE0004FE94E054D81131635003305CB0013FBFD
:104BF000CB038327490033056541420513578600DF
:104C000041815440D8B313578500F8B3238007007F
:104C1000A380070023810700A3810700D0A3E8A396
:104C200085480147E39306D2E31307E423222401D6
:104C3000B5B3EFB2EFD8032C4500011132CA0347D8
:104C40007C00AA8D03456C00220783DB0503598D88
:104C5000AE8CEFF00FE28966B377D500138ACBFEF6
:104C6000A146334ADA0283D48D0009677D173EC618
:104C70003379E500B1144209C20413590901C18016
:104C80000144514D3ACC420A135A0A0193163A0094
:104C900093970601C1833EC89387DBFE3ECE89E42D
:104CA000014505616FB08FD5E247A68A337BF900D5
:104CB000B24733EB6701F24763C6F400C24A896723
:104CC000336BFB000146D1450945EF00101DAA8951
:104CD00039C948415146E285EF40100D03A64D0009
:104CE00083AB49006A9623A2CD0003D6AD00B3067C
:104CF000A6412395DD00568D63090D0403D4AD0054
:104D000063738D006A844204418001E483AD0D0029
:104D1000E5B7814509460D45EF003018AA8511E534
:104D20004E85EF00B0127D55ADBF03A64D0002A524
:104D300022A550C14E85EF009031B3068D40139DE2
:104D40000601135D0D01E3130DFC5A85EFF08FD1C1
:104D50002383AB002181A383AB0013854A01420565
:104D60004181EFF02FD02381AB002181A381AB00E3
:104D7000D14523850B00A3850B005E85EF40401EC7
:104D800003A74C0152462385AB002181A385AB00CC
:104D9000CE8566850297B384544152994E85C204EC
:104DA0004209EF00B00AC18013590901228DC5BD27
:104DB0003C296385B7002CA9A309050082805E2DDC
:104DC000184DB306F7002388B60E93862700850793
:104DD000C207C18356ADBA972388C70E82805A2D69
:104DE0001C4D9306170056ADBA972388B70E8280E4
:104DF0005E2D184D13D68501B306F7002388C60E25
:104E000093861700C206C182BA9613D6050123887D
:104E1000C60E93862700C206C182BA9613D68500B5
:104E20002388C60E938647008D07C207C18356ADFF
:104E3000BA972388B70E828015C15E2D184D1306D0
:104E400030049386170056ADBA97FD562388D70EC7
:104E50005E2D6376F60093F6370091E282809386AA
:104E6000170056ADBA972388070EDDB76302051801
:104E7000EFB20FB80451DD57638904162A89014641
:104E8000930540130145EF005001C8C82A87FD571C
:104E9000630D0514BC3899EFBC280546638CC70028
:104EA000F11793F7F70F6377F60083A70182850761
:104EB00023A0F182404303A50182854780CC88C0AE
:104EC0001CA01CB099473CA0A3010400EFF04FBB0D
:104ED0009357850048A05CB09357050161817CA081
:104EE00068B0804C294723040400A3040400230570
:104EF0000400A305040023060400A30604002307FE
:104F00000400A3070400BC286388E700F11793F7A7
:104F1000F70F0547636EF700834749005CA483479A
:104F200059005CB4834769007CA4834779007CB452
:104F300023080400A308040023090400A3090400B3
:104F4000230A0400A30A0400230B0400A30B04009B
:104F5000230C0400A30C0400230D0400A30D040083
:104F60008345890281474146139707014183814662
:104F70006376B7003307F900834697023307F400DE
:104F800054AF8507E392C7FE1307C4029307C40614
:104F9000230007000507E39DE7FE1307C40E2380E7
:104FA00007008507E39DE7FE375582631305353615
:104FB000EFF00FAD935785002306A40EA306F40E61
:104FC000904C9357050161812307F40EA307A40EAB
:104FD000239E0400814713074004B306F60023888C
:104FE000F60E8507E39BE7FE81473E856FB08FA2F3
:104FF000D9573E85828011CDEFB28F9F005101C8F5
:10500000484811C1A125232A0400232C04006FB0B5
:105010006FA0828063000518EFB28F9D0051630975
:1050200004163828A1476315F71698319C212207EA
:105030005D8FBC21C2075D8FBC31E207D98F185448
:105040006398E714AA84B1452285EFF07FD62685C0
:10505000EFF0DFE163190512054693055003228541
:10506000EFF0FFD591452285EFF07FD711469305EC
:1050700020032285EFF0BFD40854EFF0AFA2AA8539
:105080002285EFF0FFD61146930560032285EFF0ED
:105090001FD34850EFF00FA1AA852285EFF05FD50E
:1050A0001D469305D0032285EFF07FD15E2C184C6E
:1050B00005462285B306F7002388C60E138627000F
:1050C0004206418252AC9386170083C59402C20601
:1050D000C182BA962388B60E93863700C206C18273
:1050E00056AC83C5A4023A96BA962308B60E138628
:1050F00047004206418252AC83C5B4023A962388E7
:10510000B60E93865700C206C18256AC83C5C40250
:10511000BA962308B60E138667004206418252AC47
:1051200083C5D4029D0732972388B60E5EAC83C731
:10513000E4022308F70EEFF03FD04E2C4848938549
:10514000050FC205C181512D034784021C4C4C48F8
:105150004840D8A70347940203A94400D8B703479F
:10516000A402930630041386C184F8A70347B4024F
:10517000F8B723A204002687EF30407B268523A2C0
:105180002401EFF05FE73C3885073CB885477EACEB
:105190006FB04F888280EFB2AF851128BD24B797DA
:1051A000002083A747B291C382976FB0AF8637675D
:1051B0000020130737EE719B23A6E18EB7970020DE
:1051C00083A787B8231107008D07F19B93960701EA
:1051D000C182BA9716A32302070023A8F18E0546C1
:1051E000D0A396A3B6A323A4E18E828049C183A74E
:1051F000C18E636EF50683A5018F637AB50683A61B
:10520000818E130685FF230E05FE1387818E63733F
:10521000D60010C3835685FFBE966304D60203C82A
:10522000460063100802638ED5000C436393B600FA
:1052300010C38E22231CB5FE9622B305F640BE96FF
:10524000AEA28355A5FFB386B7006302D60203C89A
:105250004600631E0800032807006313060114C3F9
:10526000035785FF9AA2035785FFBA97AEA38280A2
:105270008D05C205C181F199C205C1813147AE8753
:1052800063F3E500B14737970020032687B8C207CC
:10529000C1830D06719A6360F60A03A7C18E636D20
:1052A000E50883A6018F6379D508930685FF8358A7
:1052B00085FF998EC206C182938588FF958DC205B0
:1052C000C18163EAF5066389F506330317010348D4
:1052D000430063140802938586001388818EAE977D
:1052E000032E0800C207C18383580300B305F700EB
:1052F00063166E022320B80015A01388470163EDE2
:10530000050393858600AE971388818EC207032319
:105310000800C183B305F700E3EE65FC2390150197
:10532000B6A123820500231CF5FE96216306D60054
:1053300036973EA382800145828039C51307350028
:1053400042074183719B42074183B146BA87637329
:10535000D700B14737970020032687B8C207C1831B
:105360000D06719A01456362F60203A7818E83AE32
:10537000C18E9385818E3303F640B306D741C206B2
:10538000C182615E63E46600014582803385DE0090
:105390000348450083580500631708063308DE40BC
:1053A00046986362F8061383470163626804A107A5
:1053B000B697C207C1833388FE002310180123115A
:1053C000D8002302080085461EA154A18356080078
:1053D0006304D600F696BEA26319A70083A6018FC8
:1053E0008147502301EE91C398C1210582808547F2
:1053F0005CA1DDB71A2385477697E5B7E39CE6FE07
:10540000EDD794C1DDB7C686B5BF83A5818283A6DB
:10541000C182B77700209387F71537970020F19B5B
:10542000130747BE1385060103D805002320070094
:1054300001466318C800890611078905E396A6FE90
:105440008280832807000506420623A0170183D81F
:1054500006001CC34182C697E9BF9D4763EDA700C4
:10546000B79700200A05938747BEAA97884309C5C6
:10547000184198C382800145828099C993172500FD
:1054800037950020130545BE3E951C419CC10CC1BB
:105490008280EFA25FD498319C21AA8422075D8F7D
:1054A000BC212E84C2075D8FBC31E207D98F5841E1
:1054B000639FE70018301C2022075D8F3C20C20745
:1054C0005D8F3C30E207D98FDCC06FA01FD403A5ED
:1054D000419001499309400605C11841DC40032A67
:1054E000C5006311F7048545EF00D05793071900F5
:1054F00093F7F70F63F7290383A7C190C5DF98439C
:1055000019CFD440631DD70014301820A206D98EBD
:1055100038204207D98E38306207558F98C3DC4750
:10552000F1BF3E8952854DBFEFA29FCC411132C6DB
:1055300036C42A84EFF0FFF53246A246814719CAE5
:1055400018321C2222075D8F3C22C2075D8F3C323D
:10555000E207D98F1CC4814799CA98329C2222073E
:105560005D8FBC22C2075D8FBC32E207D98F5CC45D
:1055700041016FA03FCAEFA2BFC758CD1387C18FAB
:105580008348070041112322050023240500232618
:105590000500230905022320050213831800A30A2E
:1055A0001503232805012A843EC623006700EFF077
:1055B000BFF7B2472285829711E99387818F98437D
:1055C00018C080C3228541016FA0DFC40144DDBF44
:1055D00023AAA18E82800345250305898280AA879C
:1055E0000145A5C5BDC3139605014182328863DB21
:1055F00005003308C040BA27420813580801054582
:1056000063650705D427D84381C60D456391A6027B
:105610000D8F9386070105456369D702D8C3BA2762
:1056200001453297BAA79A273A9692A78280FD162B
:10563000C206C1828548054563E9D80063D70500E5
:10564000B62763E406010D8FD1BF8280EFA2BFB8F9
:1056500001440DCDAA8501440D498549FE25FD175C
:10566000C207C183FEA59DE3DC2584411D456388F7
:105670002701FD17C207C18363EDF9001945EFF05B
:10568000DFDF05041374F40FA685E9F822856FA007
:10569000DFB72E85EFF09FB5EDB7EFA2DFB38547FB
:1056A000630DF50031C589476306F5048D47630531
:1056B000F504014422856FA05FB58144D104B9048B
:1056C000C204C1808947B2892E8963E9C70279CAB9
:1056D0001945EFF09FD82A8469DD232205002314A1
:1056E0002501231525012320050023063501B5A03A
:1056F000D144E9B78144E1B78144E9B78D4701441A
:10570000E31AF6FA1D45EFF05FD52A845DD1B307A1
:105710009500CD07F19B379700205CC1930707B830
:10572000DC438D04F19893879703F19B23063501A1
:105730002320050023142501B3849740930907B85B
:1057400063739900CA84854726A47EA4B304994054
:105750000D4A2289854A6347900085477EA4A306A7
:10576000040089BF1D45EFF05FCF09E52285EFF00A
:10577000FFED81B783A749002316450123200500CB
:105780002320A9009387970306A5F19B63F3F400F8
:10579000A687130705013EA558C1231755019D8C07
:1057A0002A8955BF9387350013853401F19B719980
:1057B0003E9542054181EFF05FB82A84E30B05EE88
:1057C000AA94CD04F19844C1231425012315250181
:1057D000232005002306050049B71E2563FAF504BA
:1057E000EFA21FA12A84AE84B387F5402E2463E97B
:1057F00095025C2481EF638B95004C402285818D5E
:10580000A695C205C181EFF0BFA62A84084026A450
:1058100006A419C1EFF09FE3232004006FA09F9F0F
:105820001A248D8CC2043E971AA4C18000407DBF0B
:105830008280814719E13E858280850793F7F70FC3
:105840000841CDBF01C57E2585077EA5828009CD93
:1058500099E182803A859E2516251841B697C207A0
:10586000C1831EA565FB0CC18280EFA27F982E84A8
:10587000EFF0FFFD2285EFF0FFFC6FA0BF993DCD5B
:10588000EFA27F952A84AE845955ADC51A249E2572
:105890006362F7060149014A8359A400BE24B38913
:1058A0004941B387274163C9F904939907014840E7
:1058B000CC4093D909015295CA954E86EF30D04E0F
:1058C0004E9A3E24420A4E994209135A0A0113592C
:1058D0000901639447010040014ABE246365F90051
:1058E000844099CC0149BA249E246316F7029C4057
:1058F0009DC35D556FA07F91C20955BF59558280E8
:1059000009C801493A241E246314F7001C40F5F32A
:10591000C1F40145C5B77DF441B7EFA2DF8B032980
:105920004500AA898347990003458900014AA207D7
:105930005D8DEFE01F94937AF50F03A40190310978
:105940009384019001E401456FA03F8C1C28014520
:10595000639457035C488DC3084CCA864E86A28563
:10596000829719C963080A005C442326FA009C4008
:1059700080C05CC4054581495C44228A71F53E843F
:10598000D1B7814799C998319C2122075D8FBC21ED
:10599000C2075D8FBC31E207D98F1CC101458280EF
:1059A000814799C998319C2122075D8FBC21C2078C
:1059B0005D8FBC31E207D98F5CC1014582804CC943
:1059C00010CD8280EFA23F81AE842A89D145268501
:1059D000B289EFF0DFC015C9014681450545EFF0FA
:1059E000DFCB2A8409E57D594A856FA01F82A685F1
:1059F000EFF0BFE74E85EFE0BF8B19ED7159E3057E
:105A000094FE2285EFF09FC4C5B7B1552685EFF00F
:105A10001FBD71F92684F9BFCA8563050900832774
:105A2000090099E393054500834709010347A9004D
:105A30008346B9002A884E862285EFE0DFB52A89A1
:105A40007DBFEFA2EFFA13064500EFF0BFF76FA09E
:105A50006FFCEFA2EFF9AA840145EFF01FA02A84A2
:105A600011CD71468145EFA0AFFB930700F83CB420
:105A700093870190984304A880C358C422856FA0DF
:105A80006FF983A6419003A6C19183A5C19003D568
:105A900041839387418313071500131507011318DA
:105AA00007014181635308000565368719E732878E
:105AB00019EB2E8719EF8AA382800358C701E30CE4
:105AC000A8FC5847E5B70358C701E306A8FC5847A8
:105AD000C5B70358C701E300A8FC5847E1BF1C49FC
