:020000021000EC
:10C400006F30905213000000130000001300000072
:10C4100013000000130000001300000013000000D0
:10C4200013000000130000001300000013000000C0
:08C4300013000000730010006E
:10C4380000C40100000000000000000028F801000E
:10C4480000000000000000000000000000000000E4
:10C4580000000000000000000000000000000000D4
:10C4680000000000000000000000000000000000C4
:10C4780000000000000000000000000000000000B4
:10C4880000000000000000000000000000000000A4
:10C498000000000000000000000000000000000094
:10C4A8000000000000000000000000000000000084
:10C4B8000000000000000000000000000000000074
:10C4C8000000000000000000000000000000000064
:10C4D8000000000000000000000000000000000054
:10C4E8000000000000000000000000000000000044
:10C4F8000000000000000000000000000000000034
:10C5080000000000000000006CF8010000000000BE
:10C5180074F80100000000000000000000000000A6
:10C528000000000000000000000000000000000003
:10C5380000000000000000000000000000000000F3
:10C548000000000000000000000000007CF801006E
:10C5580000000000000000000000000000000000D3
:10C5680000000000000000000000000000000000C3
:10C5780000000000000000000000000000000000B3
:10C5880000000000000000000000000000000000A3
:10C598000000000000000000000000000000000093
:10C5A8000000000000000000000000000000000083
:10C5B8000000000000000000000000000000000073
:10C5C8000000000000000000000000000000000063
:10C5D8000000000000000000000000000000000053
:10C5E8000000000000000000000000000000000043
:08C5F80000000000000000003B
:10C600003D432A876373C3029377F700BDEFADE51F
:10C61000937606FF3D8ABA960CC34CC30CC74CC731
:10C620004107E36BD7FE11E28280B306C3408A065E
:10C630009702000096966780A6002307B700A3061E
:10C64000B7002306B700A305B7002305B700A3046E
:10C65000B7002304B700A303B7002303B700A30266
:10C66000B7002302B700A301B7002301B700A3005E
:10C67000B7002300B700828093F5F50F93968500ED
:10C68000D58D93960501D58D61B7939627009702B6
:10C69000000096968682E78086FA9680C1171D8FE5
:10C6A0003E96E374C3F8A5B7A14763E2A71C0A0549
:10C6B000B7270200938707843E951C418287B716EF
:10C6C00002409C4E056713070780D98F9CCE3737F1
:10C6D0000140835707C0C207C18393F7F7C8C20759
:10C6E000C1832310F7C0FD15C205C1812316B7C24F
:10C6F0008D679387F7272314F7C2231807C285474E
:10C70000231AF7C0835707C093E717002310F7C019
:10C710008280371702401C4F8966D58F1CCF373770
:10C72000014083570740C207C18393F7F7C8C20788
:10C73000C1832310F740FD15C205C1812316B742FE
:10C74000F1779387F7B72314F742231807428547F9
:10C75000231AF7408357074093E717002310F74049
:10C760008280371702405C4F93E717005CCFB70712
:10C77000004003D70700420741831377F7C84207F9
:10C7800041832390E70071771307F7B72396E702F9
:10C7900037570020032707087D174207418323945A
:10C7A000E7020547239AE70003D70700136717003E
:10C7B0002390E7008280371702405C4F93E7270001
:10C7C0005CCF3707004083570740C207C18393F708
:10C7D000F7C8C207C1832310F740FD15C205C18108
:10C7E0002316B742F1779387F7B72314F7428547AB
:10C7F000231AF7408357074093E717002310F740A9
:10C800008280371702405C4F93E707015CCFFD152C
:10C81000C205C181B71700402396B702717713078D
:10C82000F7B72394E7020547239AE70003D70700E9
:10C83000136717002390E7008280371702405C4F90
:10C8400093E707025CCFB717004093067002239668
:10C85000D742E5769386F6C92394D7428546239A34
:10C86000D74003D70740136717002390E740828023
:10C8700085476300F502A147630BF502894763080A
:10C88000F5048D476301F5069D47630CF5060145E8
:10C890008280B737014003D707C1938707C0058B54
:10C8A00083D7C700858B25CFADEF01458280B73791
:10C8B000014003D70741938707401377070883D7C1
:10C8C000C70093F7070825C3ADE30145828037070A
:10C8D000004083570701898B0357C700098BA1CB01
:10C8E00029EB01458280B707004003D707419387B2
:10C8F0000740118B83D7C700918B15CF9DEF014562
:10C900008280B717004003D7074193870740058B04
:10C9100083D7C700858B05C78DE701458280014518
:10C9200082800545828001458280054582800145DF
:10C9300082800545828001458280054582800145CF
:10C94000828005458280A14763EEA7040A05B727C8
:10C950000200938747863E951C418287B737014086
:10C9600079572398E7C08280B73701401307F0F763
:10C970002398E7408280B70700406D572398E7006F
:10C980008280B70700405D572398E7408280B71741
:10C99000004079572398E7008280B7170040795705
:10C9A0002398E7408280411106C60546814513055C
:10C9B000E040EF108044B24041018280411106C640
:10C9C000054685451305E040EF102043B240410184
:10C9D0008280411106C6054685451305D040EF10FB
:10C9E000C041054685451305E040EF100041B240C7
:10C9F000410182800147B757002083A707089306AB
:10CA0000803EB3D7D702B307F50293064006B3D7EB
:10CA1000D7026375F70001000507F1BF828041115D
:10CA200006C685451305D040EF10E0378545130550
:10CA3000E040EF1040370545753F81451305E04064
:10CA4000EF10603605457D3781451305D040EF1066
:10CA5000803505454537B24041018280411106C607
:10CA600081451305D040EF10003481451305E040A7
:10CA7000EF1060330545BD3F85451305D040EF10ED
:10CA800080320545853F85451305E040EF10A03114
:10CA900005458D37B24041018280411106C622C44E
:10CAA00026C2AA84014425A885451305E040EF105D
:10CAB000802F860493F4F40F05452D3F854513051B
:10CAC000D040EF10402E0545353781451305D04045
:10CAD000EF10602D0545393F05041374F40F9D4791
:10CAE00063ED870093978401E187E3CF07FA8145DF
:10CAF0001305E040EF10202B6DBFB240224492445A
:10CB000041018280411106C622C485451305E040DB
:10CB1000EF10602981451305D040EF10C028613522
:10CB20002945C93D85451305D040EF10C0271305A1
:10CB3000E040EF10A03D2A8405456D3D413581451B
:10CB40001305D040EF1020262285B2402244410137
:10CB50008280411106C622C426C24AC02A89AE84F8
:10CB60003284753D4A85153F713F26853D37593FD3
:10CB700022852537413FDD35B240224492440249A7
:10CB800041018280411106C622C426C2AA8485457D
:10CB90001305E040EF1020213935014419A88145E3
:10CBA0001305D040EF1020200545A9350504137466
:10CBB000F40F9D4763EA870285451305D040EF10C7
:10CBC000801E0545053D83C7040086072380F400C9
:10CBD0001305E040EF10803379D183C7040093E759
:10CBE00017002380F40065BFD13B05452135B240D5
:10CBF0002244924441018280411106C681451305B9
:10CC0000D040EF10401A0545F53385451305E04047
:10CC1000EF1060190545F93B85451305D040EF102D
:10CC200080180545C13B81451305D040EF10A01782
:10CC30000545C933B24041018280411106C622C474
:10CC400026C24AC02A842E89B284D13B2285B135BE
:10CC5000553D4A8599357D351135D133130514007D
:10CC60001375F50F1D3D793D2685293F7137FD333D
:10CC7000B24022449244024941018280B7770020A9
:10CC800083C7979191E7375500201305C508828027
:10CC9000011106CE22CC26CA4AC84EC652C456C27C
:10CCA000014685452145EF10401501468545130590
:10CCB0008020EF10801481453D45EF10C00E854562
:10CCC0003D45EF10400E81453D45EF10C00D054636
:10CCD000854513058020EF10401285453D45EF1036
:10CCE000800C9306000C1306E00CE545130580024A
:10CCF000EF20003701498149814419A29307C004FC
:10CD000063F887089307300F63E48708B71701407B
:10CD10001387074083298700C20993D909019387A4
:10CD20000780A16694CB0100D4CB01001C4793F788
:10CD3000F70FA209B3E9F900C20993D90901372A0B
:10CD4000014085472328FA80894A232A5A8193D5AE
:10CD500089000945EF10903A93F5F90F0945EF1056
:10CD6000F03923285A8125A80504420441809307FD
:10CD7000F01363E48708B7170140216723AAE7800F
:10CD80009387B4FDC207C1831307600AE378F7F6FF
:10CD9000B7170140216723A8E78023AAE780B717C8
:10CDA0000140216723A8E7808D47B3F7F4020947C4
:10CDB000E39CE7FA8D47B377F402E397E7FA93072A
:10CDC0004002E3F397FA9307B00CE3EF97F8930769
:10CDD000C004E3FB87F89307300FE3E787F8931766
:10CDE0001900375700201307C708BA972390370157
:10CDF000050942091359090185BF8504C204C18090
:10CE00009307F00E63E49700014495B70546854506
:10CE10002145EF00907E81453D45EF00D078854566
:10CE20003D45EF005078B777002023860796B77707
:10CE3000002023850796B7770020A38C0790B14583
:10CE40001305C020EF10C01F375500201305C5087B
:10CE5000F2406244D2444249B249224A924A0561B0
:10CE60008280411106C60546854513059020EF00D6
:10CE7000D078B24041018280411106C60146854505
:10CE800013059020EF007077B2404101828041117C
:10CE900006C60546854513058010EF001076B240A2
:10CEA00041018280411106C6014685451305801067
:10CEB000EF00B074B24041018280411106C60146C4
:10CEC00085453D45EF007073054681451305C0203B
:10CED000EF00B0723725020013058588EF30A021DE
:10CEE0000546814513050030EF0030710546814548
:10CEF00013051030EF007070054681451305203092
:10CF0000EF00B06F0546814513053030EF00F06E3D
:10CF10000546814513054030EF00306E05468145DA
:10CF200013055030EF00706D0546814513056030E4
:10CF3000EF00B06C0546814513057030EF00F06BD3
:10CF4000014685452145EF00506BB240410182808A
:10CF5000411106C62E86AA8513052004DD3EB24087
:10CF600041018280411106C62E86AA851305200440
:10CF7000E931B24041018280797106D622D426D2AD
:10CF80004AD04ECEAA892E8993141600C204C180BD
:10CF9000AA94C204C1803384D500420441803694EF
:10CFA000420441809307003163F68700130404CFE5
:10CFB000420441809305F1000D456D378345F10032
:10CFC00093F7050F93952400B18913F73900D98D94
:10CFD000DD8DA307B1000D45A53F93D5290093F53D
:10CFE000F50F6545B53793D5240093F5F50F6945E1
:10CFF00085379305E10013052003AD378347E10032
:10D0000013F7070C9317340093F78703937679008F
:10D01000D58FD98F2307F1009355390093F5F50F7C
:10D020005D453D379355340093F5F50F61450D3758
:10D03000B250225492540259F24945618280411102
:10D0400006C691451305A00321379305000D13056E
:10D050000004FD3DD1454945E53D93050008130514
:10D060002003FD35D9455D45E53591456145CD3513
:10D0700089456545F13D9305B0076945D13D994521
:10D080000D45F93581453145E13581455545C93570
:10D0900081451305E0036D3D9305A00313050007CB
:10D0A000453D93055003130510075D35C545130530
:10D0B0002007793D814513053007593D8945130502
:10D0C000200A793593051008454559359305000226
:10D0D0001305A007B53DF1451305B007953D930530
:10D0E00080021305C007AD359305C0031305D007B3
:10D0F0008535930550051305E007993D9305800696
:10D100001305F007B135930560071305000889354D
:10D110009305000813051008253D930580081305A5
:10D1200020083D359305F0081305300815359305A3
:10D13000600913054008293D9305300A130550087E
:10D14000013D9305F00A1305600819359305400C5D
:10D1500013057008F53B9305700D13058008CD3B52
:10D160009305800E13059008E5339305000E4D4599
:10D17000C53381450145E93B81454145D13B930597
:10D1800000033545F133930580025145D133954570
:10D190001305500A753B9D451305B00A553B930591
:10D1A0005007130540026D339305300613055002F6
:10D1B00045339305500A13056002593B93058007D8
:10D1C0001305F0097133930580061305000A4933EE
:10D1D0008D451305100AAD3B9305F00D1305600A4C
:10D1E000853B9305F00D1305700A9D339305000FE1
:10D1F0001305800AB13B930500091305900A893B8A
:10D20000930540091305A00AA1339305500E4D451F
:10D210008133930510063945253B9305B0043D4500
:10D22000053B894559452D339305700379450D33E9
:10D23000894513051002293B9305100913052002A7
:10D24000013B9D45130590022133AD451305300385
:10D250000133AD4513055003E539F545130570035A
:10D26000C5399305100713058003DD319305A0022E
:10D2700013059003F139930580071305C003C939DD
:10D28000930500041305D004E13193050002130552
:10D29000E0047D398145130590065D39930500044E
:10D2A0001305B0067531E545130540075531930563
:10D2B000F0041305D008693981451305E0084939A0
:10D2C00081451305F008693181451305000949318D
:10D2D000814513051009AD398145130520098D39A4
:10D2E000814513056009AD31930500081305A009B8
:10D2F0008531930540081305000B9939B145130595
:10D30000100BB931B9451305200B9931930520084D
:10D310001305300B3539A9451305800B1539D14557
:10D320001305300435319305000F130540040D310A
:10D330009305400313055004213993058005130517
:10D34000600439319305800213057004113193058F
:10D35000A00313058004ED3E930580081305900596
:10D36000C53E930580081305A005DD3693054004EE
:10D370001305B005F13E930570061305C005C93EBF
:10D38000930590041305D005E136B9451305E00572
:10D39000C136914513054006653E9305000213050D
:10D3A00050067D369545130560065D36914513059B
:10D3B0004009793EA14513055009593EA945130579
:10D3C000C0067936930550051305D00651369305EE
:10D3D00000081305F004AD3E930500081305000591
:10D3E000853E814513051005A536930520021305DA
:10D3F0002005B93E9305E00513053005913E9305E0
:10D40000000813054005A9368D4525459136C545CB
:10D410001305E006353E9305F0091305F0060D3EB1
:10D4200093050004130550052536930500041305E4
:10D430006005393E9305000413057005113E930500
:10D4400000041305A0062936930500040545093696
:10D45000930500040945ED3C9305700E4D45CD3C08
:10D4600081455545F5349305E00913058005CD3414
:10D47000A14513051004E93C81451305F003C93C9F
:10D48000954513055007E9349305100E1305600701
:10D49000C13481451305C004653C854513057007FB
:10D4A000453C9305200C1305D0035D34A5451305B9
:10D4B000B004793C930500061305900C513C93058C
:10D4C0008003130510046934C5451305400349342E
:10D4D00089451305B003AD3C930590081305400A38
:10D4E000853C814513056009A534930500031305A8
:10D4F0007009B93C9305000213058009913C93051E
:10D50000000313059009A934930540081305A009E9
:10D510008134930590021305B0091D3C8D45130518
:10D52000C0093D349305C0041305D0091534930593
:10D53000F0031305E009EFF0BFA191451305800743
:10D54000EFF01FA1854513059007EFF07FA093052D
:10D55000000F1305800CEFF0BF9FBD45130590072A
:10D56000EFF01F9F81451305800CEFF07F9EC145B2
:10D5700013059007EFF0DF9D9305E0071305800C7E
:10D58000EFF01F9DA94513059007EFF07F9C9305D1
:10D5900000081305800CEFF0BF9BAD451305900705
:10D5A000EFF01F9B85451305800CEFF07F9AB14586
:10D5B00013059007EFF0DF99BD451305800CEFF0E0
:10D5C0003F99B54513059007EFF09F98930500022A
:10D5D0001305800CEFF0DF97A54513059007EFF0DA
:10D5E0003F97930500081305800CEFF07F9689455F
:10D5F00013059007EFF0DF959305000C1305800CE1
:10D60000EFF01F958D4513059007EFF07F9493057C
:10D6100000041305800CEFF0BF93954513059007A8
:10D62000EFF01F93930500031305800CEFF05F925A
:10D630009305600213059007EFF09F918145254502
:10D64000EFF01F91B240410182808146B757002020
:10D6500083A707081307803EB3D7E702B307F50295
:10D6600061671307076AB3D7E70263F5F6000100A5
:10D670008506E9BF8280011106CEEFF01F841305F5
:10D680002003E137EFF0EFB40545C13793050008FB
:10D690004945EFF0FF8B13052003453FEFF03F9A1C
:10D6A000130520035D37930600141306000F93053E
:10D6B000E00A3145EFF05F8C9305F1001305900708
:10D6C000EFF05F8A8347F10013076002638CE70085
:10D6D0001307F00F6386E7000945F2400561828079
:10D6E0000545E5BF0145D5BF797106D622D426D2BE
:10D6F0002A84B72702009387078283A8070003A81C
:10D7000047008847CC47904BD44B984FDC4F46C0DE
:10D7100042C22AC42EC632C836CA3ACC3ECEC164F2
:10D720001387F4FF930600141306000F9305C0122D
:10D7300013052008EF10D0787D140A041C103E94C5
:10D74000032704FE9386F4FF138604809305C0121A
:10D7500013052008EF107063B250225492544561B3
:10D760008280411106C622C4372402001305448971
:10D77000EF207018372502001305058DEF20B01734
:10D78000372502001305C58FEF20F016372502005C
:10D7900013058590EF203016372502001305859478
:10D7A000EF2070153725020013050599EF20B014FE
:10D7B000372502001305859EEF20F0133725020060
:10D7C000130505A1EF20301337250200130505A32B
:10D7D000EF20701237250200130505A4EF20B011C9
:10D7E000372502001305C5A6EF20F0101305448964
:10D7F000EF207010372502001305C5A3EF20B00FEE
:10D8000037270200130747A941649306F4FF7D46BA
:10D8100089457945EF107057372702001307C7AACB
:10D820009306F4FF7D469305700D7945EF10F05592
:10D83000372702001307C7AB9306F4FF13060480D3
:10D840009305700D1305C008EF1030543727020000
:10D85000130747AC9306F4FF7D469305500F7945B7
:10D86000EF10B0520147930650121306000F9305B4
:10D8700050120145EF10F03837270200130707ADAB
:10D880009306F4FF7D469305C0122945EF10F04F33
:10D890000545993DB240224441018280411102C6B2
:10D8A0008967938707C2B307F50232476377F700AA
:10D8B0000100B24785073EC6E5B7410182804111AC
:10D8C00006C622C4814773900730B77700202388AB
:10D8D0000790B777002023860796B7770020238527
:10D8E0000796B7770020A38C07900546854513055A
:10D8F000002021230546854513052020FD290546E6
:10D90000854513051020D52971649305042005452C
:10D91000EF10C015D1451D45EFE01FD901468545E3
:10D9200013052020D929930504200945EF10001480
:10D93000EF10E07F37250200130505AEEF20A07B36
:10D94000EFF07FD31DA80945EFF01FDA372502005D
:10D95000130585B0EF20207A372502001305C5B2E4
:10D96000EF20607937250200130585B4EF20A078F9
:10D970001305800C2537EFF01FD071F53725020015
:10D98000130545B7EF2020771945EFF0FFD5EFF0ED
:10D990005FDD0945EF10E04DB1451305C0204D2571
:10D9A0004167130707809306300C1306600DE145AD
:10D9B0007945EF10D0309307800873900730EFF06F
:10D9C000EFABF5BF411102C602C4371702401C433A
:10D9D000C166D58F1CC3B71702409C4337070200AE
:10D9E000F98F3EC4B24785073EC6A24791E732474A
:10D9F00093070050E311F7FEB71702409C431397BB
:10DA0000E700635A070085473EC4224785476306FF
:10DA1000F7004101828002C4CDBFB727024098437E
:10DA20001367070198C39843719B98C39843136782
:10DA3000270098C3B7170240D843D8C3D843D8C3E8
:10DA4000D84313670740D8C3D843B706C1FFFD16B4
:10DA5000758FD8C3D843B7061D00558FD8C39843D8
:10DA6000B7060001558F98C3B71702409C43139720
:10DA70006700E35B07FEB7170240D843719BD8C32A
:10DA8000D84313672700D8C3B7170240DC43B18BD4
:10DA90002147E39BE7FEB5BF411106C62537B240DB
:10DAA00041018280411106C6B717024098431367AF
:10DAB000170098C3D843B706FFF8758FD8C39843AB
:10DAC000B706F7FEFD16758F98C39843B706FCFF9F
:10DAD000FD16758F98C3D843B70681FFFD16758F65
:10DAE000D8C337079F0098C7453FB24041018280A5
:10DAF000B7270240D847D8C79C4B93F7070899CF60
:10DB0000B7270240B706674593863612D4C33797C6
:10DB1000EFCD1307B79AD8C3D4D3D8D3B7270240D1
:10DB2000DC47858BE5FFB727024098433D9B98C3B0
:10DB3000984B98CB8280411106C622C43704080056
:10DB40002A9422047537B7270240DC47858BE5FF0E
:10DB5000B7270240984B799B98CB984BB7060200A9
:10DB6000558F98CBC0CB984B1367070498CBB7273A
:10DB70000240DC47858BE5FFB72602409C4A0177CF
:10DB80007D17F98F9CCA0145B24022444101828031
:10DB9000411106C6B7070800BE95A205B2953686A4
:10DBA000EF30703BB24041018280411106C6EF3038
:10DBB000903AB2404101828001476371B702B707D2
:10DBC0000800AA97A20793162700B6979443FD571B
:10DBD0006398F600050742074183C5B70545828073
:10DBE00001458280B7070800AA97A207BE9537278C
:10DBF00002401C4B4165C98F1CCBB7270240DC4754
:10DC0000858BE5FFB7270240DC47898BE5FF01479D
:10DC100021A0110742074183637CC7023385E600D8
:10DC200083470500034815002208B3E707010348AE
:10DC300025004208B3E70701034535006205C98F97
:10DC40009CC19105B7270240DC47898BE5FFD1B71E
:10DC5000372702401C4BB7062000D58F1CCBB727B7
:10DC60000240DC47858BE5FFB72602409C4A41779E
:10DC70007D17F98F9CCA014582802D71232E1110CA
:10DC8000232C8110232A91102328211123263111BE
:10DC9000232441112A8AAE893284B6843307B60020
:10DCA0009307001063C4E7042E8993F7350081E7DA
:10DCB00093773600B5C7930600100146D2850A85D2
:10DCC000EFF01FED8147139707014183637D8704C0
:10DCD00033872701B386F40083C60600100232970B
:10DCE0002300D7F0850793F7F70FF1BF1306001055
:10DCF0000D8E4206418251373386890042064182A9
:10DD000093060010B3863641130606F013051A0079
:10DD1000A69642064182814542054181B93F31A81C
:10DD2000EFF05FEC19A85285EFF0FFE08A8613064A
:10DD3000001081455285EFF0FFEA01458320C111B3
:10DD40000324811183244111032901118329C11066
:10DD5000032A811015618280411106C6B70700F8B9
:10DD6000AA97A183C207C183420541811397870007
:10DD700042074183198DB2862E8693150501C18114
:10DD80003E85EFF09FEFB7270240DC47858BE5FF2C
:10DD90000145B24041018280935785002380F50000
:10DDA0002300A6008280011106CE22CC2E84130609
:10DDB000E1009305F100CD378347F1001397270069
:10DDC000B757002093870700BA9798438547630E9B
:10DDD000F4008346E1008547B397D700C207C183AB
:10DDE0005CCBF2406244056182808346E100B397D8
:10DDF000D700C207C1831CCBEDB7797106D622D4F8
:10DE000026D24AD04ECE2A84AE89B2841306E100CF
:10DE10009305F10051370346F10013172600B75759
:10DE2000002093870700BA9703A90700B71602409E
:10DE30009C4E11473317C700D98F9CCE8347E10012
:10DE40001D47636AF702832609008A0731473317A3
:10DE5000F7001347F7FF758F85466385D9068D4612
:10DE6000B396F60093C6F6FF758F9146B397F6000A
:10DE70005D8F2320E9008347E1001D47637DF702A2
:10DE8000832649001396270031473317C7001347ED
:10DE9000F7FF758F85466388D904E1178A078D4699
:10DEA000B396F60093C6F6FF758F9146B397F600CA
:10DEB0005D8F2322E900B250225492540259F24954
:10DEC000456182808D46B396F60093C6F6FF758F46
:10DED0008546B397F6005D8F2320E900A68522854D
:10DEE000EFF07FEC49BFE1178A078D46B396F60045
:10DEF00093C6F6FF758F8546B397F6005D8F232294
:10DF0000E900A6852285EFF01FEA75B7011106CE5C
:10DF10001306E1009305F100EFF01FE88347F100DD
:10DF200013972700B757002093870700BA979843A5
:10DF30008347E1009D4663ECF6021043939527006A
:10DF40008D46B396B600F18E99EA14470547B3178C
:10DF5000F700F58FB9C70545F24005618280544747
:10DF60000547B317F700F58F9DCF0545F5B74C432F
:10DF7000938687FF139626008D46B396C600ED8ED6
:10DF800089EA14470547B317F700F58F99CF054580
:10DF9000E1B754470547B317F700F58F89CB05451F
:10DFA00065BF014555BF014545BF014575B70145F1
:10DFB00065B7011106CE1306E1009305F100EFF0FD
:10DFC000BFDDB707014003A747418346E10085470E
:10DFD000B397D7007D8F6386E7000145F240056166
:10DFE00082800545E5BF011106CE1306E1009305C9
:10DFF000F100EFF07FDAB707014003A7474103467E
:10E00000E1008546B396C600558F23AAE740F2404B
:10E010000561828093F735008A073D473317F70083
:10E0200093F6C50FB7050140B69594451347F7FF22
:10E03000758F98C598453315F500598D88C5828030
:10E04000011106CE22CC2E841306E1009305F100C7
:10E05000EFF09FD4371702401C4F93E717001CCFF7
:10E060008345E1000345F1007537B706014083A5FC
:10E0700006400346E10085473396C7001346F6FF86
:10E080006D8E23A0C64083A546400346E100B397AA
:10E09000C70013C6F7FFF18D23A2B64083A58640C3
:10E0A000F18D23A4B64083A5C6406D8E23A6C6403D
:10E0B00003A70640D98F23A0F640C147630BF404A1
:10E0C000B7070140938707403E941C408346E10018
:10E0D00005473317D700D98F1CC08347E10011478C
:10E0E000636BF7048A073757002013074701BA9775
:10E0F0009843935757008546B396E60093870704E5
:10E100008A0737E700E0BA9794C3F240624405619A
:10E110008280B707014083A687400346E100054798
:10E120003317C700D98E23A4D74083A6C740558F85
:10E1300023A6E7405DB7ED1793F7F70F1147636428
:10E14000F702B757002093874701D84B93575700E2
:10E150008546B396E600938707048A0737E700E011
:10E16000BA9794C35DB7B757002093874701984F7C
:10E17000935757008546B396E600938707048A07AE
:10E1800037E700E0BA9794C349B7894763E2A7121B
:10E1900085476309F53E93178501E187638B071077
:10E1A0008947631EF520B717024003A8C701A1687D
:10E1B0003368180123AE070103A887011368C8005C
:10E1C00023AC070185476388F55CB717014083A836
:10E1D0004780370300D07D13B3F8680023A217816E
:10E1E00083A84780370300407D13B3F8680023A25B
:10E1F000178183A8478037030080B3E8680023A213
:10E200001781A16823AA178103A807C0F578FD1814
:10E210003378180123A007C103A807C0D178FD18DF
:10E220003378180123A007C103A807C09168336899
:10E23000180123A007C103A807C0B708FDFFFD18F8
:10E240003378180123A007C103A807C0B70803004B
:10E250003368180123A007C103A807C0B708F4FF5B
:10E26000FD183378180123A007C103A807C0B70819
:10E2700008003368180123A007C103A807C0B70826
:10E28000D0FFFD183378180123A007C103A807C0E9
:10E29000B70840FFFD183378180123A007C103A871
:10E2A00007C0B70840003368180123A007C101AABE
:10E2B0000145B717024003A8870185683368180134
:10E2C00023AC070103A887011368480023AC0701AA
:10E2D0008547638BF51AB717014003A80780B70875
:10E2E000FDFFFD183378180123A0078103A80780DC
:10E2F000B708F4FFFD183378180123A0078103A89D
:10E300000780B70808003368180123A00781414837
:10E3100023AA078103A80780B708D0FFFD18337828
:10E32000180123A0078103A80780B70840FFFD1844
:10E330003378180123A0078103A80780B70840009D
:10E340003368180123A0078103A80780B70800FDE0
:10E35000FD183378180123A0078103A80780B708A8
:10E3600000033368180123A0078103A80780B708BA
:10E3700000F4FD183378180123A0078103A8078053
:10E38000B70800083368180123A0078103A8078095
:10E39000B70800D0FD183378180123A0078183A89F
:10E3A0000780370300401308F3FFB3F8080123A0E8
:10E3B000178103A807803368680023A00781AA8813
:10E3C000931725003758002013080803C29703A3AA
:10E3D0000700035E03000D68130808043378C801C2
:10E3E0002310030103A80700035308008606D98EF3
:10E3F000B3E666002310D800944303D806007D7767
:10E400001307F77F337707012390E600944303D780
:10E410000600420741831377F7F7420741832390B1
:10E42000E60098438357070093E707202310F7007F
:10E430008547638BF5440A05B75700209387070388
:10E440003E95184183570700C207C18393F7F7EF42
:10E45000C207C1832310F700184183570700C20782
:10E46000C183ED9BC207C1832310F7008A08B75709
:10E47000002093870703C69798438357070093E7C5
:10E4800007042310F7008280B717014003A8078014
:10E49000B708FDFFFD183378180123A0078103A8F2
:10E4A0000780B70803003368180123A0078103A879
:10E4B0000780B708F4FFFD183378180123A00781FF
:10E4C000414823A8078103A80780B708D0FFFD189B
:10E4D0003378180123A0078103A80780B70830000C
:10E4E0003368180123A0078103A80780B70840FFFD
:10E4F000FD183378180123A0078103A80780B70807
:10E5000080003368180123A0078103A80780B7089B
:10E5100000FDFD183378180123A0078103A80780A8
:10E52000B70800F4FD183378180123A0078103A869
:10E530000780B70800043368180123A0078103A8E7
:10E540000780B70800D0FD183378180123A0078191
:10E5500003A80780B70800303368180123A007819B
:10E5600003A80780B7080040FD183378180123A0DE
:10E57000078103A80780B70800803368180123A02B
:10E58000078135BDB717024003A8C70191683368FA
:10E59000180123AE070103A887011368880023AC84
:10E5A000070185476389F50EB7170140938707C0B8
:10E5B00003A84700B708FDFFFD183378180123A210
:10E5C000070103A84700B708F4FFFD1833781801C6
:10E5D00023A2070103A84700B70808003368180101
:10E5E00023A20701056823AA070103A84700B7086B
:10E5F000D0FFFD183378180123A2070103A84700B4
:10E60000B70840FFFD183378180123A2070103A8BB
:10E610004700B70840003368180123A2070103A888
:10E620004700B70800FDFD183378180123A2070141
:10E6300003A84700B70800033368180123A20701A5
:10E6400003A84700B70800F4FD183378180123A287
:10E65000070103A84700B70800083368180123A280
:10E66000070103A84700B70800D0FD183378180148
:10E6700023A2070183A84700370300401308F3FFD4
:10E68000B3F8080123A2170103A847003368680004
:10E6900023A207012DB3B7170140938707C003A832
:10E6A0004700B708FDFFFD183378180123A20701C2
:10E6B00003A84700B70803003368180123A2070125
:10E6C00003A84700B708F4FFFD183378180123A208
:10E6D0000701056823A8070103A84700B708D0FF72
:10E6E000FD183378180123A2070103A84700B708D3
:10E6F00030003368180123A2070103A84700B708B8
:10E7000040FFFD183378180123A2070103A8470032
:10E71000B70880003368180123A2070103A8470047
:10E72000B70800FDFD183378180123A2070103A8DC
:10E730004700B70800F4FD183378180123A2070139
:10E7400003A84700B70800043368180123A2070193
:10E7500003A84700B70800D0FD183378180123A29A
:10E76000070103A84700B70800303368180123A247
:10E77000070103A84700B7080040FD1833781801C7
:10E7800023A2070103A84700B708008033681801D7
:10E7900023A207012DB1B717014083A84780370393
:10E7A00000D07D13B3F8680023A2178183A84780A7
:10E7B00037030030B3E8680023A2178183A847809D
:10E7C000370300407D13B3F8680023A2178121634B
:10E7D00023A8678003A807C0F578FD1833781801CF
:10E7E00023A007C103A807C08D683368180123A0C0
:10E7F00007C103A807C0D178FD183378180123A0FA
:10E8000007C103A807C03368680023A007C103A895
:10E8100007C0B708FDFFFD183378180123A007C112
:10E8200003A807C0B708F4FFFD183378180123A028
:10E8300007C103A807C0B70804003368180123A064
:10E8400007C103A807C0B708D0FFFD183378180127
:10E8500023A007C103A807C0B70830003368180118
:10E8600023A007C103A807C0B70840FFFD183378ED
:10E87000180123A007C103A807C0B70880003368A8
:10E88000180123A007C125BE1DE1B757002003A72B
:10E89000070809833357C7024207418381478D46E2
:10E8A00063F1E602850793F7F70F0583CDBFB757EE
:10E8B000002003A7070805833357C7024207418397
:10E8C000F1BF13972800B7560020938606033697AA
:10E8D000144303D606008E07D18F2390F60014430D
:10E8E00083D7060093E707102390F6001843835759
:10E8F000070093E747002310F7008DBE411102C6C1
:10E90000894763E0A70AAA860A05B75700209387BC
:10E9100007033E9518418357070093F7070499E7CB
:10E920008357070093E707042310F7009397260007
:10E930003757002013070703BA9798438357870078
:10E94000898B99EBB24785073EC63247C167F917F5
:10E95000E3FEE7FC0145B9A02306B70002C6939782
:10E9600026003757002013070703BA9798438357A9
:10E970008700858B99EBB24785073EC63247C16752
:10E98000F917E3FEE7FC014531A88357C700C2072A
:10E99000C1833EC683578700C207C1833EC6054573
:10E9A00011A0014541018280130101BF23261140BE
:10E9B000E1451305F077EFF02FA029E513060020BD
:10E9C000B7C50108938505400A85EFF00F9E032720
:10E9D000C110B707000883A7C7106311F704377782
:10E9E0000020B7170108938707402326F7903725A3
:10E9F0000200130585C3EF1000708320C14013018E
:10EA00000141828037260200130606C0E1453785A2
:10EA10000708130505F0EFF02FB44DB737250200B6
:10EA20001305C5C1EF10206D1305401CEFF0AF902A
:10EA30001305501CEFF02F90B707000883A7C710ED
:10EA40002326F1100A869305002037C50108130517
:10EA50000540EFF06FB061B77D151375F50F9D4759
:10EA600063F4A7000145828005458280411106C6F6
:10EA700022C426C2AA842E84C53763000514A14788
:10EA800063EE97049397240037270200130787C685
:10EA9000BA979C438287B7170240984F9166558F6B
:10EAA00098CF984F1367170098CF984F1367470078
:10EAB00098CFB717014003A74780FD76BD06758F35
:10EAC00023A2E78003A7478085669386068A558F31
:10EAD00023A2E780B7070140D843D8C39387F4FF48
:10EAE00093962700375700201307C7033697104324
:10EAF0008355C600F976FD16ED8E2316D600104319
:10EB00008356C600C206C182CD9AC206C1822316B0
:10EB1000D60010433747014013070780630DE622F4
:10EB20009316540037A74A04130707203357D70218
:10EB3000B746690D938606A4B3D6860293054006B0
:10EB4000B3F6B6029206B3D6B60293F6F60F1207E4
:10EB5000B7051000C1156D8F558F420741832314EF
:10EB6000E60013972700B75700209387C703BA978B
:10EB7000984323100700944303D606016D771307CB
:10EB8000F77F718F2398E600944303D7460142072D
:10EB90004183137757FD42074183239AE60094434C
:10EBA00003D7C6001367C7002396E6009843835730
:10EBB000C7008966D58F2316F700B24022449244DD
:10EBC00041018280B7170240D84FB7060200558F27
:10EBD000D8CF984F1367470098CFB717014003A7C6
:10EBE0000780C1769386F60F758F23A0E78003A771
:10EBF00007809566938606B0558F23A0E780F9BD00
:10EC0000B7170240D84FB7060400558FD8CF984F9A
:10EC10001367870098CFB717014003A747C0C17695
:10EC20009386F60F758F23A2E7C003A747C09566AA
:10EC3000938606A0558F23A2E7C04DB5B7170240B3
:10EC4000D84FB7060800558FD8CF984F13670701E4
:10EC500098CFB7170140D843C1769386F60F758FCA
:10EC6000D8C3D8439566938606A0558FD8C3BDB543
:10EC7000B7170240D84FB7061000558FD8CF984F1E
:10EC80001367070198CF984F1367070298CFB717FC
:10EC90000140D843B706F1FFFD16758FD8C303A70F
:10ECA0000740FD769386F60F758F23A0E740D84383
:10ECB000B7060A00558FD8C303A707408566938619
:10ECC0000680558F23A0E74011BDB7170240D84FEB
:10ECD00013670704D8CF984F1367070198CFB7176A
:10ECE00001409843137707F098C398431367A7042C
:10ECF00098C3EDB3B7170240D84F13670708D8CFB2
:10ED0000984F1367070198CFB71701409843C17612
:10ED10009386F60F758F98C398439566938606A0E1
:10ED2000558F98C365BBB7170240D84F13670710BC
:10ED3000D8CF984F1367070198CFB7170140984372
:10ED4000B70601FFFD16758F98C39843B7064A00B2
:10ED5000558F98C361B313174400B7A64A0493862E
:10ED60000620B3D6E6023777D21A1307074833577F
:10ED70008702930540063377B7021207130727036C
:10ED80003357B7021377F70F9206B7051000C11576
:10ED9000ED8E558F420741832314E600D9B341110C
:10EDA00006C622C426C22A84AE84EFF0FFCA31C14F
:10EDB0008146C1679387A7BB63E7D7029307F4FF38
:10EDC00013972700B75700209387C703BA97984334
:10EDD0008357070093F7070899E38506D9BFC20454
:10EDE000C18023129700C1679387A7BB63F8D70040
:10EDF0000145B24022449244410182800545D5BF7D
:10EE0000411106C622C426C22A84AE84EFF0DFC4B4
:10EE100005C98146C1679387A7BB63EDD7029307F6
:10EE2000F4FF13972700B75700209387C703BA97BB
:10EE300098438357070093F7070291E78506D9BFE8
:10EE40002380040029A8035547001375F50F854753
:10EE50002380F400C1679387A7BB63E7D700B24064
:10EE60002244924441018280238004001305F00F64
:10EE7000FDB7411106C622C42A84EFF0FFBD31C19F
:10EE80001305F4FF0A05B75700209387C703AA9715
:10EE900098438357C70093E707022316F700B75735
:10EEA00000209387C7053E95184193575700854624
:10EEB000B396E600938707048A0737E700E0BA971E
:10EEC00094C3B240224441018280411106C622C44B
:10EED0002A84EFF07FB815C57D140A04B7570020C7
:10EEE0009387C7033E9418408357070093F70702A0
:10EEF00081CB8357C70093F7070281EB014511A02F
:10EF00000145B2402244410182800545DDBF814672
:10EF1000B757002083A70708B307F50261671307F7
:10EF2000076AB3D7E70263F5F60001008506CDB79F
:10EF30008280411106C622C42A84854513050040FB
:10EF4000EFE07FE6814513051040EFE0DFE5A285A5
:10EF50000945EFF0BF9A854513051040EFE0BFE487
:10EF6000B240224441018280411106C622C42A8453
:10EF7000854513050040EFE01FE381451305104070
:10EF8000EFE07FE2935584000945EFF03F979375DA
:10EF9000F40F0945EFF09F96854513051040EFE00B
:10EFA0009FE0B240224441018280411106C622C442
:10EFB0002A84814513050040EFE0FFDE81451305FB
:10EFC0001040EFE05FDEA2850945EFF03F938545F5
:10EFD00013051040EFE03FDDB24022444101828042
:10EFE000411106C622C42E84814773900730753FB5
:10EFF0002285EFF01FF49307800873900730B2402A
:10F00000224441018280411106C685476305F5020D
:10F0100093178501E18791CB89476305F5028D47F9
:10F020006309F502B240410182809305000813058F
:10F0300060037D37C5BF9305000413056003EFF03F
:10F040003FFACDB79305000C13056003EFF05FF9AD
:10F05000D1BF9305100413056003EFF07FF8D9B713
:10F06000011106CE22CC26CA4AC84EC6AA89AE8451
:10F07000328936841305A002EFF03FF313D58900DF
:10F08000EFF03FEB13F5F90FEFF0BFEA13558900EE
:10F09000EFF03FEA1375F90FEFF0BFE91305B00287
:10F0A000EFF0BFF013D58400EFF0BFE813F5F40FD5
:10F0B000EFF03FE813558400EFF0BFE71375F40F4E
:10F0C000EFF03FE71305C002EFF03FEEF24062447D
:10F0D000D2444249B24905618280411106C622C428
:10F0E00026C24AC0AA849306F01D1306F013814578
:10F0F0000145EFF0FFF6014929A00509420913591E
:10F1000009019307F01363EE270101449307F01DF3
:10F11000E3E587FE2685EFF03FE5050442044180E4
:10F12000F5B7B24022449244024941018280411124
:10F1300006C60146854513059010EFE01FCC014639
:10F14000854513050040EFE05FCB05468545130577
:10F150001040EFE09FCA014781462966130606C4A6
:10F1600085450945EFF06F82814513059010EFE06A
:10F170009FC313054006EFF09FD9854513059010F6
:10F18000EFE07FC213052003EFF07FD81305000FD7
:10F19000EFF0BFE11305300CEFF0BFD91305000FFE
:10F1A000EFF0BFE013056009EFF0BFD8130560036F
:10F1B000EFF0BFDF13058006EFF0BFD71305A00304
:10F1C000EFF0BFDE1545EFF0DFD61305000BEFF0D3
:10F1D000DFDD13050008EFF0DFD51305600BEFF05E
:10F1E000DFDC0145EFF0FFD40945EFF09FD41305B4
:10F1F000500BEFF09FDB0945EFF0BFD30D45EFF06B
:10F200005FD30145EFF0FFD21145EFF09FD2130518
:10F21000100BEFF09FD913050008EFF09FD1414587
:10F22000EFF03FD11305400BEFF03FD80145EFF071
:10F230005FD01305700BEFF05FD71305600CEFF094
:10F240005FCF1305500CEFF05FD613054002EFF0CF
:10F250005FCE1305400EEFF05FD513051003EFF0FE
:10F260005FCD1305800EEFF05FD413050004EFF0BF
:10F270005FCC1305A008EFF0DFCB0145EFF07FCBAB
:10F280000145EFF01FCB13059002EFF09FCA6545D3
:10F29000EFF03FCA1305500AEFF0BFC91305300362
:10F2A000EFF03FC91305200CEFF03FD01305700AB3
:10F2B000EFF0BFCF1305000EEFF03FCF1305000FA7
:10F2C000EFF03FC72545EFF0DFC64D45EFF07FC6B5
:10F2D0004945EFF01FC64945EFF0BFC51305B00221
:10F2E000EFF03FC51305C003EFF0BFC413054004A2
:10F2F000EFF03FC41305B004EFF0BFC36D45EFF06E
:10F300005FC36145EFF0FFC25D45EFF09FC27545F9
:10F31000EFF03FC213051002EFF0BFC11305100E4E
:10F32000EFF0BFC81305000FEFF0BFC02545EFF0A9
:10F330005FC04D45EFF0FFBF3145EFF09FBF354552
:10F34000EFF03FBF13057002EFF0BFBE1305B0032F
:10F35000EFF03FBE13054004EFF0BFBD1305D0042E
:10F36000EFF03FBD2D45EFF0DFBC5D45EFF07FBC1A
:10F370005D45EFF01FBC7545EFF0BFBB13051002F4
:10F38000EFF03FBB13056003EFF03FC21305C00E63
:10F39000EFF03FBA1305000FEFF03FC11305300C3B
:10F3A000EFF03FB91305000FEFF03FC013059006D3
:10F3B000EFF03FB813058007EFF07FB54D45EFF054
:10F3C000DFBE4545EFF07FBE13059002EFF0FFBDB5
:10F3D0000145EFF05FC341657D15EFF01FD0B240EE
:10F3E00041018280411106C622C43284AE862A863B
:10F3F000EFF01FC72285EFF03FB7B2402244410132
:10F400008280797106D622D426D24AD04ECE52CCF2
:10F4100056CA5AC85EC662C466C26AC03A8C2A8A94
:10F42000330BA640AE8AB38BB640635D6001854C5A
:10F4300063527003054D63D76B03DA848149014938
:10F44000014435A063060B00330BC540FD5CCDB70E
:10F45000DA8CF9BF63860B00B38BD5407D5DE1BFCD
:10F460005E8DD1BFDE84D9BF0504420441809387FD
:10F47000140063C88702628693950A01C18113153F
:10F480000A014181EFF01FF65A99DE9963D52401F4
:10F4900033099940669AE3D934FDB3899940EA9AD1
:10F4A000E1B7B250225492540259F249624AD24A08
:10F4B000424BB24B224C924C024D4561828001116D
:10F4C00006CE22CC26CA4AC84EC652C42A8A2E89E3
:10F4D000B2843684BA89AE86EFF0BFF24E87A28638
:10F4E0005286CA855285EFF0DFF14E87A2862686C6
:10F4F000A2855285EFF0FFF04E87A2862686CA8548
:10F500002685EFF01FF0F2406244D2444249B249EE
:10F51000224A05618280011106CE22CC26CA4AC841
:10F520004EC652C4328AB689BA849386F500130651
:10F53000F500C206C18242064182EFF07FB2014966
:10F5400005A84E85EFF05FA205041374F40F9D47E4
:10F5500063EC870083870400B3D78740858BF5D39E
:10F560005285EFF07FA0CDB7850405091379F90F17
:10F57000FD4763E427010144D9BFF2406244D2440D
:10F580004249B249224A05618280797106D622D465
:10F5900026D24AD04ECE52CC56CA5AC85EC662C493
:10F5A0002A8CAE8B328AB689BA8A014BBDA8131554
:10F5B0003B006295420541819386FB00130675006E
:10F5C000C206C18242064182DE85EFF07FA98387B1
:10F5D0000A0081179207B7240200938444CFBE9497
:10F5E000014905A84E85EFF03F9805041374F40F08
:10F5F0009D4763EC870083870400B3D78740858BE2
:10F60000F5D35285EFF05F96CDB7850405091379E0
:10F61000F90FBD4763E427010144D9BF050B137BF4
:10F62000FB0F850AF54763E1670983870A00ADCFC1
:10F63000138707FE1377F70F9306E005E3F9E6F665
:10F640001307F007E39FE7FC014721A005071377A5
:10F65000F70F894663E6E60403851A001316470090
:10F660003A9693151600B72602009386C6C8AE9642
:10F670000386060083861600E31AF6FCE318D5FC21
:10F68000372702001307C7C82E9713153B00629552
:10F690000907CE865286DE8542054181EFF0BFE73D
:10F6A000050B137BFB0FB5BFB25022549254025985
:10F6B000F249624AD24A424BB24B224C45618280A7
:10F6C000011106CE22CC26CA4AC84EC652C456C222
:10F6D000AA8AAE89B284368A3A89EFF07F9829A047
:10F6E0008509C20993D90901636C3A015684E3E99B
:10F6F00084FE4A85EFF05F87050442044180C5BF60
:10F70000F2406244D2444249B249224A924A0561D7
:10F710008280011106CE8147739007300945EFF0D2
:10F72000CFFA01E99307800873900730F240056132
:10F7300082809305F1000945EFF08FEC8347F100DB
:10F74000F5D3AA850945EFF08FE5E9BF411106C65B
:10F750008147739007301305C020EFE09F8501E9D2
:10F760009307800873900730B240410182801305EF
:10F77000C020EFE05F87B777002083C7C79685C3B7
:10F78000B777002003C7A7968547E31BF7FCB77739
:10F7900000200547A38CE790EFD0CFF0D1B7EFD092
:10F7A000AFEDEFD00FECEFD08FEE8547377700202D
:10F7B0002305F796377700202306F79655B74111B2
:10F7C00006C63725020013050532EF00D012814727
:10F7D000739007301D45EFD0AF890DCD375700200E
:10F7E0001307870883470700850793F7F70F230060
:10F7F000F70013071003637BF700B757002023843B
:10F800000708B77700200547238CE790B71700401B
:10F81000239207421D45EFD00F9393078008739002
:10F820000730B240410182802528AA853725020091
:10F830001305452FEF00300C0D20AA853725020057
:10F8400013054530EF00300B3928AA853725020013
:10F8500013050531EF00300A01A0732510348280B2
:10F86000732520348280732530348280EFF07FEA64
:10F8700073002030EFF09FED73002030EFF03FF485
:10F8800073002030411106C622C42E841C42054755
:10F89000638CE7000947638EE7001C4085071CC0A6
:10F8A000B2402244410182805C42620561858297B8
:10F8B000EDB71C462380A7001C4685071CC6F1BF78
:10F8C00013071500230005001DCE9C4199C3014577
:10F8D00005A093070003A300F5000545828093056A
:10F8E0000003B387F5402300F70005050507B2873D
:10F8F00091CB33C6D702B3E7D702E3C207FE9387A3
:10F900000703D5B782809C4191EF93070003A300C2
:10F91000F50005458280938777032300F7000506ED
:10F920000507AE8781CFB3D5D7023385B602898F5D
:10F930002545E362F5FE93870703C5B732858280CC
:10F94000011106CE22CC26CA4AC84EC62A84AE84ED
:10F95000B2893689635A94004A86CE85130500031E
:10F96000EFF05FF20504FDB7F2406244D244424931
:10F97000B24905618280011106CE22CC26CA4AC84E
:10F980004EC62A84AE84B2893689635A94004A8668
:10F99000CE8513050002EFF0FFEE0504FDB7F2403F
:10F9A0006244D2444249B24905618280411106C68F
:10F9B0009375F50F0545EFF08FBEB240410182808F
:10F9C000197186DEA2DCA6DACAD8CED6D2D4D6D2B7
:10F9D000DAD02A89AE84328482C682C882CA82CCB6
:10F9E00082CE1306C00481450A85EFC07FC18329FA
:10F9F0004900032909004A85CE85EF107038AA8A8C
:10FA0000EF10D03D2A86AE864A85CE85EF10A04302
:10FA10002A8A2E8B31E8B727020003A6074083A667
:10FA200047405285DA85EF009076EF1090412A89A1
:10FA3000AE890144B727020003A6074183A64741C8
:10FA40005285DA85EF00506963520504B72702003A
:10FA500003A6874083A6C7405285DA85EF0030733E
:10FA60002A8A2E8B0504F9B71309F4FF19C8B727A2
:10FA7000020003A6874083A6C740EF0050714A8466
:10FA8000E5B7EF10103C2A89AE8965B7130BF4FF78
:10FA900063970A04930700032380F400854A138ABE
:10FAA0001A00B38754011307E0022380E700B3670D
:10FAB0003901B5E7269A930700032300FA00138A59
:10FAC0002A00D294238004005285F6506654D654FE
:10FAD0004659B659265A965A065B09618280814773
:10FAE000638D0A02A94633F6DA02139727008C10B9
:10FAF0002E972326C7FEB3DADA028507D5B7FD179E
:10FB000013972700941036970327C7FEB386540136
:10FB1000130707032380E600850AF5F349B701447C
:10FB2000B36739019DC7294681464A85CE85EF00D6
:10FB3000D021930A14000A049C103E942320A4FAB6
:10FB4000294681464A85CE85AD252A89AE895684C7
:10FB5000C1BF63090B02931724009810BA9723A022
:10FB600007FA7D1B0504F5B77D1493172400981040
:10FB7000BA9783A707FA33874401938707032300C3
:10FB8000F700050A75F035BF597186D6A2D4A6D202
:10FB9000CAD0CECED2CCD6CADAC8DEC6E2C4E6C25D
:10FBA000EAC02A892E84B28902CE02D002D202D4BF
:10FBB00002D602D802DA02DC230E01029307000308
:10FBC000230EF10002CC854A014A21A84A862C085E
:10FBD0003545EFF03FCB4A862C082945EFF09FCA08
:10FBE0000504030504006309054E93075002630DE5
:10FBF000F504A947E30CF5FC4A862C08EFF09FC8F2
:10FC0000C5B793E414003284A9E5130614008307F2
:10FC10001400811793F6F70F4147636AD702939751
:10FC200026003727020013074733BA979C43828781
:10FC300093E42400C9BF93E44400F1B793E4840043
:10FC4000D9B793E40401C1B78144814575BF8545A7
:10FC500065BF014B814B11A0AE8B63930B029306E2
:10FC6000140083071400938707FD2547E366F7FE1A
:10FC700013172B005A97131B17003E9B3684F1BFB6
:10FC800013071400830614009307E002638AF60446
:10FC9000014C814A13071400830714009306800661
:10FCA000638BD7009306C0066384D7069306C0040F
:10FCB0006383D706228713041700030517009307F1
:10FCC00085FA93F6F70F130700026360D740939706
:10FCD00026003727020013078737BA979C4382878D
:10FCE000014C814511A0DE8595E1130617008307BD
:10FCF0001700938707FDA546E3E7F6FE13172C00D0
:10FD00006297131C17003E9C3287F9BF3A8459B79B
:10FD1000136A1A004DB7136A2A0071BF938B49000A
:10FD200083A709003ECAA94605464C086808EFF0BB
:10FD30003FB9AA8C7C08338CA700D24763CA07005E
:10FD400093F7240085CB930C15009309B00229A0EA
:10FD5000930C15009309D00293F784009DCB639414
:10FD60000902CA863008DA856685EFF07FBDDA8C35
:10FD7000DE8965AC93F94400E38009FE930C15001D
:10FD800093090002D1BF4A862C084E85EFF09FAF41
:10FD9000C9BF93F7140089CBE38C09FC4A862C0871
:10FDA0004E85EFF03FAEE9B7CA863008DA85668542
:10FDB000EFF07FBCE38E09FA4A862C084E85EFF0FF
:10FDC0007FAC7DB7938BC90083AC490083A98900C0
:10FDD00066C44EC6014681466685CE85EF00D02FAB
:10FDE000634C050093F72400A9EB93F94400638D5D
:10FDF00009009309000209A8B7070080B3C73701BB
:10FE000066C43EC69309D002639C0A0263110A04C9
:10FE100019466C082800EFF0BFBA2A8C93F78400CB
:10FE2000A1C7639D0902CA863008DA856285EFF0B2
:10FE30003FB15A8C9309C101B5A09309B002E9B74B
:10FE400062866C082800EFF0BFB72A8CC1BF194644
:10FE50006C082800EFF0DFB62A8CC9B74A862C0858
:10FE60004E85EFF03FA2C1B793F7140089CBE3832F
:10FE700009FC4A862C084E85EFF0DFA065BFCA86D4
:10FE80003008DA856285EFF01FAFE38509FA4A860C
:10FE90002C084E85EFF01F9F71BF85094A862C08FC
:10FEA000EFF05F9E038509006DF9858899E0DE8992
:10FEB00005BBCA863008DA856285EFF0DFABDE89E4
:10FEC00005B3138D490083A709003EC2C146014610
:10FED0004C006808EFF0DF9EAA8C7C08338CA700EA
:10FEE00093F984006382090493F904016390090281
:10FEF000CA863008DA856685EFF09FA4DA8C93F71E
:10FF0000040199C363810906EA8905A24A862C087F
:10FF100013050003EFF01F974A862C08130580078E
:10FF2000EFF05F96DE89E9B793F71400E9FB93F9E8
:10FF3000040163840900930C2500CA863008DA8521
:10FF40006685EFF05FA3E38C09FA4A862C08130557
:10FF50000003EFF03F934A862C0813058007EFF06B
:10FF60007F92DE8969BF4A862C0813050003EFF0F3
:10FF70007F914A862C0813058007EFF0BF90890C0B
:10FF800061B7938B490083A709003EC2A146014691
:10FF90004C006808EFF0DF92AA8CDE897C08338C75
:10FFA000970193F78400ADE793F71400BDEFCA867D
:10FFB0003008DA856685EFF01F9C85A8938B490091
:10FFC00083A709003EC2894601464C006808EFF04D
:10FFD0003F8FAA8CDE89D9B7938B490083A709008C
:10FFE0003EC2C14601464C006808EFF07F8DAA8CE6
:10FFF000DE896DB7938B490083A709003EC2A946ED
:020000022000DC
:1000000001464C006808EFF0BF8BAA8CDE8979B7F7
:10001000CA863008DA856685EFF09F92DA8C31A0C7
:100020007D1C4A862C08EFF0FF8503050C006DF956
:100030008588E38704BACA863008DA856685EFF0DA
:100040009F9379BE938449004A862C080385090052
:10005000EFF05F83A68969B6938B490083A90900F5
:10006000638A09064E85EF10607AAA8C858899CC40
:1000700063090C020385090005C9E35D80FF7D1C4F
:1000800085094A862C08EFF0EFFFEDB7CA863008E5
:10009000DA85EFF05F8EE9BF85094A862C08EFF01C
:1000A0006FFE038509006DF999E0DE8915BECA86E9
:1000B0003008DA856685EFF01F8CDE8915B683A7D8
:1000C0000900624798C3910921BE4A862C08EFF0C7
:1000D0006FFB39B6DE8929B66245B6502654965470
:1000E0000659F649664AD64A464BB64B264C964CBC
:1000F000064D65618280397106CE2ED232D436D655
:100100003AD83EDA42DC46DE85473EC0B7070200F9
:100110009387C79A3EC2501032C6AA850A85EFF06F
:10012000BFA6F24021618280739012341701002033
:10013000130141ED17250000130545429755FE1F99
:10014000938545EC1756FE1F130646F463FAC50067
:100150008322050023A0550011059105E3EAC5FEA1
:100160001755FE1F130585F29785FE1F9385458160
:100170006377B500232005001105E36DB5FEB78256
:1001800000009382828873A00230EFD0BF91EFE02D
:10019000BF8197C2FFFF9382622A93E2320073907D
:1001A000523097D2FFFF9382C27173901234730062
:1001B0002030B687B2882A832E88639D061463F99F
:1001C000C50A4167636EE61AB70700016363F63438
:1001D00093568601E1471727000013072728369713
:1001E00003470700BA97130700021D8F19CB3398F6
:1001F000E500B357F500B318E60033E80701331301
:10020000E50013D608013355C80293960801C18250
:10021000935703013377C802B385A60242073368B8
:10022000F700637AB80046989307F5FF63641801F6
:100230006367B8303E853308B8403357C80242037D
:10024000135303013378C802B386E60242083368C9
:100250006800637BD80046989307F7FF6365180131
:1002600079176363D8003E874205598D81458280A6
:1002700001E60547B358C702416763EAE80EB707CE
:10028000000163ECF82893D68801E14717270000A6
:100290001307C71C369783460700BE9693070002D4
:1002A000958FE5EB939E08013387154113DF080115
:1002B00093DE0E018545935703013355E7033377EA
:1002C000E703B306D5034207D98F63FAD700C69771
:1002D0001307F5FF63E4170163E6D7263A85958F88
:1002E00033D7E703420313530301B3F7E703B30E16
:1002F000D703C207B3E7670063FBD701C69793062E
:10030000F7FF63E51701791763E3D70136874205E5
:10031000598D828063E2D504C16763E2F604B707B2
:10032000000163E4F61E13D7860161489727000099
:100330009387C712BA9703C70700130E00024297AC
:10034000330EEE40631A0E0C63EDB61C3335C50058
:1003500013451500814582808145014582809307C0
:10036000F00F63F3D71C13D786002148C1B71307DA
:10037000F00FC686E37C17F193D68800A14739B702
:100380001307F00FB286E378C7E493568600A147BF
:1003900099B5B398F80033D6D50013DF0801335E62
:1003A000E6033397F500B356D500558F939E0801A9
:1003B00093DE0E013313F50093550701B376E60380
:1003C000B387CE03C206CD8E63FBF600C696130636
:1003D000FEFF63E4161763F2F616791EC6969D8E2D
:1003E00033D6E60393170701C183B3F6E6033385DB
:1003F000CE02139706015D8F637BA7004697930794
:10040000F6FF636817136376A7127916469793155C
:100410000E01098FD18D45B5B357E600B396C601DD
:10042000DD8E33D3E50013DF0601B357E303939E5C
:10043000060193DE0E013398C5013357E50033689A
:100440000701935808013316C6013373E303B385DC
:10045000FE024203B368130163FBB800B69813872A
:10046000F7FF63EAD80C63F8B80CF917B698B388AD
:10047000B84033D7E803420813580801B3F8E8033B
:100480003383EE02C208B3E5080163FB6500B6954D
:100490001308F7FF63EDD50863FB65087917B69578
:1004A000C207416FD98F1307FFFFB3F6E70093D858
:1004B0000701718F4182B38EE602B3856540B38632
:1004C000C60213D80E013387E802BA96C296338665
:1004D000C80263F3E6007A9693D80601469663E273
:1004E000C5026385C5003E858145828041677D17D1
:1004F000F98EC206B3FEEE003315C501F696E3741D
:10050000D5FE1385F7FF8145828013D70601414848
:1005100031BD93560601C1477DB993D60801C14745
:10052000B5B38145054582803687014801B54287CC
:1005300085BF3E86E9BDBA871DBF328E4DB57915A0
:100540004698D5B97915C69759BBB68732882A839C
:100550002E872E8E6393061463F1C50A4167637874
:10056000E61A1307F00FB2866375C700935686002C
:10057000A14717270000130767EE369703470700C8
:1005800093080002BA97B388F840638C0800B395CB
:100590001501B357F5003318160133EEB7003313C6
:1005A000150113560801B357CE02131508014181F6
:1005B00093560301337ECE02B307F502420E336732
:1005C000DE006378F7004297636507016373F70005
:1005D00042971D8FB356C70293170301C183337728
:1005E000C7023305D5024207D98F63ECA7083385CC
:1005F000A740335515018145828001E605473358F0
:10060000C7024167636CE80EB70700016365F82A0B
:1006100093568801E14717270000130727E4369710
:100620000347070093080002BA97B388F840639A1B
:10063000081E131E0801B385054113560801135EF9
:100640000E0113570301B3D6C502B3F5C502B38635
:10065000C603C2054D8F6377D700429763640701D5
:10066000636AD726158F3355C7024203135303011C
:100670003377C7023305C5034207B367670063F8E2
:10068000A700C29763E5070163F3A700C29733850C
:10069000A74033551501814582802A88E3EED5F4C1
:1006A000C16763E5F604B707000163E2F62013D3E0
:1006B0008601E14897270000938747DA9A9703CE8F
:1006C000070013030002469E3303C341631903046A
:1006D00063E4B6006369C5003308C540958D3337C0
:1006E00005013387E5404285BA8582809307F00F84
:1006F00063FBD71C13D38600A1486DBF1307F00F0F
:10070000C286E37A07F193568800A14729B7B70755
:1007100000016366F61A93568601E14799BDB35707
:10072000C601B3966600DD8EB3D8C50113D70601A6
:10073000B3DEE802139F0601B357C501135F0F0133
:10074000B3956500DD8D13D80501331666003315AA
:100750006500B3F8E802B307DF03C20833E8080115
:10076000637BF80036989388FEFF6363D816637145
:10077000F816F91E36983308F840B357E802C20558
:10078000C1813378E802330FFF02131708014D8F40
:10079000637BE70136979385F7FF6369D712637729
:1007A000E713F9173697C20EC162B3EEFE00138845
:1007B000F2FFB3F80E019355060193DE0E01337874
:1007C0000601B38F08033307E74133880E0393D73D
:1007D0000F01B388B802C298C697B38EBE0263F306
:1007E0000701969E41687D1893D50701B3F707016D
:1007F000C207B3FF0F01F695FE976362B70A630E57
:10080000B708B307F5403335F500B305B740898D18
:10081000339EC50133D567003365AE00B3D565009F
:1008200082803318180133D7F50013560801B356E8
:10083000C702131E0801B357F500135E0E01B395EE
:100840001501DD8D93DE0501331315013377C702E2
:10085000B307DE0293160701B3E6D60163F8F6008C
:10086000C29663E5060163F3F600C2969D8E33D708
:10087000C60293970501C183B3F6C6023307EE02A1
:1008800093950601DD8D63F8E500C29563E50501EA
:1008900063F3E500C295998D6DB3E374F5F6338685
:1008A000C740B3B7C700B6979D8DB28799BF13D322
:1008B0000601C14801B593560801C147A9BB93562B
:1008C0000601C1477DB136838148EDB3AE87E1BDF6
:1008D000C68E55B5429779B313D74501B7071000B7
:1008E000FD1713D846011377F77F9308F07F33FE87
:1008F000B700AA8EF58FFD81328F1378F87FFD82C5
:10090000630E1703630D180129E3B368AE00631F7C
:1009100008005D8E01EE0143638C080421A8B3E852
:10092000C7000943639608046DD305A063840804D7
:100930006385D50205438DCD7D531DA8B368AE00F8
:10094000094363970802630AE802631408005D8E96
:1009500075D2E391D5FEE34FE8FC63490701E3EB71
:10096000C7FD630FFE0001436374FE00F1D505432C
:100970001A858280EDFE7D53E5BF5D8E79DACDBFAD
:10098000E36ADFFB0143E3F5EEFFF5F175B739717B
:100990004AD813D945014ED652D456D29399C500A0
:1009A00006DE22DC26DA5AD05ECE1379F97F2A8A57
:1009B00093D9C90093DAF501630D090E9307F07F0F
:1009C0006306F9181354D5018E09B369340137044D
:1009D000800033E4890093143500130919C081495C
:1009E000814B13D74601139AC6001377F77FB28560
:1009F000135ACA0013DBF601630B07109307F07F4D
:100A00006303F7049357D6010E0A33EA470113072D
:100A100017C0B7078000B367FA00931536003A99FC
:100A2000814833C76A01BD463A851308190063E857
:100A30003617172600001306669E8A09B29983A608
:100A40000900B2968286B367CA001309F97F6399D9
:100A5000071293E9290081458948E1B701479307C7
:100A6000F07F3704080081443204D20731807E07CA
:100A70005D8C598CA285F250625426854259D2541D
:100A8000B259225A925A025BF24B216182805A85F6
:100A90003E84AE84C68B8947638DFB0E8D47E38F02
:100AA000FBFA85472A87639EFB38814701448144CE
:100AB00065BF33E4A90061C036C632C4638C092A1D
:100AC0004E85EF00F0412246B246AA87130755FF34
:100AD0007544938487FF198CB399990033548A0025
:100AE00033643401B3149A0013D746011309D0C0FC
:100AF000139AC6001377F77F3309F9408149814B78
:100B0000B285135ACA0013DBF601E31907EEB36787
:100B1000CA00B1C7630F0A22528532C4EF00503CAD
:100B200022462A87930655FFF547930587FF958F41
:100B3000331ABA00B357F600B3E74701B315B6004E
:100B40003309E9401309D9C08148E1BD33E4A90064
:100B500001ECA14981441309F07F894B59B593E910
:100B600019008145854875BD4E84AA84B149130991
:100B7000F07F8D4BBDB5914981440149854B95B5B9
:100B800093E93900D2878D4869BD89475685E39737
:100B9000FBF02A879307F07F01448144F1B5C16ED1
:100BA0001386FEFF93D6040113DE0501F18CF18D4F
:100BB000338695023383B6029358060133059E02AD
:100BC0001A95AA98B382C60363F36800F692C16FC0
:100BD0001383FFFF33F5670093D30701B3F7680072
:100BE000C207337366003E933306950293D808011B
:100BF000B387A602135F0601B3849302BE94FA94EE
:100C0000B38E760263F3F400FE9E416A9307FAFF07
:100C1000935F0401B376F400B3F9F4007D8EC180D4
:100C20003384D502C209338FD401B299CE98B30769
:100C3000DE02935E0401B385BF02AE97BE9E330E03
:100C4000FE0363F3BE00529EC1679385F7FF33F640
:100C5000BE006D8C4206229693DE0E01B305D502CE
:100C6000769E3385AF0213D40501B386D302AA96CC
:100C7000A296B38FF30363F3A600BE9F41657D1573
:100C8000B3F7A600C2076D8DAA97B3855800B3B914
:100C90003501FA97B2953384370133B6C500B30EE8
:100CA000C4013385CE0033343401B3B7E701C18FBB
:100CB00033BECE0113D406013336C5003E943366ED
:100CC000CE009394950032947E94B3E4640026049D
:100CD00093567501B3349000DD8193179500CD8C48
:100CE000558CDD8C9317740063DB070093D71400D9
:100CF00085889316F401DD8CD58C05804289930795
:100D0000F93F6359F00893F6740081CE93F6F4002E
:100D100011466388C60093864400B3B496002694B7
:100D2000B6849316740063D80600B70700FFFD175A
:100D30007D8C930709409306E07F63CFF60E93D630
:100D400034009314D4012604D58C318093F7F77FB7
:100D500021BB328532C4EF00B01893065501F1472C
:100D6000130705022246E3D1D7DC6115B317A600AD
:100D70008145F9B3EF00D01613075501F1459307EC
:100D800005022246B246E3D5E5D461153314AA0024
:100D9000814499BB85469D8EB1E71309E941B3971C
:100DA0002401B3D4D40033192401B337F000B36461
:100DB0009900DD8C93F77400B356D40081CF93F77C
:100DC000F40011466388C70093874400B3B49700CA
:100DD000A696BE849397860063D80704854701448E
:100DE000814459B113068003E341D6CC7D46E356D6
:100DF000D6FA0556B307F640930500023356F400C1
:100E00006387B6001309E943B3172401DD8CB334BB
:100E10009000D18C93F67400014499CA93F7F400C2
:100E200011468146E392C7FA139496003180F60684
:100E30008D80D58C81470DB99307F07F01448144A3
:100E400025B142896DBD370710007D17011133733D
:100E5000B70093D84601758F935ED60122CC26CA7F
:100E60000E0393D445019357D5010E0706CE4AC809
:100E70004EC693F8F87F130EF07F33E7EE0093F43D
:100E8000F47F13D4F50133E36700131F3500FD82AF
:100E9000931E3600638FC81793C61600B38514419E
:100EA0006304D4126350B018638A081AB70780002D
:100EB0005D8F638FC4579307800363C2B734FD47C8
:100EC00063C3B748930700028D8FB3D9BE003318B0
:100ED000F700B39EFE00336838013357B700B339CB
:100EE000D001336838013303E340B3090F41B3370E
:100EF0003F013306F3409317860063D20724370976
:100F000080007D1933792601630E092C4A85C92F8B
:100F1000130785FF93070002998FB3D7F9003316A3
:100F2000E900D18FB399E9006344972A058F13062E
:100F30001700FD4663C4C63A13070002118FB3D6EB
:100F4000C9003398E9003397E700558F3338000123
:100F5000B369070133D6C700814493F7790081CF85
:100F600093F6F90091476388F6009386490033B8F9
:100F700036014296B6899317860063D6071C1387FD
:100F800014009307F07F05886306F720B70780FFFA
:100F9000FD17F18F1398D70193D93900A60733684D
:100FA0003801B1831377F77F9396C7005207B18258
:100FB0007E04D98EC18EF2406244D2444249B24985
:100FC0004285B685056182806356B00A638A08123D
:100FD000B70780005D8F6386C42D9307800363C7C6
:100FE000B718FD4763D1B73C138805FE930700028D
:100FF000B3590701638AF50093070004B385B7402E
:101000003317B700B3EEEE003338D0013368380140
:1010100095A2B367D7019385148099E393C6160010
:10102000630AD404D1E19387140093F7E77F6398B0
:10103000071EB367E3013368D70163920416638127
:10104000073C63150842131835009316D301135853
:10105000380033E806019357330019A2B367D7016C
:101060006384071A9387F5FF638A073A638BC52366
:10107000BE8591B56398051C9386140093F7E67FAF
:10108000C1EFB367E301639F0434638C0744B36724
:10109000D701639307460E051318D3010D813368FA
:1010A000A800935733006DA8B38598406396042039
:1010B000B367E301638C07309387F5FF63880740CC
:1010C0001305F07F6382A520BE859307800363C16B
:1010D000B72AFD4763C7B73C930700028D8F3318CB
:1010E000F3003356BF00B317FF003368C800B339AD
:1010F000F0003353B3003368380133076740ADACB9
:10110000B367D701638207109387F5FF638E071ECD
:10111000638FC52DBE85D1B59307F07F638BF6062F
:10112000FA9E33B6EE01B307E300B2971398F701C6
:1011300093DE1E00B369D80113D61700B68493F767
:101140007900E39F07E09317D60113D8390033687D
:10115000F800A685935736001307F07F6380E506F5
:10116000B207B18313F7F57F05883DBD3367D7011B
:101170003338E000B309E801B3B7E901338667000B
:1011800093178600E3DD07FA85049307F07F639BDE
:10119000F41805881307F07F8147014831B5639043
:1011A00007106300083C131836009317D701135833
:1011B00038003368F800368493573700B367F80077
:1011C000E9DB01441307F07FB70708000148E9BBDA
:1011D000370680FF7D167D8E93F77900998CE39119
:1011E00007D895B74E85ED2913078501FD47E3D351
:1011F000E7D2130685FFB397C900814935B3336839
:10120000D70133380001D5B1131835009317D30136
:10121000135838003368F8009357330035BFB309CB
:10122000DF413309E34033363F013309C9409317A7
:10123000890063CA072033E82901E31708CC8147F6
:10124000014439BFB385984063810414B706800018
:101250009307F07F3363D3006381F8209307800303
:1012600063CCB722FD4763C9B72C930700028D8F6B
:101270003318F300B356BF00B317FF003368D8002C
:10128000B339F0003353B300336838011A97B30908
:10129000D801B3B7D9013386E700C684D5B5E312C8
:1012A00008F2131835009317D30113583800336828
:1012B000F8009357330019B7370580009307F07F84
:1012C0003363A300E393F8E00E061318D7010D82F1
:1012D0003368C800935737003684CDB50517930699
:1012E000000233D7E700630AD60093060004338672
:1012F000C6403396C700B3E9C90033383001B3693B
:10130000E8000146814425BDB309DF01B307E300CE
:1013100033BFE9013386E701931786008544E3D0A4
:1013200007E28944B70780FFFD17F18F13D7190033
:1013300013F81900336807019399F701B3E909011C
:1013400013D6170019B9138805FE93070002B35985
:101350000701638AF50093070004B385B74033178C
:10136000B700B3EEEE003338D00133683801B5BEB4
:101370003363E30133386000B3890E41B3B73E01F4
:101380003306F740C6843684BDB6B367E30163878E
:1013900007189387F5FF638C071C9306F07F638E15
:1013A000D50ABE8565BD930700028D8FB3D9BE00F7
:1013B0003318F700B39EFE00336838013357B70087
:1013C000B339D001336838013A936DB3131836003E
:1013D0009317D7011358380033E807013684935721
:1013E00037009DBBBDCB3367D701E31C07DC0E057F
:1013F0001318D3010D813368A800935733007DBBC8
:10140000E30F08E2131836009317D701135838007A
:101410003368F80036849357370099B3B309DF4136
:10142000B307E340333F3F013386E7418544E1B4EE
:10143000131835009316D3011358380033E806010A
:1014400093573300A5BBB389EE413306674033B9E8
:101450003E0133092641368445BC0E061318D701D8
:101460000D823368C8009357370089BBB309DF4149
:10147000B307E34033363F013386C74093178600F6
:1014800063D7070AB389EE41B3076740B3BE3E0195
:101490003386D7413684D1B43363E30133386000F7
:1014A000FDB3138805FE93070002B3590301638A55
:1014B000F50093070004B385B7403313B300336FCF
:1014C0006F003338E001336838017DB5B389EE41F0
:1014D000B3076740B3BE3E013386D74136848544A7
:1014E00019BC131836009317D70113583800336806
:1014F000F80093573700ADB1B309DF01B307E3003C
:1015000033BFE9013386E70193178600E3D907C2A9
:10151000B70780FFFD177D8E854415B10E061318A1
:10152000D7010D823368C8009357370035B133E8CF
:10153000C900E30608D021B1138805FE9307000215
:10154000B3590301638AF50093070004B385B740DC
:101550003313B300336F6F003338E0013368380161
:101560003DB301441307F07FB707080035BCB3094A
:10157000DF01B307E300B3BED9013386D70169BBEE
:1015800093D74501B70610001387F6FF93F7F77F4F
:101590001306E03F2A886D8F0145FD816354F600F4
:1015A00099C1828082801306E0417D55E34BF6FEAF
:1015B000130530431D8D7D46558F634AA6009387E2
:1015C000D7BE3317F7003355A800598D8280130515
:1015D0003041B307F5403355F700828015CD4111F6
:1015E00022C406C62A84ED289306E041898EA947C5
:1015F00093F6F67F63DCA7025515B317A400B20774
:10160000B1830147B2402244B207D206B183D58FDD
:101610003A85BE854101828081478146B207D20664
:10162000B1830147D58F3A85BE8582802D47098FCA
:10163000B357E400B207130755013317E400B18331
:10164000D1B793D74501B70610001387F6FF93F77C
:10165000F77F1306E03F6D8FFD816353F60081C570
:101660000145814582801306E0436355F6007D55B0
:10167000FD55828013062043B365D700635CF600F6
:101680001387D7BA9387D7BC63400704B315E50027
:1016900001458280930630439D8E7D47635BD70072
:1016A00013073041B307F740B3D7F50081453E85B6
:1016B00082801387D7BE3397E5003355D500B367D3
:1016C000A700B3D5D500E5B7FD46135715009D8E8D
:1016D0003357D700B395F500D98D3315F5008280C7
:1016E000C167637EF5029307F00F1307000263ECF6
:1016F000A70097170000938767D6AA9703C507002E
:101700003305A7408280218197170000938707D572
:10171000AA9703C5070061473305A7408280B70732
:101720000001636EF500618197170000938707D36E
:10173000AA9703C5070021473305A740828041814E
:1017400097170000938787D1AA9703C507004147E1
:101750003305A7408280B3C7A5008D8B3307C50032
:1017600081E78D4763EEC700AA876370E50A83C6E9
:10177000050085078505A38FD7FEE3EAE7FE828093
:1017800093763500AA8791CA83C60500850785052B
:10179000A38FD7FE93F63700FDB79376C7FF138666
:1017A00006FE63F0C70683A3050083A2450083AF4E
:1017B000850003AFC50083AE050103AE450103A359
:1017C000850183A8C5019385450223A0770003A85E
:1017D000C5FF23A2570023A4F70123A6E70123A8EE
:1017E000D70123AAC70123AC670023AE1701938753
:1017F000470223AE07FF75B790419107910523AECD
:10180000C7FEE3EBD7FEE3E4E7F68280AA8785070D
:1018100003C7F7FF6DFF3385A7407D158280000069
:10182000A01B0200AC1B0200B81B0200C41B02007C
:10183000D01B0200D81B0200E41B0200F01B0200B8
:101840006EC80100BEC6010062C70100B6C7010034
:101850006EC801006EC8010002C801003AC801004C
:1018600012C70100A4C901005CC9010076C90100CA
:1018700082C90100A4C90100A4C901008EC90100E8
:101880009AC9010068C90100B3F5CABCBBAFD2FD5B
:10189000BDC500002A2A2A2A2A2A2A2A2A2A2A2ACE
:1018A0002A2A2A2A2A2A2A2A2A2A2A2A2A2A2A2A98
:1018B0002A2A2A2A2A2A2A2A2A2A2A2A2A2A2A2A88
:1018C0002A2A2A2A2A2A2A2A2A2A0D0A000000005D
:1018D0002020202020202020202020202020202008
:1018E0002020454F525320CAFDBEDDBCAFB2C9BC5B
:1018F000AFB9A4B3CC0D0A0D0A000000CAB9D3C316
:10190000CBB5C3F73A0D0A00283129C4ACC8CFB70C
:10191000A2CBCDBBD2B6C8CAFDBEDDBCAFA3ACCD99
:10192000A8B9FDB4A5C3FEBFAAB7A2B0E5D3D2C97A
:10193000CFBDC7C7F8D3F2B8C4B1E4B7A2CBCDC40A
:10194000A3CABD0D0A000000283229B4A5C3FECAEF
:10195000AEB4CEBCB454736920436F756E74B4EFEB
:10196000B5BDCAAEB4CEBAF320C7D0BBBBCAE4B3D0
:10197000F6C4A3CABD20B9B2D3D0BBD2B6C8D3EB8C
:10198000B2CAC9ABC1BDD6D6C4A3CABD0D0A000038
:10199000283329C8F4B4A5C3FEBAF35473692043AD
:1019A0006F756E74D6B5B2BBD4F6BCD3A3ACC7EB1F
:1019B000B2E9BFB4B0E5D7D3C9CFCAC7B7F1D3D066
:1019C000D2ECCEEFA3ACCAC7B7F1D3D0BAB8D4FC2F
:1019D000A3ACC8E7D3D0A3ACC7EBC7E5B3FDB8C988
:1019E000BEBB0D0A00000000283429BDABCEEFCCF1
:1019F000E5B5C4CEBBD6C3B7C5D6C3D4DA4C4344D1
:101A0000B8F8B3F6B5C4BAECBFF2D6D00D0A0000F0
:101A1000283529B4F2BFAACAFDBEDDBDD3CAD5B9E7
:101A2000A4B3CCBDD3CAD5CAFDBEDD0D0A000000EB
:101A3000202020D7A2D2E2CAC2CFEE3A0D0A00007F
:101A40002020202020202020202020202831294C48
:101A50004344BAECBFF2D6D0CEDEC6E4CBFBB6E050
:101A6000D3E0CEEFCCE50D0A0000000020202020BE
:101A70002020202020202020283229B1A3B3D6CA3C
:101A8000B6B1F0B3A1BEB0B9E2D5D5C1BCBAC30DF1
:101A90000A00000041492D454F52532044657465AA
:101AA0006374204465766963650000004461746175
:101AB00020466F726D61743A0000000047726179D0
:101AC0000000000054736920436F756E743A000083
:101AD000446576696365205374617475733A0000D8
:101AE000BDF0BAF9C2ABCCE1CABEA3BA20D5FDD4D1
:101AF000DAB3F5CABCBBAFC9E3CFF1CDB72E2E2EFA
:101B00002E2E0D0A00000000BDF0BAF9C2ABCCE1E8
:101B1000CABEA3BA20D5FDD4DAB3F5CABCBBAFC9DF
:101B2000E3CFF1CDB72E2E2E2E2E0000CAA7B0DCAB
:101B3000A3ACBFC9D6D8D0C2B0CEB2E5C9E3CFF10D
:101B4000CDB7A3A10D0A0000BDF0BAF9C2ABCCE13C
:101B5000CABEA3BA20CFB5CDB3BDABD6D8D0C2B321
:101B6000F5CABCBBAFC9E3CFF1CDB72E2E2E2E0DDB
:101B70000A000000BDF0BAF9C2ABCCE1CABEA3BAFC
:101B800020D5FDD4DAB3F5CABCBBAFC9E3CFF1CDE4
:101B9000B72E2E2E2E2EB3C9B9A60D0A00000000B6
:101BA000496E6974204465766963650043414D2040
:101BB0004572726F7200000047657474696E672029
:101BC000496D670050726564696374696E670000EF
:101BD00052756E6E696E6700496E69745375636302
:101BE0006573730053656E64696E67446174610068
:101BF00046696C746572696E674572726F72000037
:101C00003031323334353637383941424344454632
:101C10003230323030373136000000002020A1BE93
:101C200055736572CCE1CABEA1BFA3BAD6D0B6CFF8
:101C3000BCCCB3D00D0A00002020A1BE5573657244
:101C4000CCE1CABEA1BFA3BABDABBDF8C8EB55730A
:101C50006572B5C46D61696EBAAFCAFDD6B4D0D035
:101C60002E2E2E0D0A0A0000DCEA010096EA010081
:101C7000C4EB010000EC01003CEC010070EC010041
:101C8000CAEC0100F4EC010026ED0100BDF080007B
:101C90008000400120021004080AF47783208000AD
:101CA000F80F800088089004A012FE3F0000BAF9E7
:101CB00020022022FF7F2002103E9022FE23103EB1
:101CC0005022FC22443E442244227C22442980109B
:101CD000C2AB10041024FF7F10048010FC3F0410DE
:101CE0000410FC1F041004000400040002000200A1
:101CF00001000000000000000000000000000000E3
:101D0000000000000000183C3C3C1818180018188F
:101D1000000000000066666624000000000000006D
:101D20000000000000000036367F3636367F36363B
:101D30000000000018183E6343033E6061633E18D4
:101D40001800000000000000436330180C066361B7
:101D50000000000000001C36361C6E3B3333336E2F
:101D600000000000000C0C0C060000000000000049
:101D700000000000000030180C0C0C0C0C0C18308B
:101D80000000000000000C18303030303030180CEB
:101D9000000000000000000000663CFF3C66000000
:101DA00000000000000000000018187E1818000055
:101DB00000000000000000000000000000181818DB
:101DC0000C000000000000000000007F0000000088
:101DD00000000000000000000000000000001818D3
:101DE0000000000000000000406030180C060301F5
:101DF0000000000000003E6363736B6B6763633E2B
:101E0000000000000000181C1E1818181818187E72
:101E10000000000000003E636030180C0603637F82
:101E20000000000000003E6360603C606060633E54
:101E300000000000000030383C36337F303030780E
:101E40000000000000007F0303033F706060633EFA
:101E50000000000000001C0603033F636363633E51
:101E60000000000000007F63606030180C0C0C0C58
:101E70000000000000003E6363633E636363633EF3
:101E80000000000000003E6363637E606060301EFF
:101E900000000000000000001818000000181800E2
:101EA0000000000000000000181800000018180CC6
:101EB000000000000000006030180C060C183060B4
:101EC000000000000000000000007F00007F000014
