:040000006F00A05F8E
:100004000000000000000000C8020000CA02000056
:1000140000000000F80500000000000000000000DF
:10002400F8050000F80500000000000000000000D2
:10003400F805000000000000F805000000000000C2
:10004400F8050000F8050000F8050000F8050000B8
:10005400F8050000F8050000F8050000F8050000A8
:10006400F8050000F8050000F8050000F805000098
:10007400F8050000F8050000F8050000F805000088
:10008400F8050000F8050000F8050000F805000078
:10009400F8050000F8050000F8050000F805000068
:1000A400F8050000F8050000F8050000F805000058
:1000B400F8050000F8050000F8050000F805000048
:1000C400F8050000F8050000F8050000F805000038
:1000D400F8050000F8050000F8050000F805000028
:1000E400F8050000F8050000F8050000F805000018
:1000F400F8050000F8050000F8050000F805000008
:1001040000000000F8050000F8050000F8050000F4
:10011400F8050000F8050000F8050000F8050000E7
:10012400F8050000F8050000F8050000F8050000D7
:10013400F8050000F8050000F8050000F8050000C7
:10014400F8050000F8050000F8050000F8050000B7
:10015400F8050000F8050000F8050000F8050000A7
:10016400F8050000F8050000F8050000F805000097
:10017400F8050000F8050000F8050000F805000087
:10018400F8050000F8050000F8050000F805000077
:10019400F8050000F8050000F8050000F805000067
:1001A400000000000000000000000000000000004B
:0C01B4000000000000000000000000003F
:1001C000397101436EC619A0397141536AC866CAB4
:1001D00062CC5ECE19A0397101535AD056D252D496
:1001E0004ED64AD826DA22DC06DE3301614082820E
:1001F00041114AC026C222C406C68282B24D4101C4
:10020000024D924C224CB24B4101024B924A224A7F
:10021000B2494101024992442244B24041018280E4
:100220003D432A876373C3029377F700BDEFADE5C3
:10023000937606FF3D8ABA960CC34CC30CC74CC7D5
:100240004107E36BD7FE11E28280B306C3408A0602
:100250009702000096966780A6002307B700A306C2
:10026000B7002306B700A305B7002305B700A30412
:10027000B7002304B700A303B7002303B700A3020A
:10028000B7002302B700A301B7002301B700A30002
:10029000B7002300B700828093F5F50F9396850091
:1002A000D58D93960501D58D61B79396270097025A
:1002B000000096968682E78086FA9680C1171D8F89
:1002C0003E96E374C3F8A5B701A0B707EFBE37E7C2
:1002D00000E0938707083CC701A0EFF27FF1EF0031
:1002E00050422A8421882945EF10E00401ECEF00F8
:1002F000B0363735000013054504EF10104A294584
:10030000EF106003EF0070361305401FEF10A002DE
:10031000EF009042B737000083A507042A84084104
:10032000EF10C03BEF10101D93150501373500008D
:10033000C18113054505EF1010354840EF10901BA3
:100340009315050137350000C18113050506EF102F
:100350009033C9B5EFF2DFE909454925BD2293077E
:10036000800873B00780EF00707A7165130505206F
:10037000EF00D07FEF00F03AEF00D074EF00507143
:10038000B707002083A50708373500001305C50609
:10039000EF10702FC52CAA85373500001305C5074F
:1003A000EF10702E373500001305C508EF10F03E32
:1003B0003735000013058509EF10303E89453715A4
:1003C0000140692E1305803EEF00F0763937DDBF1E
:1003D000B71702409843B706FFF0411113671700A3
:1003E00098C3D84337060200758FD8C39843B70621
:1003F000F7FEFD16758F98C39843B706FCFFFD16F0
:10040000758F98C3D843B70601FFFD16758FD8C303
:100410009843B70600ECFD16758F98C33707FF00A9
:1004200098C723A6070202C402C69843C166558F27
:1004300098C3B716024005679C42F18F3EC6A2479B
:1004400085073EC4B24781E7A247E397E7FEB717A7
:1004500002409C431397E7006357070685473EC653
:1004600032478547631FF704B7170240D843B706E2
:10047000C1FFFD16D8C3D843D8C3D843136707407C
:10048000D8C3D843758FD8C3D843B7062900558F32
:10049000D8C39843B7060001558F98C39843931665
:1004A0006700E3DD06FED843B7160240719BD8C350
:1004B000D84313672700D8C32147DC42B18BE39EA2
:1004C000E7FE4101828002C661BFB7160240D842F2
:1004D000B70700201146318B938707086305C700D3
:1004E00021466308C70237177A001307072098C30D
:1004F00037170240584311839376F70037070020DF
:10050000130707003697142398433357D70098C32F
:100510008280D842D442416649833D8BF18E1306D6
:10052000270015CF3D47630FE6024147630FE60200
:10053000454781456313E6004146A1E23747024043
:1005400003270780418B0DC737177A001307072051
:100550003306C70290C3C9DD9843058349BF81456F
:100560004946E1BF85453546C9BF81453D46F1B79E
:1005700037173D0013070790E1BF37150240585564
:100580009316F700585563DF060411833D8B9306DD
:10059000170037177A00130707203357D70298C37D
:1005A0005455A182BD8A8DE295463307D702058353
:1005B00098C337170240585794433D8B050733D7EC
:1005C000E60298C3984369B705456394A600E546DB
:1005D000E9BF3D456396A600D1463387E602C9BF11
:1005E0008906E5BF3D8B9306170037177A0013077E
:1005F00007203357D702F1B701A09701002093815C
:100600006128178100201301E19F173500001305B1
:1006100065D1970500209385E59E1386818163FA55
:10062000C5008322050023A0550011059105E3EACA
:10063000C5FE13858181938541836377B5002320AF
:1006400005001105E36DB5FEFD42739002BCAD429D
:1006500073904280B76200009382820873900230E8
:10066000970200009382429A93E2320073905230D4
:10067000EFF01FD697020000938202CE73901234DF
:1006800073002030B7F7FF1F03A5477082809C4599
:1006900013F7070113F8F70001C7D8413368E800E2
:1006A0008E2113F7F50F39C318418146854E3D4F12
:1006B000930F800293028004214E3396DE00B3F83C
:1006C000C500631116039398260033131F011343CB
:1006D000F3FF3377E300B318180133E7E800639FB3
:1006E000F70550C98506E39AC6FD18C11307F00F38
:1006F0006375B70454412146854E3D4F930F8002E8
:1007000093028004414EB398CE0033F715016392F3
:10071000E8021317260001173313EF001343F3FF0A
:10072000B376D3003317E800D98E639DF701232AEF
:1007300015010506E319C6FD54C18280E39457FAFA
:1007400010C94DB7E39757FE23281501DDB70845BB
:100750006D8D3335A00082800CC982804CC98280A7
:10076000B7070140635A0504DC4F9356050113187F
:1007700005013707300013F6F60013580801B37669
:10078000E50063500506639BE602930606010D46ED
:10079000B316D60093C6F6FFF58F99C913575501C6
:1007A0001377F73F12073317E800D98F6357050413
:1007B000370701405CCF8280DC4345BF1317B5008B
:1007C000635607008D46B396C600E9B71357550127
:1007D0001377F73F12073317E8001347F7FFF98F36
:1007E0006DBF6390E602370601405442370700F1BF
:1007F0007D17F98F758F58C2D5F1370701405CC35B
:1008000082801317B500635C07008D46B396C6005F
:1008100093C6F6FFFD8EB707000FD58FF1BF1357B4
:10082000550112073317E8001347F7FF7D8FB7070D
:10083000000FD98FD1B7EFF2BF9B797146212A847F
:1008400068082EC6792A925737470F0013070724E6
:1008500033D7E702C204C18093F404FCC2049306B8
:10086000C003C180B24563F4E6001307C00313164A
:1008700007014182D18C46A0162061651305056AE7
:10088000C206C182F99AC206C18216A09441636869
:10089000D5048606B3D7D702914613970701418343
:1008A000BA876373D700914705064206C2074182A3
:1008B000C18312B05EAC1E20DA21B62593E7170083
:1008C0001EA01E20558FC207C18393F757BFD98F33
:1008D0001EA09A25DE25D98F1EA4456125BAEA21DE
:1008E00031667D16631DC5020D46B386C602B3D7B9
:1008F000D702C207C1839396470199E293E7170095
:10090000A166D58F9306C0123307D7029306803EA7
:100910003347D7020507420741831AB061BF6546D6
:10092000B386C602B3D7D7029166C207C183D58FFB
:10093000D9B71E2189C593E717001EA18280C2077F
:10094000C183F99BC207C183CDBF1E2189C593E72F
:1009500007101EA18280C207C18393F7F7EFC20779
:10096000C183C5BF1E2189C593E707201EA18280D0
:10097000C207C18393F7F7DFC207C183C5BF0EA9C2
:10098000828093F7E50F19C293E71500C207C18370
:100990001EA982805E290A2D42055D8D6D8D22057E
:1009A00021810D8D133515008280411102C402C6CC
:1009B00093D7C5012AC63EC4A247A205A18199CBFF
:1009C000B247D1073EC6B247884341016D8D3335EA
:1009D000A0008280B247C181E107EDB723ACA180BE
:1009E0008280371702405C439146B18B6385D70004
:1009F000A1466382D706B7177A00938707201CC1E8
:100A0000371602405C423707002013070701918325
:100A1000BD8BBA9794231C41B3D7D7005CC1544215
:100A2000A1829D8ABA969422B3D6D70014C55442A7
:100A3000AD829D8A36971823B3D7E7005CC558422C
:100A40003983937637001387418036971823B3D7BD
:100A5000E7021CC982805C435843C166C983758F15
:100A6000B7F6FF1F83A6C670BD8B890713961601C4
:100A700063480600C54601466392D702C94739A8B4
:100A80008946638FD702BD46638ED702C146638E07
:100A9000D702C54601466393D700C1471DEF3747CC
:100AA000024003270780418B05C737177A001307D9
:100AB0000720B307F7021CC121D61C41858381B7EB
:100AC00001466DBF0546B547D1BF0146BD47F9B7E1
:100AD00037173D0013070790E9BFB7150240D855F7
:100AE0009316F700D85563DF060411833D8B9306F8
:100AF000170037177A00130707203357D70218C19A
:100B0000D455A182BD8A8DE295463307D70205836D
:100B100018C137170240585714413D8B050733D78A
:100B2000E60218C1184171B785456394B600E546E1
:100B3000E9BFBD456396B600D1463387E602C9BF1B
:100B40008906E5BF3D8B9306170037177A00130718
:100B500007203357D702F1B799C5371702401C4F0A
:100B60005D8D08CF8280B7170240984F1345F5FF7F
:100B7000798D88CF828099C5371702405C4F5D8D93
:100B800048CF8280B7170240D84F1345F5FF798DC3
:100B9000C8CF8280EFF2CFE51629F577FD17F58FE4
:100BA000F621DA257971D58F1EA95625FD77938711
:100BB000379FF58FD6212A842EC6D58F9625D58FBF
:100BC000B625D58F5EA55E29C207C18393F7F7CFFF
:100BD000D98F5EA968083135B747014093870780F0
:100BE000B245631EF402A2576547B387E7029841F6
:100BF000930640060A07B3D7E70233D7D702B3F705
:100C0000D7021207920793872703B3D7D702BD8B6A
:100C1000D98FC207C1831EA445616FF0AFDF925721
:100C2000E1B791C55E250967D98F5EA582805A25F7
:100C3000F977FD17F98FD5BF93F5F51F4EA1828087
:100C40000A216D8D3335A0008280EFF26FDA371400
:100C50000140130504C093050004FD3C9305000802
:100C6000130504C0D53C0545EF00E06C6FF08FDA4A
:100C7000EFF20FD8411185452145F93D9307000C4E
:100C80007C8237150140D1474C003EC6130505C094
:100C90008D473EC4ED3A553F41016FF0AFD7EFF2BB
:100CA0002FD537140140130504C0930500046D349B
:100CB00093050008130504C045340545EF00A067FF
:100CC00093050004130504C0513C0545EF00A066E0
:100CD00093050008130504C051340545EF00A065D5
:100CE0006FF04FD3EFF2CFD037140140130504C09B
:100CF00093050004A53493050008130504C0A93C1E
:100D00000545EF00406393050004130504C0A934B2
:100D10006FF04FD0EFF22FCC371401402A89814475
:100D2000130404C01D4AA14993178901E187930563
:100D30000004228563D4070405340545EF00A05F55
:100D4000930500082285093C0545EF00C05E930528
:100D5000000822852134639644019305000422850E
:100D6000E53A85040609054593F4F40F1379F90F64
:100D7000EF00605CE39A34FB6FF02FC9C53275BF9A
:100D8000EFF20FC737190140A1440144130909C00C
:100D9000930500084A85C9320545EF00C05906048D
:100DA000930500044A851374F40F553201C50504F8
:100DB0001374F40F930500084A854D32FD14054560
:100DC00093F4F40FEF002057E1F422856FF08FC405
:100DD000EFF20FC23714014093050004130504C05D
:100DE000EFF09F970545EF000055930500081305A8
:100DF00004C0EFF07F960545EF00E0539305000433
:100E0000130504C0EFF0BF94AA84930500081305EE
:100E100004C0EFF0BF940545EF00E051333590007A
:100E20006FF04FBFEFF2CFBC411132C42EC62A84FF
:100E3000BD3513050007F93D613F2285E13D493F7E
:100E4000B2452E85C13D693722463285E1354937A5
:100E5000513D41016FF00FBCEFF28FB90146A14542
:100E60001305E00BC1376FF0EFBAEFF26FB8014630
:100E7000930530031305C00A75376FF0AFB9EFF271
:100E80002FB73714014093050004130504C0EFF099
:100E9000FF8C05454D2193050008130504C0EFF0B4
:100EA000BF8B0545492993050008130504C0EFF0E1
:100EB000FF8A0545492193050004130504C0EFF09E
:100EC000BF896FF02FB5EFF2AFB237140140930531
:100ED0000004130504C0EFF03F880545A9299305D8
:100EE0000008130504C0EFF03F870545A9219305CD
:100EF0000008130504C0EFF07F8605452D296FF02B
:100F00006FB1EFF2EFAE4111593B130510071935E0
:100F1000C135BD352AC6453FF133324541016FF039
:100F20006FAFEFF2EFACA933E93F218901E52D372F
:100F3000294511216FF00FAEEFF2EFA93D371305F0
:100F4000401FD52EA93B13051007E93351350D3D40
:100F5000AA89353735352A841D371D35AA8A0537C4
:100F60000535AA84293F293D2A8AE209093F093D1E
:100F700093D989412A89813FB53363C50908220481
:100F8000336454012204458CA204B3E44401A20456
:100F9000B364990013554400EF00305BB204AA8992
:100FA000B180D5470545FD17B1EBEF00105AAA8572
:100FB0004E85A5291389C1812320A9002685EF002C
:100FC000D058AA84D54705451384C181FD178DEB00
:100FD000EF00B057AA8526858929B737000083A579
:100FE000070BEF00A06FB737000083A5470BEF009A
:100FF000F01748C01385C1816FF02FA1060565B7B2
:101000000605E9B7373500001305850BEF00B0671B
:101010009387C1811307000098C3D8C3E1BFEFF2E3
:101020002F9D411185454145EFF01FB389677C82B3
:10103000C1473EC64C008D47371501403EC4EFF016
:101040000FE541016FF00F9DEFF28F9A4164AA8482
:101050002E897D14CA852685EFF0DF9301C50145F1
:101060006FF04F9B7D14420441806DF40545CDBF68
:10107000EFF26F9637540040AA892E8993040440FA
:10108000B70502002685EFF05F927DF985451305CF
:101090000440EFF09F8BB70503008505130504405E
:1010A000653709C5854426856FF02F9693050002A4
:1010B000130504400146EFF0DF8CB7050700938568
:1010C000250813050440493771FDB7040010375453
:1010D000004093840408130A0440A6855285EFF06B
:1010E000DF8C65DDCE8513050440EFF05F89B70521
:1010F00007009385450813050440B93745F5B70443
:101100000010375400409384040893090440A685D6
:101110004E85EFF09F8965DDCA8513050440EFF029
:101120001F86B70507009385450813050440293F2E
:10113000AA842DF9854513050440EFF0BF82A5B7B9
:10114000EFF20F8B011185452145EFF0FFA085459A
:101150000545EFF07FA085450945EFF06FE0854537
:1011600037052000EFF03FA137140140130504C0FC
:1011700093050030EFF04FDE9307001071498D4466
:101180004C00130504C07C824AC626C4EFF02FD061
:10119000930700204C00130504C07C824AC626C475
:1011A000EFF0EFCEE1679387076A3EC8B7070040CC
:1011B0003ECAB70700043754004085073ECC0C08F0
:1011C000916713050440FC86EFF0EFE61305044039
:1011D0008545EFF00FF6A135930500080145493D1F
:1011E00081450145713513054006B12293058005FF
:1011F0000545BD3D9305000505459D3D9305300F13
:101200000945BD359305000F09459D35A5450D459B
:10121000853599450145A93D81451145913D81455A
:101220002145B935930500081305B00291359305A2
:1012300080082545353D9305C0043145153D894558
:1012400035453D35814541452535814545450D357A
:1012500081454945313DE1455D45193D894561453A
:10126000013D81456945293581456D451135930518
:10127000800B13057002ED3B9305800B1305A00254
:10128000C53B130540064528014505616FE09FF801
:10129000EFE21FF67535930500080145D13B814506
:1012A0000145F9331305400679209305D00505451E
:1012B000C133FD4509456D3B9305000C11454D3B80
:1012C0006FE05FF5EFE2DFF2411185454145EFF058
:1012D000BF889D477C82C1473EC64C008D4737156D
:1012E00001403EC4EFF0AFBA854537150140EFF03D
:1012F000AFC6894537150140EFF00FC69145371548
:101300000140EFF06FC541016FE0DFF0B70700204B
:1013100083A7070837177A0013070720B3D7E70218
:1013200093F7F70F2383F1821307803EB387E70219
:101330002392F1828280B7F700E0D8438146799BFF
:10134000D8C303D741823306A70290CBD4CB9843AE
:101350001367070198C398431367170298C3D843CC
:10136000058B75DF9843799B98C38280EFE25FE835
:101370002A841165011185451105EFF0EFFD9307F2
:1013800000207C82371501408D473EC44C00E14768
:10139000130505803EC6EFF08FAF22C837440140E9
:1013A000B70708000C08130504803ECC02CA231EB0
:1013B0000100EFF02FFE854513050480EFF07F86D6
:1013C00005616FE03FE5EFE21FE1B7440140AE8900
:1013D0003289014493840480634524014A856FE087
:1013E000DFE2930500042685EFF09F857DD9B38762
:1013F00089008385070026850504C205C181EFF0B9
:10140000BF83D9BF138781801C43938641833E9558
:10141000636BD500B78600209386068063E5A6003F
:1014200008C33E858280FD57EDBF39719357750122
:101430004AD856D25ECE931A95001359F50106DEAE
:1014400022DC26DA4ED652D45AD093F7F70F93DA2D
:101450009A00CA8B638207121307F00F6384E712A6
:101460008E0A37070004B3EAEA00138A17F801442A
:10147000014B93D775019394950093F7F70FA580CF
:1014800093D9F501FDC71307F00F6387E7028E04B8
:10149000938717F837070004D98C330AFA4081463E
:1014A000558C17270000130727C20A043A941C40E2
:1014B00033493901BA978287130A1AF0F9E8894645
:1014C000558C17270000130727C40A043A941C40C0
:1014D00033493901BA97828701491307F00FB707DB
:1014E000400013959700F2506254931777012581BD
:1014F0007E095D8D33652501D2544259B259225A75
:10150000925A025BF24B216182801307F00F8147F0
:10151000C9BFA68ACE8B368B8947630BFB1A8D47D2
:10152000E30CFBFA8547630AFB0A1307FA0713F972
:101530001B006357E01293F77A0099C793F7FA00FC
:1015400091466383D700910A93974A0063D90700B5
:10155000B70700F8FD17B3FAFA0013070A08930754
:10156000E00FE3C4E7FA93976A00A5831377F70FB8
:101570008DBFB9E48546A9B763940A021144014AB4
:10158000054BC5BD63990A002144130AF00F094BAE
:10159000CDB58D4631B73144130AF00F0D4BD1BD97
:1015A00056852EC6EF0050079307B5FFB39AFA0091
:1015B0009307A0F8338AA7400144014BB24555BDBB
:1015C0002685EF0070051307B5FFB307AA00B39493
:1015D000E400138A67078146E1B513F91B00014750
:1015E000814701B74166139554007D169357050155
:1015F000698E63FA9A0AB3D5FA027D1AD686014734
:101600003388C502B3F6F602C206558F637B070125
:101610002A979386F5FF6368A70A6376070BF91587
:101620002A9733070741B356F7023377F702B38A95
:10163000C6029317070163FB5701AA971387F6FFAA
:1016400063E1A70863FF5707F916AA97C205B38A93
:101650005741D58DB33A5001B3EA5501CA8BF1B564
:101660008546998E11C76D4601478147E34BD6E603
:10167000130AEA09339A4A01B3D7DA00B33A4001B0
:10168000B3E7570113F7770019C713F7F70091462F
:101690006303D700910713975700634807029A071F
:1016A000A58301473DBD93D61A00B3D5F602139723
:1016B000FA0141833388C502B1B7CE8B368B814A9C
:1016C000A1BDBA8661B7B685A9BF0547814711BDDF
:1016D00013F91B001307F00F814721B5797122D44C
:1016E000135475014ECE52CC9319950006D626D2CE
:1016F0004AD056CA5AC81374F40F93D99900135A92
:10170000F50169C49307F00F6308F40E939739004D
:1017100037070004B3E9E700130414F88144014BD0
:1017200013D77501939A95001377F70F93DA9A0000
:1017300013D9F50145CF9307F00F630CF7028E0A1A
:10174000130717F8B7070004B3EAFA003A94014602
:1017500033452A01BD47AA869305140063E097101C
:10176000172700001307479E8A04BA949C40BA9733
:1017700082871304F40F63960A0C93E4240009464D
:10178000C1BF01451307F00FB7074000B250225404
:10179000A6075E07A5837E05D98F92540259F249A8
:1017A000624AD24A424B5D8D45618280CA86D689A3
:1017B000328B8947630FFB088D47E304FBFC8547A9
:1017C00036856310FB1A01478147C9B7639D090439
:1017D00013D77501939A95001377F70F914401443D
:1017E000054B93DA9A0013D9F50131F7639D0A008E
:1017F00093E414000546A9BF63920902A1441304AF
:10180000F00F094B31BF5685012D9307B5FF098CA9
:10181000B39AFA001304A4F801461DBFB14413049F
:10182000F00F0D4BF5BD4E852EC6FD239307B5FF7A
:101830001304A0F8B399F900098C8144014BB24517
:10184000C5B593E434000D4621B78947D286E31528
:10185000FBF636851307F00F81470DBF41639306F2
:10186000F3FF13D6090193D80A01B3F7D900B3FAED
:10187000DA0033885703B389F80213570801B30A13
:101880005603D6994E9733061603637357011A967B
:10189000C167FD17B376F7003378F800C206C29629
:1018A0009399660093570701B3393001E982B297E3
:1018B0009A07B3E6D900B3E9D7009397490063D9F3
:1018C000070013D7190093F71900B369F7002E84A6
:1018D0001307F4076350E00493F7790099C793F76F
:1018E000F90091466383D70091099397490063D922
:1018F0000700B70700F8FD17B3F9F900130704084C
:101900009307E00F63CBE70493976900A5831377F0
:10191000F70FADBD8547B386E74011C76D46014758
:101920008147E345D6E61307E4093397E9003337E7
:10193000E000B3D7D900D98F13F7770019C713F791
:10194000F70091466303D700910713975700634C44
:1019500007009A07A583014715BD1307F00F8147BC
:1019600035B52E84B5B7054781470DB537078000DB
:1019700041117D179356750113D87501B377A700F0
:1019800093F6F60F935EF5013376B70026C24AC090
:101990001378F80F06C622C41303F00F3E8E368963
:1019A000F684139F3700FD8113153600B388064176
:1019B0006302681093C51500638CBE106354100D4C
:1019C000631008106304051EFD18B307AF4063865B
:1019D00008029307F00F6388F616ED4763C71729CF
:1019E00013070002330717413317E500B3571501FA
:1019F0003337E000D98FB307FF4013975700635187
:101A0000071A370400047D147D8C228531216D1561
:101A1000B317A400634E251B33052541130415009D
:101A200013070002018F3397E7003337E000B3D785
:101A30008700D98F014913F7770019C713F7F7000B
:101A400091466303D700910713975700635E07140D
:101A5000930619001307F00F93FE14006386E61631
:101A60009A07A58393F6F60FA607B240224413D532
:101A70009700DE069397FE01558D924402495D8DD5
:101A8000410182806392080A138716001377E70FDB
:101A9000631B07146394062263020F2071D5B307FA
:101AA000AF401397570063550722B307E54101493B
:101AB000AE8451B7E30005F0638ABE0AE35410FD1B
:101AC0009307F00F6381F608B70700045D8D31B707
:101AD000635E1009630108089307F00F6385F6063B
:101AE000B70700045D8DED4763C0171F13070002A1
:101AF000330717413317E500B35715013337E000BB
:101B0000D98FFA9713975700635C070805091307E5
:101B1000F00F630BE90AB706007E13D71700FD1616
:101B2000858B758FD98F01BF3307D8406395061019
:101B3000630D0F147D176303071A9307F00F6314E7
:101B4000F810AE84328E630F0E06814E9306F00FAE
:101B5000B707400011BF39C9FD18B307AF00E383D1
:101B600008FA9307F00FE390F6F8F1BF63990808BD
:101B7000138916001377E90F63160712639B06108B
:101B800063030F16E30205EEB307AF001397570088
:101B9000014963570700370700FC7D17F98F054996
:101BA00013F77700E31C07E813DE37009307F00F05
:101BB000E30BF9F893179E00A5839376F90F93FE34
:101BC00014005DB593FE14009306F00F814769BDC4
:101BD000370700FC7D17F98F13F777003309A94009
:101BE000E31E07E4D1B73304AF409317540063C337
:101BF000070CE31C04E0814E81468147B5B53307ED
:101C0000D840B5C69307F00FE30EF8F2B70700040B
:101C1000336FFF00ED4763CDE70C93070002998F08
:101C2000B317FF003357EF00B337F0005D8FB307F2
:101C3000A7004289C1BD9307F00FE304F8F0B7078E
:101C40000004336FFF00ED4763C2E708930700020B
:101C5000998FB317FF003357EF00B337F000D98FD8
:101C6000B307F5404289AE8449BB854769B3630E2B
:101C70000F067D17B307AF004289E30507E8930716
:101C8000F00FE319F8F8328E7DBD328E4289AE84B2
:101C900031BFE3090FEAE30805EA45BD0DCDAE8E7D
:101CA000B287D9B39307F00FE300F9F2B307AF009F
:101CB0008583FDB53304E541AE8481BBE31D0FFC94
:101CC000E30505E8AE84BDBD854725BD854749BF11
:101CD0000149E39707EC814E814779B3B307E541AA
:101CE0004289AE8419BBB28741B3328E42897DBD31
:101CF000054735BF13577501370680009307F6FF78
:101D00001377F70F9305E007B3F6A7009357F50194
:101D1000014563F4E50099C3828082809307E0095E
:101D20007D55E3EBE7FE93055009B3E7C60063D7A3
:101D3000E5001307A7F63395E700828013056009D5
:101D40003307E54033D5E7008280411106C622C43F
:101D500015CD2A84D1209307E0093387A740930744
:101D6000600963C0E704A1469377F70F63D5A60027
:101D700061153314A400260425802604135594000D
:101D8000B2402244DE075D8D410182800144260479
:101D900013559400B24022448147DE075D8D410116
:101DA00082809307900963DDE7009307B5019546AC
:101DB000B317F400898EB337F0003354D4005D8C30
:101DC000954763D6A7009307B5FF3314F400B70611
:101DD00000FCFD16937774003376D40085C39377A7
:101DE000F4009145638CB70011069317560063D732
:101DF00007009307F009758E3387A7401314660018
:101E00002580260413559400B24022449377F70F9F
:101E1000DE075D8D41018280C167637CF502930717
:101E2000F00F1307000263EBA700971700009387DA
:101E3000A735AA9788233305A74082802181971769
:101E4000000093876734AA97882361473305A7402A
:101E50008280B7070001636DF5006181971700006C
:101E600093878732AA97882321473305A74082802A
:101E700041819717000093872731AA97882341470C
:101E80003305A740828039713EDA2ED232D436D65D
:101E90003AD842DC46DE9387C18022CC804326CAF2
:101EA00006CEAA8409C41C4C99E32285ED290C4472
:101EB00054102686228536C6EF007012F240624426
:101EC000D24421618280011126CA4AC806CE22CCA2
:101ED0004EC652C4AA842E8901C51C4D91E3E1214E
:101EE0009C4C804499E326857D29971700009387B1
:101EF000A73B631BF402C0405E24A18BB1C71C4802
:101F0000A1C7FD59294A1C4483450900FD17B1E9C1
:101F10001CC463DD07062286A94526856120FD577E
:101F20006308F502294535A0971700009387C73944
:101F30006314F4008044C9B7971700009387C7342F
:101F4000E31CF4FAC0444DBFA2852685112A55D959
:101F50007D55F2406244D2444249B249224A056169
:101F600082801CC4050963D70700184C63CAE700C8
:101F7000638845011C401387170018C08CA361B704
:101F8000228626850520E31035F9D9B71C40138732
:101F9000170018C0294798A371B79387C180AA85F5
:101FA000884315B7011122CC26CA4AC806CE4EC6B0
:101FB000AA842E89328401C51C4D91E3ED26971722
:101FC00000009387672E6317F406C0401C4C1CC4A6
:101FD0005E24A18BC1C31C48B5CF1C48084093792F
:101FE000F90F1379F90F1D8D5C486346F500A28542
:101FF0002685692C25E51C440505FD171CC41C40DD
:102000001387170018C0238037015C486388A70036
:102010005E24858B81CBA9476316F900A2852685AE
:10202000B5240DEDF24062444A85D2444249B2499A
:102030000561828097170000938707296314F400D5
:10204000804469B79717000093870724E310F4F8DA
:10205000C044ADBFA2852685212041D17D59D9B785
:1020600041119387C18026C2844322C44AC006C658
:102070002A892E8489C49C4C99E326852D2697179E
:10208000000093876722631BF402C0400317C4005B
:1020900093170701C18393F68700ADEA93F6070112
:1020A00095EEA5472320F900136707045AA47D5530
:1020B000B2402244924402494101828097170000B5
:1020C000938787206314F4008044C9B797170000F2
:1020D0009387871BE31CF4FAC0444DBF918B9DC3CB
:1020E0004C5889C9930744046384F5004A85312319
:1020F000232A04025E242322040093F7B7FD5EA482
:102100001C481CC05E2493E787005EA41C4899EB22
:102110005E241307002093F707286385E700A28554
:102120004A85A1215E2413F717001DC35C482324B0
:102130000400B307F0401CCC1C480145B5FB8317D5
:10214000C40013F707082DD793E707045EA485B7EB
:10215000898B014791E3584818C4F9BFDE25011166
:1021600022CC26CA06CE4AC84EC613F78700AA84D8
:102170002E8479EBD841634DE000B841634AE0001A
:102180000145F2406244D2444249B249056182802D
:1021900058547DD703A904009396370123A0040067
:1021A00063DB060670485E24918B99C75C401D8EE8
:1021B0005C5899C33C401D8E5C540C50814626856A
:1021C0008297FD575A24631DF5009440F54763E854
:1021D000D706B70740208507B3D7D700858BA5C39F
:1021E0001C48232204001CC09317370163D8070042
:1021F000FD576314F5009C4091E368C84C5823A038
:102200002401BDDD930744046384F5002685F5268B
:10221000232A0402B5B70C5001468546268502974D
:10222000FD572A86E311F5F89C40B5DF75476385B5
:10223000E70059476393E70423A0240191B713678C
:1022400007045AA47D5535BF83A90501E38A09F225
:1022500003A905008D8B23A03501330939410147BE
:1022600091E3D84918C4E35D20F11C540C50CA8690
:102270004E86268582976347A0005E2493E7070475
:102280005EA4C9B7AA993309A940F1BF9C49B9CF47
:10229000011122CC06CE2A8411C51C4D81E72EC621
:1022A0001922B2459717000093870700639BF5003A
:1022B0004C408397C50095C722856244F240056172
:1022C00071BD97170000938727006394F5000C44B5
:1022D000CDB797170000938727FBE39CF5FC4C4490
:1022E000C9BFF24062440145056182800145828098
:1022F000411122C406C62A844EA572A523200500DA
:102300002322050023240500232205062328050097
:10231000232A0500232C0500214681451305C50508
:10232000EFD01FF097170000938787B15CD0971705
:1023300000009387A7B31CD497170000938787B733
:102340005CD4971700009387E7B900D01CD8B2403F
:1023500022444101828097050000938565F3A9A27C
:10236000411126C2130680069384F5FFB384C4028C
:102370004AC02E8922C406C6938544071D262A8496
:1023800001CD2320050023222501310508C4138631
:1023900084068145EFD0DFE82285B2402244924492
:1023A0000249410182801C4DADE3411106C622C4A1
:1023B00097070000938767FA1CD5938701819C4398
:1023C0002324050423260504232805046314F500AB
:1023D00085471CCD2A841D2848C02285052808C4AD
:1023E00022852D2048C448400146914511370844B4
:1023F0000546A545F53D48440946C945D53D8547AF
:102400001CCCB240224441018280828041119387DA
:10241000018126C284434AC006C69C4C22C42A8934
:1024200099E326854937938484048044DC40FD1772
:1024300063D607009C40B9CF8440C5BF0317C400D2
:1024400039E7C177850723220406232004002322CD
:102450000400232404005CC423280400232A04006D
:10246000232C0400214681451305C405EFD05FDB12
:10247000232A0402232C0402232404042326040414
:102480002285B240224492440249410182801304D1
:10249000840671BF91454A85E13588C051FDB14739
:1024A0002320F9000144E9BF797122D44AD052CCEB
:1024B00056CA5AC85EC606D626D24ECE2A8AAE8ADA
:1024C000130485040149054BFD5B09ECB25022540D
:1024D0004A8592540259F249624AD24A424BB24B5F
:1024E00045618280044483294400FD1963D40900B6
:1024F0000040E1BFDE24637BFB008397E400638739
:102500007701A6855285829A3369A900938484064F
:10251000E9BF1971A6DAAE848395E500A2DC86DEF8
:10252000328463DB0500DE2423A0060093F707084E
:1025300085E7930700401DA0300836C6EF00102045
:10254000B246E34205FE7247BD67F98F7977BA97C5
:1025500093B717009CC2F1BF930700041CC0F6504C
:102560006654D654014509618280DE25011122CCD2
:1025700006CE26CA4AC8898B2E8489CF9307740455
:102580001CC01CC885475CC8F2406244D244424922
:102590000561828074003000AA84A53FA2452A8983
:1025A0002685012219E98317C40013F7072069FF64
:1025B000F19B93E727005EA4D1B7970700009387AC
:1025C000C7D99CD45E2408C008C893E707085EA456
:1025D000A2475CC8B24781CF8315E4002685EF008F
:1025E000901811C55E24F19B93E717005EA45E244A
:1025F0003369F9002316240141BFDDC183A7C5FF5C
:10260000411122C406C626C21384C5FF63D3070046
:102610003E94AA84EF00F01B938781829C4381EF54
:102620002322040023A481822244B24026859244BE
:1026300041016F00301A637EF40014403307D40068
:102640006396E7009843DC43369718C05CC0D9BF57
:10265000BA87D84319C3E37DE4FE94433386D70099
:10266000631F86001040B29694C33386D700E31DE3
:10267000C7FA10435843B29694C3D8C375B763756D
:10268000C400B1479CC04DB71040B306C4006316E8
:10269000D70014435843B29614C058C0C0C369B79A
:1026A0008280011126CA93843500F19806CE22CC8F
:1026B0004AC84EC6A104B14763F3F404B14463E2CF
:1026C000B4042A89EF00F0109387818298433A84FA
:1026D00039E09387C1829C4391E781454A85152F54
:1026E00023A6A182A6854A852D27FD5963193507A2
:1026F000B1472320F9004A85EF00D00D29A0E3D08F
:1027000004FCB1471CC10145F2406244D244424935
:10271000B249056182801C40858F63CF0702AD46B8
:1027200063F6F6001CC03E9404C031A05C40631305
:10273000870223A4F1824A85EF00D0091305B40073
:102740009307440061993307F5405DDF3A94898F20
:102750001CC05DBF5CC3C5B72287404095BF130452
:1027600035007198E30285FCB305A4404A855525E0
:10277000E31C35FBB5BF1C46FD171CC663DA07001A
:10278000184E63C5E700A9476394F5006FF09F8179
:102790001C422E851387170018C28CA3828001115A
:1027A00022CC26CA4AC84EC652C406CE2A89AE8951
:1027B0003284B304D6007D5A63149400014501A805
:1027C0000C204E864A85453F0504E31745FFF2403D
:1027D0006244D2444249B249224A0561828035713D
:1027E00022CD26CB4AC94EC706CF52C556C35AC1C1
:1027F000DEDEE2DCE6DAAA89AE843289368409C5F7
:102800001C4D99E3EFF03FBA971700009387C7A9D3
:102810006397F40C83A44900DE24A18BFDC39C487C
:10282000EDC393070002A304F1029307000302D251
:102830002305F10222C6930B5002971A0000938AD7
:10284000AAAA054C294B4A841C2099C3639E770D84
:10285000B30C2441638D0C00E6864A86A6854E851E
:102860003D3FFD57630FF51C9256E69636D21C206D
:102870006389071CFD571309140002C802CE3ECA23
:1028800002CCA309010482D483450900154656856C
:102890002D2713041900C24751E913F7070109C78F
:1028A00013070002A309E10413F7870009C7130700
:1028B000B002A309E104834609001307A002638F55
:1028C000E606F2474A8481462546182093051400FF
:1028D000130707FD6377E60AB5CA3ECE85A89717AA
:1028E00000009387679E6395F40083A489002DB749
:1028F0009717000093874799E390F4F283A4C900E7
:1029000021BFA6854E85EFF0AFF501DD7D55FA407C
:102910006A44DA444A49BA492A4A9A4A0A4BF65B57
:10292000665CD65C0D618280050439BF3305554174
:102930003315AC00C98F3EC82289B9B73247930618
:102940004700184336C6634707023ACE182093075C
:10295000E002631DF70418309307A002631BF7021F
:10296000B2470904138747009C433AC663C1070274
:102970003ECA2DA83307E04093E727003ACE3EC871
:10298000F1B7B387670385462E84BA973DBFFD57DD
:10299000C5B7050402CA814681472546182093051C
:1029A0001400130707FD6374E606F9F20C200D46C8
:1029B000171500001305C593092511CD97170000C1
:1029C000938707931D8D93070004B397A700424593
:1029D00005045D8D2AC80C20194617150000130543
:1029E0006591130914002304B102C12B35C197D797
:1029F000FFFF9387276195E74247B2471377071098
:102A000009CF91073EC69257D2973ED22DBDB387CC
:102A1000670385462E84BA9751B79D07E19BA107AE
:102A2000D5B77800970600009386A6D726860C08AF
:102A30004E8597000000E7000000FD572A8AE31446
:102A4000F5FCDE2493F70704E39207EC1255C1B5B9
:102A50007800970600009386C6D426860C084E851B
:102A6000012AE1BF797156CA9C49BA8A984522D495
:102A700026D24ECE52CC06D64AD05AC85EC6AA89B5
:102A80002E84B284368A63D3E700BA879CC003479A
:102A9000340419C385079CC01C4093F7070281C703
:102AA0009C4089079CC00329040013796900631ABC
:102AB0000900130B9401FD5B5C449840998F634CB3
:102AC000F9041C408346340493F70702B336D00060
:102AD000A5EB13063404D2854E85829AFD57630315
:102AE000F5041C4011469840998B544481446397E7
:102AF000C700B384E64063D3040081441C441848F3
:102B00006354F700998FBE94014969047D5B639813
:102B10002405014509A885465A86D2854E85829AA4
:102B2000631E75017D55B250225492540259F249E8
:102B3000624AD24A424BB24B456182800509ADBF21
:102B40003307D40013060003A301C704034754044A
:102B500093871600A2978906A381E7049DBF854647
:102B60002286D2854E85829AE30E65FB050945B71C
:102B7000797122D426D24AD04ECE06D652CC56CA2D
:102B80005AC8B689942D930790063289AA842E8458
:102B900013863504638DF60263E2D706930780053A
:102BA0006386F61863EDD700638E06209307300422
:102BB000638EF60A930A24042301D404C9A0930760
:102BC00030066385F60A93074006E395F6FE1C403F
:102BD000084393F6070893054500C5C61C410CC37E
:102BE00063D807001307D002B307F040A301E40441
:102BF0009706000093868670294765A8930700070B
:102C00006382F61663E5D7029307E0066389F61838
:102C10009307F006E390F6FA0C401C4313F80508FE
:102C2000138547006307080608C39C4385A89307DC
:102C30005007E383F6FE930780076389F612930734
:102C40003007E399F6F61C43D0418145938647004F
:102C500014C383AA070056858D2601C53305554147
:102C600048C05C401CC8A301040461A81C43930A2B
:102C70002404938647009C4314C32301F40485472E
:102C8000D5B793F607041C410CC3B9DAC207C18754
:102C900081BF93F5050408C3C9D99E231307F00625
:102CA0006387E60E97060000938646652947A301D1
:102CB00004044C400CC463C5050008406D9908C06D
:102CC00099E3B28A89CDB28AB3F5E702FD1AB695C7
:102CD0008C212380BA00B3D5E70263F0E70CA1474B
:102CE000631EF7001C40858B91CB58401C4863C77E
:102CF000E70093070003A38FFAFEFD1A330656413F
:102D000010C84E87CA867000A2852685EFF09FD531
:102D10007D5A631D450B7D55B25022549254025981
:102D2000F249624AD24A424B45618280A382D5046D
:102D3000970600009386865C0C40084313F805084C
:102D40001C411105630D080208C313F7150001C7E4
:102D500093E505020CC04147B9FB0C4093F5F5FD26
:102D60000CC0B1B79C4193E707029CC19307800751
:102D7000A302F404970600009386865975BF13F8E2
:102D8000050408C3E30308FCC207C1837DBF97069F
:102D900000009386A656214719BFAE8735B79441E8
:102DA0001C43CC4913F80608138547006306080046
:102DB00008C39C438CC339A008C393F606049C4304
:102DC000F5DA8EA323280400B28A25BF144856865C
:102DD000CA8526858299E30045F51C40898B8DE7DD
:102DE000B2474844E35AF5F23E853DB785465686DC
:102DF000CA8526858299E30065F3050A5C4432475B
:102E0000998FE345FAFEE9BF014A930A94017D5B7D
:102E1000F5B7411122C42A842E8523A8018206C653
:102E2000EFE04FDEFD576317F500938701839C4366
:102E300091C31CC0B240224441018280411122C48E
:102E40002E848395E50006C67922634905007C48F7
:102E5000AA977CC8B2402244410182805E247D77DB
:102E60007D17F98F5EA4FDB7DE25011122CC26CA9D
:102E70004AC84EC606CE93F70710AA842E8432891C
:102E8000B68991C78395E5008946014609225E24EB
:102E90007D777D17F98F5EA48315E4006244F240CC
:102EA000CE864A86B24942492685D244056125A884
:102EB000411122C42E848395E50006C6C928FD571A
:102EC0005A24631AF500FD77FD17F98F5EA4B2400E
:102ED0002244410182808567D98F5EA468C8C5BF3E
:102EE0008395E50005A8411122C42A842E85B28568
:102EF000368623A8018206C6EFE0EFCCFD576317A4
:102F0000F500938701839C4391C31CC0B2402244C7
:102F100041018280411122C42A842E8523A8018286
:102F200006C6C520FD576317F500938701839C43B0
:102F300091C31CC0B240224441018280411122C48D
:102F40002A842E85B28523A8018206C6C920FD5792
:102F50006317F500938701839C4391C31CC0B24063
:102F6000224441018280411122C42A842E8523A853
:102F7000018206C65D20FD576317F5009387018324
:102F80009C4391C31CC0B240224441018280411144
:102F900022C42A842E85B285368623A8018206C6DD
:102FA0005920FD576317F500938701839C4391C314
:102FB0001CC0B24022444101828093F5F50F2A964D
:102FC0006314C500014582801C21E38EB7FE050510
:102FD000C5BF82808280411122C42A842E85B28599
:102FE000368623A8018206C6A920FD576317F5007F
:102FF000938701839C4391C31CC0B240224441018A
:1030000082809307800523A8F1827D5582809307F3
:10301000800523A8F1827D5582809307800523A82F
:10302000F182014582809307800523A8F1827D55B6
:1030300082809307800523A8F1827D55828000005D
:103040000000C842B3F5CABCBBAFBCC4B4E6C6F707
:103050000D000000CAAAB6C83D256425250D0A004A
:10306000CEC2B6C83D2564A1E60D0A00537973743B
:10307000656D436C6B3A25640D0A00004368697006
:1030800049443A253038780D0A000000B3F5CABC2F
:10309000BBAFCDEAB3C90D004148543230CEC2CAED
:1030A000AAB6C8B4ABB8D0C6F7B2E2CAD40D000015
:1030B0000000484300004842B6C1CAA7B0DC2F72E6
:1030C0002F6E000020E5FFFF46E4FFFF1AE5FFFF3B
:1030D0004EE4FFFF1AE5FFFF14E4FFFF1AE5FFFFD0
:1030E0004EE4FFFF46E4FFFF46E4FFFF14E4FFFF6A
:1030F0004EE4FFFF54E4FFFF54E4FFFF54E4FFFFFE
:1031000014E4FFFF06E4FFFF06E4FFFFDAE4FFFF3D
:10311000B6E5FFFFDAE4FFFFD4E3FFFFDAE4FFFFE9
:10312000B6E5FFFF06E4FFFF06E4FFFFD4E3FFFF81
:10313000B6E5FFFF14E4FFFF14E4FFFF14E4FFFF14
:10314000D4E3FFFF18E7FFFF6AE6FFFF6AE6FFFF31
:1031500068E6FFFF6EE6FFFF6EE6FFFF3EE6FFFF5D
:1031600068E6FFFF6EE6FFFF3EE6FFFF6EE6FFFF4D
:1031700068E6FFFF06E7FFFF06E7FFFF06E7FFFF42
:103180003EE6FFFF000102020303030304040404FC
:1031900004040404050505050505050505050505E3
:1031A00005050505060606060606060606060606C3
:1031B00006060606060606060606060606060606AF
:1031C0000606060607070707070707070707070793
:1031D000070707070707070707070707070707077F
:1031E000070707070707070707070707070707076F
:1031F000070707070707070707070707070707075F
:103200000707070708080808080808080808080842
:10321000080808080808080808080808080808082E
:10322000080808080808080808080808080808081E
:10323000080808080808080808080808080808080E
:1032400008080808080808080808080808080808FE
:1032500008080808080808080808080808080808EE
:1032600008080808080808080808080808080808DE
:1032700008080808080808080808080808080808CE
:10328000080808080000000000000000000000001E
:10329000000000000000000000000000000000002E
:1032A000000000000000000000000000000000001E
:1032B000000000000000000000000000000000000E
:1032C00000000000000000000000000000000000FE
:1032D00000000000000000000000000000000000EE
:1032E00000000000232D302B20000000686C4C00F3
:1032F000656667454647000030313233343536372E
:1033000038394142434445460000000030313233F1
:103310003435363738396162636465660000000011
:103320000000000000000000010203040607080975
:10333000000000000102030401020304060708095B
:1033400000000000A4320000C432000084320000FB
:10335000000000000000000000000000000000006D
:10336000000000000000000000000000000000005D
:10337000000000000000000000000000000000004D
:10338000000000000000000000000000000000003D
:10339000000000000000000000000000000000002D
:1033A00000D8B80502040608B40000202000002060
:0833B0002000002000000000D5
:00000001FF
