:040000006F004051FC
:1000040000000000000000002002000022020000A6
:1000140000000000120500000000000000000000C5
:10002400120500001205000000000000000000009E
:10003400120500000000000012050000000000008E
:100044001205000012050000120500001205000050
:100054001205000012050000120500001205000040
:100064001205000012050000120500001205000030
:100074001205000012050000120500001205000020
:100084001205000012050000120500001205000010
:100094001205000012050000120500001205000000
:1000A40012050000120500001205000012050000F0
:1000B40012050000120500001205000012050000E0
:1000C40012050000120500001205000012050000D0
:1000D40012050000120500001205000012050000C0
:1000E40012050000120500001205000012050000B0
:1000F40012050000120500001205000012050000A0
:1001040000000000120500001205000012050000A6
:10011400120500001205000012050000120500007F
:10012400120500001205000012050000120500006F
:10013400120500001205000012050000120500005F
:10014400120500001205000012050000120500004F
:10015400120500001205000012050000120500003F
:10016400120500001205000012050000120500002F
:10017400120500001205000012050000120500001F
:10018400120500001205000012050000120500000F
:1001940012050000120500001205000012050000FF
:1001A400000000000000000000000000000000004B
:0C01B4000000000000000000000000003F
:1001C000397101436EC619A0397141536AC866CAB4
:1001D00062CC5ECE19A0397101535AD056D252D496
:1001E0004ED64AD826DA22DC06DE3301614082820E
:1001F00041114AC026C222C406C68282B24D4101C4
:10020000024D924C224CB24B4101024B924A224A7F
:10021000B2494101024992442244B24041018280E4
:1002200001A001A0EFF2DFFC41119945280002C4B2
:1002300023160100EF00F06A0545EF001073948665
:100240001C869085A206BE961C858C8422063E964E
:100250001C84A205C206BE954206C20537350000C1
:10026000C1864186C1851305850BEF1000744101DD
:1002700055B7EFF2FFF7BD220945412D1304800861
:1002800073300480EF00D06B716513050520EF001B
:100290003071EF007066EF00B05CEF0030597320F2
:1002A0000480B707002083A5070237350000130537
:1002B000450EEF10806FE524AA8537350000130541
:1002C000450FEF10806E3735000013054510EF1015
:1002D000E06F3735000013050511EF10206F13058F
:1002E000803EEF0090683D3FDDBFB7170240984366
:1002F000B706FFF041111367170098C3D8433706BC
:100300000200758FD8C39843B706F7FEFD16758FA8
:1003100098C39843B706FCFFFD16758F98C3D84362
:10032000B70601FFFD16758FD8C39843B70600ECDA
:10033000FD16758F98C33707FF0098C723A60702DD
:1003400002C402C69843C166558F98C3B7160240CF
:1003500011679C42F18F3EC6A24785073EC4B24753
:1003600081E7A247E397E7FEB71702409C43139744
:10037000E7006357070685473EC632478547631F38
:10038000F704B7170240D843B706C1FFFD16D8C31C
:10039000D843D8C3D84313670740D8C3D843758F11
:1003A000D8C3D843B7061D00558FD8C39843B706A6
:1003B0000001558F98C3984393166700E3DD06FE4E
:1003C000D843B7160240719BD8C3D84313672700A0
:1003D000D8C32147DC42B18BE39EE7FE4101828016
:1003E00002C661BFB7160240D842B70700201146C7
:1003F000318B938707026305C70021466308C70254
:1004000037177A001307072098C33717024058435D
:1004100011839376F70037070020130707003697FC
:10042000142398433357D70098C38280D842D442CC
:10043000416649833D8BF18E1306270015CF3D475A
:10044000630FE6024147630FE602454781456313A8
:10045000E6004146A1E23747024003270780418B6F
:100460000DC737177A00130707203306C70290C35A
:10047000C9DD9843058349BF81454946E1BF8545AC
:100480003546C9BF81453D46F1B737173D001307D3
:100490000790E1BF3715024058559316F70058559D
:1004A00063DF060411833D8B9306170037177A002C
:1004B000130707203357D70298C35455A182BD8A2A
:1004C0008DE295463307D702058398C3371702405C
:1004D000585794433D8B050733D7E60298C398439A
:1004E00069B705456394A600E546E9BF3D456396B7
:1004F000A600D1463387E602C9BF8906E5BF3D8B1A
:100500009306170037177A00130707203357D702CF
:10051000F1B701A0970100209381C130170101209C
:10052000130141AE17350000130545D5970500208E
:10053000938545AD1386818063FAC500832205004B
:1005400023A0550011059105E3EAC5FE13858180BE
:10055000938501816377B500232005001105E36DC4
:10056000B5FEFD42739002BCAD4273904280B7620B
:1005700000009382820873900230970200009382F9
:10058000A2A893E2320073905230EFF01FD6970288
:100590000000938242CE7390123473002030B7F77C
:1005A000FF1F03A5477082809C4513F7070113F8CE
:1005B000F70001C7D8413368E8008E2113F7F50F23
:1005C00039C318418146854E3D4F930F80029302F7
:1005D0008004214E3396DE00B3F8C5006311160384
:1005E0009398260033131F011343F3FF3377E3007F
:1005F000B318180133E7E800639FF70550C9850673
:10060000E39AC6FD18C11307F00F6375B704544190
:100610002146854E3D4F930F800293028004414E48
:10062000B398CE0033F715016392E8021317260042
:1006300001173313EF001343F3FFB376D3003317DF
:10064000E800D98E639DF701232A15010506E319F9
:10065000C6FD54C18280E39457FA10C94DB7E397A1
:1006600057FE23281501DDB70CC98280B70701406A
:10067000635A0504DC4F935605011318050137072B
:10068000300013F6F60013580801B376E500635006
:100690000506639BE602930606010D46B316D600D7
:1006A00093C6F6FFF58F99C9135755011377F73F96
:1006B00012073317E800D98F635705043707014045
:1006C0005CCF8280DC4345BF1317B500635607003B
:1006D0008D46B396C600E9B7135755011377F73F18
:1006E00012073317E8001347F7FFF98F6DBF6390C8
:1006F000E602370601405442370700F17D17F98FB3
:10070000758F58C2D5F1370701405CC3828013173B
:10071000B500635C07008D46B396C60093C6F6FF2E
:10072000FD8EB707000FD58FF1BF13575501120784
:100730003317E8001347F7FF7D8FB707000FD98FF6
:10074000D1B7EFF2FFAA797146212A8468082EC634
:10075000C122925737470F001307072433D7E70208
:10076000C204C18093F404FCC2049306C003C18098
:10077000B24563F4E6001307C00313160701418274
:10078000D18C46A0162061651305056AC206C18298
:10079000F99AC206C18216A094416368D504860600
:1007A000B3D7D7029146139707014183BA87637382
:1007B000D700914705064206C2074182C18312B0A5
:1007C0005EAC1E20DA21B62593E717001EA01E207E
:1007D000558FC207C18393F757BFD98F1EA09A25A3
:1007E000DE25D98F1EA4456135B4EA2131667D1618
:1007F000631DC5020D46B386C602B3D7D702C20732
:10080000C1839396470199E293E71700A166D58FBC
:100810009306C0123307D7029306803E3347D702B0
:100820000507420741831AB061BF6546B386C60219
:10083000B3D7D7029166C207C183D58FD9B71E211E
:1008400089C593E717001EA18280C207C183F99B67
:10085000C207C183CDBF1E2189C593E707101EA122
:100860008280C207C18393F7F7EFC207C183C5BF78
:100870001E2189C593E707201EA18280C207C1837C
:1008800093F7F7DFC207C183C5BF1E2189C593E770
:1008900007401EA18280C207C18393F7F7BFC2073A
:1008A000C183C5BF0EA982800A291375F50F828006
:1008B00093F7E50F19C293E71500C207C1831EA97C
:1008C00082805E290A2D42055D8D6D8D2205218174
:1008D0000D8D133515008280411102C402C693D7D5
:1008E000C5012AC63EC4A247A205A18199CBB24741
:1008F000D1073EC6B247884341016D8D3335A00014
:100900008280B247C181E107EDB723A4A180828034
:10091000371702405C439146B18B6385D700A146EF
:100920006382D706B7177A00938707201CC1371652
:1009300002405C4237070020130707019183BD8BFB
:10094000BA9794231C41B3D7D7005CC15442A1820B
:100950009D8ABA969422B3D6D70014C55442AD826C
:100960009D8A36971823B3D7E7005CC55842398370
:10097000937637001387418036971823B3D7E70261
:100980001CC982805C435843C166C983758FB7F622
:10099000FF1F83A6C670BD8B890713961601634897
:1009A0000600C54601466392D702C94739A8894661
:1009B000638FD702BD46638ED702C146638ED702CE
:1009C000C54601466393D700C1471DEF3747024034
:1009D00003270780418B05C737177A0013070720C5
:1009E000B307F7021CC121D61C41858381B701469C
:1009F0006DBF0546B547D1BF0146BD47F9B73717AB
:100A00003D0013070790E9BFB7150240D85593166C
:100A1000F700D85563DF060411833D8B930617005A
:100A200037177A00130707203357D70218C1D45558
:100A3000A182BD8A8DE295463307D702058318C18E
:100A400037170240585714413D8B050733D7E6024C
:100A500018C1184171B785456394B600E546E9BFF2
:100A6000BD456396B600D1463387E602C9BF890605
:100A7000E5BF3D8B9306170037177A001307072051
:100A80003357D702F1B799C5371702401C4F5D8D18
:100A900008CF8280B7170240984F1345F5FF798D34
:100AA00088CF828099C5371702405C4F5D8D48CF53
:100AB0008280B7170240D84F1345F5FF798DC8CF14
:100AC0008280EFF2EFF21629F577FD17F58FF62108
:100AD000DA257971D58F1EA95625FD779387379F23
:100AE000F58FD6212A842EC6D58F9625D58FB6258B
:100AF000D58F5EA55E29C207C18393F7F7CFD98F43
:100B00005EA968083135B747014093870780B24531
:100B1000631EF402A2576547B387E7029841930624
:100B200040060A07B3D7E70233D7D702B3F7D70295
:100B30001207920793872703B3D7D702BD8BD98FAC
:100B4000C207C1831EA445616FF0CFEC9257E1B795
:100B500091C55E250967D98F5EA582805A25F977F0
:100B6000FD17F98FD5BF93F5F51F4EA182800A219D
:100B70006D8D3335A0008280EFF28FE7011185453E
:100B800021451137854537054000293F371401407D
:100B90009307004071498D444C00130504C07C82CA
:100BA0004AC626C411348567938707804C00130515
:100BB00004C07C824AC626C4C53AE1679387076AA7
:100BC0003EC8B70700403ECAB7070004376400407C
:100BD00085073ECC0C08916713050480FC8695368A
:100BE000854513050480A13905616FF0AFE2EFF28E
:100BF0002FE04164AA842E897D14CA852685D131CF
:100C000001C501456FF00FE17D144204418075F488
:100C10000545CDBFEFF22FDC37640040AA84AE89D2
:100C2000130504808545328AB68A3531B70503003D
:100C3000850513050480653F09C505494A856FF0A0
:100C4000CFDC93951400014693F5E50F130504805E
:100C50008531B70507009385250813050480413FBA
:100C60002A8961FD37040010B764004013040408AA
:100C7000138B0480A2855A8585316DDD1385048030
:100C8000B7640040CE8593840480B70900101939F9
:100C9000014493890908268B631344033704001029
:100CA000B76400401304040893890480A2854E852C
:100CB00025316DDD8545138504805D3E41B7CE85C8
:100CC0002685193971D9B3878A008C235A85050482
:100CD000D13ED9B7EFF24FCF37640040AA84AE8936
:100CE000130504808545B28A368B37090300A53683
:100CF0009305190013050480DD3D09C505494A85A2
:100D00006FF00FD0860493F5E40F130504800146BD
:100D10004536B70507009385250813050480C13DB6
:100D200071FDCE8513050480B53E8545130504800D
:100D30001D369305190013050480553D61F193E5B7
:100D40001400054693F5F50F1305048095369305B9
:100D5000290013050480613D2A894DF1B70900106F
:100D600013040480814493890904138CFAFF228AB6
:100D7000639D540137640040130504808545313676
:100D8000854513050480ED349DBFCE852285A936A7
:100D900065D1B30B9B0063159C0081455285F534EA
:100DA000528519362380AB008504D9B7EFF24FC4C2
:100DB000411185454145C13989677C82C1473EC69D
:100DC0004C008D47371501403EC4EFF0EFFD410167
:100DD0006FF04FC4EFF2CFC14164AA842E897D1415
:100DE000CA852685F93C01C501456FF0AFC27D1467
:100DF0004204418075F40545CDBFEFF2CFBD41649B
:100E0000B75400402A8A2E897D1493890440B7057F
:100E100002004E85D13445E5854513850440253CC7
:100E2000B70503008505138504406D3749ED93052B
:100E30000002138504400146A53CB70507009385D1
:100E400025081385044079373DED4164B70900104A
:100E5000B75400407D1493890908938A0440CE85D5
:100E600056859D3C2DC5D28513850440253CB7058C
:100E700007009385450813850440A93F29E541648F
:100E8000B7090010B75400407D1493890908138AEC
:100E90000440CE855285893421C1CA85138504401A
:100EA0001134B705070093854508138504401D37A5
:100EB0002A8411E98545138504405D3A31A07D14EB
:100EC0004204418029F4054422856FF00FB47D145B
:100ED0004204418049F4C5BF7D144204418055F865
:100EE000DDB7EFF2EFB0011185452145693E85453B
:100EF0000545513E85450945EFF04FF785453705D6
:100F000020004D3637140140130504C0930500300E
:100F1000EFF08FF59307001071498D444C001305D5
:100F200004C07C824AC626C4EFF00FE89307002075
:100F30004C00130504C07C824AC626C4EFF0CFE6FD
:100F4000E1679387076A3EC8B70700403ECAB70704
:100F500000043754004085073ECC0C089167130508
:100F60000440FC86EFF0EFFD130504408545EFF0EB
:100F70001F8D2D3D930500080145413581450145F3
:100F8000AD3D13054006D522930580050545B535D1
:100F900093050005054595359305300F0945B13D8D
:100FA0009305000F0945913DA5450D45B935994576
:100FB0000145A13581451145893581452145353D9D
:100FC000930500081305B0020D3D930580082545E3
:100FD0002D359305C00431450D3589453545313DE5
:100FE00081454145193D81454545013D814549457D
:100FF0002935E1455D45113589456145FD3B814513
:101000006945E53B81456D45CD3B9305800B130557
:101010007002E5339305800B1305A002F93B13051D
:101020004006A122014505616FF0CF9EEFF24F9C73
:101030004D3D930500080145C93381450145753B88
:10104000130540061D229305D00505457D33FD455A
:10105000094565339305000C114545336FF08F9BAF
:10106000EFF20F994111AD475C8593078002DC8553
:1010700023060100A306010023070100A3070100C6
:10108000E53C9306A10005469305100313053005C2
:1010900051369306B10005469305D002130530057D
:1010A000953E740005469305E002130530059D3614
:1010B0009306D1000546F94513053005A13E930678
:1010C000E1000546FD4513053005A9369306F100FC
:1010D000054693050002130530052D3E41016FF0D2
:1010E0006F93EFF2EF90AA862E86130530059305D5
:1010F0002003CD366FF00F92EFF28F8F41118545AF
:101100004145EFF05F989D477C82C1473EC64C0049
:101110008D47371501403EC4EFF00FC9854537159F
:101120000140EFF06FD4894537150140EFF0CFD380
:10113000914537150140EFF02FD341016FF08F8DAE
:10114000B707002083A7070237177A001307072085
:10115000B3D7E70293F7F70F2387F1801307803E99
:10116000B387E7022396F1808280B7F700E0D84387
:101170008146799BD8C303D7C1803306A70290CBA1
:10118000D4CB98431367070198C39843136717029A
:1011900098C3D843058B75DF9843799B98C38280A9
:1011A000EFF20F852A841165011185451105EFF0D5
:1011B0009F8D930700207C82371501408D473EC4E8
:1011C0004C00E147130505803EC6EFF0EFBD22C895
:1011D00037440140B70708000C08130504803ECCD3
:1011E00002CA231E0100EFF0DF8D85451305048040
:1011F000EFF01F9605616FF0EF81EFE2DFFDB7447E
:101200000140AE89328901449384048063452401FE
:101210004A856FE09FFF930500042685EFF03F9518
:101220007DD9B38789008385070026850504C2051B
:10123000C181EFF05F93D9BF011106CE2EC60DCD4F
:101240001841AA8705C358417D5511CB8546631BBC
:10125000D70098472300070023A207000545F24066
:10126000056182809847B24614A39847050798C73E
:10127000D8437D17D8C3DDB705466C00BD3FF9BF25
:10128000797122D426D24ECE52CC56CA06D64AD036
:101290005AC82A8AAE8A3284814493090002634480
:1012A0000602B3879A00838707009DE363D6840212
:1012B00063D2E402198C93F726009309000281C7D8
:1012C00019E393090003858A01499DE6228929A82B
:1012D0008504C1BF058CC5B70144F1BFCE855285D9
:1012E0003AC6993F32477D19E34A20FF228963536A
:1012F000040001493304244163CBE402CA84B38768
:101300002441D697838507009DED228963412005FE
:1013100063530400014433059400B25022549254A4
:101320000259F249624AD24A424B45618280B30473
:101330009740268B9305000352857D1BF53DE31BEB
:101340000BFE269965BF5285C53D85044DBFCE85F0
:101350005285DD357D195DBF5D71A6C252DC86C642
:10136000A2C4CAC04EDE56DABA843E8A95E193071B
:1013700000030147D28626862C08FC841137B6402C
:10138000264496440649F259625AD25A61618280D3
:101390002A893684C68A91CAA94701446317F60090
:1013A00063D50500B305B0400544A30701029307C8
:1013B000F102A546130568FC33F7C50263D3E600C6
:1013C0002A9713070703A38FE7FE9389F7FF33D705
:1013D000C50263F7C50401CCB9C413772A0021C73D
:1013E0009305D0024A8542C6813D3248FD14937769
:1013F0004A0099CF93071006930500034A85631CA2
:10140000F8021D3D930580074A853D350904F9140E
:101410005687D2862686CE854A859D35229585B704
:10142000BA85CE8751BF1307D002A38FE9FE0144CE
:101430009389E7FF6DBF093593058005F1B71D71ED
:10144000CAC8CEC6D6C2DAC03A8986CEA2CCA6CA4F
:10145000D2C45EDE62DC66DA6AD86ED633E7C500D7
:10146000BE89AA8A428B8347010629E385CF8D670F
:101470009387D7027C84230501000147DA864E86D4
:101480002C005685F53BF6406644D6444649B6499D
:10149000264A964A064BF25B625CD25C425DB25DC4
:1014A00025618280930700037C84C1BF368AAE84A5
:1014B000328463000902A9470149639CF600635A1C
:1014C0000600B304B040B33790003304C0401D8C15
:1014D0000549A30F0100130DF101935DFA41A54CDD
:1014E000138C68FC5286EE862685A285EF00D00B11
:1014F00063D3AC00629513050503A30FADFE5286BE
:10150000EE862685A285930BFDFF31236366B40129
:1015100063988D0263F64403630C09006386090235
:1015200093772B0095C39305D00256853133FD196F
:101530000147DA864E86DE85568599334A95A1B7EE
:10154000AA842E845E8D79BF9307D002A38FFBFE01
:101550000149930BEDFFE9BF5D71A6C2CAC0AA8421
:101560002E892E85B28586C63ACE42CCA2C44EDEE6
:1015700052DCB289368A56DA5AD8BE8A5ED662D42E
:1015800066D2468C6AD0EF1070052A8BAE8B01466E
:101590008146CE854A85EF00D039724762487D8109
:1015A000BA872AC00547E288D286DA855E86268514
:1015B00079352A8D9305E0022685BD39050D8147D1
:1015C000854C0144294763CD57075A85DE85EF10C6
:1015D000B00C2A86AE864A85CE85EF10600C2A892B
:1015E000AE896685A285EF10300B2A86AE864A85C5
:1015F000CE85EF00703FEF10607E13D6F541318D40
:10160000B347B600B305C5403335B5003386C74090
:1016100002C0E288D687D286098E0948268505470A
:10162000393DB64026446A9596440649F259625AB5
:10163000D25A425BB25B225C925C025D6161828045
:10164000B3068702850733349703B30C97033694A8
:101650009DBF5D715AD8373B0000A2C4A6C2CAC064
:101660004EDE52DC56DA5ED662D486C666D2AA89CF
:101670002E893284014A8144930B5002930AB002AE
:10168000294C130B0B13830509008DE563860900B4
:1016900081454E85EFF05FBAB6402644268506495F
:1016A0009644F259625AD25A425BB25B225C925C17
:1016B00061618280638875014E85EFF0FFB7850414
:1016C0000509D1B783071900930C1900639A7701B4
:1016D000930550024E85EFF03FB685046689CDB77D
:1016E000D5D76387570563C8FA00130730026384B0
:1016F000E704814705A01307D002638AE7001307B8
:101700000003E398E7FE930C2900894721A0930C7E
:101710002900854703870C006303570563C1EA026C
:1017200093063002630BD70266890145A54535A8AB
:10173000930C29007DBF930C29009147E1BF9306CC
:10174000D0026309D70093060003E31FD7FC93E799
:10175000270031A0850C8547C1BF93E74700850C62
:10176000E1B733058503050936950307090093069C
:1017700007FD13F6F60FE3F6C5FE1306E0029946E1
:10178000631EC700050981462546030709001307A4
:1017900007FD9375F70F6375B602368A03070900D4
:1017A0001306A0066309C70A6341E6021306C004D4
:1017B0006303C70A130680066308C70801461DA80D
:1017C000B38686030509BA96C9B7130640076304B2
:1017D000C7081306A0076300C7089305C0060146A3
:1017E000631AB700830519000D466394E5000509E7
:1017F00011460509030709009305000613081006A2
:1018000063C4E500130810049305700663C2E5067F
:10181000930550066359B7169305700463CFE5022C
:10182000130650046351C71693063004E31AD7E831
:101830001840930C4400A30E0100230EE100BE8665
:1018400001472A866C0871A0830519000146E393BD
:10185000E5FA090945B7050995B793063006E30986
:10186000D7FC63CEE606930680056303D70289BDE5
:10187000930630076306D70463CDE6029306F006AD
:10188000630BD70C9306000793E74700E31AD7E2F0
:101890001147631BE60A1D04137784FF0C43504372
:1018A00013048700C28802C03E880147AA87C14648
:1018B000B9A0930650076303D7069306800775B750
:1018C0001840930C4400DA8511C3BA855287BE864E
:1018D0002A864E85EFF0DF9AAA946684D5B3114725
:1018E0006314E6021D04137784FF0C435043130472
:1018F0008700C28802C03E880547AA87A9464E8550
:10190000EFF0FFB3AA946DBB0C40D28811042A8774
:10191000854629464E85EFF03FA4EDB71147631F7A
:10192000E6001D04137784FF0C4350431304870023
:10193000C28802C03E880147AA87C9B70C40D28836
:1019400011042A878146F1B70C40D28811042A87F6
:1019500081464146C1B711476310E6021D04137763
:1019600084FF0C43504313048700C28802C03E88A2
:101970000147AA87A14661B70C40D28811042A8783
:101980008146214641BF1D04137684FF130486005F
:101990000C4250423307D540C2887D173E884E85A1
:1019A000B687A946EFF05FBBB1BF39712ED232D4F2
:1019B000AA855010014506CE36D63AD83EDA42DC2A
:1019C00046DE32C67931F24021618280011122CC9B
:1019D00026CA06CE1C21AA840144DC878307F100B5
:1019E000050499EFA9479305F10005460145DC87F9
:1019F000EFF0BF802285F2406244D24405618280CC
:101A000005469305F1000145EFF02FFFB3878400F1
:101A10009C23DC87E1B7B687B2882A832E88639B34
:101A2000061463F8C50A4167636BE61AB70700013D
:101A30006360F63493568601E147171700001307D9
:101A4000E77336971823BA97130700021D8F19CB37
:101A50003398E500B357F500B318E60033E8070103
:101A60003313E50013D608013355C80293960801D5
:101A7000C182935703013377C802B385A602420798
:101A80003368F700637AB80046989307F5FF6364FC
:101A900018016365B8303E853308B8403357C80233
:101AA0004203135303013378C802B386E6024208A7
:101AB00033686800637BD80046989307F7FF636537
:101AC000180179176363D8003E874205598D814517
:101AD000828001E60547B358C702416763E8E80E14
:101AE000B707000163EAF82893D68801E147171782
:101AF00000001307A76836971423BE9693070002C9
:101B0000958FFDE7939E08013387154113DF080188
:101B100093DE0E018545935703013355E703337771
:101B2000E703B306D5034207D98F63FAD700C697F8
:101B30001307F5FF63E4170163E5D7263A85958F10
:101B400033D7E703420313530301B3F7E703B30E9D
:101B5000D703C207B3E7670063FBD701C6979306B5
:101B6000F7FF63E51701791763E3D701368742056D
:101B7000598D828063E1D504C16763E1F604B7073C
:101B8000000163E3F61E13D7860161489717000032
:101B90009387C75EBA979823130E00024297330EBD
:101BA000EE40631A0E0C63EDB61C3335C5001345C9
:101BB0001500814582808145014582809307F00FA1
:101BC00063F3D71C13D786002148C9B71307F00F5A
:101BD000C686E37E17F193D68800A14709BF130795
:101BE000F00FB286E37BC7E493568600A147B1B5F8
:101BF000B398F80033D6D50013DF0801335EE6034F
:101C00003397F500B356D500558F939E080193DEA8
:101C10000E013313F50093550701B376E603B3873E
:101C2000CE03C206CD8E63FBF600C6961306FEFFFA
:101C300063E4161763F2F616791EC6969D8E33D6A8
:101C4000E60393170701C183B3F6E6033385CE029B
:101C5000139706015D8F637BA70046979307F6FFF6
:101C6000636817136376A7127916469793150E01CA
:101C7000098FD18D4DB5B357E600B396C601DD8E01
:101C800033D3E50013DF0601B357E303939E060148
:101C900093DE0E013398C5013357E5003368070121
:101CA000935808013316C6013373E303B385FE026C
:101CB0004203B368130163FBB800B6981387F7FFBC
:101CC00063EAD80C63F8B80CF917B698B388B84033
:101CD00033D7E803420813580801B3F8E803338305
:101CE000EE02C208B3E5080163FB6500B695130870
:101CF000F7FF63EDD50863FB65087917B695C20752
:101D0000416FD98F1307FFFFB3F6E70093D80701A0
:101D1000718F4182B38EE602B3856540B386C602F9
:101D200013D80E013387E802BA96C2963386C802EA
:101D300063F3E6007A9693D80601469663E2C502FD
:101D40006385C5003E858145828041677D17F98E98
:101D5000C206B3FEEE003315C501F696E374D5FE58
:101D60001385F7FF8145828013D70601414839BDAD
:101D700093560601C147D1B193D60801C14785BB2F
:101D80008145054582803687014809B5428785BF70
:101D90003E86E9BDBA871DBF328E4DB5791546988E
:101DA000E5B97915C69761BBB68732882A832E8735
:101DB0002E8E6391061463F0C50A41676376E61AB6
:101DC0001307F00FB2866375C70093568600A147CC
:101DD000171700001307873A369718239308000255
:101DE000BA97B388F840638C0800B3951501B357D0
:101DF000F5003318160133EEB700331315011356EF
:101E00000801B357CE02131508014181935603010F
:101E1000337ECE02B307F502420E3367DE006378ED
:101E2000F7004297636507016373F70042971D8FC0
:101E3000B356C70293170301C1833377C702330533
:101E4000D5024207D98F63EBA7083385A7403355E6
:101E500015018145828001E605473358C702416775
:101E6000636BE80EB70700016364F82A9356880194
:101E7000E1471717000013076730369718239308B8
:101E80000002BA97B388F840639A081E131E08012F
:101E9000B385054113560801135E0E011357030164
:101EA000B3D6C502B3F5C502B386C603C2054D8FCE
:101EB0006377D700429763640701636AD726158F5B
:101EC0003355C7024203135303013377C702330567
:101ED000C5034207B367670063F8A700C29763E5CD
:101EE000070163F3A700C2973385A7403355150157
:101EF000814582802A88E3EFD5F4C16763E5F60463
:101F0000B707000163E2F62013D38601E148971773
:101F100000009387A7269A9703CE070013030002B9
:101F2000469E3303C3416319030463E4B600636947
:101F3000C5003308C540958D333705013387E5402B
:101F40004285BA8582809307F00F63FBD71C13D3B9
:101F50008600A1486DBF1307F00FC286E37B07F12F
:101F600093568800A14731B7B70700016366F61A98
:101F700093568601E147A9BDB357C601B3966600E3
:101F8000DD8EB3D8C50113D70601B3DEE802139F77
:101F90000601B357C501135F0F01B3956500DD8DD1
:101FA00013D805013316660033156500B3F8E8024F
:101FB000B307DF03C20833E80801637BF8003698F3
:101FC0009388FEFF6363D8166371F816F91E36987E
:101FD0003308F840B357E802C205C1813378E802FC
:101FE000330FFF02131708014D8F637BE70136970C
:101FF0009385F7FF6369D7126377E713F91736976D
:10200000C20EC162B3EEFE001388F2FFB3F80E01F8
:102010009355060193DE0E0133780601B38F080352
:102020003307E74133880E0393D70F01B388B80213
:10203000C298C697B38EBE0263F30701969E4168AD
:102040007D1893D50701B3F70701C207B3FF0F014E
:10205000F695FE976362B70A630EB708B307F540BB
:102060003335F500B305B740898D339EC50133D5AF
:1020700067003365AE00B3D5650082803318180160
:1020800033D7F50013560801B356C702131E0801D3
:10209000B357F500135E0E01B3951501DD8D93DE88
:1020A0000501331315013377C702B307DE02931618
:1020B0000701B3E6D60163F8F600C29663E50601B0
:1020C00063F3F600C2969D8E33D7C602939705013F
:1020D000C183B3F6C6023307EE0293950601DD8D88
:1020E00063F8E500C29563E5050163F3E500C29579
:1020F000998D6DB3E374F5F63386C740B3B7C70067
:10210000B6979D8DB28799BF13D30601C14801B51B
:1021100093560801C147B1BB93560601C1474DB95B
:1021200036838148EDB3AE87E1BDC68E55B5429783
:1021300079B313D74501B7071000FD1713D846012F
:102140001377F77F9308F07F33FEB700AA8EF58FE1
:10215000FD81328F1378F87FFD82630E1703630DC4
:10216000180129E3B368AE00631F08005D8E01EE1D
:102170000143638C080421A8B3E8C70009436396B0
:1021800008046DD305A0638408046385D502054364
:102190008DCD7D531DA8B368AE0009436397080237
:1021A000630AE802631408005D8E75D2E391D5FEE0
:1021B000E34FE8FC63490701E3EBC7FD630FFE0053
:1021C00001436374FE00F1D505431A858280EDFE5C
:1021D0007D53E5BF5D8E79DACDBFE36ADFFB014356
:1021E000E3F5EEFFF5F175B739714AD813D945011A
:1021F0004ED652D456D29399C50006DE22DC26DA9A
:102200005AD05ECE1379F97F2A8A93D9C90093DA1E
:10221000F501630D090E9307F07F6306F918135457
:10222000D5018E09B36934013704800033E4890095
:1022300093143500130919C08149814B13D7460106
:10224000139AC6001377F77FB285135ACA0013DBBF
:10225000F601630B07109307F07F6303F7049357AE
:10226000D6010E0A33EA4701130717C0B7078000EB
:10227000B367FA00931536003A99814833C76A016B
:10228000BD463A851308190063E836171716000093
:102290001306C6EA8A09B29983A60900B296828615
:1022A000B367CA001309F97F6399071293E92900FC
:1022B00081458948E1B701479307F07F370408005B
:1022C00081443204D20731807E075D8C598CA2850F
:1022D000F250625426854259D254B259225A925A27
:1022E000025BF24B216182805A853E84AE84C68BAC
:1022F0008947638DFB0E8D47E38FFBFA85472A875D
:10230000639EFB3881470144814465BF33E4A900E3
:1023100061C036C632C4638C092A4E85EF00F05284
:102320002246B246AA87130755FF7544938487FF58
:10233000198CB399990033548A0033643401B3146F
:102340009A0013D746011309D0C0139AC600137719
:10235000F77F3309F9408149814BB285135ACA008E
:1023600013DBF601E31907EEB367CA00B1C7630FC9
:102370000A22528532C4EF00504D22462A87930626
:1023800055FFF547930587FF958F331ABA00B3576A
:10239000F600B3E74701B315B6003309E940130966
:1023A000D9C08148E1BD33E4A90001ECA1498144D1
:1023B0001309F07F894B59B593E919008145854888
:1023C00075BD4E84AA84B1491309F07F8D4BBDB50C
:1023D000914981440149854B95B593E93900D287EC
:1023E0008D4869BD89475685E397FBF02A87930797
:1023F000F07F01448144F1B5C16E1386FEFF93D690
:10240000040113DE0501F18CF18D338695023383CF
:10241000B6029358060133059E021A95AA98B38214
:10242000C60363F36800F692C16F1383FFFF33F5B1
:10243000670093D30701B3F76800C20733736600E0
:102440003E933306950293D80801B387A602135F23
:102450000601B3849302BE94FA94B38E760263F3BA
:10246000F400FE9E416A9307FAFF935F0401B3767E
:10247000F400B3F9F4007D8EC1803384D502C20923
:10248000338FD401B299CE98B307DE02935E040174
:10249000B385BF02AE97BE9E330EFE0363F3BE004C
:1024A000529EC1679385F7FF33F6BE006D8C4206DE
:1024B000229693DE0E01B305D502769E3385AF02D8
:1024C00013D40501B386D302AA96A296B38FF30361
:1024D00063F3A600BE9F41657D15B3F7A600C20752
:1024E0006D8DAA97B3855800B3B93501FA97B295A7
:1024F0003384370133B6C500B30EC4013385CE0033
:1025000033343401B3B7E701C18F33BECE0113D4E6
:1025100006013336C5003E943366CE009394950091
:1025200032947E94B3E46400260493567501B33468
:102530009000DD8193179500CD8C558CDD8C931721
:10254000740063DB070093D7140085889316F401A9
:10255000DD8CD58C058042899307F93F6359F008DB
:1025600093F6740081CE93F6F40011466388C6009A
:1025700093864400B3B496002694B68493167400F0
:1025800063D80600B70700FFFD177D8C930709404D
:102590009306E07F63CFF60E93D634009314D401F4
:1025A0002604D58C318093F7F77F21BB328532C466
:1025B000EF00B02993065501F147130705022246A3
:1025C000E3D1D7DC6115B317A6008145F9B3EF005D
:1025D000D02713075501F145930705022246B2465D
:1025E000E3D5E5D461153314AA00814499BB85462F
:1025F0009D8EB1E71309E941B3972401B3D4D40008
:1026000033192401B337F000B3649900DD8C93F7DC
:102610007400B356D40081CF93F7F4001146638859
:10262000C70093874400B3B49700A696BE849397DF
:10263000860063D8070485470144814459B11306D5
:102640008003E341D6CC7D46E356D6FA0556B30760
:10265000F640930500023356F4006387B600130971
:10266000E943B3172401DD8CB3349000D18C93F689
:102670007400014499CA93F7F40011468146E3922D
:10268000C7FA139496003180F6068D80D58C814769
:102690000DB99307F07F0144814425B142896DBD96
:1026A000370710007D1701113373B70093D8460127
:1026B000758F935ED60122CC26CA0E0393D44501B2
:1026C0009357D5010E0706CE4AC84EC693F8F87F39
:1026D000130EF07F33E7EE0093F4F47F13D4F5018B
:1026E00033E36700131F3500FD82931E36006380BD
:1026F000C81993C61600B38514416305D4126351FB
:10270000B018638B081AB70780005D8F6380C459C7
:102710009307800363C3B734FD4763C4B748930787
:1027200000028D8FB3D9BE003318F700B39EFE00B0
:10273000336838013357B700B339D00133683801F3
:102740003303E340B3090F41B3373F013306F3408E
:102750009317860063D30724370980007D193379E6
:102760002601630F092C4A85EF00300E130785FF01
:1027700093070002998FB3D7F9003316E900D18F80
:10278000B399E9006344972A058F13061700FD46A5
:1027900063C4C63A13070002118FB3D6C900339839
:1027A000E9003397E700558F33380001B36907011B
:1027B00033D6C700814493F7790081CF93F6F900AF
:1027C00091476388F6009386490033B836014296F4
:1027D000B6899317860063D6071C138714009307E6
:1027E000F07F05886306F720B70780FFFD17F18F9C
:1027F0001398D70193D93900A60733683801B183FC
:102800001377F77F9396C7005207B1827E04D98E63
:10281000C18EF2406244D2444249B2494285B685F3
:10282000056182806356B00A638A0812B707800088
:102830005D8F6386C42D9307800363C7B718FD4778
:1028400063D1B73C138805FE93070002B359070113
:10285000638AF50093070004B385B7403317B700C8
:10286000B3EEEE003338D0013368380195A2B36778
:10287000D7019385148099E393C61600630AD404A4
:10288000D1E19387140093F7E77F6398071EB3673E
:10289000E3013368D701639204166381073C631533
:1028A0000842131835009316D3011358380033E843
:1028B00006019357330019A2B367D7016384071A3F
:1028C0009387F5FF638A073A638BC523BE8589B575
:1028D0006398051C9386140093F7E67FC1EFB367F6
:1028E000E301639F0434638C0744B367D7016393A8
:1028F00007460E051318D3010D813368A8009357BE
:1029000033006DA8B385984063960420B367E30154
:10291000638C07309387F5FF638807401305F07FCA
:102920006382A520BE859307800363C1B72AFD4754
:1029300063C7B73C930700028D8F3318F3003356FB
:10294000BF00B317FF003368C800B339F00033533A
:10295000B3003368380133076740ADACB367D701C4
:10296000638207109387F5FF638E071E638FC52D63
:10297000BE85D1B59307F07F638BF606FA9E33B61A
:10298000EE01B307E300B2971398F70193DE1E0040
:10299000B369D80113D61700B68493F77900E39F83
:1029A00007E09317D60113D839003368F800A685DD
:1029B000935736001307F07F6380E506B207B183B3
:1029C00013F7F57F05883DBD3367D7013338E00045
:1029D000B309E801B3B7E9013386670093178600AE
:1029E000E3DD07FA85049307F07F639BF4180588FD
:1029F0001307F07F8147014831B5639007106300EA
:102A0000083C131836009317D70113583800336861
:102A1000F800368493573700B367F800E9DB0144C8
:102A20001307F07FB70708000148E9BB370680FFAE
:102A30007D167D8E93F77900998CE39107D895B731
:102A40004E85212513078501FD47E3D3E7D2130601
:102A500085FFB397C900814935B33368D70133384F
:102A60000001CDB1131835009317D3011358380066
:102A70003368F8009357330035BFB309DF4133099A
:102A8000E34033363F013309C9409317890063CAD5
:102A9000072033E82901E31608CC8147014439BFF8
:102AA000B385984063810414B70680009307F07FD4
:102AB0003363D3006381F8209307800363CCB7228C
:102AC000FD4763C9B72C930700028D8F3318F300BD
:102AD000B356BF00B317FF003368D800B339F00016
:102AE0003353B300336838011A97B309D801B3B729
:102AF000D9013386E700C684D5B5E31208F213186E
:102B000035009317D301135838003368F8009357F2
:102B1000330019B7370580009307F07F3363A300B4
:102B2000E393F8E00E061318D7010D823368C8004E
:102B3000935737003684CDB505179306000233D777
:102B4000E700630AD600930600043386C640339636
:102B5000C700B3E9C90033383001B369E800014662
:102B6000814425BDB309DF01B307E30033BFE901A9
:102B70003386E701931786008544E3D007E2894452
:102B8000B70780FFFD17F18F13D7190013F819004D
:102B9000336807019399F701B3E9090113D61700C8
:102BA00019B9138805FE93070002B3590701638A18
:102BB000F50093070004B385B7403317B700B3EEB1
:102BC000EE003338D00133683801ADBE3363E30122
:102BD00033386000B3890E41B3B73E013306F74086
:102BE000C6843684B5B6B367E30163870718938755
:102BF000F5FF638C071C9306F07F638ED50ABE85B4
:102C000065BD930700028D8FB3D9BE003318F7005E
:102C1000B39EFE00336838013357B700B339D00193
:102C2000336838013A936DB3131836009317D70100
:102C30001358380033E807013684935737009DBB9B
:102C4000BDCB3367D701E31C07DC0E051318D30196
:102C50000D813368A800935733007DBBE30F08E272
:102C6000131836009317D701135838003368F8004B
:102C700036849357370099B3B309DF41B307E34074
:102C8000333F3F013386E7418544D9B413183500FB
:102C90009316D3011358380033E8060193573300D5
:102CA000A5BBB389EE413306674033B93E01330912
:102CB000264136847DB40E061318D7010D82336881
:102CC000C8009357370089BBB309DF41B307E3401E
:102CD00033363F013386C7409317860063D7070A10
:102CE000B389EE41B3076740B3BE3E013386D74197
:102CF0003684D1B43363E30133386000FDB3138805
:102D000005FE93070002B3590301638AF500930798
:102D10000004B385B7403313B300336F6F0033380B
:102D2000E001336838017DB5B389EE41B3076740F0
:102D3000B3BE3E013386D7413684854411BC131897
:102D400036009317D701135838003368F8009357AB
:102D50003700ADB1B309DF01B307E30033BFE901C9
:102D60003386E70193178600E3D907C2B70780FFD0
:102D7000FD177D8E854415B10E061318D7010D82FF
:102D80003368C8009357370035B133E8C900E3060C
:102D900008D021B1138805FE93070002B35903013F
:102DA000638AF50093070004B385B7403313B3007B
:102DB000336F6F003338E001336838013DB30144AD
:102DC0001307F07FB707080035BCB309DF01B3076D
:102DD000E300B3BED9013386D70169BB37071000C2
:102DE00093D745019306F7FF93F7F77F1308E03F6A
:102DF000ED8E13D6F5016353F8029305D04363D2E9
:102E0000F5028545918D3305B04013D6F541B705E0
:102E10000080B337A000918D9D8D82800145814552
:102E2000828013082043B3E5E6006354F802138759
:102E3000D7BA9387D7BC63450704B315E5000145AE
:102E400065D23305A040B337A000B305B0409D8DD7
:102E50008280930630439D8E7D47634CD700138755
:102E6000D7BE3397E5003355D500598DB3D5D5007E
:102E7000C1BF130530411D8D33D5A5008145C9B7AC
:102E8000FD46135715009D8E3357D700B395F500B7
:102E9000D98D3315F5006DB7011106CE22CC26CAA7
:102EA0004AC84EC6B367B50095CFAE84AA8913D978
:102EB000F50163CD05042684A5C4268579229306F1
:102EC000E043898E9307304363C9D7089397C400C2
:102ED0002D464E8793F6F67FB1836359A6001306FD
:102EE00055FFB1A80149814681470147B207F24029
:102EF0006244D206B1837E09D58FB3E72701D2445D
:102F00004249B2493A85BE85056182803305A040B9
:102F1000B336A000B304B040958CAA892684D1FCB6
:102F20004E8525222A869306E04313050502898EE5
:102F30009307A00293F6F67F63C7A70C5506130705
:102F4000B002098FB397C40033D7E9005D8F9317A0
:102F5000C700B1833397C90051BF9307604363DB58
:102F6000D7022147098F930507FE63C2050CB3D52D
:102F7000B40001471306850193078503634C0608D7
:102F80003396C9008149B3E9C90033363001B3E94A
:102F9000C5003A84A1474E8663C9A704B70780FFDE
:102FA000FD17937576003377F40085C59375F600A9
:102FB0001148638005039305460033B6C500329778
:102FC00013168700635106089306F0437D8F898EA0
:102FD0002E8613553600931797001316D7013367C3
:102FE000A600B18393F6F67F11B79307800293058D
:102FF00085FF898FB3D7F9003317B40033E4E700B6
:103000003396B90061BF5516B397C900B207B183B3
:103010000147E9BD7D4613D819001D8E3358C800FD
:103020003396F4003366C800B399F900A9BF7D4612
:10303000198E93971400B3D5E900B397C700DD8DBF
:1030400033D7E40005BF2E8669B7C167637CF502FC
:103050009307F00F1307000263EBA7009707000028
:103060009387C711AA9788233305A74082802181BF
:103070009707000093878710AA9788236147330535
:10308000A7408280B7070001636DF5006181970753
:1030900000009387A70EAA97882321473305A740EE
:1030A00082804181970700009387470DAA97882364
:1030B00041473305A740828078D6E1BCD3CBD9B64F
:1030C000C83D25642C79D6E1BCD3CBD9B6C83D2503
:1030D000642C7AD6E1BCD3CBD9B6C83D25640D0AA1
:1030E0000000000053797374656D436C6B3A25647E
:1030F0000D0A00004368697049443A253038780D5C
:103100000A000000B3F5CABCBBAFCDEAB3C90D00DD
:103110004144584C333435BCD3CBD9B6C8B4ABB822
:10312000D0C6F7B2E2CAD4B3CCD0F20D0000000092
:10313000286E756C6C290000C0F2FFFFB2F1FFFF32
:10314000B2F1FFFFB0F1FFFFB8F1FFFFB8F1FFFFF1
:103150007EF1FFFFB0F1FFFFB8F1FFFF7EF1FFFF4F
:10316000B8F1FFFFB0F1FFFFACF2FFFFACF2FFFFE1
:10317000ACF2FFFF7EF1FFFF000102020303030335
:1031800004040404040404040505050505050505F7
:1031900005050505050505050606060606060606D7
:1031A00006060606060606060606060606060606BF
:1031B00006060606060606060707070707070707A7
:1031C000070707070707070707070707070707078F
:1031D000070707070707070707070707070707077F
:1031E000070707070707070707070707070707076F
:1031F0000707070707070707080808080808080857
:10320000080808080808080808080808080808083E
:10321000080808080808080808080808080808082E
:10322000080808080808080808080808080808081E
:10323000080808080808080808080808080808080E
:1032400008080808080808080808080808080808FE
:1032500008080808080808080808080808080808EE
:1032600008080808080808080808080808080808DE
:08327000080808080808080816
:10327800000000000000000001020304060708091E
:103288000000000001020304010203040607080904
:0832980000A24A04020406082A
:00000001FF
