:040000006F208005E8
:100004000000000000000000C8020000CA02000056
:100014000000000056200000000000000000000066
:1000240056200000562000000000000000000000E0
:1000340056200000000000005620000000000000D0
:1000440056200000562000005620000056200000D4
:1000540056200000562000005620000056200000C4
:1000640056200000562000005620000056200000B4
:1000740056200000562000005620000056200000A4
:100084005620000056200000562000005620000094
:100094005620000056200000562000005620000084
:1000A4005620000056200000562000005620000074
:1000B4005620000056200000562000005620000064
:1000C4005620000056200000562000005620000054
:1000D4005620000056200000562000005620000044
:1000E4005620000056200000562000005620000034
:1000F4005620000056200000562000005620000024
:1001040000000000460900005620000056200000B0
:100114005620000056200000562000005620000003
:1001240056200000562000005620000056200000F3
:1001340056200000562000005620000056200000E3
:1001440056200000562000005620000056200000D3
:1001540056200000562000005620000056200000C3
:1001640056200000562000005620000056200000B3
:1001740056200000562000005620000056200000A3
:100184005620000056200000562000005620000093
:100194005620000056200000562000005620000083
:1001A400000000000000000000000000000000004B
:0C01B4000000000000000000000000003F
:1001C000397101436EC619A0397141536AC866CAB4
:1001D00062CC5ECE19A0397101535AD056D252D496
:1001E0004ED64AD826DA22DC06DE3301614082820E
:1001F00041114AC026C222C406C68282B24D4101C4
:10020000024D924C224CB24B4101024B924A224A7F
:10021000B2494101024992442244B24041018280E4
:100220003D432A876373C3029377F700BDEFADE5C3
:10023000937606FF3D8ABA960CC34CC30CC74CC7D5
:100240004107E36BD7FE11E28280B306C3408A0602
:100250009702000096966780A6002307B700A306C2
:10026000B7002306B700A305B7002305B700A30412
:10027000B7002304B700A303B7002303B700A3020A
:10028000B7002302B700A301B7002301B700A30002
:10029000B7002300B700828093F5F50F9396850091
:1002A000D58D93960501D58D61B79396270097025A
:1002B000000096968682E78086FA9680C1171D8F89
:1002C0003E96E374C3F8A5B701A0B707EFBE37E7C2
:1002D00000E0938707083CC701A0EFF27FF1EF1021
:1002E000B044EF502017716513050520EF50801CB6
:1002F0000945EF20E02FEF4070600565130585BBD1
:10030000EF50E017B704002083A5040837740000FD
:100310001305C4C1EF509009377500001305C5C21D
:10032000EF50101AEF40D03C014689653715014067
:10033000EF2080033715014005469305000813059B
:100340000540EF20600237750000130545C4EF50EB
:1003500030178D450145EF40B05181450545EF40CF
:10036000B05281450545EF4090546545EF405056E9
:1003700083A504081305C4C1EF505003EF10705655
:10038000AA8537750000130545C5EF503002377553
:100390000000130545C6EF50B01237750000130575
:1003A00085C7EF50F011B774000005469385C4C8A7
:1003B00013854184EF30902D13848181AA8508C074
:1003C00037750000130505C9EF50407E1840B5474A
:1003D0006311F70437750000130585CAEF50500EFE
:1003E00093060020138681A781451385C4C8EF407A
:1003F000200608C005469385C4C80145EF30102982
:1004000008C005469385C4C813854184EF30102881
:1004100008C037750000130545CBEF405072130537
:10042000803EEF50C005E5BF378701405C4393F73E
:1004300007F05D8D48C3828083C8C18183A7018294
:10044000938681C8231AF5049E229842230B150532
:1004500013988700A1833368F8009357870113F638
:10046000F70F8987BD8B1CB1DC4241832312050144
:1004700013D80701135366001378F80F0D8A38B1AB
:1004800013D7870130A1120713564800518F13D696
:1004900087007AA11377F60F2300650013537700C6
:1004A000A30465001353664013731300230565000E
:1004B0001353564013731300A305650013534640AE
:1004C000137313001378F800230665002304050155
:1004D000A306050005439446938581C863751301FF
:1004E0000D436397682013D786019378F70F8A0727
:1004F00013D3680093F7C73FB3E7670037030400DF
:10050000130303C02A06337666000563130303C092
:10051000337666000D87D18F1D8B13D6060158A93F
:100520001377F60F158378A9135726401D8B78B9DA
:1005300013D7860093F878001377F70F0606A30AFF
:100540001501198A935877003366160110AD854856
:1005500009063396C8001CC9850733980801B3887B
:10056000C70223280505B327F6021356F841B387BF
:10057000070333061603B2973386080333B808031C
:1005800030C5C2977CC593576740858B1CBD060755
:1005900093F7F60F93D677001377E707558F38ADAB
:1005A000D84593F7F7073CBD9357870193D677005B
:1005B00054AD93D657408D8A54BD93D627409D8A1B
:1005C00074AD9356070113F6F60F8A07935566002C
:1005D000B18BCD8F95867CBD858A9357870023008C
:1005E000D502058A93F6F70F2301C50213D67600CC
:1005F000A301C50213D66740058A2302C50213D69C
:100600005740058AA302C50213D64740058A230333
:10061000C502138681C78D8A2304D50214428987B7
:100620008D8BA303F5021377F70F93D7860123066B
:10063000F502058393D70601A304E50293F7F70FAC
:1006400013D786001377F70FA207D98F7EB55C42C8
:10065000E206416813D787001377F70F558F93D6BB
:100660008701C206558F93D607017D18A206B3F6FF
:100670000601558F144618D9230AF502584693D718
:100680008601A30AF5021396860093D706013378F4
:100690000601E20713568701B3E70701D18FA206CF
:1006A0003706FF00F18ED58F0346C5031CDD935737
:1006B000070193F6F70F9182D18E230ED50285663E
:1006C000938606F0A207F58F9356870093F6F60FF0
:1006D0008545D58F1377F70F2305B5027EBDA3009F
:1006E000050205832300E504A300B50401458280CB
:1006F0000946E39AC8E813D7860113D60601137694
:10070000F60F2207518FC20737063F00F18FD98FAE
:100710001CC9850713D6D700CE0713D786003CC562
:10072000930700201377F70F70C53CC9A9BDEFF2FE
:100730003FAC4164FD547D14631894001305F05FD1
:10074000EF20E01D0145F9B413050008EF20401C1F
:100750007DD16DF40D45C5BFEFF29FA9416781477B
:10076000FD56378601407D17631ED70013F74700FB
:1007700019EF93F70704014499CF13050004EF2004
:10078000001A11A85C5A93F55704F1DD65F3114581
:10079000EF20E0180D442285B5BCEFF27FA5AA84B6
:1007A000378401405C5893F75704EDDF1145EF2083
:1007B000201611C51145EF2080160D45A1BC054539
:1007C000EF20001511C50545EF2060150545FDB763
:1007D0001C484145E39497FE9307F05F1CDC4848B2
:1007E000B7E7FFFDA1077D8DD1BFEFF27FA0938713
:1007F00001CF9D46D4C39306000488C394C71385D4
:1008000001CF9306004023A6070094CBEF20800A77
:100810001D45613701B4EFF2BF9D378401405C583C
:1008200093F70710B5C303C74182854713848182BC
:100830006319F704938701CF3147D8C31307000426
:1008400098C7138501CF1307004023A0070023A6F4
:10085000070098CBEF2000063145813708C0B787E5
:100860000140985FD176938656CC1367071098DFC6
:10087000D85F758FD8DF0547A382E1821C403E8593
:1008800051BA23200400E1BF0945EF20600819CDCB
:100890000945EF20C0085C5C5177130757CCF98FEE
:1008A0005CDC094723A4E1828947D1BF2145EF20C1
:1008B000200619CD2145EF2080065C5C5177130797
:1008C00057CCF98F5CDC114723A4E182914745BFE7
:1008D00013050002EF20C00305C113050002EF203D
:1008E00000045C5C5177130757CCF98F5CDC194727
:1008F00023A4E182994761B74145EF20600119CDFA
:100900004145EF20C0015C5C5177130757CCF98F4C
:100910005CDC154723A4E182954795B713050020B9
:10092000EF10107F814721DD13050020EF10307F8D
:100930005C5C5177130757CCF98F5CDC1D4723A40F
:10094000E1829D472DBFC13D73002030EFF25F8AE9
:10095000378701405C5B93F75704EDDF1145EF10DB
:10096000307B19C51145EF10907B0D456FF09F8AC4
:100970001305F05FEF10B07A0145CDBFEFF2DF84D1
:100980009387C1F1130720FB1385C1F1D8AB23A0D6
:10099000070023A2070023A4070023A6070023A81B
:1009A0000700EF10306A0D45EF10D06D0545EF10D0
:1009B000106C9304A004138401CF130A0040CA8969
:1009C000228523200400232204002324040023265C
:1009D000040023284401EF10F06D913B19C5FD146C
:1009E00093F4F40FF1FC6FF0BF819307A01A1CC0C1
:1009F000A1475CC0930700041CC4138501CF930773
:100A000000401CC823260400EF10D06AB133814493
:100A100011E50547238EE180B7040040930770037A
:100A20005CC0930700041CC4138501CF93070040EA
:100A30001CC82320040023260400EF10B067130510
:100A40007003A13B014949E5370A108033EA4401AC
:100A5000C164930B7003930A0004130B0040130C42
:100A60009002FD14138501CF23200400232274017A
:100A7000232454012326040023286401EF109063EB
:100A800013057003193B25F1138501CF2320440181
:100A900023228401232454012326040023286401F3
:100AA000EF105061653521F1B7870140DC4B050936
:100AB00063C60700E31899FA6D4535B7E30E99FE52
:100AC00013971700E35107F20947238EE18021BFF6
:100AD000C164378AFF80854A130B0004930B0040E2
:100AE000378C0140FD14138501CF232044012322BC
:100AF0005401232464012326040023287401EF10E9
:100B0000705BA935E31105EE83274C01050963C528
:100B10000700E31A99FC4DB7E30099FA0D4775B742
:100B2000EFF20FED41678147FD56378601407D1793
:100B30006312D702918B85E70545EF10705D014484
:100B400009C50545EF10B05D05441305F05FEF10D2
:100B5000105D11A85C5A93F55704F1D961FF114556
:100B6000EF10F05B0D4422856FF0CFEAEFF24FE813
:100B70002A89AE84378401405C5893F75704EDDF2F
:100B80001145EF10F05819C51145EF1050590D459A
:100B90006FF04FE80545EF10B05711C50545EF1050
:100BA00010580545F5B71C48638427014145CDB76A
:100BB0001305F05FEF10B0565C4839677D8F09E789
:100BC000C1839EA00145E9B7139727014D45E34135
:100BD00007FC13971701E34B07FC13970701014527
:100BE000E35807FA3D456DB7EFF28FE085474111B5
:100BF0007C87EF10504A930750026308050C03C727
:100C0000C18191471384C1816303F704938701CFA6
:100C10000947D8C31307000C98C7138501CF1307E2
:100C2000004023A0070023A6070098CBEF109048B0
:100C3000C53DAA8759E937870140544B938781C73F
:100C400094C3144FD4C3544F94C71853D8C71C200F
:100C500009476374F70419476381E70414208D473B
:100C60006397F6023887938701CF420798C313072B
:100C7000000498C7138501CF13070040D4C323A6EF
:100C8000070098CBEF101043613DAA871DED182097
:100C900091476310F70481470DA8938701CF0D4753
:100CA000D8C31307000498C7138501CF130700406A
:100CB00023A0070023A6070098CBEF10B03F9305B1
:100CC000E1000D456535AA8751D93E8541016FF098
:100CD0006FD4388723A0E182938701CF420798C35E
:100CE0002547D8C31307000C98C7138501CF1307F6
:100CF000004023A6070098CBEF10D03B1535AA87FC
:100D000069F5B7860140D04A138781C810C3904E59
:100D100050C3D04E10C7945254C745BFEFF24FCDC9
:100D200003A70182AA84938701CF420798C335475E
:100D30004111D8C31307000498C702C41307004029
:100D4000138501CF98CB23A6070002C6EF1090367B
:100D5000B7870140DC5B378701403EC6B24793F757
:100D6000570481CF0545EF10B03A19C90545EF107A
:100D7000103B054541016FF0EFC95C5B3EC6F9BF12
:100D80001145EF10F03811C51145EF1050390D45E0
:100D9000D5B7378401401848B5474145E31CF7FCF7
:100DA0001305F05FEF10B0375C4801453EC4A24721
:100DB000A583BD8B9CA07DBFEFF2EFC1138401CF53
:100DC000C147138501CF214B930A0004130A004049
:100DD000AE895CC02320640123245401232604002F
:100DE00023284401EF10102D4145EFF01F9BAA84EA
:100DF0006317050C83A70182138501CF23245401B7
:100E0000C2071CC0930770035CC02326040023287C
:100E10004401EF10302A13057003EFF01F98AA84E5
:100E200059ED938741F07D5798C31307000398C786
:100E30000947D8C7138541F00547D8CB23A26701DE
:100E400023A80700EF10302993073003138501CF43
:100E50005CC02320040023245401232604002328FB
:100E60004401EF10302513053003EFF01F93AA84DF
:100E700039E537890140032449031374A46239E03A
:100E800037052000EF10D0287DD5EF1030272A89B4
:100E9000378A014083274A0393F7A76289EB370516
:100EA0002000EF10F0267DD5EF1050252A84214533
:100EB000EF10102619C92145EF10702691442685A0
:100EC0006FF0AFB401440149DDB70945EF1050247C
:100ED00011C50945EF10B0248944D5B713050002A8
:100EE000EF10102319C513050002EF105023994489
:100EF000F9B713050020EF10B02119C51305002024
:100F0000EF10F0219D4465BF1305F05FEF10302115
:100F10009357890113178901931689003706FF003B
:100F20005D8FF18E558FC166938606F01359890047
:100F30003379D9003369270193178401135784014A
:100F4000D98F13178400718F2180D98F758C5D8C98
:100F500023A2290123A089009DB7EFF2CFA7411159
:100F600002C402C6894911E1AA89B7870140DC4B56
:100F700039451397670063490706938401828A20E5
:100F80002C001D3D35E1B247130550021397D700E1
:100F9000635C07049C40138401CFC2071CC0138507
:100FA00001CF93077003130A0004930400405CC050
:100FB000232444012326040004C8EF10B00F1305B6
:100FC0007003EFF08FFD0DE19947138501CF2320CA
:100FD00034015CC0232444012326040004C8EF101C
:100FE000700D1945EFF06FFB41016FF00FA283C741
:100FF000C1810D476382E704EFF28F9F09472A847E
:1010000001456369F70285471305700263E48702AF
:101010001375F40F993719EDB7870140D843F97666
:101020009386F67F758FD8C3D8432E04598CC0C3DE
:10103000D843D8C36FF00F9E130570028280EFF281
:101040002F9B0111854513050003EF10E0788545BE
:1010500013052040EF1060768967938707F00D44F1
:10106000E1444C0837150140FC8222CC26CEEF101B
:10107000602322CC3714014091474C0813050440EB
:10108000FC8226CEEF100022930700084C081305BF
:101090000440FC82930780043ECEEF10A020EF10A6
:1010A0006077930710047C86680085473EC8230755
:1010B0000100EF104054EFF07F8C21E1353615ED43
:1010C000138481C9138581C9EFF00FB71DE503555E
:1010D00044054205EFF06FF10DE10545093F11EDC3
:1010E00003C7E1CE8547194563F3E7000545EFF0F7
:1010F000AFB3A38E0180014531A003C7C1818D47E5
:10110000E300F7FE05616FF0EF9081470547631438
:10111000E5003E8582808507058193F7F70FC5BFFF
:10112000EFF20F8D39712A89AE8409458545370460
:10113000024032C6EF10606813054444EF00107B94
:10114000130544448145EF10A014B78701409387ED
:1011500007083ECA930700083ED493070020324692
:101160003ED68567938707803ED84C08896713056C
:101170004444898032CE3EDC4ACC26D002D202DA08
:1011800002DEEF10600D854513054444EF1040105A
:1011900021616FF02F88EFF2AF82411119E513043E
:1011A0006002228541016FF06F85B787014023A659
:1011B000070203C7C18189472A89AE8A368A631923
:1011C000F7005E0693DA9500B36A5601130A002011
:1011D000938441F0FD57854B138541F09CC023A4B7
:1011E000040023A2040023AA740123A6040023A858
:1011F0000400378B0140EF10006E83274B01394408
:1012000013976700E34F07F89307FAFF1396070158
:1012100041829306F07FE3E4C6F8B3F74701C1F3D8
:101220005285E535938901CFC1462AC6930D000446
:10123000138501CF130D004023A2D90023A049013B
:1012400023A4B90123A6090023A8A901EF108066F1
:101250004145EFF08FD42A8429F5B247138541F038
:1012600023A2440192079CC4FD579CC08947DCC45B
:1012700023AA740123A80400EF10E065C547138575
:1012800001CF23A2F90023A0590123A4B90123A669
:10129000090023A8A901EF10E0614545EFF0EFCF69
:1012A0002A84E31005F083C7D181D5CBE39B77EF88
:1012B0000146D2854A85AD359387818223A00700F8
:1012C0002382018293875182238007008327CB03E7
:1012D00005451389518293E7A732232EFB02EF10B5
:1012E000205C37050240854513054544EF00507AE0
:1012F0007D57938781823706024083260640939567
:10130000260163C2050C8346090093F6F60FC5EE6D
:101310009443D5EA29C37D17CDB72165EF10405F0F
:1013200015C9CA871309090203A70908910723AE43
:10133000E7FEE31BF9FE9304FAFF83A7490393F743
:10134000A762E1DF2145EF10A05C05C12145EF1048
:10135000005D11A099E01144A9B5FD14F9BFFD5439
:10136000B7890140370A8000C9BF0945EF10405ACC
:1013700011C50945EF10A05A094425B5130500020F
:10138000EF10005919C513050002EF104059194418
:1013900009BD13050020EF10A05701CD1305002053
:1013A000EF10E0571D44F5BBEF1040552320A90076
:1013B000110937052000EF10A0557DF51305F05FEA
:1013C000EF10E055F9BB41DB9843E30C07DC8043A9
:1013D000C9BBEFE2FFDE411123A6A182B78701401E
:1013E0002AC023A607022E8A83C5C181B68C9386A4
:1013F000C181894736C21389C1826399F5005E06AF
:10140000135A9A00336A4601930C0020938441F0EA
:101410007D5D854A138541F03AC423A4040023A2CC
:10142000040023A0A40123AA540123A6040023A896
:101430000400B78D0140EF10004A83A74D013944E5
:1014400013976700634E07009387FCFF939507018E
:10145000C1811306F07F22476378B600130460024F
:10146000228541016FE09FD93AC6B3F79701FDF796
:1014700066856139938B01CFC1459307000413073B
:1014800000402AC4138501CF23A2BB0023A4FB0084
:1014900023A8EB0023A09B0123A60B00EF108041A3
:1014A0004145EFF08FAF2A84938901CF55F9324738
:1014B000E3F8EAFAB385EC02370E0002E3F0C5FB6D
:1014C00022430947138541F0120323A46400CCC0D2
:1014D0002EC4D8C423A0A40123AA540123A8040025
:1014E000EF10603F494723A2EB0093070004130766
:1014F0000040138501CF23A04B0123A4FB0023A6AA
:101500000B0023A8EB00EF10E03A4945EFF0EFA8FD
:101510006318051803CAD181630A0A0AA245E311B8
:101520005AF502450146EFF0BFBF9387818223A0A1
:10153000070023824183938751822380070083A77A
:10154000CD0337050240854593E7A73223AEFD0260
:1015500083A7CD02130545441389518293E7870081
:1015600023A6FD02EF00D0527D5793878182B706F4
:10157000024003A606409315260163C6051039C331
:101580007D17C5BF2165EF10A03805CD8327090061
:101590001387070283A60408910723AED7FEE39BB7
:1015A000E7FE2320F9001304FAFFDC5893F7A73273
:1015B000F1DB2145EF10C03505C12145EF10203684
:1015C00011A019E0114469BD7D14C5B77D54B784DD
:1015D0000140370A8000D1BF0945EF10603311C5C3
:1015E0000945EF10C0330944A5BD13050002EF10F3
:1015F000203219C513050002EF10603219448DB571
:1016000013050020EF10C0300DC113050020EF10AE
:1016100000311D44B1B503240900EF10202E8327AB
:10162000090008C091072320F90037052000EF10BA
:10163000202E75F113050010EF10802D19E513050C
:10164000F05FEF10C02D014421BD924798238947D8
:10165000E3E7E7FEB14723A2F9009307000423A4C0
:10166000F9009307004023A8F900138501CF23A0B8
:10167000090023A60900EF10E0233145EFF0EF91B8
:101680002A8455DDF1BB1DDF034709001377F70FEF
:1016900019E3984375DB9843E30407DC8043C9B33F
:1016A0002A847DBBEFE2DFB10111A30F010011E538
:1016B0001305600205616FE07FB432C637840140D4
:1016C000938741F0232604027D5798C3AA840547D7
:1016D000138541F0D8CB23A4070023A2070023A63B
:1016E000070023A80700AE8B368BEF10C01E5C48A6
:1016F000138A41F0394513976700E34D07FA03C792
:10170000C18189473246631EF7085E0693DB9B0062
:10171000B36B7601930A00205685EFF01F9F9387E5
:1017200001CF4147AA8C930D0004138501CF130DFF
:10173000004023A05701D8C323A4B70123A6070064
:1017400023A8A701EF1000174145EFF00F85138480
:1017500001CF2DF183A70182138501CF2328A40196
:10176000C2071CC0B5475CC02324B4012326040073
:10177000EF1040143545EFF04F82138D01821DF9B3
:10178000B7870140DC4B7D5CB54D93F7071013071D
:10179000000493060040A9EF63140C0213059002A5
:1017A00011BF9307FBFF93960701C1821307F07FD8
:1017B000E360D7F0B3F76701E39C07EEDA8AA9BFCD
:1017C00083270D00138501CF2322B401C2071CC05B
:1017D00018C42326040014C8EF10C00D35457D1C25
:1017E000EFE0BFFBE31805EC378601405C4A71BFB0
:1017F00013059002E3000CECE1475CC09307000482
:101800001CC4138501CF93070040232074012326B5
:1018100004001CC8EF10000A6145EFE01FF8E31B4D
:1018200005E8FD5713894182920C0544138541F068
:101830002320FA002300090023249A0123225A01BD
:10184000232A8A0023260A0023280A00EF10A00872
:1018500083C7D181638F070C639687122685414623
:10186000D685EFF0FF8B9387818223A007009387B3
:1018700051822380070023000900B7870140D85F09
:101880003705024085451367A731D8DFD8571305C0
:1018900045449384518213678700D8D7EF00501FC7
:1018A000FD56938781823707024003260740931530
:1018B000260163C20510639E060EEFF04FF8B5A037
:1018C0001165EF10E0042DC133072B4163E2EA04F8
:1018D000935727000D8B11C3850713942700B38BF3
:1018E00084006392740322991304FAFF83A74903C7
:1018F00093F7A761F1D72145EF10800139C1214548
:10190000EF10E0011DA088409104EF00D07FD1BF0F
:1019100026849384040208401104EF00D07EE39CE7
:1019200084FE13090902C9B719E0114561B37D149A
:1019300075BF01497D54B7890140FD4A370A00400F
:1019400075B70945EF00D07C11C50945EF00307D22
:1019500009458DB34145EF00B07B11C54145EF000E
:10196000107C154581BB13050020EF00707A19C566
:1019700013050020EF00B07A1D452DBB9307F05FE3
:1019800023ACF9021305F05FEF0070791305F10144
:10199000EFF0CFB80544E31F05D08347F101E91705
:1019A00093F7F70FE368F4D01305F101EFF00FB7E9
:1019B000DDB7FD16DDBD7D57E38106F0942093F67B
:1019C000F60F91E6944381E62DD37D17C5BF31DF35
:1019D00098434DDB8843F9B9EFE28FFE0111A30F65
:1019E000010011E51305600205616FE03F8132C619
:1019F00037840140938741F023260402BA897D573A
:101A000098C3AA840547138541F0D8CB23A40700C7
:101A100023A2070023A6070023A80700AE8B368C5D
:101A2000EF00706B5C48938A41F03945139767006B
:101A3000E34C07FA03C7C1818947138BC181324642
:101A40006319F70E5E0693DB9B00B36B7601130DF3
:101A500000206A85EFF06FEB938701CF41472AC6DC
:101A6000930C0004138501CF930D004023A0A70120
:101A7000D8C323A4970123A6070023A8B701EF002A
:101A800070634145EFE07FD1138401CF31FD85477D
:101A900063F0371D330D3D03B7070002E374FDF417
:101AA00083460B00894763F5D70AE5475CC0930777
:101AB00000041CC4138501CF930700402320740148
:101AC000232604001CC8EF00F05E6545EFE0FFCC64
:101AD000E31C05F0B247138541F0854B939C47000A
:101AE000FD5723A0FA0023A49A0123A2AA0123AA46
:101AF0007A0123A60A0023A80A00EF00D05D03CADA
:101B0000D18163180A1AB3093C03814AFD57B78B88
:101B10000140FD4C370C004003A74B031377A7315E
:101B200059C32145EF00D05E71CD2145EF00305FF4
:101B3000F1A09307FCFF93960701C1821307F07F82
:101B4000E362D7EAB3F78701E39E07E8628D11B736
:101B500083A70182138501CF23249401C2071CC0EF
:101B6000930770035CC0232604002328B401EF0010
:101B7000705413057003EFE05FC2E31705E6DD471D
:101B8000138501CF232034015CC023249401232634
:101B900004002328B401EF00F0515D45EFE0FFBFE2
:101BA000E30505F091B503A74B039316170163D620
:101BB00006043387594163E6EC02935727000D8BE7
:101BC00011C38507139A2700338D44016396A4013E
:101BD000D29A9307FCFF89B788409104EF00B05276
:101BE000F5B7138A040288409104EF00D051E31C3A
:101BF0009AFED284938A0A02E9BF99E31145EDB3B4
:101C0000FD1719BF0945EF00B05011C50945EF0098
:101C100010510945D1BB4145EF00904F11C54145D9
:101C2000EF00F04F1545C9B313050020EF00504EEB
:101C300019C513050020EF00904E1D4575B313051F
:101C40000010EF00F04C05ED1305F05FEF00304D94
:101C50001305F05FEF00B04C1305F101EFF00F8CAE
:101C60000544E31305D88347F101E91793F7F70F0C
:101C7000E36CF4D61305F101EFF04F8ADDB70347AB
:101C80000B008947E3E2E7FCB1475CC0930700041F
:101C90001CC4138501CF9307004023200400232692
:101CA00004001CC8EF0010413145EFE01FAF49DDD3
:101CB00025BBE31F7AF926854146EA85EFF04FC63A
:101CC0009387818223A007002382418393875182D7
:101CD00023800700B7870140D85F3705024085455C
:101CE0001367A731D8DFD857130545449384518231
:101CF00013678700D8D7692BFD56938781823707F2
:101D00000240032607409315260163C8050081E6BB
:101D1000EFF0EFB2E5B5FD16EDB77D57F5DA94209B
:101D200093F6F60F99E6944389E6E30907EC7D17ED
:101D3000FDB7E30507EC9843E30C07F088436DB16A
:101D4000EFE26FC993773500328713D67501A60588
:101D5000B9C72607AA892E84B2843309E500014A4F
:101D60006395290152856FE04FCAA28526869306A6
:101D70000020138541D0EFF00FC2137AF50F130640
:101D800000204E85938541D0EF30703F93070420AB
:101D900033B78700938909203E84BA94D1B7854729
:101DA000930600206317F700EFF0EFBE137AF50FEC
:101DB00055BFEFF00FE2DDBFEFE2EFC193773500E3
:101DC000328713D67501A605B1C72607AA8933093C
:101DD000E5002E84B2840145639429016FE0EFC2CF
:101DE000CE8513060020138541D0EF305039A285EF
:101DF000268693060020138541D0EFF0BF8A930713
:101E0000042033B787001375F50F938909203E84AA
:101E1000BA94D9B78547930600206317F700EFF00F
:101E20007F881375F50F5DBFEFF01FBBDDBFB717E0
:101E300002409843B706FFF041111367170098C39B
:101E4000D84337060200758FD8C39843B706F7FE0C
:101E5000FD16758F98C39843B706FCFFFD16758F66
:101E600098C3D843B70601FFFD16758FD8C39843B2
:101E7000B70600ECFD16758F98C33707FF0098C7AB
:101E800023A6070202C402C69843C166558F98C3B1
:101E9000B716024005679C42F18F3EC6A2478507F0
:101EA0003EC4B24781E7A247E397E7FEB717024077
:101EB0009C431397E7006357070685473EC63247A2
:101EC0008547631FF704B7170240D843B706C1FF21
:101ED000FD16D8C3D843D8C3D84313670740D8C327
:101EE000D843758FD8C3D843B7062900558FD8C3B8
:101EF0009843B7060001558F98C39843931667001F
:101F0000E3DD06FED843B7160240719BD8C3D84321
:101F100013672700D8C32147DC42B18BE39EE7FE5D
:101F20004101828002C661BFB7160240D842B7079E
:101F300000201146318B938707086305C7002146AF
:101F40006308C70237177A001307072098C33717AB
:101F50000240584311839376F70037070020130798
:101F600007003697142398433357D70098C38280CD
:101F7000D842D442416649833D8BF18E1306270037
:101F800015CF3D47630FE6024147630FE602454721
:101F900081456313E6004146A1E23747024003272B
:101FA0000780418B0DC737177A00130707203306C8
:101FB000C70290C3C9DD9843058349BF814549469F
:101FC000E1BF85453546C9BF81453D46F1B7371765
:101FD0003D0013070790E1BF37150240585593168F
:101FE000F700585563DF060411833D8B93061700F5
:101FF00037177A00130707203357D70298C3545571
:10200000A182BD8A8DE295463307D702058398C326
:1020100037170240585794433D8B050733D7E602E4
:1020200098C3984369B705456394A600E546E9BFA0
:102030003D456396A600D1463387E602C9BF8906AF
:10204000E5BF3D8B9306170037177A00130707206B
:102050003357D702F1B701A097F1FF1F9381818217
:1020600017610020130101FA1745010013050596B9
:1020700097E5FF1F938505F91386818163FAC500F3
:102080008322050023A0550011059105E3EAC5FE52
:1020900013858181938581F76377B500232005003F
:1020A0001105E36DB5FEFD42739002BCAD42739025
:1020B0004280B7620000938282087390023097E2F8
:1020C000FFFF938262F493E2320073905230EFF09C
:1020D0001FD697E2FFFF9382822073901234730021
:1020E0002030B7F7FF1F03A5477082801C4141676E
:1020F0007917F98F1CC12320050023220500232412
:102100000500B707024023260500138787006317E1
:10211000E500D8431367F700D8C382801387C7014F
:102120006316E500D8431367070FFDB7138707034E
:102130006318E500D8438566938606F0558FE9BF9E
:10214000138747046315E500D843BD66C5BF1387F1
:1021500087056316E500D843B7060F00C5B7138798
:10216000C7066316E500D843B706F000C1BF138762
:1021700007086316E500D843B706000FC1B71387F9
:1021800087406319E50003A747401367F70023A2C0
:10219000E74082801387C7416317E50003A74740E4
:1021A0001367070FEDB793870743631BF500B70766
:1021B000024003A747408566938606F0558FC1BF4E
:1021C000B7070240138747446316E50003A747405B
:1021D000BD66EDB7138787456317E50003A7474042
:1021E000B7060F00E1BF1387C7466317E50003A7D3
:1021F0004740B706F000D9B7138707486317E500D3
:1022000003A74740B706000F55BF13870749631957
:10221000E50003A7474D1367F70023AAE74C828028
:102220001387074A6317E50003A7474D1367070F96
:10223000EDB71387074B6319E50003A7474D856684
:10224000938606F0558FD1BF1387074CE319E5FC41
:1022500003A7474DBD66FDB71C4161773D0794510B
:102260007D8F9C45D58F9449D58FD449D58F944D7A
:10227000D58FD44DD58FD451D58F9455D58FD98F37
:102280001CC1DC455CC19C411CC5DC415CC5828035
:102290001C4189C593E717001CC1828041677917EB
:1022A000F98FDDBF9C4513F7070113F8F70001C74D
:1022B000D8413368E8008E2113F7F50F39C3184170
:1022C0008146854E3D4F930F800293028004214E3C
:1022D0003396DE00B3F8C500631116039398260009
:1022E00033131F011343F3FF3377E300B3181801CF
:1022F00033E7E800639FF70550C98506E39AC6FDFA
:1023000018C11307F00F6375B70454412146854E79
:102310003D4F930F800293028004414EB398CE004C
:1023200033F715016392E8021317260001173313E0
:10233000EF001343F3FFB376D3003317E800D98ED1
:10234000639DF701232A15010506E319C6FD54C153
:102350008280E39457FA10C94DB7E39757FE2328BC
:102360001501DDB70CC9828019C20CC982804CC925
:102370008280B7070140635A0504DC4F935605017C
:10238000131805013707300013F6F600135808013B
:10239000B376E50063500506639BE60293060601EB
:1023A0000D46B316D60093C6F6FFF58F99C913579D
:1023B00055011377F73F12073317E800D98F63579A
:1023C0000504370701405CCF8280DC4345BF13170B
:1023D000B500635607008D46B396C600E9B713579C
:1023E00055011377F73F12073317E8001347F7FF3C
:1023F000F98F6DBF6390E6023706014054423707FC
:1024000000F17D17F98F758F58C2D5F1370701405C
:102410005CC382801317B500635C07008D46B396DA
:10242000C60093C6F6FFFD8EB707000FD58FF1BF2C
:102430001357550112073317E8001347F7FF7D8F35
:10244000B707000FD98FD1B7EFD29FDA7971462144
:102450002A8468082EC6FD22925737470F001307BB
:10246000072433D7E702C204C18093F404FCC204FA
:102470009306C003C180B24563F4E6001307C003AE
:10248000131607014182D18C46A016206165130501
:10249000056AC206C182F99AC206C18216A0944199
:1024A0006369D5048606B3D7D7029146139707010F
:1024B0004183BA876373D700914705064206C20776
:1024C0004182C18312B05EAC1E20DA21B62593E7AB
:1024D00017001EA01E20558FC207C18393F757BF58
:1024E000D98F1EA09A25DE25D98F1EA445616FD0F5
:1024F0007FD2EA2131667D16631DC5020D46B38683
:10250000C602B3D7D702C207C1839396470199E2A7
:1025100093E71700A166D58F9306C0123307D70241
:102520009306803E3347D7020507420741831AB01E
:1025300059BF6546B386C602B3D7D7029166C207B4
:10254000C183D58FD9B71E2189C593E717001EA176
:102550008280C207C183F99BC207C183CDBF1E2100
:1025600089C593E707101EA18280C207C18393F734
:10257000F7EFC207C183C5BF1E2189C593E70720B6
:102580001EA18280C207C18393F7F7DFC207C18310
:10259000C5BF0EA9828093F7E50F19C293E7150016
:1025A000C207C1831EA982805E290A2D42055D8D66
:1025B0006D8D220521810D8D13351500828041110D
:1025C00002C402C693D7C5012AC63EC4A247A205CB
:1025D000A18199CBB247D1073EC6B247884341019A
:1025E0006D8D3335A0008280B247C181E107EDB720
:1025F00023A8A182828003A7018389471021631148
:10260000F70214318D4763EDD7003C219A0637E776
:1026100000E09607D58F93F7F70F32972300F74026
:1026200054410547935756003317C70089CA93870B
:1026300007048A07B7E600E0B69798C382809387BD
:102640000706C5BF371702405C439146B18B6385CF
:10265000D700A1466382D706B7177A009387072071
:102660001CC1371602405C423707002013070701E0
:102670009183BD8BBA9794231C41B3D7D7005CC11B
:102680005442A1829D8ABA969422B3D6D70014C52B
:102690005442AD829D8A36971823B3D7E7005CC5B4
:1026A0005842398393763700138741803697182331
:1026B000B3D7E7021CC982805C435843C166C98313
:1026C000758FB7F6FF1F83A6C670BD8B890713965B
:1026D000160163480600C54601466392D702C94702
:1026E00039A88946638FD702BD46638ED702C1469B
:1026F000638ED702C54601466393D700C1471DEFDD
:102700003747024003270780418B05C737177A00F8
:1027100013070720B307F7021CC121D61C4185838C
:1027200081B701466DBF0546B547D1BF0146BD47DC
:10273000F9B737173D0013070790E9BFB7150240F7
:10274000D8559316F700D85563DF060411833D8BE7
:102750009306170037177A00130707203357D7025D
:1027600018C1D455A182BD8A8DE295463307D702A0
:10277000058318C137170240585714413D8B050790
:1027800033D7E60218C1184171B785456394B60086
:10279000E546E9BFBD456396B600D1463387E602FC
:1027A000C9BF8906E5BF3D8B9306170037177A002E
:1027B000130707203357D702F1B799C537170240DF
:1027C0005C4B5D8D48CB8280B7170240D84B1345D8
:1027D000F5FF798DC8CB828099C5371702401C4F11
:1027E0005D8D08CF8280B7170240984F1345F5FFE3
:1027F000798D88CF828099C5371702405C4F5D8DF7
:1028000048CF8280B7170240D84F1345F5FF798D26
:10281000C8CF8280B787014023A0070023A207000A
:1028200023A4070023A6070023A2070223A407026C
:102830003707C00023A607021307F77F98DF23AEF0
:102840000702828054411C45378601405842D58F8B
:10285000E17693860610758FD98F5845D98F184128
:10286000D98F1849D98F5829D98F5CC28280378770
:1028700001405C4309C593E707105CC3828093F76E
:10288000F7EFE5BFB78701409843719B98C3984322
:10289000598D88C38280B787014088430D89828023
:1028A000378701405C5709C593E787005CD7828072
:1028B000DD9BEDBF1C41378701401CC754475C417D
:1028C000104593F60680D18FD58F5445D58F144986
:1028D000D58F5CC782801C41378701405CD35C4147
:1028E0001CD754571C45504593F686F0D18FD58F91
:1028F0001449D58F5449D58F5CD78280B787014062
:1029000003A507088280B787014023A0A70882801B
:10291000B7870140DC5B7D8D3335A0008280B787AF
:10292000014088DF8280EFD2BF8C5A2DFD779387DC
:102930000704F98F5EAD89471EB1422D984589473E
:10294000420479712A894180630CF7046808C62122
:102950002EC6EFF03FCFB245B3349000930700206E
:10296000F2218504724794456316F6062183A94730
:10297000B387E70229471306D00FB3D7D7029507CD
:10298000C207C183B3D7E70213F717008583C207D5
:10299000C1839386E7FFC206C18222076374D60013
:1029A00001478947D98FFA21D98F2310F902BA211B
:1029B0009E21D98F5D8CDE215D8CDE255D8C856747
:1029C000938707805D8C42044180231E8900456106
:1029D0006FD05F8493975400B357F702294749BFDC
:1029E0005E2D89C593E707405EAD8280C207C18333
:1029F00093F7F7BFC207C183C5BF5E2101C6DD8D56
:102A00004EA1828093C5F5FFFD8DDDBF4EA582806E
:102A10000A256D8D3335A0008280EFD26FFD162917
:102A2000F577FD17F58FF621DA257971D58F1EA977
:102A30005625FD779387379FF58FD6212A842EC69A
:102A4000D58F9625D58FB625D58F5EA55E29C20771
:102A5000C18393F7F7CFD98F5EA96808EFF09FBEC7
:102A6000B747014093870780B245631EF402A2571F
:102A70006547B387E7029841930640060A07B3D734
:102A8000E70233D7D702B3F7D7021207920793872B
:102A90002703B3D7D702BD8BD98FC207C1831EA42A
:102AA00045616FD02FF79257E1B791C55E25096751
:102AB000D98F5EA582805A25F977FD17F98FD5BF8A
:102AC00093F5F51F4EA182800A216D8D3335A0004C
:102AD00082807D153335A00082808547631AF5001A
:102AE000EFD20FF1EFE0AFD51375F50F6FD08FF286
:102AF000054582800547631DE500EFD26FEFAE8785
:102B00003E85B28513F6F60FEFF08FA36FD08FF0EE
:102B1000114582800547631DE500EFD26FEDAE875A
:102B20003E85B28513F6F60FEFF00FA96FD08FEE4A
:102B3000114582808547631BF500638BA50099C50D
:102B40008D4763E5B70083A781CE1EA21145828021
:102B5000EFD20FEA938781C93284A847B04BEC4784
:102B60008146EF2010210AA011456FD0AFEA014540
:102B700082803C313821A207D98F1831A207082161
:102B8000D98FA2075D8D828093D785000CA11CB1DF
:102B900093D70501E1813CA12CB18280184DF91534
:102BA000791763F8E5003E254855B387B7023E958F
:102BB0008280014582809306B500814713D71700B4
:102BC00005059E07D98F0347F5FFBA9793F7F70FCF
:102BD000E316D5FE3E8582801C419DC7BE86FD451D
:102BE0001306A00385060387F6FF1378F70F63FB30
:102BF0000503E319C7FE038607002547130606FDF4
:102C00009375F60F6374B700FD5719A81387270053
:102C1000FD576397E6000947B287E347C7FE14C133
:102C20003E8582808147EDBF19E9814725459CC1DA
:102C30008280254581479CC141016FD0AFDDEFD235
:102C40002FDB1C4141112A84EDD798237DD35621D7
:102C5000FA23E390E6FE88332EC6A53D0589B245EA
:102C600069F91C40C9BFBC3DB82DA207D98F0D47DB
:102C70006318E500D839D4292207558F4207D98F28
:102C80003E85828093170601C183A183BCBDB0AD90
:102C900018218D476316F7004182D0A92182D0B94F
:102CA0008280EFD2EFD41309450310592A840831EA
:102CB0008546CA85EFF01FE685440DE510585C5047
:102CC000584C23020400B307F640814463FCE7003C
:102CD000343089476398F600083085463A96CA85AD
:102CE000EFF05FE326856FD0EFD21C59638BB702FC
:102CF000EFD20FD05C212A84AE8491EF0830854654
:102D0000268693054403EFF0FFDE814719C185470E
:102D1000FD5404D821A07137AA876DD13E856FD0AC
:102D20006FCF81473E858280EFD28FCCFD571CD973
:102D3000230205002A84553F914771E983443423D7
:102D4000834724231307B00EA204DD8C834744037A
:102D50006388E700E10793F7F70F05476362F70A17
:102D6000AD67938757A5639DF400B77500002146B2
:102D7000938585CD13056408EF20303E814741C916
:102D8000834704040347F403A207D98FC207C1870E
:102D9000130700206396E7060347140435C393071F
:102DA000F7FFF98FB1EF8347340403472404A207E8
:102DB000D98FB9C7834744040547FD176362F704F9
:102DC0008347640403475404A207D98F95CB8347F4
:102DD000840403477404A207D98F1307F0076369BB
:102DE000F70013054405EFF0DFD8C167636AF5000B
:102DF0000347B4048347A40422075D8F814701EB96
:102E00002D67130757A589476383E4008D473E85E7
:102E10006FD04FC0EFD22FBC054A8949637FBA08F3
:102E20001C4D2A89894963FAF5081C210947B28497
:102E30002E84638EE7080D476380E70C639F470786
:102E400013DA15005C512E9A93559A00BE95EFF057
:102E5000DFE9AA893DE1930A4903130B1A000588AB
:102E6000137AFA1F569A93F7F40F09CC83470A0096
:102E70008566C11613F7F70093974400F58FD98F35
:102E800093F7F70F2300FA0085472302F900832701
:102E9000490293559B004A85BE95EFF01FE5AA892C
:102EA00009ED137BFB1FDA9A01CC918093F4F40FA8
:102EB00023809A0085472302F9004E856FD0EFB436
:102EC00083C70A00A180BD88C19BDD8CD5B75C514A
:102ED000A181BE95EFF07FE1AA8965F10604930711
:102EE00049031374E41F3E9404A0C204C180A1806E
:102EF00004B023024901D1B75C519D81BE95EFF02A
:102F0000DFDEAA895DF90A04930749031374C41F1D
:102F10003E942285EFF0FFC59204B70500F0918042
:102F2000E98DC58D2285EFF03FC6E1B7854763F196
:102F3000B70CEFD24FAA184D2A8463F7E502182187
:102F40008946AE846303D7068D466301D708631DA7
:102F5000F70013D915005C512E9993559900BE9531
:102F6000EFF0BFD809C5FD573E856FD00FAA5C5062
:102F70009309190093D599001379F91F2299BE95E9
:102F8000228503494903EFF05FD671FD93F9F91FDC
:102F90004E94834744038588A207B3E7270199C06D
:102FA0009183D9B7D207D183C1B75C51A181BE95B6
:102FB000EFF0BFD34DF986041304440393F4E41FE8
:102FC00026941C301820A207D98F79BF5C519D81AF
:102FD000BE95EFF09FD141F91395240013044403EB
:102FE0001375C51F2295EFF0DFB8931745004DBF4D
:102FF00085473E858280B707200063E7F5000945D5
:10300000828009456FD06FA0EFD2EF9C93F7F50156
:10301000AE84E5FB832985002A8900412328B90075
:10302000639409041820894763F4E7001C5485EF72
:103030001A2493D75400E3F6E7FC1C54232CF90020
:1030400003278901232A39014DDF93D79400130404
:10305000440393F4F41FBA972694232CF900232EEB
:103060008900014545B7BE89035AA400FD5A054BA6
:10307000260ACE8563F844012285EFF03FB2232C67
:10308000A9007DBF03250900EFF05FEAAA89630A62
:103090005501E378ABF61C4CE375F5F6B384444177
:1030A000C9BF054585B7EFD20F932A8AAE8904417F
:1030B00091E903A90401630509009C4C6366F902C8
:1030C00005491DA02685EFF07FE685472A8463E643
:1030D000A700054422856FD04F93FD57630CF50A76
:1030E0009C4CE369F5FE4E89DC4899E30144DDB769
:1030F000631B39039C4C130419006363F4000944F7
:1031000003250A00A285EFF07FE20547E303E5FC13
:10311000FD576301F5081DCD9C486376F700984C78
:1031200063F3E7003E894A84854A7D5B9C4C050435
:103130006365F400E3FC2AFB094403250A00A28529
:10314000EFF0DFDE09C9E30655F963056505E31F06
:1031500024FD69BF69D87D56A2852685EFF09FCBF7
:103160001DE563900902DC4880C8ADD7984C7917FB
:10317000E362F7F6FD17DCC8DC3093E71700DCB03C
:1031800091BF2286CE852685EFF0DFC869DD8547B1
:10319000E311F5F47D543DBFEFD2EF838547AE8454
:1031A000004163F4B7061C4C63F1F506AA89B285A9
:1031B00001EE054AFD5A03A50900A685EFF01FD7C9
:1031C0002A8911E9014531A07D562285EFF09FC47F
:1031D0006DD16FD08F83630A4503630A550301469F
:1031E000A6852285EFF01FC36DF5184C5C48930649
:1031F000E7FF63F8D70085075CC85C3093E71700EA
:103200005CB0CA84E369E9FA75BF0945D9B70545D9
:10321000C9B7EFC25FFC011123A00500B2842EC61E
:10322000EFF09F9BAD47634A050293172500138576
:1032300041F33E950041B1470DC0B24593F4E40F10
:1032400080C11C2099CF0830EFF0BF88937715001C
:1032500089EB81C4118911C1A9473E8505616FC001
:10326000DFFA083023000400EFF03F8713771500E2
:103270008D4765F799C0118965F181452285EFF089
:10328000BFAA89476315F50404081309A41F130A8C
:10329000A423A6894A85EFF0DF8D23A0A900410968
:1032A0009109E3192AFF1389040185498C400D45D2
:1032B00091C52285EFF05FA763F1A9029104E3179E
:1032C00099FE11478547E30AE5F8B54779B71147F5
:1032D0008547E304E5F8E3EAA7FE834704040347D0
:1032E000F403A207D98FC207C18713070020E39E0A
:1032F000E7FC8349B4048347A404A209B3E9F900B5
:103300006397090013058405EFF0BF86AA898344FB
:103310004404232E340105479387F4FF24B093F728
:10332000F70F032A0403E362F7FA0349140493171F
:103330000901C1833EA4D1DB9307F9FFB3F727014D
:10334000C9F783476404834A5404A207B3E75701CB
:10335000939A070193DA0A41139B0A01135B0B014D
:10336000231464019377FB00ADF303458404834782
:10337000740422055D8D09E513054405EFF06FFF28
:103380008347340403472404A207D98F9DDFB38603
:10339000340313574B003E973697E368E5F2198DD7
:1033A000B3542503E36325F3370600105516E36E87
:1033B00096F041665516637296100D49529789042E
:1033C000D29758D404CC232044035CD00D47631714
:1033D000E90C8347F4050347E405A207D98FB3E757
:1033E000FA00C207C187E39207EE13050406EFF067
:1033F0004FF808D48A049384F41FA580E3E799EC7E
:10340000FD575CC81CC8930700F85CB08D47631B70
:10341000F9068347540603474406A207D98FC2071B
:10342000C18705476390E70693051A002285EFF0F0
:10343000DF8B29E9A302040013054403EFF06FF3C7
:10344000B757614193872725631EF5021305842131
:10345000EFF02FF2B7774161938727276314F502C6
:1034600013056422EFF0EFF0B70755AA631CF500CF
:103470001305C421EFF0EFEF48C813050422EFF065
:103480004FEF08C8138741831E23230024018507BB
:10349000C207C1831EA37EA08147C1B3E3070BE22D
:1034A000B6971CD489476314F9008604A9B73387FB
:1034B000E40285880583BA943DBF056955193339FF
:1034C00099000509E5BDEFC2BFD25C212A84CDE396
:1034D000583085476316F7081820A30204008D476B
:1034E0006310F708930444031306002081452685E2
:1034F000EFC01FD3930720054C48930620071307FE
:103500001004230AF402A30AF40293071006230B03
:10351000F402230CD420A30CD420A30DF420A30B7D
:10352000E402230DE4201305C421EFF0EFE50C487D
:1035300013050422EFF04FE51050930750050830B3
:103540002304F42205069307A0FA23030422A3030D
:103550000422A304F42210D88546A685EFF08FDB61
:10356000083001468145EFF0EFDC3335A00021A0A3
:10357000EFF02FF331DD6FC0FFC9EFC2DFC55C2173
:1035800041112A89B1E74A85EFF04FE1930A4903D7
:103590002328A902AA891306002081455685EFC079
:1035A0003FC80354A900A16726046363F4002164A3
:1035B0009304002063F184082285EF10605B2A8A5F
:1035C00015C122868145EFC0BFC5258081443DA03D
:1035D0002EC6EFF00FED8544B24555D52685410145
:1035E0006FC0BFC20580F9B703451900A2863386B4
:1035F0009900D285EFF00FD211E5A2948357A9006C
:10360000E3E4F4FE5285EF1060578357A900B384BA
:103610009740B3349000D9B785048357A900E3F6E7
:10362000F4FE03451900854633869900D685EFF0F0
:103630006FCE7DD1D9BF8144CDB7EFC2DFB9832929
:103640000501B70720002A8493890902044163E435
:10365000F900232C05001C4C114595C313FAF91FE2
:10366000AE8A63120A084C4885071CCC99E99A2453
:1036700093D7590063E9E706232C040011456FC076
:10368000DFB8BE2413D79900FD17F98FA9EF26855F
:10369000EFF0DF89054B2A896364AB000945C5B7A4
:1036A000FD576314F5000545D9BF9C4C6366F502D0
:1036B000E3840AFC4C482285EFF0FF9E2A891D45D1
:1036C000E30F09FAE30C69FDFD57E30EF9FCCA8527
:1036D0002685EFF09FEA61F9232A2401CA85268511
:1036E000EFF0CFCB08CC93844403D2942328340149
:1036F00044CC014569B7EFC2BFAC411181452A8C6A
:10370000832A0500EFF03F8FAA84631A0516FD5740
:103710009D69416A2326FC021309F00F1304F00F80
:10372000354B938989CC7D1A930B0C0283258C0130
:103730005685EFF08FDBAA8463130514832CCC012C
:1037400003CD0C0063010D1483C7BC009306500E1B
:1037500013F7F7032303EC006307DD00A18B81CB94
:10376000BD476309F700FD572326FC02E5A0BD47CE
:103770006315F70E8347BC0293F70704F1E39377D1
:103780000D04DDC783270C01137DFD0B2326FC02EE
:1037900003C9DC0083C7BC0103C7AC011304F00FED
:1037A000A207D98FD1EF03C40C0083A4CA008546B9
:1037B0001374F4037D143304640301471306F00FFC
:1037C000B387E9009C23E69783CD17009C23A20DC5
:1037D000B3EDFD00B5CE3AC6636E86066E85EF107A
:1037E000804693171400A6972AC48A2393051400D1
:1037F0002EC2EF104045A246639EA6049245324772
:10380000EE862E841306F00F0507E31B67FB83C7C4
:103810000C0093F7070481CB99C6060426941E205A
:103820001304F00F91EF1304FDFF1374F40F09A8B4
:103830006312A40383C7DC001304F00FE38C27F5A5
:1038400081456285EFF07FDFAA84E30105EE05A8DC
:10385000E38C4DFB1304F00FE5B711E46685EFF040
:103860008FB5630E25018347BC02858BE39D07EE70
:103870002D46DE856685EF20400EE31605EE268593
:1038800041016FC0BF979144DDBFEFC27F931C41E0
:103890004111AA8A3EC41306F0029306C00583872D
:1038A00005006384C70C6382D70C23A40A0094210B
:1038B000FD4763FED70A130AC00583A70A00014922
:1038C000130B0008C447930BF009130CF003930C7F
:1038D000E007130DC00FF14D9421139506014181AE
:1038E0006372DB0A63F8DB00138606021376F60FB9
:1038F00063EACD0803861500138425009376F60F3E
:103900006379DC2C63F6DC006355062C6363DD2CE5
:1039100022053695420541819305403AEF10402D2E
:10392000AA896308052AFD4763F1A7061306F0027A
:103930006309C510630745111306F007636BA60002
:10394000B7770000AA85138587D4EF20C03A6312A9
:1039500005281306F00F630EC926131619002696C4
:10396000231036010509A28585BF85050DBF930784
:1039700000F8A385FA0281455685EFF0CFE74101B3
:103980006FC0DF8713841500C1FA114B31A80504FD
:1039900083060400E38DC6FEE38B46FF93F6F60F25
:1039A000FD47014BE3F3D7FE930500021305E00248
:1039B00093161900631A0908A69623900600630A55
:1039C0000920814D1306000293961D00A6969622AB
:1039D00093851D006384C60863960D001306E002FC
:1039E0006394C600136B3B001306E00293161900A4
:1039F000A69683D6E6FF6385C6007D19E31809FE07
:103A00002D469305000213850A02EFC07F81A14C69
:103A1000014D814B2D4C93891D00860DA69D83DDA4
:103A20000D00638B0D04930700026388FD0093076C
:103A3000E0026397FD0263093903136B3B00CE8DEF
:103A4000D9BF1306F002A9B73386D4000356E6FFA8
:103A50006304B600E312A6F67D1999BFAE8DADB72B
:103A600063779D016312390963998C0719A06390EC
:103A70008C07136B3B00AD4C83C60A029307500EB4
:103A80006395F60095472380FA02A1476395FC00F1
:103A90008A0B93FBFB0F93F7CB00B1466387D700EC
:103AA00093F73B008D466390D70E136B2B00A385D5
:103AB0006A035685EFF03FC483C7BA0265C5114754
:103AC000E31FE5EA918BE39C07EA15454DBD6306CC
:103AD0003901136B3B00E36139FB8A0B93FBFB0F4E
:103AE000CA89AD4C214DA1BF9307F00763F9B70513
:103AF00013632B006E851AC6EF10E0149305403A4D
:103B0000EF1080089305F00FAA8D324363F7A502EA
:103B10009385FCFF6366BD00136B3B00668D05B7A4
:103B2000B385AA0121812380A502050D1A8BB385D7
:103B3000AA012380B503050D19B71A8B09C9B777F8
:103B40000000EE85138547D5EF20E01A11C5136BF1
:103B50003B00930DF005E1BF9385FDFBC205C181DC
:103B600065456365B50093EB2B00D1B79385FDF9EF
:103B7000C205C181E36DB5FA811DC20D93EB1B0037
:103B800093DD0D016DB793772B0095F393F71B0031
:103B900099C3136B0B0193FB4B00E38A0BF0136B80
:103BA0008B0031B7918BE39C07DC83C76A00C18B24
:103BB00089DFA2479385470383A70A0193F7F71F7D
:103BC000BE95A2478823EFF00F8A23A4AA00A285FE
:103BD000EDB119456DB3EFC22FDF0349B5020111F5
:103BE00099449377090AE5E783290500814A03A7E9
:103BF000C90093971A00BA979E23F1EF130A0502A2
:103C00002A843146D2854808EF10705793771900FF
:103C1000638F071293070004456BA305F402854BDD
:103C2000130B1B022D464C08528583A4C900EF10CC
:103C30001055954763E5770DDE879D461308900381
:103C4000BD4513F7F7001306070313D54700637448
:103C5000C800130677036400B388D4001387F6FF07
:103C60002380C80055C363EEF5081C101306E00757
:103C7000BA972386C7FE9305000281471305000803
:103C80001308F0091386E6FFF148B306FA0063F55E
:103C9000E7009422639CB6069D461306000263E784
:103CA000E60010103A960346C6FE05078507B305E1
:103CB000F400F0BDE3F3F6FE2285EFF0DFA3AA8463
:103CC00051E1850B93074006E39EFBF49D44268556
:103CD00005616FC0EFD2850A29BF8904C1461376FA
:103CE00017008607B2971396F70005836354060002
:103CF000B3C76701FD16E5F69A2065F33DBFDE8781
:103D0000E5BFBA86AA8735BF854685B7637FD500EC
:103D10006378D8009386060293F6F60F63E7D8001F
:103D200093861700E30AF6F6B6878507B9BF814A7E
:103D300085452285EFF07F90AA841DCD9147E387CA
:103D4000F4F871B79147E314F5F8A30524039377CA
:103D50002900054999C71389CA00B54A335959033F
:103D6000050981452285032B0400EFF0CFA8AA8422
:103D700071F5814A930B500E0C4C5A85EFE0FFF61B
:103D8000AA844DFD5C4C9C2363837701CDF3850AA7
:103D9000E31059FB7D196300090C1C489315590069
:103DA0002285B385B740EFF00FA5AA840DF15285A7
:103DB000EFE07FE0C16C9D6AAA8B3D4C354BFD1C4A
:103DC000938A8ACC0C4C4E85EFE03FF2AA84E31034
:103DD00005F09377F90FFD17B3876703584C03A6D7
:103DE000C9001378F90FA3067701A30587012306FD
:103DF0000700230D0700A30D070081468145638757
:103E0000960193961700B296962285073385BA00DD
:103E1000082193D886003A9514A1A300150191E2D8
:103E2000E6868505E39D65FD638696018607B29764
:103E30009E2399E313680804230007018547238222
:103E4000F90081452285EFF04FFFAA84E31105E8D0
:103E50007D19E31909F60C4C4E85EFE01FE9AA84A1
:103E6000E31705E6484C130600028145EFC04FBB3F
:103E7000484C2D46D285EF1090308347B402584C01
:103E8000E18B5CA785472382F90091B5EFC24FB65D
:103E900001112AC668082EC432C22ECEEFE0DFD34D
:103EA00063410504138741F39316250036970C43AD
:103EB000938741F3124689C523200700238005001C
:103EC000324711C7B69708B32300070098C30145CE
:103ED00011C601466C002800EFF0AFB305616FC05A
:103EE0006FB32D45E5BFEFC22FAE5D712EC62544E1
:103EF0006306050E9379F6033289AA844E866C0810
:103F00006800EFF00FB12A8461E9F2471305002041
:103F100045443ED0EF00D045AA8A69C1F247B24578
:103F2000C8C70810EFF07F962A8411E58307B10413
:103F300063D3070019449377C901638207125DC0F8
:103F400091476317F4080810EFF0FFC82A8449E18D
:103F500093E98900EFE0BFC12A84AA85725539052B
:103F6000EFE09FC27255A2855905EFE0FFC1724490
:103F7000725A0820D285EFE01FCF93070002A305F5
:103F8000FA00F2552A8901462285EFE0BFCFF257A9
:103F90000547238E0700A38E0700238F0700A38FFA
:103FA0000700F247D8A3630C09040146CA8508102C
:103FB00003AA0703EFF04F9E2A8419E97245D285C0
:103FC0007D19EFE09FD2F2472A8423A8270105C973
:103FD0005685EF00B03A19C023A004002285616124
:103FE0006FC00FA2834761021D44C58BF5F3937721
:103FF00049002144F1FF13798900E31D09F493F787
:10400000890099C393E9090472447259138B84029D
:104010001C5823A22403CA859CD00820EFE0BFC40B
:1040200088C42A8A1305C901EFE0BFB47E20C8C442
:10403000238834012A8980C0DEA0A388040023AE2F
:10404000040023AA04001306002081455A8593F931
:104050000902EFC0EF9C63930902014495BF2DF85C
:1040600083476102114413F707013DF313792900D7
:10407000E30709F8858B1D44A1FF51B7E30F09FC45
:10408000222423AA240185492604FD5B636E2403B0
:10409000014423AC44010DFC9377F91FDDDFF249A5
:1040A000D28509444E85EFE07FAF1DD113599900A9
:1040B0003306A900D0CC03C519008546DA85EFE0A8
:1040C0007FA33334A00029B78840D28533098940C3
:1040D000EFE0DFE52A8A63F6A900E31975FB0544E2
:1040E0004DBF09447DB7EFC2AF8D0111AE8A23A049
:1040F00006006C082A8432C6B68BEFE0FFB22A8A2B
:1041000035E1034A1401631F0A041C28858B638F61
:1041100007120329C4005C4832463309F94063732F
:1041200026013289130C0020130B8402930CF01F1C
:104130007D5D630909025C4813F7F71F6319070ED9
:104140007247835DA70013D79700FD1DB3FDED00F7
:10415000639A0D0281EF0844854763EEA700894703
:104160001CB8094A528505616FC04F890C4C084044
:10417000EFE0DFDBD5B76316A50185471CB8054A1C
:10418000D5B708CCF2470C4C3E853EC6EFE01FA1E8
:1041900079D5B389AD00B24763F02C07BA279354A1
:1041A0009900B3869D006374D700B304B741883388
:1041B000A6864E86D685EFE0FF9361F18307040162
:1041C00063DF0700484CB309354163FA9900A6093B
:1041D00013060020DA8533853A01EF10407AA604F1
:1041E00083A70B0033099940A69AA69723A0FB004A
:1041F0005C48BE9444C835BF504C6308360303077F
:104200000401635C070088338546DA85EFE09F9000
:104210002DF51C2893F7F7071CA8F24785464E8614
:104220008833DA85EFE01F8D29F9232E34014C48BD
:10423000CA8493F5F51FB307BC4063F32701BE841E
:104240002686DA955685EF10807359BF1D4A19BF2F
:10425000EFB21FFA41116C002A84EFE0FF9CAA879D
:1042600051E1182893760704B5CE62076187635041
:104270000702B247504C8546883393058402EFE02D
:104280007F89854725E11C2893F7F7071CA8EFE0F5
:104290001F8E2A890C503245EFE03FA5AA8739E1ED
:1042A0004450BC34A68593E70702BCB410440840D0
:1042B000EFE05F9D4C441385C401EFE0FF8CCA859D
:1042C00013856401EFE05F8C324585472389040044
:1042D000A38904005CA1EFF00F9F1828AA87137729
:1042E000F7FB18A83E8541016FB0DFF2EFB25FF037
:1042F00041112A84EFF0DFF501E96C002285EFE03F
:10430000BF9219E12320040041016FB0BFF0EFB26A
:104310009FEC4111AE846C002A84EFE0FF90AA89E3
:1043200071ED83491401639B090C5844637697002F
:104330001C28898B91E3BA845C48232A0400A1ECF1
:1043400081445C4858446377F70018285CC41367BD
:10435000070418A893F7F71FD5C3504C6300960ABB
:10436000830704011309840263DD0700B247854611
:10437000CA858833EFE00FFA49E91C2893F7F7075D
:104380001CA8B247854626868833CA85EFE08FF69B
:104390002DED44CCA5A032470359A7002609B9C387
:1043A000FD171387F4FF33572703B3D62703636B37
:1043B000D702330720410C4CF98F5CC89D8CC9D1C2
:1043C0007D5A854A5C48636999045C48A6975CC835
:1043D00093F7F41FB5D73245EFE04FFC09CDA58028
:1043E000AA9485B70C449DE52285EFE0DFCB854795
:1043F000AA856319F50089471CB889494E85410192
:104400006FB0BFE0FD576316F50085471CB88549BE
:10441000F5B708C40CCC65B7CA975CC81C28B38430
:104420002441898B81CB2285EFE0FFC7AA8519E55E
:10443000814461BF0840EFE07FAFAA85E38745FD77
:10444000E3FBBAFAB2479C4FE3F7F5FA0CCC9DBFF9
:10445000EFB21FD739712ACE6808AE84328936C4CC
:10446000EFE08FF72D446342050A93172500138769
:1044700041F3BA979C4399C3238007009379F50FC2
:104480004E85EFE08FE5937715000D44BDEF118960
:10449000294425ED81E49D64938444D0DC403ED6DC
:1044A00091E770108D454E85EFE0CFE8B257A166D9
:1044B0001387F7FF6374D700F98F99C385473ED6FA
:1044C00003CC140005479307FCFF93F7F70F6373C2
:1044D000F700054C03AD8400A1671307FDFF63756A
:1044E000F7009377FD0099C3130D0020C044B70770
:1044F000000163E087029307F4FFE18F99EB224705
:104500009307F01F63E9E7004544228521616FB0FE
:10451000FFCE0144EDB78420CA8D63180900A2477D
:1045200013F507E0B125AA8D65D1101885454E8594
:1045300002D8EFE02FE019C5631409006E853D2D08
:104540000544E1B793F784003EC8814B81EF4257A1
:104550009306F003BE8B63F7E600130717FC3AD807
:10456000930BF003C2561307F0076368D700631478
:1045700009006E852125394449BFC1669386F61F1F
:104580001307000863E486001357940013F6240011
:10459000858835C213B41400090432CC3ACAEFE05E
:1045A0000FDD2AC68D46C258524762466312D40AAE
:1045B000BA8509EF9D6613D51801938646CF054746
:1045C0008E2281C589066370B5048145B3D6E802A1
:1045D000417529051394260013047420AA96370503
:1045E000FF0F2580E3F5A6F8BA84814C2E871303CC
:1045F00000020D4A61A80944CDF04D44E31709F0CB
:104600006E85AD2B19B7060765BF860491A88D4648
:104610003304D402054A050405800D0485A033F552
:10462000860301C5FD160503850AB3D686033694B5
:1046300049A08946631CDA0CC166D51663FB660B7C
:1046400063150752139714009306000463E7E650BE
:10465000BA8401EF9D6613D5C800938646CE854483
:104660008E2281C58906E372B5FA33D49802856635
:10467000D516E3FE86F809040604094A1304F41F5C
:10468000931C5D00258093DC9C000543B3058403E7
:104690003255B38A6B009306F5FF3305A040D695DB
:1046A000E695AE96E98E0D458D8EE31AAAF6369301
:1046B000B69A93964400B3867641B695E3E9B8EA94
:1046C000B3068403338B9841330B6B40330BDB40D1
:1046D0008D46335B9B02E31EDAF4C166D51663ECAC
:1046E0006603E31607E80547E37397E813D714005A
:1046F000C1B58566D51663E06603E31A07E613972E
:10470000140093060008E3F5E6F495B50567551720
:10471000054AE36E67E51306002081456E8546CCA9
:104720001ACAEFB0FFAFB77500002D46938545D18B
:104730006E85EF10C024524309472386ED0023877E
:104740006D0042031353030113538300A3850D002F
:10475000A3869D00A3876D0023888D010D47E24845
:104760006313EA00014D13180D0113580801C255D7
:1047700013588800A388AD0123890D01416763F0B8
:10478000E534A389BD00C205C181A181238ABD0092
:104790006157B247A38AED001307F003238CED00A5
:1047A0007D57238DED00DE85A38C0D00A38D0D00BC
:1047B0001385CD01338D1701EFE00FBD0D47EA855D
:1047C0006316EA3013853D04EFE00FBCA285138524
:1047D0004D02EFE06FBB09472386ED0205472388B2
:1047E000ED0219472389ED02130700F82380ED0439
:1047F000B775000013079002A3860D0223870D02F0
:10480000A3870D02A3880D02A3890D022381ED0465
:104810004D46938505D213857D04EF10401693070E
:104820005005130DA0FA238FFD1EA38FAD1F8546E3
:104830005E86EE854E85EFE0EFADE31F05CE0D47BA
:10484000631AEA08854613866B00EE854E85EFE015
:104850006FAC1306002081456E85EFB07F9C130777
:10486000200593061004130620072380ED00A38083
:10487000ED00130710062381ED00A381DD002382E4
:10488000CD1EA382CD1E2383DD1EA383ED1E9305C3
:10489000FBFF13858D1EEFE02FAF094793075005EF
:1048A000854613867B00EE852386ED1EA3860D1EAE
:1048B00023870D1EA3870D1E238FFD1EA38FAD1F03
:1048C0004E85EFE02FA5854613861B00EE854E85AD
:1048D000EFE04FA4A24781456E8513F607E013DB96
:1048E0009700EFB0FF93E15705473EC66317EA0014
:1048F000B70B000193878BFF3EC602C47D5D8D47D9
:104900006312FA20E1572380FD00BD47A380AD016B
:104910002381AD01A381AD012382AD01A382AD014D
:104920002383AD01A383AD012384AD01A384AD0135
:104930002385AD01A385FD00A28BDE8863737B0117
:10494000DA88C6865686EE854E8546CAEFE08F9C8D
:10495000D248E31305BE1306002081456E8546CA82
:10496000EFB01F8CD248B38B1B41C69AE3970BFC68
:10497000A2479386170085473EC4E3E286F90D47B8
:104980006303EA00E684268463739B005A84A2864C
:104990005686EE854E85EFE0EF97E31F05B8818CD4
:1049A000A29AF5F00D47314B630CEA00C2564167FD
:1049B000194B63F7E6000947114B6303EA00054B07
:1049C000C247639307184257501885454E853ADC15
:1049D00002DEEFE02F96E31105B6D25B4167954604
:1049E000214A1307E7C333D64B036362C712930C04
:1049F0004006B3DC9B031306002081456E85EFB0B3
:104A00003F8213846D1C130D810313866D1F930465
:104A1000F00393074006130CF00363F77411832A25
:104A20000D0063E65701638DFA0EB38A9A0333874C
:104A3000540163E4EB006377970EB38A9B40A6852D
:104A4000228532C4EFE04F94D68513054400EFE091
:104A5000AF9333D784032246230E64FFB355470335
:104A60003377470393D6250093F606FCA30DB4FED7
:104A7000A30CE4FE33F78403D6940507558F230D6A
:104A8000E4FE1387F4FFB3568703B3D54603B3F6AA
:104A90004603A30FB4FE33778703A30ED4FE93D649
:104AA000250093F606FC0507558F230FE4FE630DE2
:104AB00086064104110D93074006A5F0B5A01385A5
:104AC0000D0246CAEFE04F8CD248D9B113857D0262
:104AD000EFE08F8B1317040141832183A38BED003B
:104AE000130700F82382ED02B77500001307900248
:104AF000238B8D002383ED024D46938545D313858B
:104B0000BD0221BBB2456E85EFE00F8835B5060AC0
:104B1000FD16137AFA0FE39806EC130AF00FC1BDE5
:104B2000DE8A31B7E39D0AF013075005238FED1E8F
:104B30001307A0FAA38FED1E85460146EE854E852C
:104B4000EFD05FFDE31A059E014681454E85EFD00B
:104B50007FFE0144E30405AAC5B2E31D06A4930643
:104B60000008BA84E3F3E6B019B4E31306A401B471
:104B7000EFB20FE8EF00305D6FB0CFE9EFB24FE773
:104B8000EF00105D6FB00FE91307F007AA876365A8
:104B9000A7004205418182804167014563F9E7042E
:104BA0001307403A6395E504C20709663968C18373
:104BB000C1451306D6CD1308883A3307A6400583AE
:104BC0002A9793162700B388060183D80800638BC1
:104BD000F80063E7F8003A86FD15E5F101458280AB
:104BE0003A85DDBFB9679387A73ABE968A2282804D
:104BF0009307F00763F8A7049307403A639BF50215
:104C000089661D6841469386D6CD81451308080301
:104C1000B387B6408583AE9713972700B308070183
:104C200083D80800638BA80063F7A800BE857D16B3
:104C300065F201458280BE86DDBF9D6793872703AD
:104C40003E970A238280C167637DF50493170501AF
:104C50000567C183636EE5021D67130747F71623D7
:104C6000A1C263EFD70211070356E7FF93558600F1
:104C70001376F60F3308D6006350050721466361AB
:104C8000B6021D661306C6D58A05B2959041028606
:104C90001D67130707D8E1B7158D06052A971E2350
:104CA0003E8582803385D7400589898FC207C183BD
:104CB000C5BFC117E5BF8117D5BF938707FDFDB7F6
:104CC0009917EDB7A107DDB7938707FBC5B77977CC
:104CD0001307073ABA97D9BFD9F10606329741B7F9
:104CE000EFB26FCF7971AA892E8A2165854532C6C8
:104CF00036C43AC2EFD03FB085457545EFD0DFAD41
:104D000037190140E1440D44E1774C08130509804F
:104D1000FC8226CE22CCEFD0EFD8930700024C08BD
:104D2000130509C0FC8226CE22CCEFD0AFD7A14715
:104D30004C08130509C0FC8226CE22CCEFD08FD6BA
:104D4000930700084C0837150140FC8226CE22CC80
:104D5000EFD04FD5A2461247324637440040930762
:104D600000200C10130504C02312D1022313F102FA
:104D70003AD423104103231131032316C102EFD08B
:104D80009FBA0546130504C08945EFD01FC7854566
:104D9000130504C0EFD0DFC445616FB00FC7EFB299
:104DA0002FC5411185454145EFD01FA389677C82FE
:104DB000C1473EC64C008D47371501403EC4EFD079
:104DC0006FCE41016FB00FC5EFB28FC24164AA84AC
:104DD0002E897D14CA852685EFD00FFD01C50145BA
:104DE0006FB04FC37D14420441806DF40545CDBFC3
:104DF000EFB26FBE4164B75400402A8A2E897D14F9
:104E000093890440B70502004E85EFD04FFB5DED5E
:104E1000854513850440EFD08FF4B7050300850561
:104E200013850440EFF05FFA55E593050002138502
:104E300004400146EFD02FF6B705070093852508FB
:104E400013850440EFF05FF851E54164B7090010A5
:104E5000B75400407D1493890908938A0440CE8595
:104E60005685EFD0CFF53DC9D28513850440EFD0EC
:104E70004FF2B70507009385450813850440EFF00E
:104E8000BFF429E94164B7090010B75400407D140C
:104E900093890908138A0440CE855285EFD02FF2FA
:104EA00039C1CA8513850440EFD0AFEEB7050700BE
:104EB0009385450813850440EFF01FF12A8419E912
:104EC000854513850440EFD02FEB31A07D144204BB
:104ED00041800DF8054422856FB02FB37D14420444
:104EE000418035FCC5BF7D144204418055F4DDB7D7
:104EF000EFB20FB0011185452145EFD0FF8D8545FB
:104F00000545EFD07F8D85450945EFD08FC6854596
:104F100037052000EFD03F8E37140140130504C041
:104F200093050030EFD00FC49307001071498D44F2
:104F30004C00130504C07C824AC626C4EFD08FB64D
:104F4000930700204C00130504C07C824AC626C487
:104F5000EFD04FB5E1679387076A3EC8B7070040B7
:104F60003ECAB70700043754004085073ECC0C0802
:104F7000916713050440FC86EFD00FCD1305044064
:104F80008545EFD04FDCEFF09FE193050008014528
:104F9000EFF01FE681450145EFF09FE51305400660
:104FA000F929930580050545EFF09FE49305000579
:104FB0000545EFF0FFE39305300F0945EFF05FE3A0
:104FC0009305000F0945EFF0BFE2A5450D45EFF051
:104FD0003FE299450145EFF0BFE181451145EFF012
:104FE0003FE181452145EFF0BFE09305000813053F
:104FF000B002EFF0FFDF930580082545EFF05FDF9B
:105000009305C0043145EFF0BFDE89453545EFF02B
:105010003FDE81454145EFF0BFDD81454545EFF07D
:105020003FDD81454945EFF0BFDCE1455D45EFF0EF
:105030003FDC89456145EFF0BFDB81456945EFF015
:105040003FDB81456D45EFF0BFDA9305800B13051B
:105050007002EFF0FFD99305800B1305A002EFF06B
:105060003FD9130540062129014505616FB08F9A8C
:10507000EFB20F980D899D8906058E05C98D5D4596
:10508000EFF01FD76FB00F99EFB28F9693B715005F
:10509000133515008607C98F93B515000A05C98F0A
:1050A0008E05DD8D0945EFF0BFD46FB0AF96EFB23E
:1050B0002F94930700033305F502B147B385F5023A
:1050C000C98D93F5C50F1145EFF09FD26FB08F9446
:1050D000EFB20F92930710021304100263E4A700CB
:1050E0001374F50FA2851305E002EFF07FD0A285BF
:1050F0001305F002EFF0DFCF6FB0CF91EFB24F8F1B
:10510000411185454145EFD02FED9D477C82C14738
:105110003EC64C008D47371501403EC4EFD08F98F6
:10512000854537150140EFD0EFA38945371501407C
:10513000EFD04FA3914537150140EFD0AFA2410109
:105140006FB04F8DEFB22F8941112A89130580224C
:105150002E8402C6EF00207FAA8913050020EF00ED
:10516000807E63810912AA84630E05100546CA85F4
:105170004E85EFE05FD71375F50F631505107400CA
:1051800013060020A6854E85EFE0FFF59844B7474B
:105190005645938777156317F70E375501001305AA
:1051A0000572EF00F0319848B7666374938666160F
:1051B000930747013386F4000C426388D500B75645
:1051C00053549386C6946395D5005C427107BA9791
:1051D0003389F400032709001CD0B76774619387F3
:1051E00047166311F70A3755010013050573EF00E1
:1051F000302DDC48CE28375501001CC09C4C1305CF
:1052000045741CCCDC4C8E075CC89E305EA0BE3062
:105210005EAC832749001CC41C50A1071CD0EF00C2
:10522000F0182E20375501001305C575EF00101832
:105230000C4C3755010013054577EF0030174C48EB
:10524000375501001305C578EF0050164E2037552D
:1052500001001305057AEF0070154E2C375501003B
:105260001305857BEF0090140C443755010013059E
:10527000857CEF00B0130C50375501001305C57D38
:10528000EF00D0124E85EFF06F864E85D125014597
:1052900041016FA09FF7EFA2BFF5138901F4E14729
:1052A000AA8441112E84032589006314F6068D47D4
:1052B00013D625003306F602832549007400EFE07B
:1052C0009FE203274900814763EC8700B2470D47FF
:1052D0008A07B3D7E7023EC6324541016FA09FF36C
:1052E0001033B386F4000D0790A29386170003468F
:1052F000F7FFC206C182A69690A2938637000346A6
:10530000D7FFC206C1829107C207A696C18390A2A9
:1053100065BF2E867400A685EFE0FFDC3247E37D93
:1053200087FA93170701C183198CE3F787FA33874C
:10533000F4008507C20723000700C183FDB7EFA271
:105340009FE92A8913058022FD2B938401F488C4E8
:105350002A8A0965CD2B88C0AA890965ED23C8C0B2
:10536000138401F463050A0E6383090E6301050EBD
:10537000938501F54A85EFF0FFDC938401F563180E
:10538000050C375501001305457FEF007013DE2C27
:1053900041476396E70A2D67130747C481460146D4
:1053A000930500200145EFF0BF9308440546CA85E8
:1053B000EFE07FB31375F50F59E937650100130569
:1053C0004580EF00F00F8C500844096AB74900404F
:1053D000EFE0FFF33765010013054581EF00500E44
:1053E000938909C0130B1A00D02C08408965054920
:1053F000EFF07FEAAA8A89454E85EFD06FE165DD3F
:105400001C404E85CA97982383C5F7FF09092207D8
:10541000D98DEFD0AFDFE31069FFE3874AFD376531
:10542000010013050582EF00B009854448400D23B3
:105430000840392B0844292B26856FA01FDD6147C2
:10544000E395E7F62D67130747C48D4689BF93049C
:10545000F00FE9BFB707002083A7070837177A00C6
:1054600013070720B3D7E70293F7F70F238CF182D6
:105470001307803EB387E702239BF1828280B7F750
:1054800000E0D8438146799BD8C303D761833306B4
:10549000A70290CBD4CB98431367070198C39843D6
:1054A0001367170298C3D843058B75DF9843799B20
:1054B00098C38280EFA2DFD32A841165011185454C
:1054C0001105EFD06FB1930700207C8237150140A2
:1054D0008D473EC44C00E147130505803EC6EFC032
:1054E0007FDC22C837440140B70708000C081305C9
:1054F00004803ECC02CA231E0100EFD00FD28545A6
:1055000013050480EFD06FDA05616FA0BFD0EFA262
:105510009FCCB7440140AE89328901449384048012
:10552000634524014A856FA05FCE9305000426855C
:10553000EFD08FD97DD9B387890083850700268571
:105540000504C205C181EFD0AFD7D9BF13878180D1
:105550001C43938681F73E95636BD500B786002088
:105560009386068063E5A60008C33E858280FD57CA
:10557000EDBF014863C5050E63DB06003306C0407E
:10558000B337C000B306D0401348F8FF9D8EB687EE
:105590003283AA8EAE88639F061663FBC50C4167F3
:1055A000636FE61CB70700016363F6369356860106
:1055B000E147170701001307A72736971823BA9763
:1055C000130700021D8F19CBB395E500B357F50003
:1055D0003313E600B3E8B700B31EE500135603012A
:1055E000B3D7C80293160301C18213D70E01B3F5D6
:1055F000C8023385F602C205B3E8E50063FAA800E5
:105600009A981387F7FF63E4680063E8A832BA87C3
:10561000B388A840B3D5C802C20E93DE0E01B3F81A
:10562000C802B386B602C208B3E8D80163FBD8004B
:105630009A981387F5FF63E56800F91563E3D800CE
:10564000BA85139507014D8D81456309080033051F
:10565000A040B337A000B305B0409D8D82803305D4
:10566000A040B337A000B305B0409D8D7D5829B749
:1056700001E605433353D30241676369E30EB7077D
:105680000001636AF32893568301E147170701007D
:105690001307071A36971823BA97130700021D8FAE
:1056A00065EB93180301B3866540135F030193D83C
:1056B0000801854513D70E01B3D7E603B3F6E60319
:1056C00033861703C206558F637AC7001A979386ED
:1056D000F7FF636467006365C726B687118FB3560B
:1056E000E703C20E93DE0E013377E703B388160398
:1056F00042073367D701637B17011A971386F6FFBA
:1057000063656700F91663631701B2861395070195
:10571000558D25BF63E1D504C16763E1F604B70782
:10572000000163E2F61E93D88601614797070100E6
:1057300093870710C69703C30700930700023A93A5
:10574000B3876740E9EB63ECB61C3335C5001345FE
:1057500015008145DDBD81450145C5BD9307F00FAD
:1057600063F2D71C93D886002147C9B71307F00FFF
:105770009A86E37D67F093568300A14701BF130724
:10578000F00FB286E377C7E293568600A14715B5BE
:105790003313E30033D6F500135F0301335EE603F2
:1057A000B396E500B357F500DD8E9318030193D847
:1057B0000801B31EE50093D50601B377E6033387EE
:1057C000C803C207CD8F63FBE7009A971306FEFF5D
:1057D00063E3671663F1E716791E9A97998F33D6BC
:1057E000E703139706014183B3F7E7033385C80244
:1057F00093960701D98E63FBA6009A969307F6FF4E
:1058000063E7661263F5A61279169A9693150E0150
:10581000898ED18D45B533576600B396F600D98E83
:10582000B3D8650013DF0601B3DEE803139E06015B
:1058300033536500135E0E01B395F500B365B300F5
:1058400013D705013316F600B3F8E8033303DE037C
:10585000C20833E7E800637B670036979388FEFF52
:105860006369D70C6377670CF91E36973307674077
:105870003353E703C205C1813377E703B3086E02F0
:105880004207D98D63FB1501B6951307F3FF63EE4D
:10589000D50863FC15097913B695C20E416FB3EEB6
:1058A0006E001307FFFFB3F6EE0013D30E01718FE6
:1058B0004182338EE602B3851541B386C602935802
:1058C0000E013307E302BA96C6963306C30263F3AA
:1058D000E6007A9613D306011A9663E2C502638541
:1058E000C5007685814595B341677D17F98EC2065F
:1058F000337EEE00B317F500F296E3F4D7FE13857E
:10590000FEFF814599B393D80601414705B59356EB
:105910000601C14779B993560301C14785BB81454B
:10592000054525B3B688014711B53A83BDB73E8614
:10593000F1BDC68E25BF328E55B5F9179A98C9B9F3
:10594000F9171A9761BB9387C180AA85884369A21A
:105950009387C180AA858843E1A801476314E600C4
:1059600001458280B307E5000507B386E5009C2367
:1059700083C6F6FFE384D7FE3385D7408280B3C762
:10598000A5008D8B3307C50081E78D4763EDC70008
:10599000AA87637EE508942185078505A38FD7FE36
:1059A000E3EBE7FE828093763500AA8789CA9421CB
:1059B00085078505A38FD7FE93F63700C5BF93767D
:1059C000C7FF138606FE63F0C70683A3050083A204
:1059D000450083AF850003AFC50083AE050103AE6C
:1059E000450103A3850183A8C5019385450223A032
:1059F000770003A8C5FF23A2570023A4F70123A61D
:105A0000E70123A8D70123AAC70123AC670023AE6F
:105A100017019387470223AE07FF75B7904191079F
:105A2000910523AEC7FEE3EBD7FEE3E6E7F68280FF
:105A3000DDC183A7C5FF411122C406C626C2138457
:105A4000C5FF63D307003E94AA84EF001013938729
:105A5000C1839C4381EF2322040023AE8182224430
:105A6000B2402685924441016F005011637EF400DC
:105A700014403307D4006396E7009843DC4336971D
:105A800018C05CC0D9BFBA87D84319C3E37DE4FE10
:105A900094433386D700631F86001040B29694C3A8
:105AA0003386D700E31DC7FA10435843B29694C318
:105AB000D8C375B76375C400B1479CC04DB71040DB
:105AC000B306C4006316D70014435843B29614C0FB
:105AD00058C0C0C369B78280011126CA93843500BB
